{
  "contractName": "CDAI",
  "abi": [
    {
      "inputs": [
        {
          "internalType": "address",
          "name": "underlying_",
          "type": "address"
        },
        {
          "internalType": "contract ComptrollerInterface",
          "name": "comptroller_",
          "type": "address"
        },
        {
          "internalType": "contract InterestRateModel",
          "name": "interestRateModel_",
          "type": "address"
        },
        {
          "internalType": "uint256",
          "name": "initialExchangeRateMantissa_",
          "type": "uint256"
        },
        {
          "internalType": "string",
          "name": "name_",
          "type": "string"
        },
        {
          "internalType": "string",
          "name": "symbol_",
          "type": "string"
        },
        {
          "internalType": "uint256",
          "name": "decimals_",
          "type": "uint256"
        }
      ],
      "payable": false,
      "stateMutability": "nonpayable",
      "type": "constructor"
    },
    {
      "anonymous": false,
      "inputs": [
        {
          "indexed": false,
          "internalType": "uint256",
          "name": "interestAccumulated",
          "type": "uint256"
        },
        {
          "indexed": false,
          "internalType": "uint256",
          "name": "borrowIndex",
          "type": "uint256"
        },
        {
          "indexed": false,
          "internalType": "uint256",
          "name": "totalBorrows",
          "type": "uint256"
        }
      ],
      "name": "AccrueInterest",
      "type": "event"
    },
    {
      "anonymous": false,
      "inputs": [
        {
          "indexed": true,
          "internalType": "address",
          "name": "owner",
          "type": "address"
        },
        {
          "indexed": true,
          "internalType": "address",
          "name": "spender",
          "type": "address"
        },
        {
          "indexed": false,
          "internalType": "uint256",
          "name": "amount",
          "type": "uint256"
        }
      ],
      "name": "Approval",
      "type": "event"
    },
    {
      "anonymous": false,
      "inputs": [
        {
          "indexed": false,
          "internalType": "address",
          "name": "borrower",
          "type": "address"
        },
        {
          "indexed": false,
          "internalType": "uint256",
          "name": "borrowAmount",
          "type": "uint256"
        },
        {
          "indexed": false,
          "internalType": "uint256",
          "name": "accountBorrows",
          "type": "uint256"
        },
        {
          "indexed": false,
          "internalType": "uint256",
          "name": "totalBorrows",
          "type": "uint256"
        }
      ],
      "name": "Borrow",
      "type": "event"
    },
    {
      "anonymous": false,
      "inputs": [
        {
          "indexed": false,
          "internalType": "uint256",
          "name": "error",
          "type": "uint256"
        },
        {
          "indexed": false,
          "internalType": "uint256",
          "name": "info",
          "type": "uint256"
        },
        {
          "indexed": false,
          "internalType": "uint256",
          "name": "detail",
          "type": "uint256"
        }
      ],
      "name": "Failure",
      "type": "event"
    },
    {
      "anonymous": false,
      "inputs": [
        {
          "indexed": false,
          "internalType": "address",
          "name": "liquidator",
          "type": "address"
        },
        {
          "indexed": false,
          "internalType": "address",
          "name": "borrower",
          "type": "address"
        },
        {
          "indexed": false,
          "internalType": "uint256",
          "name": "repayAmount",
          "type": "uint256"
        },
        {
          "indexed": false,
          "internalType": "address",
          "name": "cTokenCollateral",
          "type": "address"
        },
        {
          "indexed": false,
          "internalType": "uint256",
          "name": "seizeTokens",
          "type": "uint256"
        }
      ],
      "name": "LiquidateBorrow",
      "type": "event"
    },
    {
      "anonymous": false,
      "inputs": [
        {
          "indexed": false,
          "internalType": "address",
          "name": "minter",
          "type": "address"
        },
        {
          "indexed": false,
          "internalType": "uint256",
          "name": "mintAmount",
          "type": "uint256"
        },
        {
          "indexed": false,
          "internalType": "uint256",
          "name": "mintTokens",
          "type": "uint256"
        }
      ],
      "name": "Mint",
      "type": "event"
    },
    {
      "anonymous": false,
      "inputs": [
        {
          "indexed": false,
          "internalType": "address",
          "name": "oldAdmin",
          "type": "address"
        },
        {
          "indexed": false,
          "internalType": "address",
          "name": "newAdmin",
          "type": "address"
        }
      ],
      "name": "NewAdmin",
      "type": "event"
    },
    {
      "anonymous": false,
      "inputs": [
        {
          "indexed": false,
          "internalType": "contract ComptrollerInterface",
          "name": "oldComptroller",
          "type": "address"
        },
        {
          "indexed": false,
          "internalType": "contract ComptrollerInterface",
          "name": "newComptroller",
          "type": "address"
        }
      ],
      "name": "NewComptroller",
      "type": "event"
    },
    {
      "anonymous": false,
      "inputs": [
        {
          "indexed": false,
          "internalType": "contract InterestRateModel",
          "name": "oldInterestRateModel",
          "type": "address"
        },
        {
          "indexed": false,
          "internalType": "contract InterestRateModel",
          "name": "newInterestRateModel",
          "type": "address"
        }
      ],
      "name": "NewMarketInterestRateModel",
      "type": "event"
    },
    {
      "anonymous": false,
      "inputs": [
        {
          "indexed": false,
          "internalType": "address",
          "name": "oldPendingAdmin",
          "type": "address"
        },
        {
          "indexed": false,
          "internalType": "address",
          "name": "newPendingAdmin",
          "type": "address"
        }
      ],
      "name": "NewPendingAdmin",
      "type": "event"
    },
    {
      "anonymous": false,
      "inputs": [
        {
          "indexed": false,
          "internalType": "uint256",
          "name": "oldReserveFactorMantissa",
          "type": "uint256"
        },
        {
          "indexed": false,
          "internalType": "uint256",
          "name": "newReserveFactorMantissa",
          "type": "uint256"
        }
      ],
      "name": "NewReserveFactor",
      "type": "event"
    },
    {
      "anonymous": false,
      "inputs": [
        {
          "indexed": false,
          "internalType": "address",
          "name": "redeemer",
          "type": "address"
        },
        {
          "indexed": false,
          "internalType": "uint256",
          "name": "redeemAmount",
          "type": "uint256"
        },
        {
          "indexed": false,
          "internalType": "uint256",
          "name": "redeemTokens",
          "type": "uint256"
        }
      ],
      "name": "Redeem",
      "type": "event"
    },
    {
      "anonymous": false,
      "inputs": [
        {
          "indexed": false,
          "internalType": "address",
          "name": "payer",
          "type": "address"
        },
        {
          "indexed": false,
          "internalType": "address",
          "name": "borrower",
          "type": "address"
        },
        {
          "indexed": false,
          "internalType": "uint256",
          "name": "repayAmount",
          "type": "uint256"
        },
        {
          "indexed": false,
          "internalType": "uint256",
          "name": "accountBorrows",
          "type": "uint256"
        },
        {
          "indexed": false,
          "internalType": "uint256",
          "name": "totalBorrows",
          "type": "uint256"
        }
      ],
      "name": "RepayBorrow",
      "type": "event"
    },
    {
      "anonymous": false,
      "inputs": [
        {
          "indexed": false,
          "internalType": "address",
          "name": "admin",
          "type": "address"
        },
        {
          "indexed": false,
          "internalType": "uint256",
          "name": "reduceAmount",
          "type": "uint256"
        },
        {
          "indexed": false,
          "internalType": "uint256",
          "name": "newTotalReserves",
          "type": "uint256"
        }
      ],
      "name": "ReservesReduced",
      "type": "event"
    },
    {
      "anonymous": false,
      "inputs": [
        {
          "indexed": true,
          "internalType": "address",
          "name": "from",
          "type": "address"
        },
        {
          "indexed": true,
          "internalType": "address",
          "name": "to",
          "type": "address"
        },
        {
          "indexed": false,
          "internalType": "uint256",
          "name": "amount",
          "type": "uint256"
        }
      ],
      "name": "Transfer",
      "type": "event"
    },
    {
      "constant": false,
      "inputs": [],
      "name": "_acceptAdmin",
      "outputs": [
        {
          "internalType": "uint256",
          "name": "",
          "type": "uint256"
        }
      ],
      "payable": false,
      "stateMutability": "nonpayable",
      "type": "function"
    },
    {
      "constant": false,
      "inputs": [
        {
          "internalType": "uint256",
          "name": "reduceAmount",
          "type": "uint256"
        }
      ],
      "name": "_reduceReserves",
      "outputs": [
        {
          "internalType": "uint256",
          "name": "",
          "type": "uint256"
        }
      ],
      "payable": false,
      "stateMutability": "nonpayable",
      "type": "function"
    },
    {
      "constant": false,
      "inputs": [
        {
          "internalType": "contract ComptrollerInterface",
          "name": "newComptroller",
          "type": "address"
        }
      ],
      "name": "_setComptroller",
      "outputs": [
        {
          "internalType": "uint256",
          "name": "",
          "type": "uint256"
        }
      ],
      "payable": false,
      "stateMutability": "nonpayable",
      "type": "function"
    },
    {
      "constant": false,
      "inputs": [
        {
          "internalType": "contract InterestRateModel",
          "name": "newInterestRateModel",
          "type": "address"
        }
      ],
      "name": "_setInterestRateModel",
      "outputs": [
        {
          "internalType": "uint256",
          "name": "",
          "type": "uint256"
        }
      ],
      "payable": false,
      "stateMutability": "nonpayable",
      "type": "function"
    },
    {
      "constant": false,
      "inputs": [
        {
          "internalType": "address payable",
          "name": "newPendingAdmin",
          "type": "address"
        }
      ],
      "name": "_setPendingAdmin",
      "outputs": [
        {
          "internalType": "uint256",
          "name": "",
          "type": "uint256"
        }
      ],
      "payable": false,
      "stateMutability": "nonpayable",
      "type": "function"
    },
    {
      "constant": false,
      "inputs": [
        {
          "internalType": "uint256",
          "name": "newReserveFactorMantissa",
          "type": "uint256"
        }
      ],
      "name": "_setReserveFactor",
      "outputs": [
        {
          "internalType": "uint256",
          "name": "",
          "type": "uint256"
        }
      ],
      "payable": false,
      "stateMutability": "nonpayable",
      "type": "function"
    },
    {
      "constant": true,
      "inputs": [],
      "name": "accrualBlockNumber",
      "outputs": [
        {
          "internalType": "uint256",
          "name": "",
          "type": "uint256"
        }
      ],
      "payable": false,
      "stateMutability": "view",
      "type": "function"
    },
    {
      "constant": false,
      "inputs": [],
      "name": "accrueInterest",
      "outputs": [
        {
          "internalType": "uint256",
          "name": "",
          "type": "uint256"
        }
      ],
      "payable": false,
      "stateMutability": "nonpayable",
      "type": "function"
    },
    {
      "constant": true,
      "inputs": [],
      "name": "admin",
      "outputs": [
        {
          "internalType": "address payable",
          "name": "",
          "type": "address"
        }
      ],
      "payable": false,
      "stateMutability": "view",
      "type": "function"
    },
    {
      "constant": true,
      "inputs": [
        {
          "internalType": "address",
          "name": "owner",
          "type": "address"
        },
        {
          "internalType": "address",
          "name": "spender",
          "type": "address"
        }
      ],
      "name": "allowance",
      "outputs": [
        {
          "internalType": "uint256",
          "name": "",
          "type": "uint256"
        }
      ],
      "payable": false,
      "stateMutability": "view",
      "type": "function"
    },
    {
      "constant": false,
      "inputs": [
        {
          "internalType": "address",
          "name": "spender",
          "type": "address"
        },
        {
          "internalType": "uint256",
          "name": "amount",
          "type": "uint256"
        }
      ],
      "name": "approve",
      "outputs": [
        {
          "internalType": "bool",
          "name": "",
          "type": "bool"
        }
      ],
      "payable": false,
      "stateMutability": "nonpayable",
      "type": "function"
    },
    {
      "constant": true,
      "inputs": [
        {
          "internalType": "address",
          "name": "owner",
          "type": "address"
        }
      ],
      "name": "balanceOf",
      "outputs": [
        {
          "internalType": "uint256",
          "name": "",
          "type": "uint256"
        }
      ],
      "payable": false,
      "stateMutability": "view",
      "type": "function"
    },
    {
      "constant": false,
      "inputs": [
        {
          "internalType": "address",
          "name": "owner",
          "type": "address"
        }
      ],
      "name": "balanceOfUnderlying",
      "outputs": [
        {
          "internalType": "uint256",
          "name": "",
          "type": "uint256"
        }
      ],
      "payable": false,
      "stateMutability": "nonpayable",
      "type": "function"
    },
    {
      "constant": false,
      "inputs": [
        {
          "internalType": "uint256",
          "name": "borrowAmount",
          "type": "uint256"
        }
      ],
      "name": "borrow",
      "outputs": [
        {
          "internalType": "uint256",
          "name": "",
          "type": "uint256"
        }
      ],
      "payable": false,
      "stateMutability": "nonpayable",
      "type": "function"
    },
    {
      "constant": false,
      "inputs": [
        {
          "internalType": "address",
          "name": "account",
          "type": "address"
        }
      ],
      "name": "borrowBalanceCurrent",
      "outputs": [
        {
          "internalType": "uint256",
          "name": "",
          "type": "uint256"
        }
      ],
      "payable": false,
      "stateMutability": "nonpayable",
      "type": "function"
    },
    {
      "constant": true,
      "inputs": [
        {
          "internalType": "address",
          "name": "account",
          "type": "address"
        }
      ],
      "name": "borrowBalanceStored",
      "outputs": [
        {
          "internalType": "uint256",
          "name": "",
          "type": "uint256"
        }
      ],
      "payable": false,
      "stateMutability": "view",
      "type": "function"
    },
    {
      "constant": true,
      "inputs": [],
      "name": "borrowIndex",
      "outputs": [
        {
          "internalType": "uint256",
          "name": "",
          "type": "uint256"
        }
      ],
      "payable": false,
      "stateMutability": "view",
      "type": "function"
    },
    {
      "constant": true,
      "inputs": [],
      "name": "borrowRatePerBlock",
      "outputs": [
        {
          "internalType": "uint256",
          "name": "",
          "type": "uint256"
        }
      ],
      "payable": false,
      "stateMutability": "view",
      "type": "function"
    },
    {
      "constant": true,
      "inputs": [],
      "name": "comptroller",
      "outputs": [
        {
          "internalType": "contract ComptrollerInterface",
          "name": "",
          "type": "address"
        }
      ],
      "payable": false,
      "stateMutability": "view",
      "type": "function"
    },
    {
      "constant": true,
      "inputs": [],
      "name": "decimals",
      "outputs": [
        {
          "internalType": "uint256",
          "name": "",
          "type": "uint256"
        }
      ],
      "payable": false,
      "stateMutability": "view",
      "type": "function"
    },
    {
      "constant": false,
      "inputs": [],
      "name": "exchangeRateCurrent",
      "outputs": [
        {
          "internalType": "uint256",
          "name": "",
          "type": "uint256"
        }
      ],
      "payable": false,
      "stateMutability": "nonpayable",
      "type": "function"
    },
    {
      "constant": true,
      "inputs": [],
      "name": "exchangeRateStored",
      "outputs": [
        {
          "internalType": "uint256",
          "name": "",
          "type": "uint256"
        }
      ],
      "payable": false,
      "stateMutability": "view",
      "type": "function"
    },
    {
      "constant": true,
      "inputs": [
        {
          "internalType": "address",
          "name": "account",
          "type": "address"
        }
      ],
      "name": "getAccountSnapshot",
      "outputs": [
        {
          "internalType": "uint256",
          "name": "",
          "type": "uint256"
        },
        {
          "internalType": "uint256",
          "name": "",
          "type": "uint256"
        },
        {
          "internalType": "uint256",
          "name": "",
          "type": "uint256"
        },
        {
          "internalType": "uint256",
          "name": "",
          "type": "uint256"
        }
      ],
      "payable": false,
      "stateMutability": "view",
      "type": "function"
    },
    {
      "constant": true,
      "inputs": [],
      "name": "getCash",
      "outputs": [
        {
          "internalType": "uint256",
          "name": "",
          "type": "uint256"
        }
      ],
      "payable": false,
      "stateMutability": "view",
      "type": "function"
    },
    {
      "constant": true,
      "inputs": [],
      "name": "initialExchangeRateMantissa",
      "outputs": [
        {
          "internalType": "uint256",
          "name": "",
          "type": "uint256"
        }
      ],
      "payable": false,
      "stateMutability": "view",
      "type": "function"
    },
    {
      "constant": true,
      "inputs": [],
      "name": "interestRateModel",
      "outputs": [
        {
          "internalType": "contract InterestRateModel",
          "name": "",
          "type": "address"
        }
      ],
      "payable": false,
      "stateMutability": "view",
      "type": "function"
    },
    {
      "constant": true,
      "inputs": [],
      "name": "isCToken",
      "outputs": [
        {
          "internalType": "bool",
          "name": "",
          "type": "bool"
        }
      ],
      "payable": false,
      "stateMutability": "view",
      "type": "function"
    },
    {
      "constant": false,
      "inputs": [
        {
          "internalType": "address",
          "name": "borrower",
          "type": "address"
        },
        {
          "internalType": "uint256",
          "name": "repayAmount",
          "type": "uint256"
        },
        {
          "internalType": "contract CToken",
          "name": "cTokenCollateral",
          "type": "address"
        }
      ],
      "name": "liquidateBorrow",
      "outputs": [
        {
          "internalType": "uint256",
          "name": "",
          "type": "uint256"
        }
      ],
      "payable": false,
      "stateMutability": "nonpayable",
      "type": "function"
    },
    {
      "constant": false,
      "inputs": [
        {
          "internalType": "uint256",
          "name": "mintAmount",
          "type": "uint256"
        }
      ],
      "name": "mint",
      "outputs": [
        {
          "internalType": "uint256",
          "name": "",
          "type": "uint256"
        }
      ],
      "payable": false,
      "stateMutability": "nonpayable",
      "type": "function"
    },
    {
      "constant": true,
      "inputs": [],
      "name": "name",
      "outputs": [
        {
          "internalType": "string",
          "name": "",
          "type": "string"
        }
      ],
      "payable": false,
      "stateMutability": "view",
      "type": "function"
    },
    {
      "constant": true,
      "inputs": [],
      "name": "pendingAdmin",
      "outputs": [
        {
          "internalType": "address payable",
          "name": "",
          "type": "address"
        }
      ],
      "payable": false,
      "stateMutability": "view",
      "type": "function"
    },
    {
      "constant": false,
      "inputs": [
        {
          "internalType": "uint256",
          "name": "redeemTokens",
          "type": "uint256"
        }
      ],
      "name": "redeem",
      "outputs": [
        {
          "internalType": "uint256",
          "name": "",
          "type": "uint256"
        }
      ],
      "payable": false,
      "stateMutability": "nonpayable",
      "type": "function"
    },
    {
      "constant": false,
      "inputs": [
        {
          "internalType": "uint256",
          "name": "redeemAmount",
          "type": "uint256"
        }
      ],
      "name": "redeemUnderlying",
      "outputs": [
        {
          "internalType": "uint256",
          "name": "",
          "type": "uint256"
        }
      ],
      "payable": false,
      "stateMutability": "nonpayable",
      "type": "function"
    },
    {
      "constant": false,
      "inputs": [
        {
          "internalType": "uint256",
          "name": "repayAmount",
          "type": "uint256"
        }
      ],
      "name": "repayBorrow",
      "outputs": [
        {
          "internalType": "uint256",
          "name": "",
          "type": "uint256"
        }
      ],
      "payable": false,
      "stateMutability": "nonpayable",
      "type": "function"
    },
    {
      "constant": false,
      "inputs": [
        {
          "internalType": "address",
          "name": "borrower",
          "type": "address"
        },
        {
          "internalType": "uint256",
          "name": "repayAmount",
          "type": "uint256"
        }
      ],
      "name": "repayBorrowBehalf",
      "outputs": [
        {
          "internalType": "uint256",
          "name": "",
          "type": "uint256"
        }
      ],
      "payable": false,
      "stateMutability": "nonpayable",
      "type": "function"
    },
    {
      "constant": true,
      "inputs": [],
      "name": "reserveFactorMantissa",
      "outputs": [
        {
          "internalType": "uint256",
          "name": "",
          "type": "uint256"
        }
      ],
      "payable": false,
      "stateMutability": "view",
      "type": "function"
    },
    {
      "constant": false,
      "inputs": [
        {
          "internalType": "address",
          "name": "liquidator",
          "type": "address"
        },
        {
          "internalType": "address",
          "name": "borrower",
          "type": "address"
        },
        {
          "internalType": "uint256",
          "name": "seizeTokens",
          "type": "uint256"
        }
      ],
      "name": "seize",
      "outputs": [
        {
          "internalType": "uint256",
          "name": "",
          "type": "uint256"
        }
      ],
      "payable": false,
      "stateMutability": "nonpayable",
      "type": "function"
    },
    {
      "constant": true,
      "inputs": [],
      "name": "supplyRatePerBlock",
      "outputs": [
        {
          "internalType": "uint256",
          "name": "",
          "type": "uint256"
        }
      ],
      "payable": false,
      "stateMutability": "view",
      "type": "function"
    },
    {
      "constant": true,
      "inputs": [],
      "name": "symbol",
      "outputs": [
        {
          "internalType": "string",
          "name": "",
          "type": "string"
        }
      ],
      "payable": false,
      "stateMutability": "view",
      "type": "function"
    },
    {
      "constant": true,
      "inputs": [],
      "name": "totalBorrows",
      "outputs": [
        {
          "internalType": "uint256",
          "name": "",
          "type": "uint256"
        }
      ],
      "payable": false,
      "stateMutability": "view",
      "type": "function"
    },
    {
      "constant": false,
      "inputs": [],
      "name": "totalBorrowsCurrent",
      "outputs": [
        {
          "internalType": "uint256",
          "name": "",
          "type": "uint256"
        }
      ],
      "payable": false,
      "stateMutability": "nonpayable",
      "type": "function"
    },
    {
      "constant": true,
      "inputs": [],
      "name": "totalReserves",
      "outputs": [
        {
          "internalType": "uint256",
          "name": "",
          "type": "uint256"
        }
      ],
      "payable": false,
      "stateMutability": "view",
      "type": "function"
    },
    {
      "constant": true,
      "inputs": [],
      "name": "totalSupply",
      "outputs": [
        {
          "internalType": "uint256",
          "name": "",
          "type": "uint256"
        }
      ],
      "payable": false,
      "stateMutability": "view",
      "type": "function"
    },
    {
      "constant": false,
      "inputs": [
        {
          "internalType": "address",
          "name": "dst",
          "type": "address"
        },
        {
          "internalType": "uint256",
          "name": "amount",
          "type": "uint256"
        }
      ],
      "name": "transfer",
      "outputs": [
        {
          "internalType": "bool",
          "name": "",
          "type": "bool"
        }
      ],
      "payable": false,
      "stateMutability": "nonpayable",
      "type": "function"
    },
    {
      "constant": false,
      "inputs": [
        {
          "internalType": "address",
          "name": "src",
          "type": "address"
        },
        {
          "internalType": "address",
          "name": "dst",
          "type": "address"
        },
        {
          "internalType": "uint256",
          "name": "amount",
          "type": "uint256"
        }
      ],
      "name": "transferFrom",
      "outputs": [
        {
          "internalType": "bool",
          "name": "",
          "type": "bool"
        }
      ],
      "payable": false,
      "stateMutability": "nonpayable",
      "type": "function"
    },
    {
      "constant": true,
      "inputs": [],
      "name": "underlying",
      "outputs": [
        {
          "internalType": "address",
          "name": "",
          "type": "address"
        }
      ],
      "payable": false,
      "stateMutability": "view",
      "type": "function"
    }
  ],
  "bytecode": "0x60806040523480156200001157600080fd5b50604051620051aa380380620051aa833981810160405260e08110156200003757600080fd5b81516020830151604080850151606086015160808701805193519597949692959194919392820192846401000000008211156200007357600080fd5b9083019060208201858111156200008957600080fd5b8251640100000000811182820188101715620000a457600080fd5b82525081516020918201929091019080838360005b83811015620000d3578181015183820152602001620000b9565b50505050905090810190601f168015620001015780820380516001836020036101000a031916815260200191505b50604052602001805160405193929190846401000000008211156200012557600080fd5b9083019060208201858111156200013b57600080fd5b82516401000000008111828201881017156200015657600080fd5b82525081516020918201929091019080838360005b83811015620001855781810151838201526020016200016b565b50505050905090810190601f168015620001b35780820380516001836020036101000a031916815260200191505b50604052602001516001600055600480546001600160a01b031916331790556008869055915087905086868686868685858585858583620002265760405162461bcd60e51b81526004018080602001828103825260308152602001806200517a6030913960400191505060405180910390fd5b60006200023c876001600160e01b03620003dc16565b9050801562000292576040805162461bcd60e51b815260206004820152601a60248201527f53657474696e6720636f6d7074726f6c6c6572206661696c6564000000000000604482015290519081900360640190fd5b620002a56001600160e01b036200053f16565b600a55670de0b6b3a7640000600b55620002c8866001600160e01b036200054416565b90508015620003095760405162461bcd60e51b8152600401808060200182810382526022815260200180620051586022913960400191505060405180910390fd5b83516200031e90600190602087019062000755565b5082516200033490600290602086019062000755565b50506003555050601280546001600160a01b0319166001600160a01b038c81169190911791829055604080516318160ddd60e01b815290519290911694506318160ddd93506004808201935060209291829003018186803b1580156200039957600080fd5b505afa158015620003ae573d6000803e3d6000fd5b505050506040513d6020811015620003c557600080fd5b50620007f79e505050505050505050505050505050565b6004546000906001600160a01b031633146200041157620004096001603f6001600160e01b03620006e516565b90506200053a565b60065460408051623f1ee960e11b815290516001600160a01b0392831692851691627e3dd2916004808301926020929190829003018186803b1580156200045757600080fd5b505afa1580156200046c573d6000803e3d6000fd5b505050506040513d60208110156200048357600080fd5b5051620004d7576040805162461bcd60e51b815260206004820152601c60248201527f6d61726b6572206d6574686f642072657475726e65642066616c736500000000604482015290519081900360640190fd5b600680546001600160a01b0319166001600160a01b03858116918217909255604080519284168352602083019190915280517f7ac369dbd14fa5ea3f473ed67cc9d598964a77501540ba6751eb0b3decf5870d9281900390910190a160005b9150505b919050565b435b90565b60045460009081906001600160a01b031633146200057c5762000573600160426001600160e01b03620006e516565b9150506200053a565b6200058f6001600160e01b036200053f16565b600a5414620005af5762000573600a60416001600160e01b03620006e516565b600760009054906101000a90046001600160a01b03169050826001600160a01b0316632191f92a6040518163ffffffff1660e01b815260040160206040518083038186803b1580156200060157600080fd5b505afa15801562000616573d6000803e3d6000fd5b505050506040513d60208110156200062d57600080fd5b505162000681576040805162461bcd60e51b815260206004820152601c60248201527f6d61726b6572206d6574686f642072657475726e65642066616c736500000000604482015290519081900360640190fd5b600780546001600160a01b0319166001600160a01b03858116918217909255604080519284168352602083019190915280517fedffc32e068c7c95dfd4bdfd5c4d939a084d6b11c4199eac8436ed234d72f9269281900390910190a1600062000536565b60007f45b96fe442630264581b197e84bbada861235052c5a1aadfff9ea4e40a969aa08360108111156200071557fe5b83604d8111156200072257fe5b604080519283526020830191909152600082820152519081900360600190a18260108111156200074e57fe5b9392505050565b828054600181600116156101000203166002900490600052602060002090601f016020900481019282601f106200079857805160ff1916838001178555620007c8565b82800160010185558215620007c8579182015b82811115620007c8578251825591602001919060010190620007ab565b50620007d6929150620007da565b5090565b6200054191905b80821115620007d65760008155600101620007e1565b61495180620008076000396000f3fe608060405234801561001057600080fd5b506004361061028a5760003560e01c80638f840ddd1161015c578063c37f68e2116100ce578063f3fdb15a11610087578063f3fdb15a14610708578063f5e3c46214610710578063f851a44014610746578063f8f9da281461074e578063fca7820b14610756578063fe9c44ae146107735761028a565b8063c37f68e214610626578063c5ebeaec14610672578063db006a751461068f578063dd62ed3e146106ac578063e9c714f2146106da578063f2b3abbd146106e25761028a565b8063a9059cbb11610120578063a9059cbb14610586578063aa5af0fd146105b2578063ae9d70b0146105ba578063b2a02ff1146105c2578063b71d1a0c146105f8578063bd6d894d1461061e5761028a565b80638f840ddd1461052b57806395d89b411461053357806395dd91931461053b578063a0712d6814610561578063a6afed951461057e5761028a565b80633af9e66911610200578063675d972c116101b9578063675d972c146104c85780636c540baf146104d05780636f307dc3146104d857806370a08231146104e057806373acee9814610506578063852a12e31461050e5761028a565b80633af9e669146104475780633b1d21a21461046d5780634576b5db1461047557806347bd37181461049b5780635fe3b567146104a3578063601a0bf1146104ab5761028a565b806318160ddd1161025257806318160ddd146103a9578063182df0f5146103b157806323b872dd146103b95780632608f818146103ef578063267822471461041b578063313ce5671461043f5761028a565b806306fdde031461028f578063095ea7b31461030c5780630e7527021461034c578063173b99041461037b57806317bfdfbc14610383575b600080fd5b61029761077b565b6040805160208082528351818301528351919283929083019185019080838360005b838110156102d15781810151838201526020016102b9565b50505050905090810190601f1680156102fe5780820380516001836020036101000a031916815260200191505b509250505060405180910390f35b6103386004803603604081101561032257600080fd5b506001600160a01b038135169060200135610808565b604080519115158252519081900360200190f35b6103696004803603602081101561036257600080fd5b5035610875565b60408051918252519081900360200190f35b610369610888565b6103696004803603602081101561039957600080fd5b50356001600160a01b031661088e565b610369610941565b610369610947565b610338600480360360608110156103cf57600080fd5b506001600160a01b038135811691602081013590911690604001356109aa565b6103696004803603604081101561040557600080fd5b506001600160a01b038135169060200135610a10565b610423610a23565b604080516001600160a01b039092168252519081900360200190f35b610369610a32565b6103696004803603602081101561045d57600080fd5b50356001600160a01b0316610a38565b610369610aa6565b6103696004803603602081101561048b57600080fd5b50356001600160a01b0316610ab5565b610369610c04565b610423610c0a565b610369600480360360208110156104c157600080fd5b5035610c19565b610369610ca1565b610369610ca7565b610423610cad565b610369600480360360208110156104f657600080fd5b50356001600160a01b0316610cbc565b610369610cd7565b6103696004803603602081101561052457600080fd5b5035610d81565b610369610d8c565b610297610d92565b6103696004803603602081101561055157600080fd5b50356001600160a01b0316610dea565b6103696004803603602081101561057757600080fd5b5035610e47565b610369610e52565b6103386004803603604081101561059c57600080fd5b506001600160a01b03813516906020013561124b565b6103696112b0565b6103696112b6565b610369600480360360608110156105d857600080fd5b506001600160a01b03813581169160208101359091169060400135611581565b6103696004803603602081101561060e57600080fd5b50356001600160a01b0316611832565b6103696118b9565b61064c6004803603602081101561063c57600080fd5b50356001600160a01b0316611964565b604080519485526020850193909352838301919091526060830152519081900360800190f35b6103696004803603602081101561068857600080fd5b50356119f9565b610369600480360360208110156106a557600080fd5b5035611a04565b610369600480360360408110156106c257600080fd5b506001600160a01b0381358116916020013516611a0f565b610369611a3a565b610369600480360360208110156106f857600080fd5b50356001600160a01b0316611b29565b610423611b63565b6103696004803603606081101561072657600080fd5b506001600160a01b03813581169160208101359160409091013516611b72565b610423611b7f565b610369611b8e565b6103696004803603602081101561076c57600080fd5b5035611c6a565b610338611ca4565b60018054604080516020600284861615610100026000190190941693909304601f810184900484028201840190925281815292918301828280156108005780601f106107d557610100808354040283529160200191610800565b820191906000526020600020905b8154815290600101906020018083116107e357829003601f168201915b505050505081565b3360008181526010602090815260408083206001600160a01b03871680855290835281842086905581518681529151939493909284927f8c5be1e5ebec7d5bd14f71427d1e84f3dd0314c0f7b2291e5b200ac8c7c3b925929081900390910190a360019150505b92915050565b600061088082611ca9565b90505b919050565b60095481565b60008054600101808255816108a1610e52565b146108ec576040805162461bcd60e51b81526020600482015260166024820152751858d8dc9d59481a5b9d195c995cdd0819985a5b195960521b604482015290519081900360640190fd5b6108f583610dea565b91505b600054811461093b576040805162461bcd60e51b815260206004820152600a6024820152691c994b595b9d195c995960b21b604482015290519081900360640190fd5b50919050565b600e5481565b6000806000610954611ce5565b9092509050600082600381111561096757fe5b146109a35760405162461bcd60e51b81526004018080602001828103825260358152602001806148906035913960400191505060405180910390fd5b9150505b90565b60008054600101808255816109c133878787611d93565b1491505b6000548114610a08576040805162461bcd60e51b815260206004820152600a6024820152691c994b595b9d195c995960b21b604482015290519081900360640190fd5b509392505050565b6000610a1c83836120a1565b9392505050565b6005546001600160a01b031681565b60035481565b6000610a426145e9565b6040518060200160405280610a556118b9565b90526001600160a01b0384166000908152600f6020526040812054919250908190610a8190849061212b565b90925090506000826003811115610a9457fe5b14610a9e57600080fd5b949350505050565b6000610ab061217f565b905090565b6004546000906001600160a01b03163314610add57610ad66001603f6121ff565b9050610883565b60065460408051623f1ee960e11b815290516001600160a01b0392831692851691627e3dd2916004808301926020929190829003018186803b158015610b2257600080fd5b505afa158015610b36573d6000803e3d6000fd5b505050506040513d6020811015610b4c57600080fd5b5051610b9f576040805162461bcd60e51b815260206004820152601c60248201527f6d61726b6572206d6574686f642072657475726e65642066616c736500000000604482015290519081900360640190fd5b600680546001600160a01b0319166001600160a01b03858116918217909255604080519284168352602083019190915280517f7ac369dbd14fa5ea3f473ed67cc9d598964a77501540ba6751eb0b3decf5870d9281900390910190a160009392505050565b600c5481565b6006546001600160a01b031681565b6000805460010180825581610c2c610e52565b90508015610c5257610c4a816010811115610c4357fe5b60306121ff565b9250506108f8565b610c5b84612265565b925050600054811461093b576040805162461bcd60e51b815260206004820152600a6024820152691c994b595b9d195c995960b21b604482015290519081900360640190fd5b60085481565b600a5481565b6012546001600160a01b031681565b6001600160a01b03166000908152600f602052604090205490565b6000805460010180825581610cea610e52565b14610d35576040805162461bcd60e51b81526020600482015260166024820152751858d8dc9d59481a5b9d195c995cdd0819985a5b195960521b604482015290519081900360640190fd5b600c5491506000548114610d7d576040805162461bcd60e51b815260206004820152600a6024820152691c994b595b9d195c995960b21b604482015290519081900360640190fd5b5090565b6000610880826123e3565b600d5481565b6002805460408051602060018416156101000260001901909316849004601f810184900484028201840190925281815292918301828280156108005780601f106107d557610100808354040283529160200191610800565b6000806000610df884612420565b90925090506000826003811115610e0b57fe5b14610a1c5760405162461bcd60e51b81526004018080602001828103825260378152602001806147646037913960400191505060405180910390fd5b6000610880826124d4565b6000610e5c6145fc565b6007546001600160a01b03166315f24053610e7561217f565b600c54600d546040518463ffffffff1660e01b8152600401808481526020018381526020018281526020019350505050604080518083038186803b158015610ebc57600080fd5b505afa158015610ed0573d6000803e3d6000fd5b505050506040513d6040811015610ee657600080fd5b50805160209182015160408401819052918301526601c6bf526340001015610f55576040805162461bcd60e51b815260206004820152601c60248201527f626f72726f772072617465206973206162737572646c79206869676800000000604482015290519081900360640190fd5b602081015115610f7857610f7060056002836020015161250f565b9150506109a7565b610f80612575565b60608201819052600a54610f949190612579565b6080830181905282826003811115610fa857fe5b6003811115610fb357fe5b9052506000905081516003811115610fc757fe5b14610fce57fe5b610fee60405180602001604052808360400151815250826080015161259c565b60a083018190528282600381111561100257fe5b600381111561100d57fe5b905250600090508151600381111561102157fe5b1461104257610f70600960068360000151600381111561103d57fe5b61250f565b6110528160a00151600c5461212b565b60c083018190528282600381111561106657fe5b600381111561107157fe5b905250600090508151600381111561108557fe5b146110a157610f70600960018360000151600381111561103d57fe5b6110b18160c00151600c54612604565b60e08301819052828260038111156110c557fe5b60038111156110d057fe5b90525060009050815160038111156110e457fe5b1461110057610f70600960048360000151600381111561103d57fe5b61112160405180602001604052806009548152508260c00151600d5461262a565b61010083018190528282600381111561113657fe5b600381111561114157fe5b905250600090508151600381111561115557fe5b1461117157610f70600960058360000151600381111561103d57fe5b6111848160a00151600b54600b5461262a565b61012083018190528282600381111561119957fe5b60038111156111a457fe5b90525060009050815160038111156111b857fe5b146111d457610f70600960038360000151600381111561103d57fe5b606080820151600a55610120820151600b81905560e0830151600c819055610100840151600d5560c08401516040805191825260208201939093528083019190915290517f875352fb3fadeb8c0be7cbbe8ff761b308fa7033470cd0287f02f3436fd76cb9929181900390910190a1600091505090565b600080546001018082558161126233338787611d93565b1491505b60005481146112a9576040805162461bcd60e51b815260206004820152600a6024820152691c994b595b9d195c995960b21b604482015290519081900360640190fd5b5092915050565b600b5481565b6000806112c1610947565b60075490915060009081906001600160a01b03166315f240536112e261217f565b600c54600d546040518463ffffffff1660e01b8152600401808481526020018381526020018281526020019350505050604080518083038186803b15801561132957600080fd5b505afa15801561133d573d6000803e3d6000fd5b505050506040513d604081101561135357600080fd5b5080516020909101519092509050811561139e5760405162461bcd60e51b81526004018080602001828103825260318152602001806148036031913960400191505060405180910390fd5b60006113a86145e9565b6113c2604051806020016040528087815250600e5461259c565b909250905060008260038111156113d557fe5b146114115760405162461bcd60e51b815260040180806020018281038252603181526020018061479b6031913960400191505060405180910390fd5b600061141b6145e9565b611427600c5484612686565b9092509050600082600381111561143a57fe5b146114765760405162461bcd60e51b81526004018080602001828103825260318152602001806146df6031913960400191505060405180910390fd5b60006114806145e9565b6114b06040518060200160405280670de0b6b3a764000081525060405180602001604052806009548152506126e5565b909250905060008260038111156114c357fe5b146114ff5760405162461bcd60e51b815260040180806020018281038252603c815260200180614854603c913960400191505060405180910390fd5b60006115096145e9565b61152260405180602001604052808b815250848761271f565b9092509050600082600381111561153557fe5b146115715760405162461bcd60e51b81526004018080602001828103825260318152602001806147336031913960400191505060405180910390fd5b519a505050505050505050505090565b600080546001018082556006546040805163d02f735160e01b81523060048201523360248201526001600160a01b03888116604483015287811660648301526084820187905291518593929092169163d02f73519160a48082019260209290919082900301818787803b1580156115f757600080fd5b505af115801561160b573d6000803e3d6000fd5b505050506040513d602081101561162157600080fd5b505190508015611640576116386003601b8361250f565b9250506109c5565b856001600160a01b0316856001600160a01b03161415611666576116386006601c6121ff565b6001600160a01b0385166000908152600f60205260408120548190819061168d9088612579565b909350915060008360038111156116a057fe5b146116c3576116b86009601a85600381111561103d57fe5b9550505050506109c5565b6001600160a01b0389166000908152600f60205260409020546116e69088612604565b909350905060008360038111156116f957fe5b14611711576116b86009601985600381111561103d57fe5b6001600160a01b038089166000818152600f60209081526040808320879055938d168083529184902085905583518b815293519193600080516020614834833981519152929081900390910190a360065460408051636d35bf9160e01b81523060048201523360248201526001600160a01b038c811660448301528b81166064830152608482018b905291519190921691636d35bf919160a480830192600092919082900301818387803b1580156117c857600080fd5b505af11580156117dc573d6000803e3d6000fd5b50600092506117e9915050565b9550505050506000548114610a08576040805162461bcd60e51b815260206004820152600a6024820152691c994b595b9d195c995960b21b604482015290519081900360640190fd5b6004546000906001600160a01b0316331461185357610ad6600160456121ff565b600580546001600160a01b038481166001600160a01b0319831681179093556040805191909216808252602082019390935281517fca4f2f25d0898edd99413412fb94012f9e54ec8142f9b093e7720646a95b16a9929181900390910190a16000610a1c565b60008054600101808255816118cc610e52565b14611917576040805162461bcd60e51b81526020600482015260166024820152751858d8dc9d59481a5b9d195c995cdd0819985a5b195960521b604482015290519081900360640190fd5b61191f610947565b91506000548114610d7d576040805162461bcd60e51b815260206004820152600a6024820152691c994b595b9d195c995960b21b604482015290519081900360640190fd5b6001600160a01b0381166000908152600f602052604081205481908190819081808061198f89612420565b9350905060008160038111156119a157fe5b146119bf5760095b9750600096508695508594506119f29350505050565b6119c7611ce5565b9250905060008160038111156119d957fe5b146119e55760096119a9565b5060009650919450925090505b9193509193565b600061088082612769565b6000610880826127a4565b6001600160a01b03918216600090815260106020908152604080832093909416825291909152205490565b6005546000906001600160a01b031633141580611a55575033155b15611a6d57611a66600160006121ff565b90506109a7565b60048054600580546001600160a01b038082166001600160a01b031980861682179687905590921690925560408051938316808552949092166020840152815190927ff9ffabca9c8276e99321725bcb43fb076a6c66a54b7f21c4e8146d8519b417dc92908290030190a1600554604080516001600160a01b038085168252909216602083015280517fca4f2f25d0898edd99413412fb94012f9e54ec8142f9b093e7720646a95b16a99281900390910190a160009250505090565b600080611b34610e52565b90508015611b5a57611b52816010811115611b4b57fe5b60406121ff565b915050610883565b610a1c836127da565b6007546001600160a01b031681565b6000610a9e84848461294a565b6004546001600160a01b031681565b600754600090819081906001600160a01b03166315f24053611bae61217f565b600c54600d546040518463ffffffff1660e01b8152600401808481526020018381526020018281526020019350505050604080518083038186803b158015611bf557600080fd5b505afa158015611c09573d6000803e3d6000fd5b505050506040513d6040811015611c1f57600080fd5b508051602090910151909250905081156109a35760405162461bcd60e51b81526004018080602001828103825260378152602001806147cc6037913960400191505060405180910390fd5b6000805460010180825581611c7d610e52565b90508015611c9b57610c4a816010811115611c9457fe5b60466121ff565b610c5b84612a52565b600181565b6000805460010180825581611cbc610e52565b90508015611cda57610c4a816010811115611cd357fe5b60366121ff565b610c5b333386612af5565b600080600e5460001415611d00575050600854600090611d8f565b6000611d0a61217f565b90506000611d166145e9565b6000611d2784600c54600d54612f48565b935090506000816003811115611d3957fe5b14611d4d57945060009350611d8f92505050565b611d5983600e54612f86565b925090506000816003811115611d6b57fe5b14611d7f57945060009350611d8f92505050565b5051600094509250611d8f915050565b9091565b600654604080516317b9b84b60e31b81523060048201526001600160a01b03868116602483015285811660448301526064820185905291516000938493169163bdcdc25891608480830192602092919082900301818787803b158015611df857600080fd5b505af1158015611e0c573d6000803e3d6000fd5b505050506040513d6020811015611e2257600080fd5b505190508015611e4157611e396003604a8361250f565b915050610a9e565b836001600160a01b0316856001600160a01b03161415611e6757611e396002604b6121ff565b60006001600160a01b038781169087161415611e865750600019611eae565b506001600160a01b038086166000908152601060209081526040808320938a16835292905220545b600080600080611ebe8589612579565b90945092506000846003811115611ed157fe5b14611eef57611ee26009604b6121ff565b9650505050505050610a9e565b6001600160a01b038a166000908152600f6020526040902054611f129089612579565b90945091506000846003811115611f2557fe5b14611f3657611ee26009604c6121ff565b6001600160a01b0389166000908152600f6020526040902054611f599089612604565b90945090506000846003811115611f6c57fe5b14611f7d57611ee26009604d6121ff565b6001600160a01b03808b166000908152600f6020526040808220859055918b168152208190556000198514611fd5576001600160a01b03808b166000908152601060209081526040808320938f168352929052208390555b886001600160a01b03168a6001600160a01b03166000805160206148348339815191528a6040518082815260200191505060405180910390a36006546040805163352b4a3f60e11b81523060048201526001600160a01b038d811660248301528c81166044830152606482018c905291519190921691636a56947e91608480830192600092919082900301818387803b15801561207157600080fd5b505af1158015612085573d6000803e3d6000fd5b5060009250612092915050565b9b9a5050505050505050505050565b60008054600101808255816120b4610e52565b905080156120da576120d28160108111156120cb57fe5b60356121ff565b925050611266565b6120e5338686612af5565b92505060005481146112a9576040805162461bcd60e51b815260206004820152600a6024820152691c994b595b9d195c995960b21b604482015290519081900360640190fd5b60008060006121386145e9565b612142868661259c565b9092509050600082600381111561215557fe5b146121665750915060009050612178565b600061217182613036565b9350935050505b9250929050565b601254604080516370a0823160e01b815230600482015290516000926001600160a01b03169182916370a0823191602480820192602092909190829003018186803b1580156121cd57600080fd5b505afa1580156121e1573d6000803e3d6000fd5b505050506040513d60208110156121f757600080fd5b505191505090565b60007f45b96fe442630264581b197e84bbada861235052c5a1aadfff9ea4e40a969aa083601081111561222e57fe5b83604d81111561223a57fe5b604080519283526020830191909152600082820152519081900360600190a1826010811115610a1c57fe5b600454600090819081906001600160a01b031633146122935761228a600160316121ff565b92505050610883565b61229b612575565b600a54146122af5761228a600a60336121ff565b836122b861217f565b10156122ca5761228a600e60326121ff565b600d548411156122e05761228a600260346121ff565b50600d54838103908111156123265760405162461bcd60e51b81526004018080602001828103825260248152602001806148f96024913960400191505060405180910390fd5b600d819055600454612341906001600160a01b031685613045565b9150600082601081111561235157fe5b1461238d5760405162461bcd60e51b81526004018080602001828103825260238152602001806147106023913960400191505060405180910390fd5b600454604080516001600160a01b03909216825260208201869052818101839052517f3bad0c59cf2f06e7314077049f48a93578cd16f5ef92329f1dab1420a99c177e9181900360600190a16000949350505050565b60008054600101808255816123f6610e52565b9050801561241457610c4a81601081111561240d57fe5b60276121ff565b610c5b33600086613101565b6001600160a01b0381166000908152601160205260408120805482918291829182916124575750600094508493506124cf92505050565b6124678160000154600b5461360a565b9094509250600084600381111561247a57fe5b1461248f5750919350600092506124cf915050565b61249d838260010154613649565b909450915060008460038111156124b057fe5b146124c55750919350600092506124cf915050565b5060009450925050505b915091565b60008054600101808255816124e7610e52565b9050801561250557610c4a8160108111156124fe57fe5b601e6121ff565b610c5b3385613674565b60007f45b96fe442630264581b197e84bbada861235052c5a1aadfff9ea4e40a969aa084601081111561253e57fe5b84604d81111561254a57fe5b604080519283526020830191909152818101859052519081900360600190a1836010811115610a9e57fe5b4390565b600080838311612590575060009050818303612178565b50600390506000612178565b60006125a66145e9565b6000806125b786600001518661360a565b909250905060008260038111156125ca57fe5b146125e957506040805160208101909152600081529092509050612178565b60408051602081019091529081526000969095509350505050565b60008083830184811061261c57600092509050612178565b506002915060009050612178565b60008060006126376145e9565b612641878761259c565b9092509050600082600381111561265457fe5b14612665575091506000905061267e565b61267761267182613036565b86612604565b9350935050505b935093915050565b60006126906145e9565b6000806126a5670de0b6b3a76400008761360a565b909250905060008260038111156126b857fe5b146126d757506040805160208101909152600081529092509050612178565b612171818660000151612f86565b60006126ef6145e9565b60008061270486600001518660000151612579565b60408051602081019091529081529097909650945050505050565b60006127296145e9565b60006127336145e9565b61273d8787613abc565b9092509050600082600381111561275057fe5b1461275f57909250905061267e565b6126778186613abc565b600080546001018082558161277c610e52565b9050801561279a57610c4a81601081111561279357fe5b60086121ff565b610c5b3385613ba5565b60008054600101808255816127b7610e52565b905080156127ce57610c4a81601081111561240d57fe5b610c5b33856000613101565b60045460009081906001600160a01b031633146127fd57611b52600160426121ff565b612805612575565b600a541461281957611b52600a60416121ff565b600760009054906101000a90046001600160a01b03169050826001600160a01b0316632191f92a6040518163ffffffff1660e01b815260040160206040518083038186803b15801561286a57600080fd5b505afa15801561287e573d6000803e3d6000fd5b505050506040513d602081101561289457600080fd5b50516128e7576040805162461bcd60e51b815260206004820152601c60248201527f6d61726b6572206d6574686f642072657475726e65642066616c736500000000604482015290519081900360640190fd5b600780546001600160a01b0319166001600160a01b03858116918217909255604080519284168352602083019190915280517fedffc32e068c7c95dfd4bdfd5c4d939a084d6b11c4199eac8436ed234d72f9269281900390910190a16000610a1c565b600080546001018082558161295d610e52565b9050801561297b5761163881601081111561297457fe5b600f6121ff565b836001600160a01b031663a6afed956040518163ffffffff1660e01b8152600401602060405180830381600087803b1580156129b657600080fd5b505af11580156129ca573d6000803e3d6000fd5b505050506040513d60208110156129e057600080fd5b505190508015612a00576116388160108111156129f957fe5b60106121ff565b612a0c33878787613f0b565b9250506000548114610a08576040805162461bcd60e51b815260206004820152600a6024820152691c994b595b9d195c995960b21b604482015290519081900360640190fd5b6004546000906001600160a01b03163314612a7357610ad6600160476121ff565b612a7b612575565b600a5414612a8f57610ad6600a60486121ff565b670de0b6b3a7640000821115612aab57610ad6600260496121ff565b6009805490839055604080518281526020810185905281517faaa68312e2ea9d50e16af5068410ab56e1a1fd06037b1a35664812c30f821460929181900390910190a16000610a1c565b60065460408051631200453160e11b81523060048201526001600160a01b0386811660248301528581166044830152606482018590529151600093849316916324008a6291608480830192602092919082900301818787803b158015612b5a57600080fd5b505af1158015612b6e573d6000803e3d6000fd5b505050506040513d6020811015612b8457600080fd5b505190508015612ba357612b9b600360388361250f565b915050610a1c565b612bab612575565b600a5414612bbf57612b9b600a60396121ff565b612bc7614656565b6001600160a01b0385166000908152601160205260409020600101546060820152612bf185612420565b6080830181905260208301826003811115612c0857fe5b6003811115612c1357fe5b9052506000905081602001516003811115612c2a57fe5b14612c4f57612c46600960378360200151600381111561103d57fe5b92505050610a1c565b600019841415612c685760808101516040820152612c70565b604081018490525b612c7e8682604001516143e7565b81906010811115612c8b57fe5b90816010811115612c9857fe5b905250600081516010811115612caa57fe5b14612cbc578051612c4690603c6121ff565b612cce81608001518260400151612579565b60a0830181905260208301826003811115612ce557fe5b6003811115612cf057fe5b9052506000905081602001516003811115612d0757fe5b14612d2357612c466009603a8360200151600381111561103d57fe5b612d33600c548260400151612579565b60c0830181905260208301826003811115612d4a57fe5b6003811115612d5557fe5b9052506000905081602001516003811115612d6c57fe5b14612d8857612c466009603b8360200151600381111561103d57fe5b612d9686826040015161451b565b81906010811115612da357fe5b90816010811115612db057fe5b905250600081516010811115612dc257fe5b14612e14576040805162461bcd60e51b815260206004820152601f60248201527f726570617920626f72726f77207472616e7366657220696e206661696c656400604482015290519081900360640190fd5b60a080820180516001600160a01b03808916600081815260116020908152604091829020948555600b5460019095019490945560c0870151600c8190558188015195518251948e16855294840192909252828101949094526060820192909252608081019190915290517f1a2a22cb034d26d1854bdc6666a5b91fe25efbbb5dcad3b0355478d6f5c362a1929181900390910190a160065460408083015160608401518251631ededc9160e01b81523060048201526001600160a01b038b811660248301528a81166044830152606482019390935260848101919091529151921691631ededc919160a48082019260009290919082900301818387803b158015612f1d57600080fd5b505af1158015612f31573d6000803e3d6000fd5b5060009250612f3e915050565b9695505050505050565b600080600080612f588787612604565b90925090506000826003811115612f6b57fe5b14612f7c575091506000905061267e565b6126778186612579565b6000612f906145e9565b600080612fa586670de0b6b3a764000061360a565b90925090506000826003811115612fb857fe5b14612fd757506040805160208101909152600081529092509050612178565b600080612fe48388613649565b90925090506000826003811115612ff757fe5b1461301957506040805160208101909152600081529094509250612178915050565b604080516020810190915290815260009890975095505050505050565b51670de0b6b3a7640000900490565b6012546040805163a9059cbb60e01b81526001600160a01b03858116600483015260248201859052915160009392909216918391839163a9059cbb91604480820192869290919082900301818387803b1580156130a157600080fd5b505af11580156130b5573d6000803e3d6000fd5b505050503d600081146130cf57602081146130d957600080fd5b60001991506130e5565b60206000803e60005191505b50806130f65760109250505061086f565b506000949350505050565b600082158061310e575081155b6131495760405162461bcd60e51b81526004018080602001828103825260348152602001806148c56034913960400191505060405180910390fd5b613151614656565b613159611ce5565b604083018190526020830182600381111561317057fe5b600381111561317b57fe5b905250600090508160200151600381111561319257fe5b146131ae57612b9b6009602b8360200151600381111561103d57fe5b831561322f5760608101849052604080516020810182529082015181526131d5908561212b565b60808301819052602083018260038111156131ec57fe5b60038111156131f757fe5b905250600090508160200151600381111561320e57fe5b1461322a57612b9b600960298360200151600381111561103d57fe5b6132a8565b61324b83604051806020016040528084604001518152506145d2565b606083018190526020830182600381111561326257fe5b600381111561326d57fe5b905250600090508160200151600381111561328457fe5b146132a057612b9b6009602a8360200151600381111561103d57fe5b608081018390525b60065460608201516040805163eabe7d9160e01b81523060048201526001600160a01b03898116602483015260448201939093529051600093929092169163eabe7d919160648082019260209290919082900301818787803b15801561330d57600080fd5b505af1158015613321573d6000803e3d6000fd5b505050506040513d602081101561333757600080fd5b50519050801561334e57612c46600360288361250f565b613356612575565b600a541461336a57612c46600a602c6121ff565b61337a600e548360600151612579565b60a084018190526020840182600381111561339157fe5b600381111561339c57fe5b90525060009050826020015160038111156133b357fe5b146133cf57612c466009602e8460200151600381111561103d57fe5b6001600160a01b0386166000908152600f602052604090205460608301516133f79190612579565b60c084018190526020840182600381111561340e57fe5b600381111561341957fe5b905250600090508260200151600381111561343057fe5b1461344c57612c466009602d8460200151600381111561103d57fe5b816080015161345961217f565b101561346b57612c46600e602f6121ff565b613479868360800151613045565b8290601081111561348657fe5b9081601081111561349357fe5b9052506000825160108111156134a557fe5b146134f7576040805162461bcd60e51b815260206004820152601a60248201527f72656465656d207472616e73666572206f7574206661696c6564000000000000604482015290519081900360640190fd5b60a0820151600e5560c08201516001600160a01b0387166000818152600f6020908152604091829020939093556060850151815190815290513093600080516020614834833981519152928290030190a36080820151606080840151604080516001600160a01b038b168152602081019490945283810191909152517fe5b754fb1abb7f01b499791d0b820ae3b6af3424ac1c59768edb53f4ec31a9299281900390910190a160065460808301516060840151604080516351dff98960e01b81523060048201526001600160a01b038b81166024830152604482019490945260648101929092525191909216916351dff98991608480830192600092919082900301818387803b158015612f1d57600080fd5b6000808361361d57506000905080612178565b8383028385828161362a57fe5b041461363e57506002915060009050612178565b600092509050612178565b6000808261365d5750600190506000612178565b600083858161366857fe5b04915091509250929050565b60065460408051634ef4c3e160e01b81523060048201526001600160a01b03858116602483015260448201859052915160009384931691634ef4c3e191606480830192602092919082900301818787803b1580156136d157600080fd5b505af11580156136e5573d6000803e3d6000fd5b505050506040513d60208110156136fb57600080fd5b50519050801561371a576137126003601f8361250f565b91505061086f565b613722612575565b600a541461373657613712600a60226121ff565b61373e614694565b61374885856143e7565b8190601081111561375557fe5b9081601081111561376257fe5b90525060008151601081111561377457fe5b1461378f5780516137869060266121ff565b9250505061086f565b613797611ce5565b60408301819052602083018260038111156137ae57fe5b60038111156137b957fe5b90525060009050816020015160038111156137d057fe5b146137ec57613786600960218360200151600381111561103d57fe5b61380884604051806020016040528084604001518152506145d2565b606083018190526020830182600381111561381f57fe5b600381111561382a57fe5b905250600090508160200151600381111561384157fe5b1461385d57613786600960208360200151600381111561103d57fe5b61386d600e548260600151612604565b608083018190526020830182600381111561388457fe5b600381111561388f57fe5b90525060009050816020015160038111156138a657fe5b146138c257613786600960248360200151600381111561103d57fe5b6001600160a01b0385166000908152600f602052604090205460608201516138ea9190612604565b60a083018190526020830182600381111561390157fe5b600381111561390c57fe5b905250600090508160200151600381111561392357fe5b1461393f57613786600960238360200151600381111561103d57fe5b613949858561451b565b8190601081111561395657fe5b9081601081111561396357fe5b90525060008151601081111561397557fe5b146139875780516137869060256121ff565b6080810151600e5560a08101516001600160a01b0386166000818152600f602090815260409182902093909355606080850151825193845293830188905282820193909352517f4c209b5fc8ad50758f13e2e1088ba56a560dff690a1c6fef26394f4c03821c4f929181900390910190a1606081015160408051918252516001600160a01b0387169130916000805160206148348339815191529181900360200190a36006546060820151604080516341c728b960e01b81523060048201526001600160a01b038981166024830152604482018990526064820193909352905191909216916341c728b991608480830192600092919082900301818387803b158015613a9257600080fd5b505af1158015613aa6573d6000803e3d6000fd5b5060009250613ab3915050565b95945050505050565b6000613ac66145e9565b600080613adb8660000151866000015161360a565b90925090506000826003811115613aee57fe5b14613b0d57506040805160208101909152600081529092509050612178565b600080613b226706f05b59d3b2000084612604565b90925090506000826003811115613b3557fe5b14613b5757506040805160208101909152600081529094509250612178915050565b600080613b6c83670de0b6b3a7640000613649565b90925090506000826003811115613b7f57fe5b14613b8657fe5b604080516020810190915290815260009a909950975050505050505050565b6006546040805163368f515360e21b81523060048201526001600160a01b0385811660248301526044820185905291516000938493169163da3d454c91606480830192602092919082900301818787803b158015613c0257600080fd5b505af1158015613c16573d6000803e3d6000fd5b505050506040513d6020811015613c2c57600080fd5b505190508015613c43576137126003600e8361250f565b613c4b612575565b600a5414613c5e57613712600a806121ff565b82613c6761217f565b1015613c7957613712600e60096121ff565b613c816146ae565b613c8a85612420565b6040830181905260208301826003811115613ca157fe5b6003811115613cac57fe5b9052506000905081602001516003811115613cc357fe5b14613cdf57613786600960078360200151600381111561103d57fe5b613ced816040015185612604565b6060830181905260208301826003811115613d0457fe5b6003811115613d0f57fe5b9052506000905081602001516003811115613d2657fe5b14613d42576137866009600c8360200151600381111561103d57fe5b613d4e600c5485612604565b6080830181905260208301826003811115613d6557fe5b6003811115613d7057fe5b9052506000905081602001516003811115613d8757fe5b14613da3576137866009600b8360200151600381111561103d57fe5b613dad8585613045565b81906010811115613dba57fe5b90816010811115613dc757fe5b905250600081516010811115613dd957fe5b14613e2b576040805162461bcd60e51b815260206004820152601a60248201527f626f72726f77207472616e73666572206f7574206661696c6564000000000000604482015290519081900360640190fd5b606080820180516001600160a01b038816600081815260116020908152604091829020938455600b54600190940193909355608080870151600c819055945182519384529383018a9052828201939093529381019290925291517f13ed6866d4e1ee6da46f845c46d7e54120883d75c5ea9a2dacc1c4ca8984ab80929181900390910190a160065460408051635c77860560e01b81523060048201526001600160a01b0388811660248301526044820188905291519190921691635c77860591606480830192600092919082900301818387803b158015613a9257600080fd5b60065460408051632fe3f38f60e11b81523060048201526001600160a01b0384811660248301528781166044830152868116606483015260848201869052915160009384931691635fc7e71e9160a480830192602092919082900301818787803b158015613f7857600080fd5b505af1158015613f8c573d6000803e3d6000fd5b505050506040513d6020811015613fa257600080fd5b505190508015613fb957611e39600360128361250f565b613fc1612575565b600a5414613fd557611e39600a60166121ff565b613fdd612575565b836001600160a01b0316636c540baf6040518163ffffffff1660e01b815260040160206040518083038186803b15801561401657600080fd5b505afa15801561402a573d6000803e3d6000fd5b505050506040513d602081101561404057600080fd5b50511461405357611e39600a60116121ff565b856001600160a01b0316856001600160a01b0316141561407957611e39600660176121ff565b8361408a57611e39600760156121ff565b6000198414156140a057611e39600760146121ff565b6006546040805163c488847b60e01b81523060048201526001600160a01b038681166024830152604482018890528251600094859492169263c488847b926064808301939192829003018186803b1580156140fa57600080fd5b505afa15801561410e573d6000803e3d6000fd5b505050506040513d604081101561412457600080fd5b5080516020909101519092509050811561414f57614145600460138461250f565b9350505050610a9e565b846001600160a01b03166370a08231886040518263ffffffff1660e01b815260040180826001600160a01b03166001600160a01b0316815260200191505060206040518083038186803b1580156141a557600080fd5b505afa1580156141b9573d6000803e3d6000fd5b505050506040513d60208110156141cf57600080fd5b50518111156141e457614145600d601d6121ff565b60006141f1898989612af5565b9050801561421a5761420f81601081111561420857fe5b60186121ff565b945050505050610a9e565b6040805163b2a02ff160e01b81526001600160a01b038b811660048301528a8116602483015260448201859052915160009289169163b2a02ff191606480830192602092919082900301818787803b15801561427557600080fd5b505af1158015614289573d6000803e3d6000fd5b505050506040513d602081101561429f57600080fd5b5051905080156142ed576040805162461bcd60e51b81526020600482015260146024820152731d1bdad95b881cd95a5e9d5c994819985a5b195960621b604482015290519081900360640190fd5b604080516001600160a01b03808d168252808c1660208301528183018b9052891660608201526080810185905290517f298637f684da70674f26509b10f07ec2fbc77a335ab1e7d6215a4b2484d8bb529181900360a00190a1600654604080516347ef3b3b60e01b81523060048201526001600160a01b038a811660248301528d811660448301528c81166064830152608482018c905260a48201879052915191909216916347ef3b3b9160c480830192600092919082900301818387803b1580156143b857600080fd5b505af11580156143cc573d6000803e3d6000fd5b50600092506143d9915050565b9a9950505050505050505050565b60125460408051636eb1769f60e11b81526001600160a01b038581166004830152306024830152915160009392909216918491839163dd62ed3e91604480820192602092909190829003018186803b15801561444257600080fd5b505afa158015614456573d6000803e3d6000fd5b505050506040513d602081101561446c57600080fd5b5051101561447e57600c91505061086f565b82816001600160a01b03166370a08231866040518263ffffffff1660e01b815260040180826001600160a01b03166001600160a01b0316815260200191505060206040518083038186803b1580156144d557600080fd5b505afa1580156144e9573d6000803e3d6000fd5b505050506040513d60208110156144ff57600080fd5b5051101561451157600d91505061086f565b5060009392505050565b601254604080516323b872dd60e01b81526001600160a01b0385811660048301523060248301526044820185905291516000939290921691839183916323b872dd91606480820192869290919082900301818387803b15801561457d57600080fd5b505af1158015614591573d6000803e3d6000fd5b505050503d600081146145ab57602081146145b557600080fd5b60001991506145c1565b60206000803e60005191505b50806130f657600f9250505061086f565b60008060006145df6145e9565b6121428686612686565b6040518060200160405280600081525090565b6040805161014081019091528060008152602001600081526020016000815260200160008152602001600081526020016146346145e9565b8152602001600081526020016000815260200160008152602001600081525090565b6040805160e0810190915280600081526020016000815260200160008152602001600081526020016000815260200160008152602001600081525090565b6040805160c0810190915280600081526020016000614634565b6040805160a08101909152806000815260200160008152602001600081526020016000815260200160008152509056fe737570706c7952617465506572426c6f636b3a2063616c63756c6174696e6720626f72726f7773506572206661696c6564726564756365207265736572766573207472616e73666572206f7574206661696c6564737570706c7952617465506572426c6f636b3a2063616c63756c6174696e6720737570706c7952617465206661696c6564626f72726f7742616c616e636553746f7265643a20626f72726f7742616c616e636553746f726564496e7465726e616c206661696c6564737570706c7952617465506572426c6f636b3a2063616c63756c6174696e6720756e6465726c79696e67206661696c6564626f72726f7752617465506572426c6f636b3a20696e746572657374526174654d6f64656c2e626f72726f7752617465206661696c6564737570706c7952617465506572426c6f636b3a2063616c63756c6174696e6720626f72726f7752617465206661696c6564ddf252ad1be2c89b69c2b068fc378daa952ba7f163c4a11628f55a4df523b3ef737570706c7952617465506572426c6f636b3a2063616c63756c6174696e67206f6e654d696e757352657365727665466163746f72206661696c656465786368616e67655261746553746f7265643a2065786368616e67655261746553746f726564496e7465726e616c206661696c65646f6e65206f662072656465656d546f6b656e73496e206f722072656465656d416d6f756e74496e206d757374206265207a65726f72656475636520726573657276657320756e657870656374656420756e646572666c6f77a265627a7a723158203742280f9b76081e48b70b8fea425ceef3bd22fb7bf699265bbb46584fc4e55264736f6c6343000511003253657474696e6720696e7465726573742072617465206d6f64656c206661696c6564496e697469616c2065786368616e67652072617465206d7573742062652067726561746572207468616e207a65726f2e",
  "source": "pragma solidity ^0.5.8;\r\n\r\nimport \"./CErc20.sol\";\r\n\r\ncontract CDAI is CErc20 {\r\n    constructor(address underlying_,\r\n                ComptrollerInterface comptroller_,\r\n                InterestRateModel interestRateModel_,\r\n                uint initialExchangeRateMantissa_,\r\n                string memory name_,\r\n                string memory symbol_,\r\n                uint decimals_) public\r\n    CErc20(underlying_, comptroller_, interestRateModel_, initialExchangeRateMantissa_, name_, symbol_, decimals_) {\r\n\r\n    }\r\n}",
  "sourcePath": "C:\\Users\\Ivan\\Desktop\\work\\Compound_fork\\compoundv2\\contracts\\CDAI.sol",
  "compiler": {
    "name": "solc",
    "version": "0.5.17+commit.d19bba13.Emscripten.clang"
  },
  "schemaVersion": "3.1.0",
  "updatedAt": "2020-06-03T19:11:37.614Z",
  "devdoc": {
    "methods": {
      "_acceptAdmin()": {
        "details": "Admin function for pending admin to accept role and update admin",
        "return": "uint 0=success, otherwise a failure (see ErrorReporter.sol for details)"
      },
      "_reduceReserves(uint256)": {
        "params": {
          "reduceAmount": "Amount of reduction to reserves"
        },
        "return": "uint 0=success, otherwise a failure (see ErrorReporter.sol for details)"
      },
      "_setComptroller(address)": {
        "details": "Admin function to set a new comptroller",
        "return": "uint 0=success, otherwise a failure (see ErrorReporter.sol for details)"
      },
      "_setInterestRateModel(address)": {
        "details": "Admin function to accrue interest and update the interest rate model",
        "params": {
          "newInterestRateModel": "the new interest rate model to use"
        },
        "return": "uint 0=success, otherwise a failure (see ErrorReporter.sol for details)"
      },
      "_setPendingAdmin(address)": {
        "details": "Admin function to begin change of admin. The newPendingAdmin must call `_acceptAdmin` to finalize the transfer.",
        "params": {
          "newPendingAdmin": "New pending admin."
        },
        "return": "uint 0=success, otherwise a failure (see ErrorReporter.sol for details)       * TODO: Should we add a second arg to verify, like a checksum of `newAdmin` address?"
      },
      "_setReserveFactor(uint256)": {
        "details": "Admin function to accrue interest and set a new reserve factor",
        "return": "uint 0=success, otherwise a failure (see ErrorReporter.sol for details)"
      },
      "accrueInterest()": {
        "details": "This calculates interest accrued from the last checkpointed block     up to the current block and writes new checkpoint to storage."
      },
      "allowance(address,address)": {
        "params": {
          "owner": "The address of the account which owns the tokens to be spent",
          "spender": "The address of the account which may transfer tokens"
        },
        "return": "The number of tokens allowed to be spent (-1 means infinite)"
      },
      "approve(address,uint256)": {
        "details": "This will overwrite the approval amount for `spender` and is subject to issues noted [here](https://eips.ethereum.org/EIPS/eip-20#approve)",
        "params": {
          "amount": "The number of tokens that are approved (-1 means infinite)",
          "spender": "The address of the account which may transfer tokens"
        },
        "return": "Whether or not the approval succeeded"
      },
      "balanceOf(address)": {
        "params": {
          "owner": "The address of the account to query"
        },
        "return": "The number of tokens owned by `owner`"
      },
      "balanceOfUnderlying(address)": {
        "details": "This also accrues interest in a transaction",
        "params": {
          "owner": "The address of the account to query"
        },
        "return": "The amount of underlying owned by `owner`"
      },
      "borrow(uint256)": {
        "params": {
          "borrowAmount": "The amount of the underlying asset to borrow"
        },
        "return": "uint 0=success, otherwise a failure (see ErrorReporter.sol for details)"
      },
      "borrowBalanceCurrent(address)": {
        "params": {
          "account": "The address whose balance should be calculated after updating borrowIndex"
        },
        "return": "The calculated balance"
      },
      "borrowBalanceStored(address)": {
        "params": {
          "account": "The address whose balance should be calculated"
        },
        "return": "The calculated balance"
      },
      "borrowRatePerBlock()": {
        "return": "The borrow interest rate per block, scaled by 1e18"
      },
      "exchangeRateCurrent()": {
        "return": "Calculated exchange rate scaled by 1e18"
      },
      "exchangeRateStored()": {
        "details": "This function does not accrue interest before calculating the exchange rate",
        "return": "Calculated exchange rate scaled by 1e18"
      },
      "getAccountSnapshot(address)": {
        "details": "This is used by comptroller to more efficiently perform liquidity checks.",
        "params": {
          "account": "Address of the account to snapshot"
        },
        "return": "(possible error, token balance, borrow balance, exchange rate mantissa)"
      },
      "getCash()": {
        "return": "The quantity of underlying asset owned by this contract"
      },
      "liquidateBorrow(address,uint256,address)": {
        "params": {
          "borrower": "The borrower of this cToken to be liquidated",
          "cTokenCollateral": "The market in which to seize collateral from the borrower",
          "repayAmount": "The amount of the underlying borrowed asset to repay"
        },
        "return": "uint 0=success, otherwise a failure (see ErrorReporter.sol for details)"
      },
      "mint(uint256)": {
        "details": "Accrues interest whether or not the operation succeeds, unless reverted",
        "params": {
          "mintAmount": "The amount of the underlying asset to supply"
        },
        "return": "uint 0=success, otherwise a failure (see ErrorReporter.sol for details)"
      },
      "redeem(uint256)": {
        "details": "Accrues interest whether or not the operation succeeds, unless reverted",
        "params": {
          "redeemTokens": "The number of cTokens to redeem into underlying"
        },
        "return": "uint 0=success, otherwise a failure (see ErrorReporter.sol for details)"
      },
      "redeemUnderlying(uint256)": {
        "details": "Accrues interest whether or not the operation succeeds, unless reverted",
        "params": {
          "redeemAmount": "The amount of underlying to redeem"
        },
        "return": "uint 0=success, otherwise a failure (see ErrorReporter.sol for details)"
      },
      "repayBorrow(uint256)": {
        "params": {
          "repayAmount": "The amount to repay"
        },
        "return": "uint 0=success, otherwise a failure (see ErrorReporter.sol for details)"
      },
      "repayBorrowBehalf(address,uint256)": {
        "params": {
          "borrower": "the account with the debt being payed off",
          "repayAmount": "The amount to repay"
        },
        "return": "uint 0=success, otherwise a failure (see ErrorReporter.sol for details)"
      },
      "seize(address,address,uint256)": {
        "details": "Will fail unless called by another cToken during the process of liquidation. Its absolutely critical to use msg.sender as the borrowed cToken and not a parameter.",
        "params": {
          "borrower": "The account having collateral seized",
          "liquidator": "The account receiving seized collateral",
          "seizeTokens": "The number of cTokens to seize"
        },
        "return": "uint 0=success, otherwise a failure (see ErrorReporter.sol for details)"
      },
      "supplyRatePerBlock()": {
        "return": "The supply interest rate per block, scaled by 1e18"
      },
      "totalBorrowsCurrent()": {
        "return": "The total borrows with interest"
      },
      "transfer(address,uint256)": {
        "params": {
          "amount": "The number of tokens to transfer",
          "dst": "The address of the destination account"
        },
        "return": "Whether or not the transfer succeeded"
      },
      "transferFrom(address,address,uint256)": {
        "params": {
          "amount": "The number of tokens to transfer",
          "dst": "The address of the destination account",
          "src": "The address of the source account"
        },
        "return": "Whether or not the transfer succeeded"
      }
    }
  },
  "userdoc": {
    "methods": {
      "_acceptAdmin()": {
        "notice": "Accepts transfer of admin rights. msg.sender must be pendingAdmin"
      },
      "_reduceReserves(uint256)": {
        "notice": "Accrues interest and reduces reserves by transferring to admin"
      },
      "_setComptroller(address)": {
        "notice": "Sets a new comptroller for the market"
      },
      "_setInterestRateModel(address)": {
        "notice": "accrues interest and updates the interest rate model using _setInterestRateModelFresh"
      },
      "_setPendingAdmin(address)": {
        "notice": "Begins transfer of admin rights. The newPendingAdmin must call `_acceptAdmin` to finalize the transfer."
      },
      "_setReserveFactor(uint256)": {
        "notice": "accrues interest and sets a new reserve factor for the protocol using _setReserveFactorFresh"
      },
      "accrueInterest()": {
        "notice": "Applies accrued interest to total borrows and reserves."
      },
      "allowance(address,address)": {
        "notice": "Get the current allowance from `owner` for `spender`"
      },
      "approve(address,uint256)": {
        "notice": "Approve `spender` to transfer up to `amount` from `src`"
      },
      "balanceOf(address)": {
        "notice": "Get the token balance of the `owner`"
      },
      "balanceOfUnderlying(address)": {
        "notice": "Get the underlying balance of the `owner`"
      },
      "borrow(uint256)": {
        "notice": "Sender borrows assets from the protocol to their own address"
      },
      "borrowBalanceCurrent(address)": {
        "notice": "Accrue interest to updated borrowIndex and then calculate account's borrow balance using the updated borrowIndex"
      },
      "borrowBalanceStored(address)": {
        "notice": "Return the borrow balance of account based on stored data"
      },
      "borrowRatePerBlock()": {
        "notice": "Returns the current per-block borrow interest rate for this cToken"
      },
      "exchangeRateCurrent()": {
        "notice": "Accrue interest then return the up-to-date exchange rate"
      },
      "exchangeRateStored()": {
        "notice": "Calculates the exchange rate from the underlying to the CToken"
      },
      "getAccountSnapshot(address)": {
        "notice": "Get a snapshot of the account's balances, and the cached exchange rate"
      },
      "getCash()": {
        "notice": "Get cash balance of this cToken in the underlying asset"
      },
      "liquidateBorrow(address,uint256,address)": {
        "notice": "The sender liquidates the borrowers collateral. The collateral seized is transferred to the liquidator."
      },
      "mint(uint256)": {
        "notice": "Sender supplies assets into the market and receives cTokens in exchange"
      },
      "redeem(uint256)": {
        "notice": "Sender redeems cTokens in exchange for the underlying asset"
      },
      "redeemUnderlying(uint256)": {
        "notice": "Sender redeems cTokens in exchange for a specified amount of underlying asset"
      },
      "repayBorrow(uint256)": {
        "notice": "Sender repays their own borrow"
      },
      "repayBorrowBehalf(address,uint256)": {
        "notice": "Sender repays a borrow belonging to borrower"
      },
      "seize(address,address,uint256)": {
        "notice": "Transfers collateral tokens (this market) to the liquidator."
      },
      "supplyRatePerBlock()": {
        "notice": "Returns the current per-block supply interest rate for this cToken"
      },
      "totalBorrowsCurrent()": {
        "notice": "Returns the current total borrows plus accrued interest"
      },
      "transfer(address,uint256)": {
        "notice": "Transfer `amount` tokens from `msg.sender` to `dst`"
      },
      "transferFrom(address,address,uint256)": {
        "notice": "Transfer `amount` tokens from `src` to `dst`"
      }
    }
  }
}