{
  "contractName": "CDelegationStorage",
  "abi": [
    {
      "constant": true,
      "inputs": [],
      "name": "implementation",
      "outputs": [
        {
          "internalType": "address",
          "name": "",
          "type": "address"
        }
      ],
      "payable": false,
      "stateMutability": "view",
      "type": "function"
    }
  ],
  "bytecode": "0x608060405234801561001057600080fd5b5060cf8061001f6000396000f3fe6080604052348015600f57600080fd5b506004361060285760003560e01c80635c60da1b14602d575b600080fd5b60336075565b604051808273ffffffffffffffffffffffffffffffffffffffff1673ffffffffffffffffffffffffffffffffffffffff16815260200191505060405180910390f35b6000809054906101000a900473ffffffffffffffffffffffffffffffffffffffff168156fea265627a7a72315820e1785666039e2a67bbf1b0ae166c468381da5a504ed7c1255ce9b060569d459e64736f6c63430005110032",
  "source": "pragma solidity ^0.5.16;\r\n\r\nimport \"./ComptrollerInterface.sol\";\r\nimport \"./InterestRateModel.sol\";\r\n\r\ncontract CTokenStorage {\r\n    /**\r\n     * @dev Guard variable for re-entrancy checks\r\n     */\r\n    bool internal _notEntered;\r\n\r\n    /**\r\n     * @notice EIP-20 token name for this token\r\n     */\r\n    string public name;\r\n\r\n    /**\r\n     * @notice EIP-20 token symbol for this token\r\n     */\r\n    string public symbol;\r\n\r\n    /**\r\n     * @notice EIP-20 token decimals for this token\r\n     */\r\n    uint8 public decimals;\r\n\r\n    /**\r\n     * @notice Maximum borrow rate that can ever be applied (.0005% / block)\r\n     */\r\n\r\n    uint internal constant borrowRateMaxMantissa = 0.0005e16;\r\n\r\n    /**\r\n     * @notice Maximum fraction of interest that can be set aside for reserves\r\n     */\r\n    uint internal constant reserveFactorMaxMantissa = 1e18;\r\n\r\n    /**\r\n     * @notice Administrator for this contract\r\n     */\r\n    address payable public admin;\r\n\r\n    /**\r\n     * @notice Pending administrator for this contract\r\n     */\r\n    address payable public pendingAdmin;\r\n\r\n    /**\r\n     * @notice Contract which oversees inter-cToken operations\r\n     */\r\n    ComptrollerInterface public comptroller;\r\n\r\n    /**\r\n     * @notice Model which tells what the current interest rate should be\r\n     */\r\n    InterestRateModel public interestRateModel;\r\n\r\n    /**\r\n     * @notice Initial exchange rate used when minting the first CTokens (used when totalSupply = 0)\r\n     */\r\n    uint internal initialExchangeRateMantissa;\r\n\r\n    /**\r\n     * @notice Fraction of interest currently set aside for reserves\r\n     */\r\n    uint public reserveFactorMantissa;\r\n\r\n    /**\r\n     * @notice Block number that interest was last accrued at\r\n     */\r\n    uint public accrualBlockNumber;\r\n\r\n    /**\r\n     * @notice Accumulator of the total earned interest rate since the opening of the market\r\n     */\r\n    uint public borrowIndex;\r\n\r\n    /**\r\n     * @notice Total amount of outstanding borrows of the underlying in this market\r\n     */\r\n    uint public totalBorrows;\r\n\r\n    /**\r\n     * @notice Total amount of reserves of the underlying held in this market\r\n     */\r\n    uint public totalReserves;\r\n\r\n    /**\r\n     * @notice Total number of tokens in circulation\r\n     */\r\n    uint public totalSupply;\r\n\r\n    /**\r\n     * @notice Official record of token balances for each account\r\n     */\r\n    mapping (address => uint) internal accountTokens;\r\n\r\n    /**\r\n     * @notice Approved token transfer amounts on behalf of others\r\n     */\r\n    mapping (address => mapping (address => uint)) internal transferAllowances;\r\n\r\n    /**\r\n     * @notice Container for borrow balance information\r\n     * @member principal Total balance (with accrued interest), after applying the most recent balance-changing action\r\n     * @member interestIndex Global borrowIndex as of the most recent balance-changing action\r\n     */\r\n    struct BorrowSnapshot {\r\n        uint principal;\r\n        uint interestIndex;\r\n    }\r\n\r\n    /**\r\n     * @notice Mapping of account addresses to outstanding borrow balances\r\n     */\r\n    mapping(address => BorrowSnapshot) internal accountBorrows;\r\n}\r\n\r\ncontract CTokenInterface is CTokenStorage {\r\n    /**\r\n     * @notice Indicator that this is a CToken contract (for inspection)\r\n     */\r\n    bool public constant isCToken = true;\r\n\r\n\r\n    /*** Market Events ***/\r\n\r\n    /**\r\n     * @notice Event emitted when interest is accrued\r\n     */\r\n    event AccrueInterest(uint cashPrior, uint interestAccumulated, uint borrowIndex, uint totalBorrows);\r\n\r\n    /**\r\n     * @notice Event emitted when tokens are minted\r\n     */\r\n    event Mint(address minter, uint mintAmount, uint mintTokens);\r\n\r\n    /**\r\n     * @notice Event emitted when tokens are redeemed\r\n     */\r\n    event Redeem(address redeemer, uint redeemAmount, uint redeemTokens);\r\n\r\n    /**\r\n     * @notice Event emitted when underlying is borrowed\r\n     */\r\n    event Borrow(address borrower, uint borrowAmount, uint accountBorrows, uint totalBorrows);\r\n\r\n    /**\r\n     * @notice Event emitted when a borrow is repaid\r\n     */\r\n    event RepayBorrow(address payer, address borrower, uint repayAmount, uint accountBorrows, uint totalBorrows);\r\n\r\n    /**\r\n     * @notice Event emitted when a borrow is liquidated\r\n     */\r\n    event LiquidateBorrow(address liquidator, address borrower, uint repayAmount, address cTokenCollateral, uint seizeTokens);\r\n\r\n\r\n    /*** Admin Events ***/\r\n\r\n    /**\r\n     * @notice Event emitted when pendingAdmin is changed\r\n     */\r\n    event NewPendingAdmin(address oldPendingAdmin, address newPendingAdmin);\r\n\r\n    /**\r\n     * @notice Event emitted when pendingAdmin is accepted, which means admin is updated\r\n     */\r\n    event NewAdmin(address oldAdmin, address newAdmin);\r\n\r\n    /**\r\n     * @notice Event emitted when comptroller is changed\r\n     */\r\n    event NewComptroller(ComptrollerInterface oldComptroller, ComptrollerInterface newComptroller);\r\n\r\n    /**\r\n     * @notice Event emitted when interestRateModel is changed\r\n     */\r\n    event NewMarketInterestRateModel(InterestRateModel oldInterestRateModel, InterestRateModel newInterestRateModel);\r\n\r\n    /**\r\n     * @notice Event emitted when the reserve factor is changed\r\n     */\r\n    event NewReserveFactor(uint oldReserveFactorMantissa, uint newReserveFactorMantissa);\r\n\r\n    /**\r\n     * @notice Event emitted when the reserves are added\r\n     */\r\n    event ReservesAdded(address benefactor, uint addAmount, uint newTotalReserves);\r\n\r\n    /**\r\n     * @notice Event emitted when the reserves are reduced\r\n     */\r\n    event ReservesReduced(address admin, uint reduceAmount, uint newTotalReserves);\r\n\r\n    /**\r\n     * @notice EIP20 Transfer event\r\n     */\r\n    event Transfer(address indexed from, address indexed to, uint amount);\r\n\r\n    /**\r\n     * @notice EIP20 Approval event\r\n     */\r\n    event Approval(address indexed owner, address indexed spender, uint amount);\r\n\r\n    /**\r\n     * @notice Failure event\r\n     */\r\n    event Failure(uint error, uint info, uint detail);\r\n\r\n\r\n    /*** User Interface ***/\r\n\r\n    function transfer(address dst, uint amount) external returns (bool);\r\n    function transferFrom(address src, address dst, uint amount) external returns (bool);\r\n    function approve(address spender, uint amount) external returns (bool);\r\n    function allowance(address owner, address spender) external view returns (uint);\r\n    function balanceOf(address owner) external view returns (uint);\r\n    function balanceOfUnderlying(address owner) external returns (uint);\r\n    function getAccountSnapshot(address account) external view returns (uint, uint, uint, uint);\r\n    function borrowRatePerBlock() external view returns (uint);\r\n    function supplyRatePerBlock() external view returns (uint);\r\n    function totalBorrowsCurrent() external returns (uint);\r\n    function borrowBalanceCurrent(address account) external returns (uint);\r\n    function borrowBalanceStored(address account) public view returns (uint);\r\n    function exchangeRateCurrent() public returns (uint);\r\n    function exchangeRateStored() public view returns (uint);\r\n    function getCash() external view returns (uint);\r\n    function accrueInterest() public returns (uint);\r\n    function seize(address liquidator, address borrower, uint seizeTokens) external returns (uint);\r\n\r\n\r\n    /*** Admin Functions ***/\r\n\r\n    function _setPendingAdmin(address payable newPendingAdmin) external returns (uint);\r\n    function _acceptAdmin() external returns (uint);\r\n    function _setComptroller(ComptrollerInterface newComptroller) public returns (uint);\r\n    function _setReserveFactor(uint newReserveFactorMantissa) external returns (uint);\r\n    function _reduceReserves(uint reduceAmount) external returns (uint);\r\n    function _setInterestRateModel(InterestRateModel newInterestRateModel) public returns (uint);\r\n}\r\n\r\ncontract CErc20Storage {\r\n    /**\r\n     * @notice Underlying asset for this CToken\r\n     */\r\n    address public underlying;\r\n}\r\n\r\ncontract CErc20Interface is CErc20Storage {\r\n\r\n    /*** User Interface ***/\r\n\r\n    function mint(uint mintAmount) external returns (uint);\r\n    function redeem(uint redeemTokens) external returns (uint);\r\n    function redeemUnderlying(uint redeemAmount) external returns (uint);\r\n    function borrow(uint borrowAmount) external returns (uint);\r\n    function repayBorrow(uint repayAmount) external returns (uint);\r\n    function repayBorrowBehalf(address borrower, uint repayAmount) external returns (uint);\r\n    function liquidateBorrow(address borrower, uint repayAmount, CTokenInterface cTokenCollateral) external returns (uint);\r\n\r\n\r\n    /*** Admin Functions ***/\r\n\r\n    function _addReserves(uint addAmount) external returns (uint);\r\n}\r\n\r\ncontract CDelegationStorage {\r\n    /**\r\n     * @notice Implementation address for this contract\r\n     */\r\n    address public implementation;\r\n}\r\n\r\ncontract CDelegatorInterface is CDelegationStorage {\r\n    /**\r\n     * @notice Emitted when implementation is changed\r\n     */\r\n    event NewImplementation(address oldImplementation, address newImplementation);\r\n\r\n    /**\r\n     * @notice Called by the admin to update the implementation of the delegator\r\n     * @param implementation_ The address of the new implementation for delegation\r\n     * @param allowResign Flag to indicate whether to call _resignImplementation on the old implementation\r\n     * @param becomeImplementationData The encoded bytes data to be passed to _becomeImplementation\r\n     */\r\n    function _setImplementation(address implementation_, bool allowResign, bytes memory becomeImplementationData) public;\r\n}\r\n\r\ncontract CDelegateInterface is CDelegationStorage {\r\n    /**\r\n     * @notice Called by the delegator on a delegate to initialize it for duty\r\n     * @dev Should revert if any issues arise which make it unfit for delegation\r\n     * @param data The encoded bytes data for any initialization\r\n     */\r\n    function _becomeImplementation(bytes memory data) public;\r\n\r\n    /**\r\n     * @notice Called by the delegator on a delegate to forfeit its responsibility\r\n     */\r\n    function _resignImplementation() public;\r\n}\r\n",
  "sourcePath": "C:\\Users\\pillardev\\Desktop\\Compound2.0\\compoundv2\\contracts\\CTokenInterfaces.sol",
  "compiler": {
    "name": "solc",
    "version": "0.5.17+commit.d19bba13.Emscripten.clang"
  },
  "schemaVersion": "3.0.23",
  "updatedAt": "2020-05-11T11:38:56.208Z",
  "devdoc": {
    "methods": {}
  },
  "userdoc": {
    "methods": {}
  }
}