{
  "contractName": "CErc20Delegator",
  "abi": [
    {
      "inputs": [
        {
          "internalType": "address",
          "name": "underlying_",
          "type": "address"
        },
        {
          "internalType": "contract ComptrollerInterface",
          "name": "comptroller_",
          "type": "address"
        },
        {
          "internalType": "contract InterestRateModel",
          "name": "interestRateModel_",
          "type": "address"
        },
        {
          "internalType": "uint256",
          "name": "initialExchangeRateMantissa_",
          "type": "uint256"
        },
        {
          "internalType": "string",
          "name": "name_",
          "type": "string"
        },
        {
          "internalType": "string",
          "name": "symbol_",
          "type": "string"
        },
        {
          "internalType": "uint8",
          "name": "decimals_",
          "type": "uint8"
        },
        {
          "internalType": "address payable",
          "name": "admin_",
          "type": "address"
        },
        {
          "internalType": "address",
          "name": "implementation_",
          "type": "address"
        },
        {
          "internalType": "bytes",
          "name": "becomeImplementationData",
          "type": "bytes"
        }
      ],
      "payable": false,
      "stateMutability": "nonpayable",
      "type": "constructor"
    },
    {
      "anonymous": false,
      "inputs": [
        {
          "indexed": false,
          "internalType": "uint256",
          "name": "cashPrior",
          "type": "uint256"
        },
        {
          "indexed": false,
          "internalType": "uint256",
          "name": "interestAccumulated",
          "type": "uint256"
        },
        {
          "indexed": false,
          "internalType": "uint256",
          "name": "borrowIndex",
          "type": "uint256"
        },
        {
          "indexed": false,
          "internalType": "uint256",
          "name": "totalBorrows",
          "type": "uint256"
        }
      ],
      "name": "AccrueInterest",
      "type": "event"
    },
    {
      "anonymous": false,
      "inputs": [
        {
          "indexed": true,
          "internalType": "address",
          "name": "owner",
          "type": "address"
        },
        {
          "indexed": true,
          "internalType": "address",
          "name": "spender",
          "type": "address"
        },
        {
          "indexed": false,
          "internalType": "uint256",
          "name": "amount",
          "type": "uint256"
        }
      ],
      "name": "Approval",
      "type": "event"
    },
    {
      "anonymous": false,
      "inputs": [
        {
          "indexed": false,
          "internalType": "address",
          "name": "borrower",
          "type": "address"
        },
        {
          "indexed": false,
          "internalType": "uint256",
          "name": "borrowAmount",
          "type": "uint256"
        },
        {
          "indexed": false,
          "internalType": "uint256",
          "name": "accountBorrows",
          "type": "uint256"
        },
        {
          "indexed": false,
          "internalType": "uint256",
          "name": "totalBorrows",
          "type": "uint256"
        }
      ],
      "name": "Borrow",
      "type": "event"
    },
    {
      "anonymous": false,
      "inputs": [
        {
          "indexed": false,
          "internalType": "uint256",
          "name": "error",
          "type": "uint256"
        },
        {
          "indexed": false,
          "internalType": "uint256",
          "name": "info",
          "type": "uint256"
        },
        {
          "indexed": false,
          "internalType": "uint256",
          "name": "detail",
          "type": "uint256"
        }
      ],
      "name": "Failure",
      "type": "event"
    },
    {
      "anonymous": false,
      "inputs": [
        {
          "indexed": false,
          "internalType": "address",
          "name": "liquidator",
          "type": "address"
        },
        {
          "indexed": false,
          "internalType": "address",
          "name": "borrower",
          "type": "address"
        },
        {
          "indexed": false,
          "internalType": "uint256",
          "name": "repayAmount",
          "type": "uint256"
        },
        {
          "indexed": false,
          "internalType": "address",
          "name": "cTokenCollateral",
          "type": "address"
        },
        {
          "indexed": false,
          "internalType": "uint256",
          "name": "seizeTokens",
          "type": "uint256"
        }
      ],
      "name": "LiquidateBorrow",
      "type": "event"
    },
    {
      "anonymous": false,
      "inputs": [
        {
          "indexed": false,
          "internalType": "address",
          "name": "minter",
          "type": "address"
        },
        {
          "indexed": false,
          "internalType": "uint256",
          "name": "mintAmount",
          "type": "uint256"
        },
        {
          "indexed": false,
          "internalType": "uint256",
          "name": "mintTokens",
          "type": "uint256"
        }
      ],
      "name": "Mint",
      "type": "event"
    },
    {
      "anonymous": false,
      "inputs": [
        {
          "indexed": false,
          "internalType": "address",
          "name": "oldAdmin",
          "type": "address"
        },
        {
          "indexed": false,
          "internalType": "address",
          "name": "newAdmin",
          "type": "address"
        }
      ],
      "name": "NewAdmin",
      "type": "event"
    },
    {
      "anonymous": false,
      "inputs": [
        {
          "indexed": false,
          "internalType": "contract ComptrollerInterface",
          "name": "oldComptroller",
          "type": "address"
        },
        {
          "indexed": false,
          "internalType": "contract ComptrollerInterface",
          "name": "newComptroller",
          "type": "address"
        }
      ],
      "name": "NewComptroller",
      "type": "event"
    },
    {
      "anonymous": false,
      "inputs": [
        {
          "indexed": false,
          "internalType": "address",
          "name": "oldImplementation",
          "type": "address"
        },
        {
          "indexed": false,
          "internalType": "address",
          "name": "newImplementation",
          "type": "address"
        }
      ],
      "name": "NewImplementation",
      "type": "event"
    },
    {
      "anonymous": false,
      "inputs": [
        {
          "indexed": false,
          "internalType": "contract InterestRateModel",
          "name": "oldInterestRateModel",
          "type": "address"
        },
        {
          "indexed": false,
          "internalType": "contract InterestRateModel",
          "name": "newInterestRateModel",
          "type": "address"
        }
      ],
      "name": "NewMarketInterestRateModel",
      "type": "event"
    },
    {
      "anonymous": false,
      "inputs": [
        {
          "indexed": false,
          "internalType": "address",
          "name": "oldPendingAdmin",
          "type": "address"
        },
        {
          "indexed": false,
          "internalType": "address",
          "name": "newPendingAdmin",
          "type": "address"
        }
      ],
      "name": "NewPendingAdmin",
      "type": "event"
    },
    {
      "anonymous": false,
      "inputs": [
        {
          "indexed": false,
          "internalType": "uint256",
          "name": "oldReserveFactorMantissa",
          "type": "uint256"
        },
        {
          "indexed": false,
          "internalType": "uint256",
          "name": "newReserveFactorMantissa",
          "type": "uint256"
        }
      ],
      "name": "NewReserveFactor",
      "type": "event"
    },
    {
      "anonymous": false,
      "inputs": [
        {
          "indexed": false,
          "internalType": "address",
          "name": "redeemer",
          "type": "address"
        },
        {
          "indexed": false,
          "internalType": "uint256",
          "name": "redeemAmount",
          "type": "uint256"
        },
        {
          "indexed": false,
          "internalType": "uint256",
          "name": "redeemTokens",
          "type": "uint256"
        }
      ],
      "name": "Redeem",
      "type": "event"
    },
    {
      "anonymous": false,
      "inputs": [
        {
          "indexed": false,
          "internalType": "address",
          "name": "payer",
          "type": "address"
        },
        {
          "indexed": false,
          "internalType": "address",
          "name": "borrower",
          "type": "address"
        },
        {
          "indexed": false,
          "internalType": "uint256",
          "name": "repayAmount",
          "type": "uint256"
        },
        {
          "indexed": false,
          "internalType": "uint256",
          "name": "accountBorrows",
          "type": "uint256"
        },
        {
          "indexed": false,
          "internalType": "uint256",
          "name": "totalBorrows",
          "type": "uint256"
        }
      ],
      "name": "RepayBorrow",
      "type": "event"
    },
    {
      "anonymous": false,
      "inputs": [
        {
          "indexed": false,
          "internalType": "address",
          "name": "benefactor",
          "type": "address"
        },
        {
          "indexed": false,
          "internalType": "uint256",
          "name": "addAmount",
          "type": "uint256"
        },
        {
          "indexed": false,
          "internalType": "uint256",
          "name": "newTotalReserves",
          "type": "uint256"
        }
      ],
      "name": "ReservesAdded",
      "type": "event"
    },
    {
      "anonymous": false,
      "inputs": [
        {
          "indexed": false,
          "internalType": "address",
          "name": "admin",
          "type": "address"
        },
        {
          "indexed": false,
          "internalType": "uint256",
          "name": "reduceAmount",
          "type": "uint256"
        },
        {
          "indexed": false,
          "internalType": "uint256",
          "name": "newTotalReserves",
          "type": "uint256"
        }
      ],
      "name": "ReservesReduced",
      "type": "event"
    },
    {
      "anonymous": false,
      "inputs": [
        {
          "indexed": true,
          "internalType": "address",
          "name": "from",
          "type": "address"
        },
        {
          "indexed": true,
          "internalType": "address",
          "name": "to",
          "type": "address"
        },
        {
          "indexed": false,
          "internalType": "uint256",
          "name": "amount",
          "type": "uint256"
        }
      ],
      "name": "Transfer",
      "type": "event"
    },
    {
      "payable": true,
      "stateMutability": "payable",
      "type": "fallback"
    },
    {
      "constant": true,
      "inputs": [],
      "name": "accrualBlockNumber",
      "outputs": [
        {
          "internalType": "uint256",
          "name": "",
          "type": "uint256"
        }
      ],
      "payable": false,
      "stateMutability": "view",
      "type": "function"
    },
    {
      "constant": true,
      "inputs": [],
      "name": "admin",
      "outputs": [
        {
          "internalType": "address payable",
          "name": "",
          "type": "address"
        }
      ],
      "payable": false,
      "stateMutability": "view",
      "type": "function"
    },
    {
      "constant": true,
      "inputs": [],
      "name": "borrowIndex",
      "outputs": [
        {
          "internalType": "uint256",
          "name": "",
          "type": "uint256"
        }
      ],
      "payable": false,
      "stateMutability": "view",
      "type": "function"
    },
    {
      "constant": true,
      "inputs": [],
      "name": "comptroller",
      "outputs": [
        {
          "internalType": "contract ComptrollerInterface",
          "name": "",
          "type": "address"
        }
      ],
      "payable": false,
      "stateMutability": "view",
      "type": "function"
    },
    {
      "constant": true,
      "inputs": [],
      "name": "decimals",
      "outputs": [
        {
          "internalType": "uint8",
          "name": "",
          "type": "uint8"
        }
      ],
      "payable": false,
      "stateMutability": "view",
      "type": "function"
    },
    {
      "constant": true,
      "inputs": [],
      "name": "implementation",
      "outputs": [
        {
          "internalType": "address",
          "name": "",
          "type": "address"
        }
      ],
      "payable": false,
      "stateMutability": "view",
      "type": "function"
    },
    {
      "constant": true,
      "inputs": [],
      "name": "interestRateModel",
      "outputs": [
        {
          "internalType": "contract InterestRateModel",
          "name": "",
          "type": "address"
        }
      ],
      "payable": false,
      "stateMutability": "view",
      "type": "function"
    },
    {
      "constant": true,
      "inputs": [],
      "name": "isCToken",
      "outputs": [
        {
          "internalType": "bool",
          "name": "",
          "type": "bool"
        }
      ],
      "payable": false,
      "stateMutability": "view",
      "type": "function"
    },
    {
      "constant": true,
      "inputs": [],
      "name": "name",
      "outputs": [
        {
          "internalType": "string",
          "name": "",
          "type": "string"
        }
      ],
      "payable": false,
      "stateMutability": "view",
      "type": "function"
    },
    {
      "constant": true,
      "inputs": [],
      "name": "pendingAdmin",
      "outputs": [
        {
          "internalType": "address payable",
          "name": "",
          "type": "address"
        }
      ],
      "payable": false,
      "stateMutability": "view",
      "type": "function"
    },
    {
      "constant": true,
      "inputs": [],
      "name": "reserveFactorMantissa",
      "outputs": [
        {
          "internalType": "uint256",
          "name": "",
          "type": "uint256"
        }
      ],
      "payable": false,
      "stateMutability": "view",
      "type": "function"
    },
    {
      "constant": true,
      "inputs": [],
      "name": "symbol",
      "outputs": [
        {
          "internalType": "string",
          "name": "",
          "type": "string"
        }
      ],
      "payable": false,
      "stateMutability": "view",
      "type": "function"
    },
    {
      "constant": true,
      "inputs": [],
      "name": "totalBorrows",
      "outputs": [
        {
          "internalType": "uint256",
          "name": "",
          "type": "uint256"
        }
      ],
      "payable": false,
      "stateMutability": "view",
      "type": "function"
    },
    {
      "constant": true,
      "inputs": [],
      "name": "totalReserves",
      "outputs": [
        {
          "internalType": "uint256",
          "name": "",
          "type": "uint256"
        }
      ],
      "payable": false,
      "stateMutability": "view",
      "type": "function"
    },
    {
      "constant": true,
      "inputs": [],
      "name": "totalSupply",
      "outputs": [
        {
          "internalType": "uint256",
          "name": "",
          "type": "uint256"
        }
      ],
      "payable": false,
      "stateMutability": "view",
      "type": "function"
    },
    {
      "constant": true,
      "inputs": [],
      "name": "underlying",
      "outputs": [
        {
          "internalType": "address",
          "name": "",
          "type": "address"
        }
      ],
      "payable": false,
      "stateMutability": "view",
      "type": "function"
    },
    {
      "constant": false,
      "inputs": [
        {
          "internalType": "address",
          "name": "implementation_",
          "type": "address"
        },
        {
          "internalType": "bool",
          "name": "allowResign",
          "type": "bool"
        },
        {
          "internalType": "bytes",
          "name": "becomeImplementationData",
          "type": "bytes"
        }
      ],
      "name": "_setImplementation",
      "outputs": [],
      "payable": false,
      "stateMutability": "nonpayable",
      "type": "function"
    },
    {
      "constant": false,
      "inputs": [
        {
          "internalType": "uint256",
          "name": "mintAmount",
          "type": "uint256"
        }
      ],
      "name": "mint",
      "outputs": [
        {
          "internalType": "uint256",
          "name": "",
          "type": "uint256"
        }
      ],
      "payable": false,
      "stateMutability": "nonpayable",
      "type": "function"
    },
    {
      "constant": false,
      "inputs": [
        {
          "internalType": "uint256",
          "name": "redeemTokens",
          "type": "uint256"
        }
      ],
      "name": "redeem",
      "outputs": [
        {
          "internalType": "uint256",
          "name": "",
          "type": "uint256"
        }
      ],
      "payable": false,
      "stateMutability": "nonpayable",
      "type": "function"
    },
    {
      "constant": false,
      "inputs": [
        {
          "internalType": "uint256",
          "name": "redeemAmount",
          "type": "uint256"
        }
      ],
      "name": "redeemUnderlying",
      "outputs": [
        {
          "internalType": "uint256",
          "name": "",
          "type": "uint256"
        }
      ],
      "payable": false,
      "stateMutability": "nonpayable",
      "type": "function"
    },
    {
      "constant": false,
      "inputs": [
        {
          "internalType": "uint256",
          "name": "borrowAmount",
          "type": "uint256"
        }
      ],
      "name": "borrow",
      "outputs": [
        {
          "internalType": "uint256",
          "name": "",
          "type": "uint256"
        }
      ],
      "payable": false,
      "stateMutability": "nonpayable",
      "type": "function"
    },
    {
      "constant": false,
      "inputs": [
        {
          "internalType": "uint256",
          "name": "repayAmount",
          "type": "uint256"
        }
      ],
      "name": "repayBorrow",
      "outputs": [
        {
          "internalType": "uint256",
          "name": "",
          "type": "uint256"
        }
      ],
      "payable": false,
      "stateMutability": "nonpayable",
      "type": "function"
    },
    {
      "constant": false,
      "inputs": [
        {
          "internalType": "address",
          "name": "borrower",
          "type": "address"
        },
        {
          "internalType": "uint256",
          "name": "repayAmount",
          "type": "uint256"
        }
      ],
      "name": "repayBorrowBehalf",
      "outputs": [
        {
          "internalType": "uint256",
          "name": "",
          "type": "uint256"
        }
      ],
      "payable": false,
      "stateMutability": "nonpayable",
      "type": "function"
    },
    {
      "constant": false,
      "inputs": [
        {
          "internalType": "address",
          "name": "borrower",
          "type": "address"
        },
        {
          "internalType": "uint256",
          "name": "repayAmount",
          "type": "uint256"
        },
        {
          "internalType": "contract CTokenInterface",
          "name": "cTokenCollateral",
          "type": "address"
        }
      ],
      "name": "liquidateBorrow",
      "outputs": [
        {
          "internalType": "uint256",
          "name": "",
          "type": "uint256"
        }
      ],
      "payable": false,
      "stateMutability": "nonpayable",
      "type": "function"
    },
    {
      "constant": false,
      "inputs": [
        {
          "internalType": "address",
          "name": "dst",
          "type": "address"
        },
        {
          "internalType": "uint256",
          "name": "amount",
          "type": "uint256"
        }
      ],
      "name": "transfer",
      "outputs": [
        {
          "internalType": "bool",
          "name": "",
          "type": "bool"
        }
      ],
      "payable": false,
      "stateMutability": "nonpayable",
      "type": "function"
    },
    {
      "constant": false,
      "inputs": [
        {
          "internalType": "address",
          "name": "src",
          "type": "address"
        },
        {
          "internalType": "address",
          "name": "dst",
          "type": "address"
        },
        {
          "internalType": "uint256",
          "name": "amount",
          "type": "uint256"
        }
      ],
      "name": "transferFrom",
      "outputs": [
        {
          "internalType": "bool",
          "name": "",
          "type": "bool"
        }
      ],
      "payable": false,
      "stateMutability": "nonpayable",
      "type": "function"
    },
    {
      "constant": false,
      "inputs": [
        {
          "internalType": "address",
          "name": "spender",
          "type": "address"
        },
        {
          "internalType": "uint256",
          "name": "amount",
          "type": "uint256"
        }
      ],
      "name": "approve",
      "outputs": [
        {
          "internalType": "bool",
          "name": "",
          "type": "bool"
        }
      ],
      "payable": false,
      "stateMutability": "nonpayable",
      "type": "function"
    },
    {
      "constant": true,
      "inputs": [
        {
          "internalType": "address",
          "name": "owner",
          "type": "address"
        },
        {
          "internalType": "address",
          "name": "spender",
          "type": "address"
        }
      ],
      "name": "allowance",
      "outputs": [
        {
          "internalType": "uint256",
          "name": "",
          "type": "uint256"
        }
      ],
      "payable": false,
      "stateMutability": "view",
      "type": "function"
    },
    {
      "constant": true,
      "inputs": [
        {
          "internalType": "address",
          "name": "owner",
          "type": "address"
        }
      ],
      "name": "balanceOf",
      "outputs": [
        {
          "internalType": "uint256",
          "name": "",
          "type": "uint256"
        }
      ],
      "payable": false,
      "stateMutability": "view",
      "type": "function"
    },
    {
      "constant": false,
      "inputs": [
        {
          "internalType": "address",
          "name": "owner",
          "type": "address"
        }
      ],
      "name": "balanceOfUnderlying",
      "outputs": [
        {
          "internalType": "uint256",
          "name": "",
          "type": "uint256"
        }
      ],
      "payable": false,
      "stateMutability": "nonpayable",
      "type": "function"
    },
    {
      "constant": true,
      "inputs": [
        {
          "internalType": "address",
          "name": "account",
          "type": "address"
        }
      ],
      "name": "getAccountSnapshot",
      "outputs": [
        {
          "internalType": "uint256",
          "name": "",
          "type": "uint256"
        },
        {
          "internalType": "uint256",
          "name": "",
          "type": "uint256"
        },
        {
          "internalType": "uint256",
          "name": "",
          "type": "uint256"
        },
        {
          "internalType": "uint256",
          "name": "",
          "type": "uint256"
        }
      ],
      "payable": false,
      "stateMutability": "view",
      "type": "function"
    },
    {
      "constant": true,
      "inputs": [],
      "name": "borrowRatePerBlock",
      "outputs": [
        {
          "internalType": "uint256",
          "name": "",
          "type": "uint256"
        }
      ],
      "payable": false,
      "stateMutability": "view",
      "type": "function"
    },
    {
      "constant": true,
      "inputs": [],
      "name": "supplyRatePerBlock",
      "outputs": [
        {
          "internalType": "uint256",
          "name": "",
          "type": "uint256"
        }
      ],
      "payable": false,
      "stateMutability": "view",
      "type": "function"
    },
    {
      "constant": false,
      "inputs": [],
      "name": "totalBorrowsCurrent",
      "outputs": [
        {
          "internalType": "uint256",
          "name": "",
          "type": "uint256"
        }
      ],
      "payable": false,
      "stateMutability": "nonpayable",
      "type": "function"
    },
    {
      "constant": false,
      "inputs": [
        {
          "internalType": "address",
          "name": "account",
          "type": "address"
        }
      ],
      "name": "borrowBalanceCurrent",
      "outputs": [
        {
          "internalType": "uint256",
          "name": "",
          "type": "uint256"
        }
      ],
      "payable": false,
      "stateMutability": "nonpayable",
      "type": "function"
    },
    {
      "constant": true,
      "inputs": [
        {
          "internalType": "address",
          "name": "account",
          "type": "address"
        }
      ],
      "name": "borrowBalanceStored",
      "outputs": [
        {
          "internalType": "uint256",
          "name": "",
          "type": "uint256"
        }
      ],
      "payable": false,
      "stateMutability": "view",
      "type": "function"
    },
    {
      "constant": false,
      "inputs": [],
      "name": "exchangeRateCurrent",
      "outputs": [
        {
          "internalType": "uint256",
          "name": "",
          "type": "uint256"
        }
      ],
      "payable": false,
      "stateMutability": "nonpayable",
      "type": "function"
    },
    {
      "constant": true,
      "inputs": [],
      "name": "exchangeRateStored",
      "outputs": [
        {
          "internalType": "uint256",
          "name": "",
          "type": "uint256"
        }
      ],
      "payable": false,
      "stateMutability": "view",
      "type": "function"
    },
    {
      "constant": true,
      "inputs": [],
      "name": "getCash",
      "outputs": [
        {
          "internalType": "uint256",
          "name": "",
          "type": "uint256"
        }
      ],
      "payable": false,
      "stateMutability": "view",
      "type": "function"
    },
    {
      "constant": false,
      "inputs": [],
      "name": "accrueInterest",
      "outputs": [
        {
          "internalType": "uint256",
          "name": "",
          "type": "uint256"
        }
      ],
      "payable": false,
      "stateMutability": "nonpayable",
      "type": "function"
    },
    {
      "constant": false,
      "inputs": [
        {
          "internalType": "address",
          "name": "liquidator",
          "type": "address"
        },
        {
          "internalType": "address",
          "name": "borrower",
          "type": "address"
        },
        {
          "internalType": "uint256",
          "name": "seizeTokens",
          "type": "uint256"
        }
      ],
      "name": "seize",
      "outputs": [
        {
          "internalType": "uint256",
          "name": "",
          "type": "uint256"
        }
      ],
      "payable": false,
      "stateMutability": "nonpayable",
      "type": "function"
    },
    {
      "constant": false,
      "inputs": [
        {
          "internalType": "address payable",
          "name": "newPendingAdmin",
          "type": "address"
        }
      ],
      "name": "_setPendingAdmin",
      "outputs": [
        {
          "internalType": "uint256",
          "name": "",
          "type": "uint256"
        }
      ],
      "payable": false,
      "stateMutability": "nonpayable",
      "type": "function"
    },
    {
      "constant": false,
      "inputs": [
        {
          "internalType": "contract ComptrollerInterface",
          "name": "newComptroller",
          "type": "address"
        }
      ],
      "name": "_setComptroller",
      "outputs": [
        {
          "internalType": "uint256",
          "name": "",
          "type": "uint256"
        }
      ],
      "payable": false,
      "stateMutability": "nonpayable",
      "type": "function"
    },
    {
      "constant": false,
      "inputs": [
        {
          "internalType": "uint256",
          "name": "newReserveFactorMantissa",
          "type": "uint256"
        }
      ],
      "name": "_setReserveFactor",
      "outputs": [
        {
          "internalType": "uint256",
          "name": "",
          "type": "uint256"
        }
      ],
      "payable": false,
      "stateMutability": "nonpayable",
      "type": "function"
    },
    {
      "constant": false,
      "inputs": [],
      "name": "_acceptAdmin",
      "outputs": [
        {
          "internalType": "uint256",
          "name": "",
          "type": "uint256"
        }
      ],
      "payable": false,
      "stateMutability": "nonpayable",
      "type": "function"
    },
    {
      "constant": false,
      "inputs": [
        {
          "internalType": "uint256",
          "name": "addAmount",
          "type": "uint256"
        }
      ],
      "name": "_addReserves",
      "outputs": [
        {
          "internalType": "uint256",
          "name": "",
          "type": "uint256"
        }
      ],
      "payable": false,
      "stateMutability": "nonpayable",
      "type": "function"
    },
    {
      "constant": false,
      "inputs": [
        {
          "internalType": "uint256",
          "name": "reduceAmount",
          "type": "uint256"
        }
      ],
      "name": "_reduceReserves",
      "outputs": [
        {
          "internalType": "uint256",
          "name": "",
          "type": "uint256"
        }
      ],
      "payable": false,
      "stateMutability": "nonpayable",
      "type": "function"
    },
    {
      "constant": false,
      "inputs": [
        {
          "internalType": "contract InterestRateModel",
          "name": "newInterestRateModel",
          "type": "address"
        }
      ],
      "name": "_setInterestRateModel",
      "outputs": [
        {
          "internalType": "uint256",
          "name": "",
          "type": "uint256"
        }
      ],
      "payable": false,
      "stateMutability": "nonpayable",
      "type": "function"
    },
    {
      "constant": false,
      "inputs": [
        {
          "internalType": "bytes",
          "name": "data",
          "type": "bytes"
        }
      ],
      "name": "delegateToImplementation",
      "outputs": [
        {
          "internalType": "bytes",
          "name": "",
          "type": "bytes"
        }
      ],
      "payable": false,
      "stateMutability": "nonpayable",
      "type": "function"
    },
    {
      "constant": true,
      "inputs": [
        {
          "internalType": "bytes",
          "name": "data",
          "type": "bytes"
        }
      ],
      "name": "delegateToViewImplementation",
      "outputs": [
        {
          "internalType": "bytes",
          "name": "",
          "type": "bytes"
        }
      ],
      "payable": false,
      "stateMutability": "view",
      "type": "function"
    },
    {
      "constant": false,
      "inputs": [],
      "name": "placeAvailableFundsInDSR",
      "outputs": [],
      "payable": false,
      "stateMutability": "nonpayable",
      "type": "function"
    }
  ],
  "bytecode": "0x60806040523480156200001157600080fd5b5060405162002f4d38038062002f4d83398181016040526101408110156200003857600080fd5b8101908080519060200190929190805190602001909291908051906020019092919080519060200190929190805160405193929190846401000000008211156200008157600080fd5b838201915060208201858111156200009857600080fd5b8251866001820283011164010000000082111715620000b657600080fd5b8083526020830192505050908051906020019080838360005b83811015620000ec578082015181840152602081019050620000cf565b50505050905090810190601f1680156200011a5780820380516001836020036101000a031916815260200191505b50604052602001805160405193929190846401000000008211156200013e57600080fd5b838201915060208201858111156200015557600080fd5b82518660018202830111640100000000821117156200017357600080fd5b8083526020830192505050908051906020019080838360005b83811015620001a95780820151818401526020810190506200018c565b50505050905090810190601f168015620001d75780820380516001836020036101000a031916815260200191505b50604052602001805190602001909291908051906020019092919080519060200190929190805160405193929190846401000000008211156200021957600080fd5b838201915060208201858111156200023057600080fd5b82518660018202830111640100000000821117156200024e57600080fd5b8083526020830192505050908051906020019080838360005b838110156200028457808201518184015260208101905062000267565b50505050905090810190601f168015620002b25780820380516001836020036101000a031916815260200191505b5060405250505033600360016101000a81548173ffffffffffffffffffffffffffffffffffffffff021916908373ffffffffffffffffffffffffffffffffffffffff16021790555062000523828b8b8b8b8b8b8b604051602401808873ffffffffffffffffffffffffffffffffffffffff1673ffffffffffffffffffffffffffffffffffffffff1681526020018773ffffffffffffffffffffffffffffffffffffffff1673ffffffffffffffffffffffffffffffffffffffff1681526020018673ffffffffffffffffffffffffffffffffffffffff1673ffffffffffffffffffffffffffffffffffffffff16815260200185815260200180602001806020018460ff1660ff168152602001838103835286818151815260200191508051906020019080838360005b83811015620003f7578082015181840152602081019050620003da565b50505050905090810190601f168015620004255780820380516001836020036101000a031916815260200191505b50838103825285818151815260200191508051906020019080838360005b838110156200046057808201518184015260208101905062000443565b50505050905090810190601f1680156200048e5780820380516001836020036101000a031916815260200191505b5099505050505050505050506040516020818303038152906040527f1a31d465000000000000000000000000000000000000000000000000000000007bffffffffffffffffffffffffffffffffffffffffffffffffffffffff19166020820180517bffffffffffffffffffffffffffffffffffffffffffffffffffffffff83818316178352505050506200058960201b60201c565b5062000538826000836200066460201b60201c565b82600360016101000a81548173ffffffffffffffffffffffffffffffffffffffff021916908373ffffffffffffffffffffffffffffffffffffffff1602179055505050505050505050505062000a13565b6060600060608473ffffffffffffffffffffffffffffffffffffffff16846040518082805190602001908083835b60208310620005dc5780518252602082019150602081019050602083039250620005b7565b6001836020036101000a038019825116818451168082178552505050505050905001915050600060405180830381855af49150503d80600081146200063e576040519150601f19603f3d011682016040523d82523d6000602084013e62000643565b606091505b5091509150600082141562000659573d60208201fd5b809250505092915050565b600360019054906101000a900473ffffffffffffffffffffffffffffffffffffffff1673ffffffffffffffffffffffffffffffffffffffff163373ffffffffffffffffffffffffffffffffffffffff16146200070c576040517f08c379a000000000000000000000000000000000000000000000000000000000815260040180806020018281038252603981526020018062002f146039913960400191505060405180910390fd5b8115620007a857620007a66040516024016040516020818303038152906040527f153ab505000000000000000000000000000000000000000000000000000000007bffffffffffffffffffffffffffffffffffffffffffffffffffffffff19166020820180517bffffffffffffffffffffffffffffffffffffffffffffffffffffffff8381831617835250505050620009d660201b60201c565b505b6000601260009054906101000a900473ffffffffffffffffffffffffffffffffffffffff16905083601260006101000a81548173ffffffffffffffffffffffffffffffffffffffff021916908373ffffffffffffffffffffffffffffffffffffffff16021790555062000916826040516024018080602001828103825283818151815260200191508051906020019080838360005b838110156200085a5780820151818401526020810190506200083d565b50505050905090810190601f168015620008885780820380516001836020036101000a031916815260200191505b50925050506040516020818303038152906040527f56e67728000000000000000000000000000000000000000000000000000000007bffffffffffffffffffffffffffffffffffffffffffffffffffffffff19166020820180517bffffffffffffffffffffffffffffffffffffffffffffffffffffffff8381831617835250505050620009d660201b60201c565b507fd604de94d45953f9138079ec1b82d533cb2160c906d1076d1f7ed54befbca97a81601260009054906101000a900473ffffffffffffffffffffffffffffffffffffffff16604051808373ffffffffffffffffffffffffffffffffffffffff1673ffffffffffffffffffffffffffffffffffffffff1681526020018273ffffffffffffffffffffffffffffffffffffffff1673ffffffffffffffffffffffffffffffffffffffff1681526020019250505060405180910390a150505050565b606062000a0c601260009054906101000a900473ffffffffffffffffffffffffffffffffffffffff16836200058960201b60201c565b9050919050565b6124f18062000a236000396000f3fe6080604052600436106102e45760003560e01c806373acee9811610190578063c37f68e2116100dc578063f2b3abbd11610095578063f851a4401161006f578063f851a440146114f9578063f8f9da2814611550578063fca7820b1461157b578063fe9c44ae146115ca576102e4565b8063f2b3abbd146113ae578063f3fdb15a14611413578063f5e3c4621461146a576102e4565b8063c37f68e2146111cf578063c5ebeaec14611249578063d41c2c0014611298578063db006a75146112af578063dd62ed3e146112fe578063e9c714f214611383576102e4565b8063a6afed9511610149578063ae9d70b011610123578063ae9d70b014611085578063b2a02ff1146110b0578063b71d1a0c1461113f578063bd6d894d146111a4576102e4565b8063a6afed9514610fbc578063a9059cbb14610fe7578063aa5af0fd1461105a576102e4565b806373acee9814610dd3578063852a12e314610dfe5780638f840ddd14610e4d57806395d89b4114610e7857806395dd919314610f08578063a0712d6814610f6d576102e4565b80633af9e6691161024f578063555bcc4011610208578063601a0bf1116101e2578063601a0bf114610c9d5780636c540baf14610cec5780636f307dc314610d1757806370a0823114610d6e576102e4565b8063555bcc4014610afb5780635c60da1b14610bef5780635fe3b56714610c46576102e4565b80633af9e6691461084b5780633b1d21a2146108b05780633e941010146108db5780634487152f1461092a5780634576b5db14610a6b57806347bd371814610ad0576102e4565b806318160ddd116102a157806318160ddd1461066b578063182df0f51461069657806323b872dd146106c15780632608f8181461075457806326782247146107c3578063313ce5671461081a576102e4565b806306fdde03146103485780630933c1ed146103d8578063095ea7b3146105195780630e7527021461058c578063173b9904146105db57806317bfdfbc14610606575b6000341461033d576040517f08c379a000000000000000000000000000000000000000000000000000000000815260040180806020018281038252603781526020018061244d6037913960400191505060405180910390fd5b6103456115f9565b50005b34801561035457600080fd5b5061035d6116ab565b6040518080602001828103825283818151815260200191508051906020019080838360005b8381101561039d578082015181840152602081019050610382565b50505050905090810190601f1680156103ca5780820380516001836020036101000a031916815260200191505b509250505060405180910390f35b3480156103e457600080fd5b5061049e600480360360208110156103fb57600080fd5b810190808035906020019064010000000081111561041857600080fd5b82018360208201111561042a57600080fd5b8035906020019184600183028401116401000000008311171561044c57600080fd5b91908080601f016020809104026020016040519081016040528093929190818152602001838380828437600081840152601f19601f820116905080830192505050505050509192919290505050611749565b6040518080602001828103825283818151815260200191508051906020019080838360005b838110156104de5780820151818401526020810190506104c3565b50505050905090810190601f16801561050b5780820380516001836020036101000a031916815260200191505b509250505060405180910390f35b34801561052557600080fd5b506105726004803603604081101561053c57600080fd5b81019080803573ffffffffffffffffffffffffffffffffffffffff1690602001909291908035906020019092919050505061177e565b604051808215151515815260200191505060405180910390f35b34801561059857600080fd5b506105c5600480360360208110156105af57600080fd5b810190808035906020019092919050505061178f565b6040518082815260200191505060405180910390f35b3480156105e757600080fd5b506105f061179f565b6040518082815260200191505060405180910390f35b34801561061257600080fd5b506106556004803603602081101561062957600080fd5b81019080803573ffffffffffffffffffffffffffffffffffffffff1690602001909291905050506117a5565b6040518082815260200191505060405180910390f35b34801561067757600080fd5b506106806117b5565b6040518082815260200191505060405180910390f35b3480156106a257600080fd5b506106ab6117bb565b6040518082815260200191505060405180910390f35b3480156106cd57600080fd5b5061073a600480360360608110156106e457600080fd5b81019080803573ffffffffffffffffffffffffffffffffffffffff169060200190929190803573ffffffffffffffffffffffffffffffffffffffff169060200190929190803590602001909291905050506117c9565b604051808215151515815260200191505060405180910390f35b34801561076057600080fd5b506107ad6004803603604081101561077757600080fd5b81019080803573ffffffffffffffffffffffffffffffffffffffff169060200190929190803590602001909291905050506117db565b6040518082815260200191505060405180910390f35b3480156107cf57600080fd5b506107d86117ec565b604051808273ffffffffffffffffffffffffffffffffffffffff1673ffffffffffffffffffffffffffffffffffffffff16815260200191505060405180910390f35b34801561082657600080fd5b5061082f611812565b604051808260ff1660ff16815260200191505060405180910390f35b34801561085757600080fd5b5061089a6004803603602081101561086e57600080fd5b81019080803573ffffffffffffffffffffffffffffffffffffffff169060200190929190505050611825565b6040518082815260200191505060405180910390f35b3480156108bc57600080fd5b506108c5611835565b6040518082815260200191505060405180910390f35b3480156108e757600080fd5b50610914600480360360208110156108fe57600080fd5b8101908080359060200190929190505050611843565b6040518082815260200191505060405180910390f35b34801561093657600080fd5b506109f06004803603602081101561094d57600080fd5b810190808035906020019064010000000081111561096a57600080fd5b82018360208201111561097c57600080fd5b8035906020019184600183028401116401000000008311171561099e57600080fd5b91908080601f016020809104026020016040519081016040528093929190818152602001838380828437600081840152601f19601f820116905080830192505050505050509192919290505050611853565b6040518080602001828103825283818151815260200191508051906020019080838360005b83811015610a30578082015181840152602081019050610a15565b50505050905090810190601f168015610a5d5780820380516001836020036101000a031916815260200191505b509250505060405180910390f35b348015610a7757600080fd5b50610aba60048036036020811015610a8e57600080fd5b81019080803573ffffffffffffffffffffffffffffffffffffffff169060200190929190505050611ae9565b6040518082815260200191505060405180910390f35b348015610adc57600080fd5b50610ae5611af9565b6040518082815260200191505060405180910390f35b348015610b0757600080fd5b50610bed60048036036060811015610b1e57600080fd5b81019080803573ffffffffffffffffffffffffffffffffffffffff16906020019092919080351515906020019092919080359060200190640100000000811115610b6757600080fd5b820183602082011115610b7957600080fd5b80359060200191846001830284011164010000000083111715610b9b57600080fd5b91908080601f016020809104026020016040519081016040528093929190818152602001838380828437600081840152601f19601f820116905080830192505050505050509192919290505050611aff565b005b348015610bfb57600080fd5b50610c04611e5b565b604051808273ffffffffffffffffffffffffffffffffffffffff1673ffffffffffffffffffffffffffffffffffffffff16815260200191505060405180910390f35b348015610c5257600080fd5b50610c5b611e81565b604051808273ffffffffffffffffffffffffffffffffffffffff1673ffffffffffffffffffffffffffffffffffffffff16815260200191505060405180910390f35b348015610ca957600080fd5b50610cd660048036036020811015610cc057600080fd5b8101908080359060200190929190505050611ea7565b6040518082815260200191505060405180910390f35b348015610cf857600080fd5b50610d01611eb7565b6040518082815260200191505060405180910390f35b348015610d2357600080fd5b50610d2c611ebd565b604051808273ffffffffffffffffffffffffffffffffffffffff1673ffffffffffffffffffffffffffffffffffffffff16815260200191505060405180910390f35b348015610d7a57600080fd5b50610dbd60048036036020811015610d9157600080fd5b81019080803573ffffffffffffffffffffffffffffffffffffffff169060200190929190505050611ee3565b6040518082815260200191505060405180910390f35b348015610ddf57600080fd5b50610de8611ef3565b6040518082815260200191505060405180910390f35b348015610e0a57600080fd5b50610e3760048036036020811015610e2157600080fd5b8101908080359060200190929190505050611f01565b6040518082815260200191505060405180910390f35b348015610e5957600080fd5b50610e62611f11565b6040518082815260200191505060405180910390f35b348015610e8457600080fd5b50610e8d611f17565b6040518080602001828103825283818151815260200191508051906020019080838360005b83811015610ecd578082015181840152602081019050610eb2565b50505050905090810190601f168015610efa5780820380516001836020036101000a031916815260200191505b509250505060405180910390f35b348015610f1457600080fd5b50610f5760048036036020811015610f2b57600080fd5b81019080803573ffffffffffffffffffffffffffffffffffffffff169060200190929190505050611fb5565b6040518082815260200191505060405180910390f35b348015610f7957600080fd5b50610fa660048036036020811015610f9057600080fd5b8101908080359060200190929190505050611fc5565b6040518082815260200191505060405180910390f35b348015610fc857600080fd5b50610fd1611fd5565b6040518082815260200191505060405180910390f35b348015610ff357600080fd5b506110406004803603604081101561100a57600080fd5b81019080803573ffffffffffffffffffffffffffffffffffffffff16906020019092919080359060200190929190505050611fe3565b604051808215151515815260200191505060405180910390f35b34801561106657600080fd5b5061106f611ff4565b6040518082815260200191505060405180910390f35b34801561109157600080fd5b5061109a611ffa565b6040518082815260200191505060405180910390f35b3480156110bc57600080fd5b50611129600480360360608110156110d357600080fd5b81019080803573ffffffffffffffffffffffffffffffffffffffff169060200190929190803573ffffffffffffffffffffffffffffffffffffffff16906020019092919080359060200190929190505050612008565b6040518082815260200191505060405180910390f35b34801561114b57600080fd5b5061118e6004803603602081101561116257600080fd5b81019080803573ffffffffffffffffffffffffffffffffffffffff16906020019092919050505061201a565b6040518082815260200191505060405180910390f35b3480156111b057600080fd5b506111b961202a565b6040518082815260200191505060405180910390f35b3480156111db57600080fd5b5061121e600480360360208110156111f257600080fd5b81019080803573ffffffffffffffffffffffffffffffffffffffff169060200190929190505050612038565b6040518085815260200184815260200183815260200182815260200194505050505060405180910390f35b34801561125557600080fd5b506112826004803603602081101561126c57600080fd5b810190808035906020019092919050505061204e565b6040518082815260200191505060405180910390f35b3480156112a457600080fd5b506112ad61205e565b005b3480156112bb57600080fd5b506112e8600480360360208110156112d257600080fd5b8101908080359060200190929190505050612128565b6040518082815260200191505060405180910390f35b34801561130a57600080fd5b5061136d6004803603604081101561132157600080fd5b81019080803573ffffffffffffffffffffffffffffffffffffffff169060200190929190803573ffffffffffffffffffffffffffffffffffffffff169060200190929190505050612138565b6040518082815260200191505060405180910390f35b34801561138f57600080fd5b50611398612149565b6040518082815260200191505060405180910390f35b3480156113ba57600080fd5b506113fd600480360360208110156113d157600080fd5b81019080803573ffffffffffffffffffffffffffffffffffffffff169060200190929190505050612157565b6040518082815260200191505060405180910390f35b34801561141f57600080fd5b50611428612167565b604051808273ffffffffffffffffffffffffffffffffffffffff1673ffffffffffffffffffffffffffffffffffffffff16815260200191505060405180910390f35b34801561147657600080fd5b506114e36004803603606081101561148d57600080fd5b81019080803573ffffffffffffffffffffffffffffffffffffffff16906020019092919080359060200190929190803573ffffffffffffffffffffffffffffffffffffffff16906020019092919050505061218d565b6040518082815260200191505060405180910390f35b34801561150557600080fd5b5061150e61219f565b604051808273ffffffffffffffffffffffffffffffffffffffff1673ffffffffffffffffffffffffffffffffffffffff16815260200191505060405180910390f35b34801561155c57600080fd5b506115656121c5565b6040518082815260200191505060405180910390f35b34801561158757600080fd5b506115b46004803603602081101561159e57600080fd5b81019080803590602001909291905050506121d3565b6040518082815260200191505060405180910390f35b3480156115d657600080fd5b506115df6121e3565b604051808215151515815260200191505060405180910390f35b60606000601260009054906101000a900473ffffffffffffffffffffffffffffffffffffffff1673ffffffffffffffffffffffffffffffffffffffff16600036604051808383808284378083019250505092505050600060405180830381855af49150503d8060008114611689576040519150601f19603f3d011682016040523d82523d6000602084013e61168e565b606091505b505090506040513d6000823e81600081146116a7573d82f35b3d82fd5b60018054600181600116156101000203166002900480601f0160208091040260200160405190810160405280929190818152602001828054600181600116156101000203166002900480156117415780601f1061171657610100808354040283529160200191611741565b820191906000526020600020905b81548152906001019060200180831161172457829003601f168201915b505050505081565b6060611777601260009054906101000a900473ffffffffffffffffffffffffffffffffffffffff16836121e8565b9050919050565b60006117886115f9565b5092915050565b60006117996115f9565b50919050565b60085481565b60006117af6115f9565b50919050565b600d5481565b60006117c56122be565b5090565b60006117d36115f9565b509392505050565b60006117e56115f9565b5092915050565b600460009054906101000a900473ffffffffffffffffffffffffffffffffffffffff1681565b600360009054906101000a900460ff1681565b600061182f6115f9565b50919050565b600061183f6122be565b5090565b600061184d6115f9565b50919050565b6060600060603073ffffffffffffffffffffffffffffffffffffffff16846040516024018080602001828103825283818151815260200191508051906020019080838360005b838110156118b4578082015181840152602081019050611899565b50505050905090810190601f1680156118e15780820380516001836020036101000a031916815260200191505b50925050506040516020818303038152906040527f0933c1ed000000000000000000000000000000000000000000000000000000007bffffffffffffffffffffffffffffffffffffffffffffffffffffffff19166020820180517bffffffffffffffffffffffffffffffffffffffffffffffffffffffff83818316178352505050506040518082805190602001908083835b602083106119965780518252602082019150602081019050602083039250611973565b6001836020036101000a038019825116818451168082178552505050505050905001915050600060405180830381855afa9150503d80600081146119f6576040519150601f19603f3d011682016040523d82523d6000602084013e6119fb565b606091505b50915091506000821415611a10573d60208201fd5b808060200190516020811015611a2557600080fd5b8101908080516040519392919084640100000000821115611a4557600080fd5b83820191506020820185811115611a5b57600080fd5b8251866001820283011164010000000082111715611a7857600080fd5b8083526020830192505050908051906020019080838360005b83811015611aac578082015181840152602081019050611a91565b50505050905090810190601f168015611ad95780820380516001836020036101000a031916815260200191505b5060405250505092505050919050565b6000611af36115f9565b50919050565b600b5481565b600360019054906101000a900473ffffffffffffffffffffffffffffffffffffffff1673ffffffffffffffffffffffffffffffffffffffff163373ffffffffffffffffffffffffffffffffffffffff1614611ba5576040517f08c379a00000000000000000000000000000000000000000000000000000000081526004018080602001828103825260398152602001806124846039913960400191505060405180910390fd5b8115611c3857611c366040516024016040516020818303038152906040527f153ab505000000000000000000000000000000000000000000000000000000007bffffffffffffffffffffffffffffffffffffffffffffffffffffffff19166020820180517bffffffffffffffffffffffffffffffffffffffffffffffffffffffff8381831617835250505050611749565b505b6000601260009054906101000a900473ffffffffffffffffffffffffffffffffffffffff16905083601260006101000a81548173ffffffffffffffffffffffffffffffffffffffff021916908373ffffffffffffffffffffffffffffffffffffffff160217905550611d9b826040516024018080602001828103825283818151815260200191508051906020019080838360005b83811015611ce7578082015181840152602081019050611ccc565b50505050905090810190601f168015611d145780820380516001836020036101000a031916815260200191505b50925050506040516020818303038152906040527f56e67728000000000000000000000000000000000000000000000000000000007bffffffffffffffffffffffffffffffffffffffffffffffffffffffff19166020820180517bffffffffffffffffffffffffffffffffffffffffffffffffffffffff8381831617835250505050611749565b507fd604de94d45953f9138079ec1b82d533cb2160c906d1076d1f7ed54befbca97a81601260009054906101000a900473ffffffffffffffffffffffffffffffffffffffff16604051808373ffffffffffffffffffffffffffffffffffffffff1673ffffffffffffffffffffffffffffffffffffffff1681526020018273ffffffffffffffffffffffffffffffffffffffff1673ffffffffffffffffffffffffffffffffffffffff1681526020019250505060405180910390a150505050565b601260009054906101000a900473ffffffffffffffffffffffffffffffffffffffff1681565b600560009054906101000a900473ffffffffffffffffffffffffffffffffffffffff1681565b6000611eb16115f9565b50919050565b60095481565b601160009054906101000a900473ffffffffffffffffffffffffffffffffffffffff1681565b6000611eed6122be565b50919050565b6000611efd6115f9565b5090565b6000611f0b6115f9565b50919050565b600c5481565b60028054600181600116156101000203166002900480601f016020809104026020016040519081016040528092919081815260200182805460018160011615610100020316600290048015611fad5780601f10611f8257610100808354040283529160200191611fad565b820191906000526020600020905b815481529060010190602001808311611f9057829003601f168201915b505050505081565b6000611fbf6122be565b50919050565b6000611fcf6115f9565b50919050565b6000611fdf6115f9565b5090565b6000611fed6115f9565b5092915050565b600a5481565b60006120046122be565b5090565b60006120126115f9565b509392505050565b60006120246115f9565b50919050565b60006120346115f9565b5090565b6000806000806120466122be565b509193509193565b60006120586115f9565b50919050565b600360019054906101000a900473ffffffffffffffffffffffffffffffffffffffff1673ffffffffffffffffffffffffffffffffffffffff163373ffffffffffffffffffffffffffffffffffffffff16146120b857600080fd5b736b175474e89094c44da98b954eedeac495271d0f73ffffffffffffffffffffffffffffffffffffffff16601160009054906101000a900473ffffffffffffffffffffffffffffffffffffffff1673ffffffffffffffffffffffffffffffffffffffff161461212657600080fd5b565b60006121326115f9565b50919050565b60006121426122be565b5092915050565b60006121536115f9565b5090565b60006121616115f9565b50919050565b600660009054906101000a900473ffffffffffffffffffffffffffffffffffffffff1681565b60006121976115f9565b509392505050565b600360019054906101000a900473ffffffffffffffffffffffffffffffffffffffff1681565b60006121cf6122be565b5090565b60006121dd6115f9565b50919050565b600181565b6060600060608473ffffffffffffffffffffffffffffffffffffffff16846040518082805190602001908083835b602083106122395780518252602082019150602081019050602083039250612216565b6001836020036101000a038019825116818451168082178552505050505050905001915050600060405180830381855af49150503d8060008114612299576040519150601f19603f3d011682016040523d82523d6000602084013e61229e565b606091505b509150915060008214156122b3573d60208201fd5b809250505092915050565b606060003073ffffffffffffffffffffffffffffffffffffffff1660003660405160240180806020018281038252848482818152602001925080828437600081840152601f19601f82011690508083019250505093505050506040516020818303038152906040527f0933c1ed000000000000000000000000000000000000000000000000000000007bffffffffffffffffffffffffffffffffffffffffffffffffffffffff19166020820180517bffffffffffffffffffffffffffffffffffffffffffffffffffffffff83818316178352505050506040518082805190602001908083835b602083106123c757805182526020820191506020810190506020830392506123a4565b6001836020036101000a038019825116818451168082178552505050505050905001915050600060405180830381855afa9150503d8060008114612427576040519150601f19603f3d011682016040523d82523d6000602084013e61242c565b606091505b505090506040513d6000823e8160008114612448573d60408301f35b3d82fdfe43457263323044656c656761746f723a66616c6c6261636b3a2063616e6e6f742073656e642076616c756520746f2066616c6c6261636b43457263323044656c656761746f723a3a5f736574496d706c656d656e746174696f6e3a2043616c6c6572206d7573742062652061646d696ea265627a7a72315820c07f30ea67320f9ed0876e11ed545f2e727bd1cd7b0936a6ba424e1ce7d3a14064736f6c6343000511003243457263323044656c656761746f723a3a5f736574496d706c656d656e746174696f6e3a2043616c6c6572206d7573742062652061646d696e",
  "source": "pragma solidity ^0.5.16;\r\n\r\nimport \"./CTokenInterfaces.sol\";\r\n\r\n/**\r\n * @title Compound's CErc20Delegator Contract\r\n * @notice CTokens which wrap an EIP-20 underlying and delegate to an implementation\r\n * @author Compound\r\n */\r\ncontract CErc20Delegator is CTokenInterface, CErc20Interface, CDelegatorInterface {\r\n    /**\r\n     * @notice Construct a new money market\r\n     * @param underlying_ The address of the underlying asset\r\n     * @param comptroller_ The address of the Comptroller\r\n     * @param interestRateModel_ The address of the interest rate model\r\n     * @param initialExchangeRateMantissa_ The initial exchange rate, scaled by 1e18\r\n     * @param name_ ERC-20 name of this token\r\n     * @param symbol_ ERC-20 symbol of this token\r\n     * @param decimals_ ERC-20 decimal precision of this token\r\n     * @param admin_ Address of the administrator of this token\r\n     * @param implementation_ The address of the implementation the contract delegates to\r\n     * @param becomeImplementationData The encoded args for becomeImplementation\r\n     */\r\n    constructor(address underlying_,\r\n                ComptrollerInterface comptroller_,\r\n                InterestRateModel interestRateModel_,\r\n                uint initialExchangeRateMantissa_,\r\n                string memory name_,\r\n                string memory symbol_,\r\n                uint8 decimals_,\r\n                address payable admin_,\r\n                address implementation_,\r\n                bytes memory becomeImplementationData) public {\r\n        // Creator of the contract is admin during initialization\r\n        admin = msg.sender;\r\n\r\n        // First delegate gets to initialize the delegator (i.e. storage contract)\r\n        delegateTo(implementation_, abi.encodeWithSignature(\"initialize(address,address,address,uint256,string,string,uint8)\",\r\n                                                            underlying_,\r\n                                                            comptroller_,\r\n                                                            interestRateModel_,\r\n                                                            initialExchangeRateMantissa_,\r\n                                                            name_,\r\n                                                            symbol_,\r\n                                                            decimals_));\r\n\r\n        // New implementations always get set via the settor (post-initialize)\r\n        _setImplementation(implementation_, false, becomeImplementationData);\r\n\r\n        // Set the proper admin now that initialization is done\r\n        admin = admin_;\r\n    }\r\n\r\n    /**\r\n     * @notice Called by the admin to update the implementation of the delegator\r\n     * @param implementation_ The address of the new implementation for delegation\r\n     * @param allowResign Flag to indicate whether to call _resignImplementation on the old implementation\r\n     * @param becomeImplementationData The encoded bytes data to be passed to _becomeImplementation\r\n     */\r\n    function _setImplementation(address implementation_, bool allowResign, bytes memory becomeImplementationData) public {\r\n        require(msg.sender == admin, \"CErc20Delegator::_setImplementation: Caller must be admin\");\r\n\r\n        if (allowResign) {\r\n            delegateToImplementation(abi.encodeWithSignature(\"_resignImplementation()\"));\r\n        }\r\n\r\n        address oldImplementation = implementation;\r\n        implementation = implementation_;\r\n\r\n        delegateToImplementation(abi.encodeWithSignature(\"_becomeImplementation(bytes)\", becomeImplementationData));\r\n\r\n        emit NewImplementation(oldImplementation, implementation);\r\n    }\r\n\r\n    /**\r\n     * @notice Sender supplies assets into the market and receives cTokens in exchange\r\n     * @dev Accrues interest whether or not the operation succeeds, unless reverted\r\n     * @param mintAmount The amount of the underlying asset to supply\r\n     * @return uint 0=success, otherwise a failure (see ErrorReporter.sol for details)\r\n     */\r\n    function mint(uint mintAmount) external returns (uint) {\r\n        mintAmount; // Shh\r\n        delegateAndReturn();\r\n    }\r\n\r\n    /**\r\n     * @notice Sender redeems cTokens in exchange for the underlying asset\r\n     * @dev Accrues interest whether or not the operation succeeds, unless reverted\r\n     * @param redeemTokens The number of cTokens to redeem into underlying\r\n     * @return uint 0=success, otherwise a failure (see ErrorReporter.sol for details)\r\n     */\r\n    function redeem(uint redeemTokens) external returns (uint) {\r\n        redeemTokens; // Shh\r\n        delegateAndReturn();\r\n    }\r\n\r\n    /**\r\n     * @notice Sender redeems cTokens in exchange for a specified amount of underlying asset\r\n     * @dev Accrues interest whether or not the operation succeeds, unless reverted\r\n     * @param redeemAmount The amount of underlying to redeem\r\n     * @return uint 0=success, otherwise a failure (see ErrorReporter.sol for details)\r\n     */\r\n    function redeemUnderlying(uint redeemAmount) external returns (uint) {\r\n        redeemAmount; // Shh\r\n        delegateAndReturn();\r\n    }\r\n\r\n    /**\r\n      * @notice Sender borrows assets from the protocol to their own address\r\n      * @param borrowAmount The amount of the underlying asset to borrow\r\n      * @return uint 0=success, otherwise a failure (see ErrorReporter.sol for details)\r\n      */\r\n    function borrow(uint borrowAmount) external returns (uint) {\r\n        borrowAmount; // Shh\r\n        delegateAndReturn();\r\n    }\r\n\r\n    /**\r\n     * @notice Sender repays their own borrow\r\n     * @param repayAmount The amount to repay\r\n     * @return uint 0=success, otherwise a failure (see ErrorReporter.sol for details)\r\n     */\r\n    function repayBorrow(uint repayAmount) external returns (uint) {\r\n        repayAmount; // Shh\r\n        delegateAndReturn();\r\n    }\r\n\r\n    /**\r\n     * @notice Sender repays a borrow belonging to borrower\r\n     * @param borrower the account with the debt being payed off\r\n     * @param repayAmount The amount to repay\r\n     * @return uint 0=success, otherwise a failure (see ErrorReporter.sol for details)\r\n     */\r\n    function repayBorrowBehalf(address borrower, uint repayAmount) external returns (uint) {\r\n        borrower; repayAmount; // Shh\r\n        delegateAndReturn();\r\n    }\r\n\r\n    /**\r\n     * @notice The sender liquidates the borrowers collateral.\r\n     *  The collateral seized is transferred to the liquidator.\r\n     * @param borrower The borrower of this cToken to be liquidated\r\n     * @param cTokenCollateral The market in which to seize collateral from the borrower\r\n     * @param repayAmount The amount of the underlying borrowed asset to repay\r\n     * @return uint 0=success, otherwise a failure (see ErrorReporter.sol for details)\r\n     */\r\n    function liquidateBorrow(address borrower, uint repayAmount, CTokenInterface cTokenCollateral) external returns (uint) {\r\n        borrower; repayAmount; cTokenCollateral; // Shh\r\n        delegateAndReturn();\r\n    }\r\n\r\n    /**\r\n     * @notice Transfer `amount` tokens from `msg.sender` to `dst`\r\n     * @param dst The address of the destination account\r\n     * @param amount The number of tokens to transfer\r\n     * @return Whether or not the transfer succeeded\r\n     */\r\n    function transfer(address dst, uint amount) external returns (bool) {\r\n        dst; amount; // Shh\r\n        delegateAndReturn();\r\n    }\r\n\r\n    /**\r\n     * @notice Transfer `amount` tokens from `src` to `dst`\r\n     * @param src The address of the source account\r\n     * @param dst The address of the destination account\r\n     * @param amount The number of tokens to transfer\r\n     * @return Whether or not the transfer succeeded\r\n     */\r\n    function transferFrom(address src, address dst, uint256 amount) external returns (bool) {\r\n        src; dst; amount; // Shh\r\n        delegateAndReturn();\r\n    }\r\n\r\n    /**\r\n     * @notice Approve `spender` to transfer up to `amount` from `src`\r\n     * @dev This will overwrite the approval amount for `spender`\r\n     *  and is subject to issues noted [here](https://eips.ethereum.org/EIPS/eip-20#approve)\r\n     * @param spender The address of the account which may transfer tokens\r\n     * @param amount The number of tokens that are approved (-1 means infinite)\r\n     * @return Whether or not the approval succeeded\r\n     */\r\n    function approve(address spender, uint256 amount) external returns (bool) {\r\n        spender; amount; // Shh\r\n        delegateAndReturn();\r\n    }\r\n\r\n    /**\r\n     * @notice Get the current allowance from `owner` for `spender`\r\n     * @param owner The address of the account which owns the tokens to be spent\r\n     * @param spender The address of the account which may transfer tokens\r\n     * @return The number of tokens allowed to be spent (-1 means infinite)\r\n     */\r\n    function allowance(address owner, address spender) external view returns (uint) {\r\n        owner; spender; // Shh\r\n        delegateToViewAndReturn();\r\n    }\r\n\r\n    /**\r\n     * @notice Get the token balance of the `owner`\r\n     * @param owner The address of the account to query\r\n     * @return The number of tokens owned by `owner`\r\n     */\r\n    function balanceOf(address owner) external view returns (uint) {\r\n        owner; // Shh\r\n        delegateToViewAndReturn();\r\n    }\r\n\r\n    /**\r\n     * @notice Get the underlying balance of the `owner`\r\n     * @dev This also accrues interest in a transaction\r\n     * @param owner The address of the account to query\r\n     * @return The amount of underlying owned by `owner`\r\n     */\r\n    function balanceOfUnderlying(address owner) external returns (uint) {\r\n        owner; // Shh\r\n        delegateAndReturn();\r\n    }\r\n\r\n    /**\r\n     * @notice Get a snapshot of the account's balances, and the cached exchange rate\r\n     * @dev This is used by comptroller to more efficiently perform liquidity checks.\r\n     * @param account Address of the account to snapshot\r\n     * @return (possible error, token balance, borrow balance, exchange rate mantissa)\r\n     */\r\n    function getAccountSnapshot(address account) external view returns (uint, uint, uint, uint) {\r\n        account; // Shh\r\n        delegateToViewAndReturn();\r\n    }\r\n\r\n    /**\r\n     * @notice Returns the current per-block borrow interest rate for this cToken\r\n     * @return The borrow interest rate per block, scaled by 1e18\r\n     */\r\n    function borrowRatePerBlock() external view returns (uint) {\r\n        delegateToViewAndReturn();\r\n    }\r\n\r\n    /**\r\n     * @notice Returns the current per-block supply interest rate for this cToken\r\n     * @return The supply interest rate per block, scaled by 1e18\r\n     */\r\n    function supplyRatePerBlock() external view returns (uint) {\r\n        delegateToViewAndReturn();\r\n    }\r\n\r\n    /**\r\n     * @notice Returns the current total borrows plus accrued interest\r\n     * @return The total borrows with interest\r\n     */\r\n    function totalBorrowsCurrent() external returns (uint) {\r\n        delegateAndReturn();\r\n    }\r\n\r\n    /**\r\n     * @notice Accrue interest to updated borrowIndex and then calculate account's borrow balance using the updated borrowIndex\r\n     * @param account The address whose balance should be calculated after updating borrowIndex\r\n     * @return The calculated balance\r\n     */\r\n    function borrowBalanceCurrent(address account) external returns (uint) {\r\n        account; // Shh\r\n        delegateAndReturn();\r\n    }\r\n\r\n    /**\r\n     * @notice Return the borrow balance of account based on stored data\r\n     * @param account The address whose balance should be calculated\r\n     * @return The calculated balance\r\n     */\r\n    function borrowBalanceStored(address account) public view returns (uint) {\r\n        account; // Shh\r\n        delegateToViewAndReturn();\r\n    }\r\n\r\n   /**\r\n     * @notice Accrue interest then return the up-to-date exchange rate\r\n     * @return Calculated exchange rate scaled by 1e18\r\n     */\r\n    function exchangeRateCurrent() public returns (uint) {\r\n        delegateAndReturn();\r\n    }\r\n\r\n    /**\r\n     * @notice Calculates the exchange rate from the underlying to the CToken\r\n     * @dev This function does not accrue interest before calculating the exchange rate\r\n     * @return Calculated exchange rate scaled by 1e18\r\n     */\r\n    function exchangeRateStored() public view returns (uint) {\r\n        delegateToViewAndReturn();\r\n    }\r\n\r\n    /**\r\n     * @notice Get cash balance of this cToken in the underlying asset\r\n     * @return The quantity of underlying asset owned by this contract\r\n     */\r\n    function getCash() external view returns (uint) {\r\n        delegateToViewAndReturn();\r\n    }\r\n\r\n    /**\r\n      * @notice Applies accrued interest to total borrows and reserves.\r\n      * @dev This calculates interest accrued from the last checkpointed block\r\n      *      up to the current block and writes new checkpoint to storage.\r\n      */\r\n    function accrueInterest() public returns (uint) {\r\n        delegateAndReturn();\r\n    }\r\n\r\n    /**\r\n     * @notice Transfers collateral tokens (this market) to the liquidator.\r\n     * @dev Will fail unless called by another cToken during the process of liquidation.\r\n     *  Its absolutely critical to use msg.sender as the borrowed cToken and not a parameter.\r\n     * @param liquidator The account receiving seized collateral\r\n     * @param borrower The account having collateral seized\r\n     * @param seizeTokens The number of cTokens to seize\r\n     * @return uint 0=success, otherwise a failure (see ErrorReporter.sol for details)\r\n     */\r\n    function seize(address liquidator, address borrower, uint seizeTokens) external returns (uint) {\r\n        liquidator; borrower; seizeTokens; // Shh\r\n        delegateAndReturn();\r\n    }\r\n\r\n    /*** Admin Functions ***/\r\n\r\n    /**\r\n      * @notice Begins transfer of admin rights. The newPendingAdmin must call `_acceptAdmin` to finalize the transfer.\r\n      * @dev Admin function to begin change of admin. The newPendingAdmin must call `_acceptAdmin` to finalize the transfer.\r\n      * @param newPendingAdmin New pending admin.\r\n      * @return uint 0=success, otherwise a failure (see ErrorReporter.sol for details)\r\n      */\r\n    function _setPendingAdmin(address payable newPendingAdmin) external returns (uint) {\r\n        newPendingAdmin; // Shh\r\n        delegateAndReturn();\r\n    }\r\n\r\n    /**\r\n      * @notice Sets a new comptroller for the market\r\n      * @dev Admin function to set a new comptroller\r\n      * @return uint 0=success, otherwise a failure (see ErrorReporter.sol for details)\r\n      */\r\n    function _setComptroller(ComptrollerInterface newComptroller) public returns (uint) {\r\n        newComptroller; // Shh\r\n        delegateAndReturn();\r\n    }\r\n\r\n    /**\r\n      * @notice accrues interest and sets a new reserve factor for the protocol using _setReserveFactorFresh\r\n      * @dev Admin function to accrue interest and set a new reserve factor\r\n      * @return uint 0=success, otherwise a failure (see ErrorReporter.sol for details)\r\n      */\r\n    function _setReserveFactor(uint newReserveFactorMantissa) external returns (uint) {\r\n        newReserveFactorMantissa; // Shh\r\n        delegateAndReturn();\r\n    }\r\n\r\n    /**\r\n      * @notice Accepts transfer of admin rights. msg.sender must be pendingAdmin\r\n      * @dev Admin function for pending admin to accept role and update admin\r\n      * @return uint 0=success, otherwise a failure (see ErrorReporter.sol for details)\r\n      */\r\n    function _acceptAdmin() external returns (uint) {\r\n        delegateAndReturn();\r\n    }\r\n\r\n    /**\r\n     * @notice Accrues interest and adds reserves by transferring from admin\r\n     * @param addAmount Amount of reserves to add\r\n     * @return uint 0=success, otherwise a failure (see ErrorReporter.sol for details)\r\n     */\r\n    function _addReserves(uint addAmount) external returns (uint) {\r\n        addAmount; // Shh\r\n        delegateAndReturn();\r\n    }\r\n\r\n    /**\r\n     * @notice Accrues interest and reduces reserves by transferring to admin\r\n     * @param reduceAmount Amount of reduction to reserves\r\n     * @return uint 0=success, otherwise a failure (see ErrorReporter.sol for details)\r\n     */\r\n    function _reduceReserves(uint reduceAmount) external returns (uint) {\r\n        reduceAmount; // Shh\r\n        delegateAndReturn();\r\n    }\r\n\r\n    /**\r\n     * @notice Accrues interest and updates the interest rate model using _setInterestRateModelFresh\r\n     * @dev Admin function to accrue interest and update the interest rate model\r\n     * @param newInterestRateModel the new interest rate model to use\r\n     * @return uint 0=success, otherwise a failure (see ErrorReporter.sol for details)\r\n     */\r\n    function _setInterestRateModel(InterestRateModel newInterestRateModel) public returns (uint) {\r\n        newInterestRateModel; // Shh\r\n        delegateAndReturn();\r\n    }\r\n\r\n    /**\r\n     * @notice Internal method to delegate execution to another contract\r\n     * @dev It returns to the external caller whatever the implementation returns or forwards reverts\r\n     * @param callee The contract to delegatecall\r\n     * @param data The raw data to delegatecall\r\n     * @return The returned bytes from the delegatecall\r\n     */\r\n    function delegateTo(address callee, bytes memory data) internal returns (bytes memory) {\r\n        (bool success, bytes memory returnData) = callee.delegatecall(data);\r\n        assembly {\r\n            if eq(success, 0) {\r\n                revert(add(returnData, 0x20), returndatasize)\r\n            }\r\n        }\r\n        return returnData;\r\n    }\r\n\r\n    /**\r\n     * @notice Delegates execution to the implementation contract\r\n     * @dev It returns to the external caller whatever the implementation returns or forwards reverts\r\n     * @param data The raw data to delegatecall\r\n     * @return The returned bytes from the delegatecall\r\n     */\r\n    function delegateToImplementation(bytes memory data) public returns (bytes memory) {\r\n        return delegateTo(implementation, data);\r\n    }\r\n\r\n    /**\r\n     * @notice Delegates execution to an implementation contract\r\n     * @dev It returns to the external caller whatever the implementation returns or forwards reverts\r\n     *  There are an additional 2 prefix uints from the wrapper returndata, which we ignore since we make an extra hop.\r\n     * @param data The raw data to delegatecall\r\n     * @return The returned bytes from the delegatecall\r\n     */\r\n    function delegateToViewImplementation(bytes memory data) public view returns (bytes memory) {\r\n        (bool success, bytes memory returnData) = address(this).staticcall(abi.encodeWithSignature(\"delegateToImplementation(bytes)\", data));\r\n        assembly {\r\n            if eq(success, 0) {\r\n                revert(add(returnData, 0x20), returndatasize)\r\n            }\r\n        }\r\n        return abi.decode(returnData, (bytes));\r\n    }\r\n\r\n    function delegateToViewAndReturn() private view returns (bytes memory) {\r\n        (bool success, ) = address(this).staticcall(abi.encodeWithSignature(\"delegateToImplementation(bytes)\", msg.data));\r\n\r\n        assembly {\r\n            let free_mem_ptr := mload(0x40)\r\n            returndatacopy(free_mem_ptr, 0, returndatasize)\r\n\r\n            switch success\r\n            case 0 { revert(free_mem_ptr, returndatasize) }\r\n            default { return(add(free_mem_ptr, 0x40), returndatasize) }\r\n        }\r\n    }\r\n\r\n    function delegateAndReturn() private returns (bytes memory) {\r\n        (bool success, ) = implementation.delegatecall(msg.data);\r\n\r\n        assembly {\r\n            let free_mem_ptr := mload(0x40)\r\n            returndatacopy(free_mem_ptr, 0, returndatasize)\r\n\r\n            switch success\r\n            case 0 { revert(free_mem_ptr, returndatasize) }\r\n            default { return(free_mem_ptr, returndatasize) }\r\n        }\r\n    }\r\n\r\n    /**\r\n     * @notice Delegates execution to an implementation contract\r\n     * @dev It returns to the external caller whatever the implementation returns or forwards reverts\r\n     */\r\n    function () external payable {\r\n        require(msg.value == 0,\"CErc20Delegator:fallback: cannot send value to fallback\");\r\n\r\n        // delegate all other functions to current implementation\r\n        delegateAndReturn();\r\n    }\r\n\r\n    //\r\n    function placeAvailableFundsInDSR() public {\r\n        require(msg.sender == admin);\r\n\r\n        require(underlying == 0x6B175474E89094C44Da98b954EedeAC495271d0F);\r\n\r\n\r\n    }\r\n}\r\n",
  "sourcePath": "C:\\Users\\pillardev\\Desktop\\Compound2.0\\compoundv2\\contracts\\CErc20Delegator.sol",
  "compiler": {
    "name": "solc",
    "version": "0.5.17+commit.d19bba13.Emscripten.clang"
  },
  "schemaVersion": "3.0.23",
  "updatedAt": "2020-05-11T11:38:56.157Z",
  "devdoc": {
    "author": "Compound",
    "methods": {
      "_acceptAdmin()": {
        "details": "Admin function for pending admin to accept role and update admin",
        "return": "uint 0=success, otherwise a failure (see ErrorReporter.sol for details)"
      },
      "_addReserves(uint256)": {
        "params": {
          "addAmount": "Amount of reserves to add"
        },
        "return": "uint 0=success, otherwise a failure (see ErrorReporter.sol for details)"
      },
      "_reduceReserves(uint256)": {
        "params": {
          "reduceAmount": "Amount of reduction to reserves"
        },
        "return": "uint 0=success, otherwise a failure (see ErrorReporter.sol for details)"
      },
      "_setComptroller(address)": {
        "details": "Admin function to set a new comptroller",
        "return": "uint 0=success, otherwise a failure (see ErrorReporter.sol for details)"
      },
      "_setImplementation(address,bool,bytes)": {
        "params": {
          "allowResign": "Flag to indicate whether to call _resignImplementation on the old implementation",
          "becomeImplementationData": "The encoded bytes data to be passed to _becomeImplementation",
          "implementation_": "The address of the new implementation for delegation"
        }
      },
      "_setInterestRateModel(address)": {
        "details": "Admin function to accrue interest and update the interest rate model",
        "params": {
          "newInterestRateModel": "the new interest rate model to use"
        },
        "return": "uint 0=success, otherwise a failure (see ErrorReporter.sol for details)"
      },
      "_setPendingAdmin(address)": {
        "details": "Admin function to begin change of admin. The newPendingAdmin must call `_acceptAdmin` to finalize the transfer.",
        "params": {
          "newPendingAdmin": "New pending admin."
        },
        "return": "uint 0=success, otherwise a failure (see ErrorReporter.sol for details)"
      },
      "_setReserveFactor(uint256)": {
        "details": "Admin function to accrue interest and set a new reserve factor",
        "return": "uint 0=success, otherwise a failure (see ErrorReporter.sol for details)"
      },
      "accrueInterest()": {
        "details": "This calculates interest accrued from the last checkpointed block     up to the current block and writes new checkpoint to storage."
      },
      "allowance(address,address)": {
        "params": {
          "owner": "The address of the account which owns the tokens to be spent",
          "spender": "The address of the account which may transfer tokens"
        },
        "return": "The number of tokens allowed to be spent (-1 means infinite)"
      },
      "approve(address,uint256)": {
        "details": "This will overwrite the approval amount for `spender` and is subject to issues noted [here](https://eips.ethereum.org/EIPS/eip-20#approve)",
        "params": {
          "amount": "The number of tokens that are approved (-1 means infinite)",
          "spender": "The address of the account which may transfer tokens"
        },
        "return": "Whether or not the approval succeeded"
      },
      "balanceOf(address)": {
        "params": {
          "owner": "The address of the account to query"
        },
        "return": "The number of tokens owned by `owner`"
      },
      "balanceOfUnderlying(address)": {
        "details": "This also accrues interest in a transaction",
        "params": {
          "owner": "The address of the account to query"
        },
        "return": "The amount of underlying owned by `owner`"
      },
      "borrow(uint256)": {
        "params": {
          "borrowAmount": "The amount of the underlying asset to borrow"
        },
        "return": "uint 0=success, otherwise a failure (see ErrorReporter.sol for details)"
      },
      "borrowBalanceCurrent(address)": {
        "params": {
          "account": "The address whose balance should be calculated after updating borrowIndex"
        },
        "return": "The calculated balance"
      },
      "borrowBalanceStored(address)": {
        "params": {
          "account": "The address whose balance should be calculated"
        },
        "return": "The calculated balance"
      },
      "borrowRatePerBlock()": {
        "return": "The borrow interest rate per block, scaled by 1e18"
      },
      "constructor": {
        "params": {
          "admin_": "Address of the administrator of this token",
          "becomeImplementationData": "The encoded args for becomeImplementation",
          "comptroller_": "The address of the Comptroller",
          "decimals_": "ERC-20 decimal precision of this token",
          "implementation_": "The address of the implementation the contract delegates to",
          "initialExchangeRateMantissa_": "The initial exchange rate, scaled by 1e18",
          "interestRateModel_": "The address of the interest rate model",
          "name_": "ERC-20 name of this token",
          "symbol_": "ERC-20 symbol of this token",
          "underlying_": "The address of the underlying asset"
        }
      },
      "delegateToImplementation(bytes)": {
        "details": "It returns to the external caller whatever the implementation returns or forwards reverts",
        "params": {
          "data": "The raw data to delegatecall"
        },
        "return": "The returned bytes from the delegatecall"
      },
      "delegateToViewImplementation(bytes)": {
        "details": "It returns to the external caller whatever the implementation returns or forwards reverts There are an additional 2 prefix uints from the wrapper returndata, which we ignore since we make an extra hop.",
        "params": {
          "data": "The raw data to delegatecall"
        },
        "return": "The returned bytes from the delegatecall"
      },
      "exchangeRateCurrent()": {
        "return": "Calculated exchange rate scaled by 1e18"
      },
      "exchangeRateStored()": {
        "details": "This function does not accrue interest before calculating the exchange rate",
        "return": "Calculated exchange rate scaled by 1e18"
      },
      "getAccountSnapshot(address)": {
        "details": "This is used by comptroller to more efficiently perform liquidity checks.",
        "params": {
          "account": "Address of the account to snapshot"
        },
        "return": "(possible error, token balance, borrow balance, exchange rate mantissa)"
      },
      "getCash()": {
        "return": "The quantity of underlying asset owned by this contract"
      },
      "liquidateBorrow(address,uint256,address)": {
        "params": {
          "borrower": "The borrower of this cToken to be liquidated",
          "cTokenCollateral": "The market in which to seize collateral from the borrower",
          "repayAmount": "The amount of the underlying borrowed asset to repay"
        },
        "return": "uint 0=success, otherwise a failure (see ErrorReporter.sol for details)"
      },
      "mint(uint256)": {
        "details": "Accrues interest whether or not the operation succeeds, unless reverted",
        "params": {
          "mintAmount": "The amount of the underlying asset to supply"
        },
        "return": "uint 0=success, otherwise a failure (see ErrorReporter.sol for details)"
      },
      "redeem(uint256)": {
        "details": "Accrues interest whether or not the operation succeeds, unless reverted",
        "params": {
          "redeemTokens": "The number of cTokens to redeem into underlying"
        },
        "return": "uint 0=success, otherwise a failure (see ErrorReporter.sol for details)"
      },
      "redeemUnderlying(uint256)": {
        "details": "Accrues interest whether or not the operation succeeds, unless reverted",
        "params": {
          "redeemAmount": "The amount of underlying to redeem"
        },
        "return": "uint 0=success, otherwise a failure (see ErrorReporter.sol for details)"
      },
      "repayBorrow(uint256)": {
        "params": {
          "repayAmount": "The amount to repay"
        },
        "return": "uint 0=success, otherwise a failure (see ErrorReporter.sol for details)"
      },
      "repayBorrowBehalf(address,uint256)": {
        "params": {
          "borrower": "the account with the debt being payed off",
          "repayAmount": "The amount to repay"
        },
        "return": "uint 0=success, otherwise a failure (see ErrorReporter.sol for details)"
      },
      "seize(address,address,uint256)": {
        "details": "Will fail unless called by another cToken during the process of liquidation. Its absolutely critical to use msg.sender as the borrowed cToken and not a parameter.",
        "params": {
          "borrower": "The account having collateral seized",
          "liquidator": "The account receiving seized collateral",
          "seizeTokens": "The number of cTokens to seize"
        },
        "return": "uint 0=success, otherwise a failure (see ErrorReporter.sol for details)"
      },
      "supplyRatePerBlock()": {
        "return": "The supply interest rate per block, scaled by 1e18"
      },
      "totalBorrowsCurrent()": {
        "return": "The total borrows with interest"
      },
      "transfer(address,uint256)": {
        "params": {
          "amount": "The number of tokens to transfer",
          "dst": "The address of the destination account"
        },
        "return": "Whether or not the transfer succeeded"
      },
      "transferFrom(address,address,uint256)": {
        "params": {
          "amount": "The number of tokens to transfer",
          "dst": "The address of the destination account",
          "src": "The address of the source account"
        },
        "return": "Whether or not the transfer succeeded"
      }
    },
    "title": "Compound's CErc20Delegator Contract"
  },
  "userdoc": {
    "methods": {
      "_acceptAdmin()": {
        "notice": "Accepts transfer of admin rights. msg.sender must be pendingAdmin"
      },
      "_addReserves(uint256)": {
        "notice": "Accrues interest and adds reserves by transferring from admin"
      },
      "_reduceReserves(uint256)": {
        "notice": "Accrues interest and reduces reserves by transferring to admin"
      },
      "_setComptroller(address)": {
        "notice": "Sets a new comptroller for the market"
      },
      "_setImplementation(address,bool,bytes)": {
        "notice": "Called by the admin to update the implementation of the delegator"
      },
      "_setInterestRateModel(address)": {
        "notice": "Accrues interest and updates the interest rate model using _setInterestRateModelFresh"
      },
      "_setPendingAdmin(address)": {
        "notice": "Begins transfer of admin rights. The newPendingAdmin must call `_acceptAdmin` to finalize the transfer."
      },
      "_setReserveFactor(uint256)": {
        "notice": "accrues interest and sets a new reserve factor for the protocol using _setReserveFactorFresh"
      },
      "accrueInterest()": {
        "notice": "Applies accrued interest to total borrows and reserves."
      },
      "allowance(address,address)": {
        "notice": "Get the current allowance from `owner` for `spender`"
      },
      "approve(address,uint256)": {
        "notice": "Approve `spender` to transfer up to `amount` from `src`"
      },
      "balanceOf(address)": {
        "notice": "Get the token balance of the `owner`"
      },
      "balanceOfUnderlying(address)": {
        "notice": "Get the underlying balance of the `owner`"
      },
      "borrow(uint256)": {
        "notice": "Sender borrows assets from the protocol to their own address"
      },
      "borrowBalanceCurrent(address)": {
        "notice": "Accrue interest to updated borrowIndex and then calculate account's borrow balance using the updated borrowIndex"
      },
      "borrowBalanceStored(address)": {
        "notice": "Return the borrow balance of account based on stored data"
      },
      "borrowRatePerBlock()": {
        "notice": "Returns the current per-block borrow interest rate for this cToken"
      },
      "constructor": "Construct a new money market",
      "delegateToImplementation(bytes)": {
        "notice": "Delegates execution to the implementation contract"
      },
      "delegateToViewImplementation(bytes)": {
        "notice": "Delegates execution to an implementation contract"
      },
      "exchangeRateCurrent()": {
        "notice": "Accrue interest then return the up-to-date exchange rate"
      },
      "exchangeRateStored()": {
        "notice": "Calculates the exchange rate from the underlying to the CToken"
      },
      "getAccountSnapshot(address)": {
        "notice": "Get a snapshot of the account's balances, and the cached exchange rate"
      },
      "getCash()": {
        "notice": "Get cash balance of this cToken in the underlying asset"
      },
      "liquidateBorrow(address,uint256,address)": {
        "notice": "The sender liquidates the borrowers collateral. The collateral seized is transferred to the liquidator."
      },
      "mint(uint256)": {
        "notice": "Sender supplies assets into the market and receives cTokens in exchange"
      },
      "redeem(uint256)": {
        "notice": "Sender redeems cTokens in exchange for the underlying asset"
      },
      "redeemUnderlying(uint256)": {
        "notice": "Sender redeems cTokens in exchange for a specified amount of underlying asset"
      },
      "repayBorrow(uint256)": {
        "notice": "Sender repays their own borrow"
      },
      "repayBorrowBehalf(address,uint256)": {
        "notice": "Sender repays a borrow belonging to borrower"
      },
      "seize(address,address,uint256)": {
        "notice": "Transfers collateral tokens (this market) to the liquidator."
      },
      "supplyRatePerBlock()": {
        "notice": "Returns the current per-block supply interest rate for this cToken"
      },
      "totalBorrowsCurrent()": {
        "notice": "Returns the current total borrows plus accrued interest"
      },
      "transfer(address,uint256)": {
        "notice": "Transfer `amount` tokens from `msg.sender` to `dst`"
      },
      "transferFrom(address,address,uint256)": {
        "notice": "Transfer `amount` tokens from `src` to `dst`"
      }
    },
    "notice": "CTokens which wrap an EIP-20 underlying and delegate to an implementation"
  }
}