{
  "contractName": "ComptrollerV2Storage",
  "abi": [
    {
      "constant": true,
      "inputs": [],
      "name": "_borrowGuardianPaused",
      "outputs": [
        {
          "internalType": "bool",
          "name": "",
          "type": "bool"
        }
      ],
      "payable": false,
      "stateMutability": "view",
      "type": "function"
    },
    {
      "constant": true,
      "inputs": [],
      "name": "_mintGuardianPaused",
      "outputs": [
        {
          "internalType": "bool",
          "name": "",
          "type": "bool"
        }
      ],
      "payable": false,
      "stateMutability": "view",
      "type": "function"
    },
    {
      "constant": true,
      "inputs": [
        {
          "internalType": "address",
          "name": "",
          "type": "address"
        },
        {
          "internalType": "uint256",
          "name": "",
          "type": "uint256"
        }
      ],
      "name": "accountAssets",
      "outputs": [
        {
          "internalType": "contract CToken",
          "name": "",
          "type": "address"
        }
      ],
      "payable": false,
      "stateMutability": "view",
      "type": "function"
    },
    {
      "constant": true,
      "inputs": [],
      "name": "admin",
      "outputs": [
        {
          "internalType": "address",
          "name": "",
          "type": "address"
        }
      ],
      "payable": false,
      "stateMutability": "view",
      "type": "function"
    },
    {
      "constant": true,
      "inputs": [
        {
          "internalType": "address",
          "name": "",
          "type": "address"
        }
      ],
      "name": "borrowGuardianPaused",
      "outputs": [
        {
          "internalType": "bool",
          "name": "",
          "type": "bool"
        }
      ],
      "payable": false,
      "stateMutability": "view",
      "type": "function"
    },
    {
      "constant": true,
      "inputs": [],
      "name": "closeFactorMantissa",
      "outputs": [
        {
          "internalType": "uint256",
          "name": "",
          "type": "uint256"
        }
      ],
      "payable": false,
      "stateMutability": "view",
      "type": "function"
    },
    {
      "constant": true,
      "inputs": [],
      "name": "comptrollerImplementation",
      "outputs": [
        {
          "internalType": "address",
          "name": "",
          "type": "address"
        }
      ],
      "payable": false,
      "stateMutability": "view",
      "type": "function"
    },
    {
      "constant": true,
      "inputs": [],
      "name": "liquidationIncentiveMantissa",
      "outputs": [
        {
          "internalType": "uint256",
          "name": "",
          "type": "uint256"
        }
      ],
      "payable": false,
      "stateMutability": "view",
      "type": "function"
    },
    {
      "constant": true,
      "inputs": [
        {
          "internalType": "address",
          "name": "",
          "type": "address"
        }
      ],
      "name": "markets",
      "outputs": [
        {
          "internalType": "bool",
          "name": "isListed",
          "type": "bool"
        },
        {
          "internalType": "uint256",
          "name": "collateralFactorMantissa",
          "type": "uint256"
        }
      ],
      "payable": false,
      "stateMutability": "view",
      "type": "function"
    },
    {
      "constant": true,
      "inputs": [],
      "name": "maxAssets",
      "outputs": [
        {
          "internalType": "uint256",
          "name": "",
          "type": "uint256"
        }
      ],
      "payable": false,
      "stateMutability": "view",
      "type": "function"
    },
    {
      "constant": true,
      "inputs": [
        {
          "internalType": "address",
          "name": "",
          "type": "address"
        }
      ],
      "name": "mintGuardianPaused",
      "outputs": [
        {
          "internalType": "bool",
          "name": "",
          "type": "bool"
        }
      ],
      "payable": false,
      "stateMutability": "view",
      "type": "function"
    },
    {
      "constant": true,
      "inputs": [],
      "name": "oracle",
      "outputs": [
        {
          "internalType": "contract PriceOracle",
          "name": "",
          "type": "address"
        }
      ],
      "payable": false,
      "stateMutability": "view",
      "type": "function"
    },
    {
      "constant": true,
      "inputs": [],
      "name": "pauseGuardian",
      "outputs": [
        {
          "internalType": "address",
          "name": "",
          "type": "address"
        }
      ],
      "payable": false,
      "stateMutability": "view",
      "type": "function"
    },
    {
      "constant": true,
      "inputs": [],
      "name": "pendingAdmin",
      "outputs": [
        {
          "internalType": "address",
          "name": "",
          "type": "address"
        }
      ],
      "payable": false,
      "stateMutability": "view",
      "type": "function"
    },
    {
      "constant": true,
      "inputs": [],
      "name": "pendingComptrollerImplementation",
      "outputs": [
        {
          "internalType": "address",
          "name": "",
          "type": "address"
        }
      ],
      "payable": false,
      "stateMutability": "view",
      "type": "function"
    },
    {
      "constant": true,
      "inputs": [],
      "name": "seizeGuardianPaused",
      "outputs": [
        {
          "internalType": "bool",
          "name": "",
          "type": "bool"
        }
      ],
      "payable": false,
      "stateMutability": "view",
      "type": "function"
    },
    {
      "constant": true,
      "inputs": [],
      "name": "transferGuardianPaused",
      "outputs": [
        {
          "internalType": "bool",
          "name": "",
          "type": "bool"
        }
      ],
      "payable": false,
      "stateMutability": "view",
      "type": "function"
    }
  ],
  "bytecode": "0x608060405234801561001057600080fd5b50610789806100206000396000f3fe608060405234801561001057600080fd5b506004361061010b5760003560e01c80638e8f294b116100a2578063dce1544911610071578063dce15449146103f5578063dcfbc0c714610483578063e6653f3d146104cd578063e8755446146104ef578063f851a4401461050d5761010b565b80638e8f294b1461030857806394b2294b1461036b578063ac0b0bb714610389578063bb82aa5e146103ab5761010b565b80636d154ea5116100de5780636d154ea5146101e4578063731f0c2b146102405780637dc0d1d01461029c57806387f76303146102e65761010b565b806324a3d62214610110578063267822471461015a5780633c94786f146101a45780634ada90af146101c6575b600080fd5b610118610557565b604051808273ffffffffffffffffffffffffffffffffffffffff1673ffffffffffffffffffffffffffffffffffffffff16815260200191505060405180910390f35b61016261057d565b604051808273ffffffffffffffffffffffffffffffffffffffff1673ffffffffffffffffffffffffffffffffffffffff16815260200191505060405180910390f35b6101ac6105a3565b604051808215151515815260200191505060405180910390f35b6101ce6105b6565b6040518082815260200191505060405180910390f35b610226600480360360208110156101fa57600080fd5b81019080803573ffffffffffffffffffffffffffffffffffffffff1690602001909291905050506105bc565b604051808215151515815260200191505060405180910390f35b6102826004803603602081101561025657600080fd5b81019080803573ffffffffffffffffffffffffffffffffffffffff1690602001909291905050506105dc565b604051808215151515815260200191505060405180910390f35b6102a46105fc565b604051808273ffffffffffffffffffffffffffffffffffffffff1673ffffffffffffffffffffffffffffffffffffffff16815260200191505060405180910390f35b6102ee610622565b604051808215151515815260200191505060405180910390f35b61034a6004803603602081101561031e57600080fd5b81019080803573ffffffffffffffffffffffffffffffffffffffff169060200190929190505050610635565b60405180831515151581526020018281526020019250505060405180910390f35b610373610666565b6040518082815260200191505060405180910390f35b61039161066c565b604051808215151515815260200191505060405180910390f35b6103b361067f565b604051808273ffffffffffffffffffffffffffffffffffffffff1673ffffffffffffffffffffffffffffffffffffffff16815260200191505060405180910390f35b6104416004803603604081101561040b57600080fd5b81019080803573ffffffffffffffffffffffffffffffffffffffff169060200190929190803590602001909291905050506106a5565b604051808273ffffffffffffffffffffffffffffffffffffffff1673ffffffffffffffffffffffffffffffffffffffff16815260200191505060405180910390f35b61048b6106f0565b604051808273ffffffffffffffffffffffffffffffffffffffff1673ffffffffffffffffffffffffffffffffffffffff16815260200191505060405180910390f35b6104d5610716565b604051808215151515815260200191505060405180910390f35b6104f7610729565b6040518082815260200191505060405180910390f35b61051561072f565b604051808273ffffffffffffffffffffffffffffffffffffffff1673ffffffffffffffffffffffffffffffffffffffff16815260200191505060405180910390f35b600a60009054906101000a900473ffffffffffffffffffffffffffffffffffffffff1681565b600160009054906101000a900473ffffffffffffffffffffffffffffffffffffffff1681565b600a60149054906101000a900460ff1681565b60065481565b600c6020528060005260406000206000915054906101000a900460ff1681565b600b6020528060005260406000206000915054906101000a900460ff1681565b600460009054906101000a900473ffffffffffffffffffffffffffffffffffffffff1681565b600a60169054906101000a900460ff1681565b60096020528060005260406000206000915090508060000160009054906101000a900460ff16908060010154905082565b60075481565b600a60179054906101000a900460ff1681565b600260009054906101000a900473ffffffffffffffffffffffffffffffffffffffff1681565b600860205281600052604060002081815481106106be57fe5b906000526020600020016000915091509054906101000a900473ffffffffffffffffffffffffffffffffffffffff1681565b600360009054906101000a900473ffffffffffffffffffffffffffffffffffffffff1681565b600a60159054906101000a900460ff1681565b60055481565b6000809054906101000a900473ffffffffffffffffffffffffffffffffffffffff168156fea265627a7a72315820724ea58b0683b94bf8c3a6ca3a128d38e1d993a15bfa934bd3f9f08553bfdedc64736f6c63430005110032",
  "source": "pragma solidity ^0.5.16;\r\n\r\nimport \"./CToken.sol\";\r\nimport \"./PriceOracle.sol\";\r\n\r\ncontract UnitrollerAdminStorage {\r\n    /**\r\n    * @notice Administrator for this contract\r\n    */\r\n    address public admin;\r\n\r\n    /**\r\n    * @notice Pending administrator for this contract\r\n    */\r\n    address public pendingAdmin;\r\n\r\n    /**\r\n    * @notice Active brains of Unitroller\r\n    */\r\n    address public comptrollerImplementation;\r\n\r\n    /**\r\n    * @notice Pending brains of Unitroller\r\n    */\r\n    address public pendingComptrollerImplementation;\r\n}\r\n\r\ncontract ComptrollerV1Storage is UnitrollerAdminStorage {\r\n\r\n    /**\r\n     * @notice Oracle which gives the price of any given asset\r\n     */\r\n    PriceOracle public oracle;\r\n\r\n    /**\r\n     * @notice Multiplier used to calculate the maximum repayAmount when liquidating a borrow\r\n     */\r\n    uint public closeFactorMantissa;\r\n\r\n    /**\r\n     * @notice Multiplier representing the discount on collateral that a liquidator receives\r\n     */\r\n    uint public liquidationIncentiveMantissa;\r\n\r\n    /**\r\n     * @notice Max number of assets a single account can participate in (borrow or use as collateral)\r\n     */\r\n    uint public maxAssets;\r\n\r\n    /**\r\n     * @notice Per-account mapping of \"assets you are in\", capped by maxAssets\r\n     */\r\n    mapping(address => CToken[]) public accountAssets;\r\n\r\n}\r\n\r\ncontract ComptrollerV2Storage is ComptrollerV1Storage {\r\n    struct Market {\r\n        /**\r\n         * @notice Whether or not this market is listed\r\n         */\r\n        bool isListed;\r\n\r\n        /**\r\n         * @notice Multiplier representing the most one can borrow against their collateral in this market.\r\n         *  For instance, 0.9 to allow borrowing 90% of collateral value.\r\n         *  Must be between 0 and 1, and stored as a mantissa.\r\n         */\r\n        uint collateralFactorMantissa;\r\n\r\n        /**\r\n         * @notice Per-market mapping of \"accounts in this asset\"\r\n         */\r\n        mapping(address => bool) accountMembership;\r\n    }\r\n\r\n    /**\r\n     * @notice Official mapping of cTokens -> Market metadata\r\n     * @dev Used e.g. to determine if a market is supported\r\n     */\r\n    mapping(address => Market) public markets;\r\n\r\n\r\n    /**\r\n     * @notice The Pause Guardian can pause certain actions as a safety mechanism.\r\n     *  Actions which allow users to remove their own assets cannot be paused.\r\n     *  Liquidation / seizing / transfer can only be paused globally, not by market.\r\n     */\r\n    address public pauseGuardian;\r\n    bool public _mintGuardianPaused;\r\n    bool public _borrowGuardianPaused;\r\n    bool public transferGuardianPaused;\r\n    bool public seizeGuardianPaused;\r\n    mapping(address => bool) public mintGuardianPaused;\r\n    mapping(address => bool) public borrowGuardianPaused;\r\n}\r\n",
  "sourcePath": "C:\\Users\\pillardev\\Desktop\\Compound2.0\\compoundv2\\contracts\\ComptrollerStorage.sol",
  "compiler": {
    "name": "solc",
    "version": "0.5.17+commit.d19bba13.Emscripten.clang"
  },
  "schemaVersion": "3.0.23",
  "updatedAt": "2020-05-11T11:38:56.278Z",
  "devdoc": {
    "methods": {}
  },
  "userdoc": {
    "methods": {}
  }
}