{
  "contractName": "Comptroller",
  "abi": [
    {
      "inputs": [],
      "payable": false,
      "stateMutability": "nonpayable",
      "type": "constructor"
    },
    {
      "anonymous": false,
      "inputs": [
        {
          "indexed": false,
          "internalType": "string",
          "name": "action",
          "type": "string"
        },
        {
          "indexed": false,
          "internalType": "bool",
          "name": "pauseState",
          "type": "bool"
        }
      ],
      "name": "ActionPaused",
      "type": "event"
    },
    {
      "anonymous": false,
      "inputs": [
        {
          "indexed": false,
          "internalType": "contract CToken",
          "name": "cToken",
          "type": "address"
        },
        {
          "indexed": false,
          "internalType": "string",
          "name": "action",
          "type": "string"
        },
        {
          "indexed": false,
          "internalType": "bool",
          "name": "pauseState",
          "type": "bool"
        }
      ],
      "name": "ActionPaused",
      "type": "event"
    },
    {
      "anonymous": false,
      "inputs": [
        {
          "indexed": false,
          "internalType": "uint256",
          "name": "error",
          "type": "uint256"
        },
        {
          "indexed": false,
          "internalType": "uint256",
          "name": "info",
          "type": "uint256"
        },
        {
          "indexed": false,
          "internalType": "uint256",
          "name": "detail",
          "type": "uint256"
        }
      ],
      "name": "Failure",
      "type": "event"
    },
    {
      "anonymous": false,
      "inputs": [
        {
          "indexed": false,
          "internalType": "contract CToken",
          "name": "cToken",
          "type": "address"
        },
        {
          "indexed": false,
          "internalType": "address",
          "name": "account",
          "type": "address"
        }
      ],
      "name": "MarketEntered",
      "type": "event"
    },
    {
      "anonymous": false,
      "inputs": [
        {
          "indexed": false,
          "internalType": "contract CToken",
          "name": "cToken",
          "type": "address"
        },
        {
          "indexed": false,
          "internalType": "address",
          "name": "account",
          "type": "address"
        }
      ],
      "name": "MarketExited",
      "type": "event"
    },
    {
      "anonymous": false,
      "inputs": [
        {
          "indexed": false,
          "internalType": "contract CToken",
          "name": "cToken",
          "type": "address"
        }
      ],
      "name": "MarketListed",
      "type": "event"
    },
    {
      "anonymous": false,
      "inputs": [
        {
          "indexed": false,
          "internalType": "uint256",
          "name": "oldCloseFactorMantissa",
          "type": "uint256"
        },
        {
          "indexed": false,
          "internalType": "uint256",
          "name": "newCloseFactorMantissa",
          "type": "uint256"
        }
      ],
      "name": "NewCloseFactor",
      "type": "event"
    },
    {
      "anonymous": false,
      "inputs": [
        {
          "indexed": false,
          "internalType": "contract CToken",
          "name": "cToken",
          "type": "address"
        },
        {
          "indexed": false,
          "internalType": "uint256",
          "name": "oldCollateralFactorMantissa",
          "type": "uint256"
        },
        {
          "indexed": false,
          "internalType": "uint256",
          "name": "newCollateralFactorMantissa",
          "type": "uint256"
        }
      ],
      "name": "NewCollateralFactor",
      "type": "event"
    },
    {
      "anonymous": false,
      "inputs": [
        {
          "indexed": false,
          "internalType": "uint256",
          "name": "oldLiquidationIncentiveMantissa",
          "type": "uint256"
        },
        {
          "indexed": false,
          "internalType": "uint256",
          "name": "newLiquidationIncentiveMantissa",
          "type": "uint256"
        }
      ],
      "name": "NewLiquidationIncentive",
      "type": "event"
    },
    {
      "anonymous": false,
      "inputs": [
        {
          "indexed": false,
          "internalType": "uint256",
          "name": "oldMaxAssets",
          "type": "uint256"
        },
        {
          "indexed": false,
          "internalType": "uint256",
          "name": "newMaxAssets",
          "type": "uint256"
        }
      ],
      "name": "NewMaxAssets",
      "type": "event"
    },
    {
      "anonymous": false,
      "inputs": [
        {
          "indexed": false,
          "internalType": "address",
          "name": "oldPauseGuardian",
          "type": "address"
        },
        {
          "indexed": false,
          "internalType": "address",
          "name": "newPauseGuardian",
          "type": "address"
        }
      ],
      "name": "NewPauseGuardian",
      "type": "event"
    },
    {
      "anonymous": false,
      "inputs": [
        {
          "indexed": false,
          "internalType": "contract PriceOracle",
          "name": "oldPriceOracle",
          "type": "address"
        },
        {
          "indexed": false,
          "internalType": "contract PriceOracle",
          "name": "newPriceOracle",
          "type": "address"
        }
      ],
      "name": "NewPriceOracle",
      "type": "event"
    },
    {
      "constant": true,
      "inputs": [],
      "name": "_borrowGuardianPaused",
      "outputs": [
        {
          "internalType": "bool",
          "name": "",
          "type": "bool"
        }
      ],
      "payable": false,
      "stateMutability": "view",
      "type": "function"
    },
    {
      "constant": true,
      "inputs": [],
      "name": "_mintGuardianPaused",
      "outputs": [
        {
          "internalType": "bool",
          "name": "",
          "type": "bool"
        }
      ],
      "payable": false,
      "stateMutability": "view",
      "type": "function"
    },
    {
      "constant": true,
      "inputs": [
        {
          "internalType": "address",
          "name": "",
          "type": "address"
        },
        {
          "internalType": "uint256",
          "name": "",
          "type": "uint256"
        }
      ],
      "name": "accountAssets",
      "outputs": [
        {
          "internalType": "contract CToken",
          "name": "",
          "type": "address"
        }
      ],
      "payable": false,
      "stateMutability": "view",
      "type": "function"
    },
    {
      "constant": true,
      "inputs": [],
      "name": "admin",
      "outputs": [
        {
          "internalType": "address",
          "name": "",
          "type": "address"
        }
      ],
      "payable": false,
      "stateMutability": "view",
      "type": "function"
    },
    {
      "constant": true,
      "inputs": [
        {
          "internalType": "address",
          "name": "",
          "type": "address"
        }
      ],
      "name": "borrowGuardianPaused",
      "outputs": [
        {
          "internalType": "bool",
          "name": "",
          "type": "bool"
        }
      ],
      "payable": false,
      "stateMutability": "view",
      "type": "function"
    },
    {
      "constant": true,
      "inputs": [],
      "name": "closeFactorMantissa",
      "outputs": [
        {
          "internalType": "uint256",
          "name": "",
          "type": "uint256"
        }
      ],
      "payable": false,
      "stateMutability": "view",
      "type": "function"
    },
    {
      "constant": true,
      "inputs": [],
      "name": "comptrollerImplementation",
      "outputs": [
        {
          "internalType": "address",
          "name": "",
          "type": "address"
        }
      ],
      "payable": false,
      "stateMutability": "view",
      "type": "function"
    },
    {
      "constant": true,
      "inputs": [],
      "name": "isComptroller",
      "outputs": [
        {
          "internalType": "bool",
          "name": "",
          "type": "bool"
        }
      ],
      "payable": false,
      "stateMutability": "view",
      "type": "function"
    },
    {
      "constant": true,
      "inputs": [],
      "name": "liquidationIncentiveMantissa",
      "outputs": [
        {
          "internalType": "uint256",
          "name": "",
          "type": "uint256"
        }
      ],
      "payable": false,
      "stateMutability": "view",
      "type": "function"
    },
    {
      "constant": true,
      "inputs": [
        {
          "internalType": "address",
          "name": "",
          "type": "address"
        }
      ],
      "name": "markets",
      "outputs": [
        {
          "internalType": "bool",
          "name": "isListed",
          "type": "bool"
        },
        {
          "internalType": "uint256",
          "name": "collateralFactorMantissa",
          "type": "uint256"
        }
      ],
      "payable": false,
      "stateMutability": "view",
      "type": "function"
    },
    {
      "constant": true,
      "inputs": [],
      "name": "maxAssets",
      "outputs": [
        {
          "internalType": "uint256",
          "name": "",
          "type": "uint256"
        }
      ],
      "payable": false,
      "stateMutability": "view",
      "type": "function"
    },
    {
      "constant": true,
      "inputs": [
        {
          "internalType": "address",
          "name": "",
          "type": "address"
        }
      ],
      "name": "mintGuardianPaused",
      "outputs": [
        {
          "internalType": "bool",
          "name": "",
          "type": "bool"
        }
      ],
      "payable": false,
      "stateMutability": "view",
      "type": "function"
    },
    {
      "constant": true,
      "inputs": [],
      "name": "oracle",
      "outputs": [
        {
          "internalType": "contract PriceOracle",
          "name": "",
          "type": "address"
        }
      ],
      "payable": false,
      "stateMutability": "view",
      "type": "function"
    },
    {
      "constant": true,
      "inputs": [],
      "name": "pauseGuardian",
      "outputs": [
        {
          "internalType": "address",
          "name": "",
          "type": "address"
        }
      ],
      "payable": false,
      "stateMutability": "view",
      "type": "function"
    },
    {
      "constant": true,
      "inputs": [],
      "name": "pendingAdmin",
      "outputs": [
        {
          "internalType": "address",
          "name": "",
          "type": "address"
        }
      ],
      "payable": false,
      "stateMutability": "view",
      "type": "function"
    },
    {
      "constant": true,
      "inputs": [],
      "name": "pendingComptrollerImplementation",
      "outputs": [
        {
          "internalType": "address",
          "name": "",
          "type": "address"
        }
      ],
      "payable": false,
      "stateMutability": "view",
      "type": "function"
    },
    {
      "constant": true,
      "inputs": [],
      "name": "seizeGuardianPaused",
      "outputs": [
        {
          "internalType": "bool",
          "name": "",
          "type": "bool"
        }
      ],
      "payable": false,
      "stateMutability": "view",
      "type": "function"
    },
    {
      "constant": true,
      "inputs": [],
      "name": "transferGuardianPaused",
      "outputs": [
        {
          "internalType": "bool",
          "name": "",
          "type": "bool"
        }
      ],
      "payable": false,
      "stateMutability": "view",
      "type": "function"
    },
    {
      "constant": true,
      "inputs": [
        {
          "internalType": "address",
          "name": "account",
          "type": "address"
        }
      ],
      "name": "getAssetsIn",
      "outputs": [
        {
          "internalType": "contract CToken[]",
          "name": "",
          "type": "address[]"
        }
      ],
      "payable": false,
      "stateMutability": "view",
      "type": "function"
    },
    {
      "constant": true,
      "inputs": [
        {
          "internalType": "address",
          "name": "account",
          "type": "address"
        },
        {
          "internalType": "contract CToken",
          "name": "cToken",
          "type": "address"
        }
      ],
      "name": "checkMembership",
      "outputs": [
        {
          "internalType": "bool",
          "name": "",
          "type": "bool"
        }
      ],
      "payable": false,
      "stateMutability": "view",
      "type": "function"
    },
    {
      "constant": false,
      "inputs": [
        {
          "internalType": "address[]",
          "name": "cTokens",
          "type": "address[]"
        }
      ],
      "name": "enterMarkets",
      "outputs": [
        {
          "internalType": "uint256[]",
          "name": "",
          "type": "uint256[]"
        }
      ],
      "payable": false,
      "stateMutability": "nonpayable",
      "type": "function"
    },
    {
      "constant": false,
      "inputs": [
        {
          "internalType": "address",
          "name": "cTokenAddress",
          "type": "address"
        }
      ],
      "name": "exitMarket",
      "outputs": [
        {
          "internalType": "uint256",
          "name": "",
          "type": "uint256"
        }
      ],
      "payable": false,
      "stateMutability": "nonpayable",
      "type": "function"
    },
    {
      "constant": false,
      "inputs": [
        {
          "internalType": "address",
          "name": "cToken",
          "type": "address"
        },
        {
          "internalType": "address",
          "name": "minter",
          "type": "address"
        },
        {
          "internalType": "uint256",
          "name": "mintAmount",
          "type": "uint256"
        }
      ],
      "name": "mintAllowed",
      "outputs": [
        {
          "internalType": "uint256",
          "name": "",
          "type": "uint256"
        }
      ],
      "payable": false,
      "stateMutability": "nonpayable",
      "type": "function"
    },
    {
      "constant": false,
      "inputs": [
        {
          "internalType": "address",
          "name": "cToken",
          "type": "address"
        },
        {
          "internalType": "address",
          "name": "minter",
          "type": "address"
        },
        {
          "internalType": "uint256",
          "name": "actualMintAmount",
          "type": "uint256"
        },
        {
          "internalType": "uint256",
          "name": "mintTokens",
          "type": "uint256"
        }
      ],
      "name": "mintVerify",
      "outputs": [],
      "payable": false,
      "stateMutability": "nonpayable",
      "type": "function"
    },
    {
      "constant": false,
      "inputs": [
        {
          "internalType": "address",
          "name": "cToken",
          "type": "address"
        },
        {
          "internalType": "address",
          "name": "redeemer",
          "type": "address"
        },
        {
          "internalType": "uint256",
          "name": "redeemTokens",
          "type": "uint256"
        }
      ],
      "name": "redeemAllowed",
      "outputs": [
        {
          "internalType": "uint256",
          "name": "",
          "type": "uint256"
        }
      ],
      "payable": false,
      "stateMutability": "nonpayable",
      "type": "function"
    },
    {
      "constant": false,
      "inputs": [
        {
          "internalType": "address",
          "name": "cToken",
          "type": "address"
        },
        {
          "internalType": "address",
          "name": "redeemer",
          "type": "address"
        },
        {
          "internalType": "uint256",
          "name": "redeemAmount",
          "type": "uint256"
        },
        {
          "internalType": "uint256",
          "name": "redeemTokens",
          "type": "uint256"
        }
      ],
      "name": "redeemVerify",
      "outputs": [],
      "payable": false,
      "stateMutability": "nonpayable",
      "type": "function"
    },
    {
      "constant": false,
      "inputs": [
        {
          "internalType": "address",
          "name": "cToken",
          "type": "address"
        },
        {
          "internalType": "address",
          "name": "borrower",
          "type": "address"
        },
        {
          "internalType": "uint256",
          "name": "borrowAmount",
          "type": "uint256"
        }
      ],
      "name": "borrowAllowed",
      "outputs": [
        {
          "internalType": "uint256",
          "name": "",
          "type": "uint256"
        }
      ],
      "payable": false,
      "stateMutability": "nonpayable",
      "type": "function"
    },
    {
      "constant": false,
      "inputs": [
        {
          "internalType": "address",
          "name": "cToken",
          "type": "address"
        },
        {
          "internalType": "address",
          "name": "borrower",
          "type": "address"
        },
        {
          "internalType": "uint256",
          "name": "borrowAmount",
          "type": "uint256"
        }
      ],
      "name": "borrowVerify",
      "outputs": [],
      "payable": false,
      "stateMutability": "nonpayable",
      "type": "function"
    },
    {
      "constant": false,
      "inputs": [
        {
          "internalType": "address",
          "name": "cToken",
          "type": "address"
        },
        {
          "internalType": "address",
          "name": "payer",
          "type": "address"
        },
        {
          "internalType": "address",
          "name": "borrower",
          "type": "address"
        },
        {
          "internalType": "uint256",
          "name": "repayAmount",
          "type": "uint256"
        }
      ],
      "name": "repayBorrowAllowed",
      "outputs": [
        {
          "internalType": "uint256",
          "name": "",
          "type": "uint256"
        }
      ],
      "payable": false,
      "stateMutability": "nonpayable",
      "type": "function"
    },
    {
      "constant": false,
      "inputs": [
        {
          "internalType": "address",
          "name": "cToken",
          "type": "address"
        },
        {
          "internalType": "address",
          "name": "payer",
          "type": "address"
        },
        {
          "internalType": "address",
          "name": "borrower",
          "type": "address"
        },
        {
          "internalType": "uint256",
          "name": "actualRepayAmount",
          "type": "uint256"
        },
        {
          "internalType": "uint256",
          "name": "borrowerIndex",
          "type": "uint256"
        }
      ],
      "name": "repayBorrowVerify",
      "outputs": [],
      "payable": false,
      "stateMutability": "nonpayable",
      "type": "function"
    },
    {
      "constant": false,
      "inputs": [
        {
          "internalType": "address",
          "name": "cTokenBorrowed",
          "type": "address"
        },
        {
          "internalType": "address",
          "name": "cTokenCollateral",
          "type": "address"
        },
        {
          "internalType": "address",
          "name": "liquidator",
          "type": "address"
        },
        {
          "internalType": "address",
          "name": "borrower",
          "type": "address"
        },
        {
          "internalType": "uint256",
          "name": "repayAmount",
          "type": "uint256"
        }
      ],
      "name": "liquidateBorrowAllowed",
      "outputs": [
        {
          "internalType": "uint256",
          "name": "",
          "type": "uint256"
        }
      ],
      "payable": false,
      "stateMutability": "nonpayable",
      "type": "function"
    },
    {
      "constant": false,
      "inputs": [
        {
          "internalType": "address",
          "name": "cTokenBorrowed",
          "type": "address"
        },
        {
          "internalType": "address",
          "name": "cTokenCollateral",
          "type": "address"
        },
        {
          "internalType": "address",
          "name": "liquidator",
          "type": "address"
        },
        {
          "internalType": "address",
          "name": "borrower",
          "type": "address"
        },
        {
          "internalType": "uint256",
          "name": "actualRepayAmount",
          "type": "uint256"
        },
        {
          "internalType": "uint256",
          "name": "seizeTokens",
          "type": "uint256"
        }
      ],
      "name": "liquidateBorrowVerify",
      "outputs": [],
      "payable": false,
      "stateMutability": "nonpayable",
      "type": "function"
    },
    {
      "constant": false,
      "inputs": [
        {
          "internalType": "address",
          "name": "cTokenCollateral",
          "type": "address"
        },
        {
          "internalType": "address",
          "name": "cTokenBorrowed",
          "type": "address"
        },
        {
          "internalType": "address",
          "name": "liquidator",
          "type": "address"
        },
        {
          "internalType": "address",
          "name": "borrower",
          "type": "address"
        },
        {
          "internalType": "uint256",
          "name": "seizeTokens",
          "type": "uint256"
        }
      ],
      "name": "seizeAllowed",
      "outputs": [
        {
          "internalType": "uint256",
          "name": "",
          "type": "uint256"
        }
      ],
      "payable": false,
      "stateMutability": "nonpayable",
      "type": "function"
    },
    {
      "constant": false,
      "inputs": [
        {
          "internalType": "address",
          "name": "cTokenCollateral",
          "type": "address"
        },
        {
          "internalType": "address",
          "name": "cTokenBorrowed",
          "type": "address"
        },
        {
          "internalType": "address",
          "name": "liquidator",
          "type": "address"
        },
        {
          "internalType": "address",
          "name": "borrower",
          "type": "address"
        },
        {
          "internalType": "uint256",
          "name": "seizeTokens",
          "type": "uint256"
        }
      ],
      "name": "seizeVerify",
      "outputs": [],
      "payable": false,
      "stateMutability": "nonpayable",
      "type": "function"
    },
    {
      "constant": false,
      "inputs": [
        {
          "internalType": "address",
          "name": "cToken",
          "type": "address"
        },
        {
          "internalType": "address",
          "name": "src",
          "type": "address"
        },
        {
          "internalType": "address",
          "name": "dst",
          "type": "address"
        },
        {
          "internalType": "uint256",
          "name": "transferTokens",
          "type": "uint256"
        }
      ],
      "name": "transferAllowed",
      "outputs": [
        {
          "internalType": "uint256",
          "name": "",
          "type": "uint256"
        }
      ],
      "payable": false,
      "stateMutability": "nonpayable",
      "type": "function"
    },
    {
      "constant": false,
      "inputs": [
        {
          "internalType": "address",
          "name": "cToken",
          "type": "address"
        },
        {
          "internalType": "address",
          "name": "src",
          "type": "address"
        },
        {
          "internalType": "address",
          "name": "dst",
          "type": "address"
        },
        {
          "internalType": "uint256",
          "name": "transferTokens",
          "type": "uint256"
        }
      ],
      "name": "transferVerify",
      "outputs": [],
      "payable": false,
      "stateMutability": "nonpayable",
      "type": "function"
    },
    {
      "constant": true,
      "inputs": [
        {
          "internalType": "address",
          "name": "account",
          "type": "address"
        }
      ],
      "name": "getAccountLiquidity",
      "outputs": [
        {
          "internalType": "uint256",
          "name": "",
          "type": "uint256"
        },
        {
          "internalType": "uint256",
          "name": "",
          "type": "uint256"
        },
        {
          "internalType": "uint256",
          "name": "",
          "type": "uint256"
        }
      ],
      "payable": false,
      "stateMutability": "view",
      "type": "function"
    },
    {
      "constant": true,
      "inputs": [
        {
          "internalType": "address",
          "name": "account",
          "type": "address"
        },
        {
          "internalType": "address",
          "name": "cTokenModify",
          "type": "address"
        },
        {
          "internalType": "uint256",
          "name": "redeemTokens",
          "type": "uint256"
        },
        {
          "internalType": "uint256",
          "name": "borrowAmount",
          "type": "uint256"
        }
      ],
      "name": "getHypotheticalAccountLiquidity",
      "outputs": [
        {
          "internalType": "uint256",
          "name": "",
          "type": "uint256"
        },
        {
          "internalType": "uint256",
          "name": "",
          "type": "uint256"
        },
        {
          "internalType": "uint256",
          "name": "",
          "type": "uint256"
        }
      ],
      "payable": false,
      "stateMutability": "view",
      "type": "function"
    },
    {
      "constant": true,
      "inputs": [
        {
          "internalType": "address",
          "name": "cTokenBorrowed",
          "type": "address"
        },
        {
          "internalType": "address",
          "name": "cTokenCollateral",
          "type": "address"
        },
        {
          "internalType": "uint256",
          "name": "actualRepayAmount",
          "type": "uint256"
        }
      ],
      "name": "liquidateCalculateSeizeTokens",
      "outputs": [
        {
          "internalType": "uint256",
          "name": "",
          "type": "uint256"
        },
        {
          "internalType": "uint256",
          "name": "",
          "type": "uint256"
        }
      ],
      "payable": false,
      "stateMutability": "view",
      "type": "function"
    },
    {
      "constant": false,
      "inputs": [
        {
          "internalType": "contract PriceOracle",
          "name": "newOracle",
          "type": "address"
        }
      ],
      "name": "_setPriceOracle",
      "outputs": [
        {
          "internalType": "uint256",
          "name": "",
          "type": "uint256"
        }
      ],
      "payable": false,
      "stateMutability": "nonpayable",
      "type": "function"
    },
    {
      "constant": false,
      "inputs": [
        {
          "internalType": "uint256",
          "name": "newCloseFactorMantissa",
          "type": "uint256"
        }
      ],
      "name": "_setCloseFactor",
      "outputs": [
        {
          "internalType": "uint256",
          "name": "",
          "type": "uint256"
        }
      ],
      "payable": false,
      "stateMutability": "nonpayable",
      "type": "function"
    },
    {
      "constant": false,
      "inputs": [
        {
          "internalType": "contract CToken",
          "name": "cToken",
          "type": "address"
        },
        {
          "internalType": "uint256",
          "name": "newCollateralFactorMantissa",
          "type": "uint256"
        }
      ],
      "name": "_setCollateralFactor",
      "outputs": [
        {
          "internalType": "uint256",
          "name": "",
          "type": "uint256"
        }
      ],
      "payable": false,
      "stateMutability": "nonpayable",
      "type": "function"
    },
    {
      "constant": false,
      "inputs": [
        {
          "internalType": "uint256",
          "name": "newMaxAssets",
          "type": "uint256"
        }
      ],
      "name": "_setMaxAssets",
      "outputs": [
        {
          "internalType": "uint256",
          "name": "",
          "type": "uint256"
        }
      ],
      "payable": false,
      "stateMutability": "nonpayable",
      "type": "function"
    },
    {
      "constant": false,
      "inputs": [
        {
          "internalType": "uint256",
          "name": "newLiquidationIncentiveMantissa",
          "type": "uint256"
        }
      ],
      "name": "_setLiquidationIncentive",
      "outputs": [
        {
          "internalType": "uint256",
          "name": "",
          "type": "uint256"
        }
      ],
      "payable": false,
      "stateMutability": "nonpayable",
      "type": "function"
    },
    {
      "constant": false,
      "inputs": [
        {
          "internalType": "contract CToken",
          "name": "cToken",
          "type": "address"
        }
      ],
      "name": "_supportMarket",
      "outputs": [
        {
          "internalType": "uint256",
          "name": "",
          "type": "uint256"
        }
      ],
      "payable": false,
      "stateMutability": "nonpayable",
      "type": "function"
    },
    {
      "constant": false,
      "inputs": [
        {
          "internalType": "address",
          "name": "newPauseGuardian",
          "type": "address"
        }
      ],
      "name": "_setPauseGuardian",
      "outputs": [
        {
          "internalType": "uint256",
          "name": "",
          "type": "uint256"
        }
      ],
      "payable": false,
      "stateMutability": "nonpayable",
      "type": "function"
    },
    {
      "constant": false,
      "inputs": [
        {
          "internalType": "contract CToken",
          "name": "cToken",
          "type": "address"
        },
        {
          "internalType": "bool",
          "name": "state",
          "type": "bool"
        }
      ],
      "name": "_setMintPaused",
      "outputs": [
        {
          "internalType": "bool",
          "name": "",
          "type": "bool"
        }
      ],
      "payable": false,
      "stateMutability": "nonpayable",
      "type": "function"
    },
    {
      "constant": false,
      "inputs": [
        {
          "internalType": "contract CToken",
          "name": "cToken",
          "type": "address"
        },
        {
          "internalType": "bool",
          "name": "state",
          "type": "bool"
        }
      ],
      "name": "_setBorrowPaused",
      "outputs": [
        {
          "internalType": "bool",
          "name": "",
          "type": "bool"
        }
      ],
      "payable": false,
      "stateMutability": "nonpayable",
      "type": "function"
    },
    {
      "constant": false,
      "inputs": [
        {
          "internalType": "bool",
          "name": "state",
          "type": "bool"
        }
      ],
      "name": "_setTransferPaused",
      "outputs": [
        {
          "internalType": "bool",
          "name": "",
          "type": "bool"
        }
      ],
      "payable": false,
      "stateMutability": "nonpayable",
      "type": "function"
    },
    {
      "constant": false,
      "inputs": [
        {
          "internalType": "bool",
          "name": "state",
          "type": "bool"
        }
      ],
      "name": "_setSeizePaused",
      "outputs": [
        {
          "internalType": "bool",
          "name": "",
          "type": "bool"
        }
      ],
      "payable": false,
      "stateMutability": "nonpayable",
      "type": "function"
    },
    {
      "constant": false,
      "inputs": [
        {
          "internalType": "contract Unitroller",
          "name": "unitroller",
          "type": "address"
        }
      ],
      "name": "_become",
      "outputs": [],
      "payable": false,
      "stateMutability": "nonpayable",
      "type": "function"
    }
  ],
  "bytecode": "0x608060405234801561001057600080fd5b50336000806101000a81548173ffffffffffffffffffffffffffffffffffffffff021916908373ffffffffffffffffffffffffffffffffffffffff160217905550615ebc80620000616000396000f3fe608060405234801561001057600080fd5b50600436106102f05760003560e01c80636d35bf911161019d578063c2998238116100e9578063dcfbc0c7116100a2578063e87554461161007c578063e87554461461162b578063eabe7d9114611649578063ede4edd0146116cb578063f851a44014611723576102f0565b8063dcfbc0c71461155d578063e4028eee146115a7578063e6653f3d14611609576102f0565b8063c2998238146111b3578063c488847b146112c0578063d02f735114611349578063d9226ced1461140b578063da3d454c1461144d578063dce15449146114cf576102f0565b8063929fe9a111610156578063abfceffc11610130578063abfceffc1461100c578063ac0b0bb7146110a5578063bb82aa5e146110c7578063bdcdc25814611111576102f0565b8063929fe9a114610f1a57806394b2294b14610f96578063a76b3fda14610fb4576102f0565b80636d35bf9114610cf9578063731f0c2b14610da75780637dc0d1d014610e0357806387f7630314610e4d5780638e8f294b14610e6f5780638ebf636414610ed2576102f0565b806347ef3b3b1161025c57806355ee1fe1116102155780635f5af1aa116101ef5780635f5af1aa14610af55780635fc7e71e14610b4d5780636a56947e14610c0f5780636d154ea514610c9d576102f0565b806355ee1fe1146109c95780635c77860514610a215780635ec88c7914610a8f576102f0565b806347ef3b3b1461071d5780634ada90af146107d55780634e79238f146107f35780634ef4c3e11461088d5780634fd42e171461090f57806351dff98914610951576102f0565b806326782247116102ae57806326782247146105475780632d70db7814610591578063317b0b77146105d95780633bcf7ec11461061b5780633c94786f1461068357806341c728b9146106a5576102f0565b80627e3dd2146102f557806318c882a5146103175780631d504dc61461037f5780631ededc91146103c357806324008a621461045b57806324a3d622146104fd575b600080fd5b6102fd61176d565b604051808215151515815260200191505060405180910390f35b6103656004803603604081101561032d57600080fd5b81019080803573ffffffffffffffffffffffffffffffffffffffff169060200190929190803515159060200190929190505050611772565b604051808215151515815260200191505060405180910390f35b6103c16004803603602081101561039557600080fd5b81019080803573ffffffffffffffffffffffffffffffffffffffff169060200190929190505050611aef565b005b610459600480360360a08110156103d957600080fd5b81019080803573ffffffffffffffffffffffffffffffffffffffff169060200190929190803573ffffffffffffffffffffffffffffffffffffffff169060200190929190803573ffffffffffffffffffffffffffffffffffffffff1690602001909291908035906020019092919080359060200190929190505050611cf4565b005b6104e76004803603608081101561047157600080fd5b81019080803573ffffffffffffffffffffffffffffffffffffffff169060200190929190803573ffffffffffffffffffffffffffffffffffffffff169060200190929190803573ffffffffffffffffffffffffffffffffffffffff16906020019092919080359060200190929190505050611d0c565b6040518082815260200191505060405180910390f35b610505611d8e565b604051808273ffffffffffffffffffffffffffffffffffffffff1673ffffffffffffffffffffffffffffffffffffffff16815260200191505060405180910390f35b61054f611db4565b604051808273ffffffffffffffffffffffffffffffffffffffff1673ffffffffffffffffffffffffffffffffffffffff16815260200191505060405180910390f35b6105bf600480360360208110156105a757600080fd5b81019080803515159060200190929190505050611dda565b604051808215151515815260200191505060405180910390f35b610605600480360360208110156105ef57600080fd5b8101908080359060200190929190505050612040565b6040518082815260200191505060405180910390f35b6106696004803603604081101561063157600080fd5b81019080803573ffffffffffffffffffffffffffffffffffffffff1690602001909291908035151590602001909291905050506121b2565b604051808215151515815260200191505060405180910390f35b61068b61252f565b604051808215151515815260200191505060405180910390f35b61071b600480360360808110156106bb57600080fd5b81019080803573ffffffffffffffffffffffffffffffffffffffff169060200190929190803573ffffffffffffffffffffffffffffffffffffffff1690602001909291908035906020019092919080359060200190929190505050612542565b005b6107d3600480360360c081101561073357600080fd5b81019080803573ffffffffffffffffffffffffffffffffffffffff169060200190929190803573ffffffffffffffffffffffffffffffffffffffff169060200190929190803573ffffffffffffffffffffffffffffffffffffffff169060200190929190803573ffffffffffffffffffffffffffffffffffffffff1690602001909291908035906020019092919080359060200190929190505050612559565b005b6107dd612572565b6040518082815260200191505060405180910390f35b6108696004803603608081101561080957600080fd5b81019080803573ffffffffffffffffffffffffffffffffffffffff169060200190929190803573ffffffffffffffffffffffffffffffffffffffff1690602001909291908035906020019092919080359060200190929190505050612578565b60405180848152602001838152602001828152602001935050505060405180910390f35b6108f9600480360360608110156108a357600080fd5b81019080803573ffffffffffffffffffffffffffffffffffffffff169060200190929190803573ffffffffffffffffffffffffffffffffffffffff169060200190929190803590602001909291905050506125b4565b6040518082815260200191505060405180910390f35b61093b6004803603602081101561092557600080fd5b81019080803590602001909291905050506126f5565b6040518082815260200191505060405180910390f35b6109c76004803603608081101561096757600080fd5b81019080803573ffffffffffffffffffffffffffffffffffffffff169060200190929190803573ffffffffffffffffffffffffffffffffffffffff1690602001909291908035906020019092919080359060200190929190505050612868565b005b610a0b600480360360208110156109df57600080fd5b81019080803573ffffffffffffffffffffffffffffffffffffffff1690602001909291905050506128f1565b6040518082815260200191505060405180910390f35b610a8d60048036036060811015610a3757600080fd5b81019080803573ffffffffffffffffffffffffffffffffffffffff169060200190929190803573ffffffffffffffffffffffffffffffffffffffff16906020019092919080359060200190929190505050612a6f565b005b610ad160048036036020811015610aa557600080fd5b81019080803573ffffffffffffffffffffffffffffffffffffffff169060200190929190505050612a85565b60405180848152602001838152602001828152602001935050505060405180910390f35b610b3760048036036020811015610b0b57600080fd5b81019080803573ffffffffffffffffffffffffffffffffffffffff169060200190929190505050612ac0565b6040518082815260200191505060405180910390f35b610bf9600480360360a0811015610b6357600080fd5b81019080803573ffffffffffffffffffffffffffffffffffffffff169060200190929190803573ffffffffffffffffffffffffffffffffffffffff169060200190929190803573ffffffffffffffffffffffffffffffffffffffff169060200190929190803573ffffffffffffffffffffffffffffffffffffffff16906020019092919080359060200190929190505050612c60565b6040518082815260200191505060405180910390f35b610c9b60048036036080811015610c2557600080fd5b81019080803573ffffffffffffffffffffffffffffffffffffffff169060200190929190803573ffffffffffffffffffffffffffffffffffffffff169060200190929190803573ffffffffffffffffffffffffffffffffffffffff16906020019092919080359060200190929190505050612ed9565b005b610cdf60048036036020811015610cb357600080fd5b81019080803573ffffffffffffffffffffffffffffffffffffffff169060200190929190505050612ef0565b604051808215151515815260200191505060405180910390f35b610da5600480360360a0811015610d0f57600080fd5b81019080803573ffffffffffffffffffffffffffffffffffffffff169060200190929190803573ffffffffffffffffffffffffffffffffffffffff169060200190929190803573ffffffffffffffffffffffffffffffffffffffff169060200190929190803573ffffffffffffffffffffffffffffffffffffffff16906020019092919080359060200190929190505050612f10565b005b610de960048036036020811015610dbd57600080fd5b81019080803573ffffffffffffffffffffffffffffffffffffffff169060200190929190505050612f28565b604051808215151515815260200191505060405180910390f35b610e0b612f48565b604051808273ffffffffffffffffffffffffffffffffffffffff1673ffffffffffffffffffffffffffffffffffffffff16815260200191505060405180910390f35b610e55612f6e565b604051808215151515815260200191505060405180910390f35b610eb160048036036020811015610e8557600080fd5b81019080803573ffffffffffffffffffffffffffffffffffffffff169060200190929190505050612f81565b60405180831515151581526020018281526020019250505060405180910390f35b610f0060048036036020811015610ee857600080fd5b81019080803515159060200190929190505050612fb2565b604051808215151515815260200191505060405180910390f35b610f7c60048036036040811015610f3057600080fd5b81019080803573ffffffffffffffffffffffffffffffffffffffff169060200190929190803573ffffffffffffffffffffffffffffffffffffffff169060200190929190505050613218565b604051808215151515815260200191505060405180910390f35b610f9e6132af565b6040518082815260200191505060405180910390f35b610ff660048036036020811015610fca57600080fd5b81019080803573ffffffffffffffffffffffffffffffffffffffff1690602001909291905050506132b5565b6040518082815260200191505060405180910390f35b61104e6004803603602081101561102257600080fd5b81019080803573ffffffffffffffffffffffffffffffffffffffff169060200190929190505050613505565b6040518080602001828103825283818151815260200191508051906020019060200280838360005b83811015611091578082015181840152602081019050611076565b505050509050019250505060405180910390f35b6110ad6135d7565b604051808215151515815260200191505060405180910390f35b6110cf6135ea565b604051808273ffffffffffffffffffffffffffffffffffffffff1673ffffffffffffffffffffffffffffffffffffffff16815260200191505060405180910390f35b61119d6004803603608081101561112757600080fd5b81019080803573ffffffffffffffffffffffffffffffffffffffff169060200190929190803573ffffffffffffffffffffffffffffffffffffffff169060200190929190803573ffffffffffffffffffffffffffffffffffffffff16906020019092919080359060200190929190505050613610565b6040518082815260200191505060405180910390f35b611269600480360360208110156111c957600080fd5b81019080803590602001906401000000008111156111e657600080fd5b8201836020820111156111f857600080fd5b8035906020019184602083028401116401000000008311171561121a57600080fd5b919080806020026020016040519081016040528093929190818152602001838360200280828437600081840152601f19601f8201169050808301925050505050505091929192905050506136aa565b6040518080602001828103825283818151815260200191508051906020019060200280838360005b838110156112ac578082015181840152602081019050611291565b505050509050019250505060405180910390f35b61132c600480360360608110156112d657600080fd5b81019080803573ffffffffffffffffffffffffffffffffffffffff169060200190929190803573ffffffffffffffffffffffffffffffffffffffff16906020019092919080359060200190929190505050613752565b604051808381526020018281526020019250505060405180910390f35b6113f5600480360360a081101561135f57600080fd5b81019080803573ffffffffffffffffffffffffffffffffffffffff169060200190929190803573ffffffffffffffffffffffffffffffffffffffff169060200190929190803573ffffffffffffffffffffffffffffffffffffffff169060200190929190803573ffffffffffffffffffffffffffffffffffffffff16906020019092919080359060200190929190505050613b54565b6040518082815260200191505060405180910390f35b6114376004803603602081101561142157600080fd5b8101908080359060200190929190505050613dfb565b6040518082815260200191505060405180910390f35b6114b96004803603606081101561146357600080fd5b81019080803573ffffffffffffffffffffffffffffffffffffffff169060200190929190803573ffffffffffffffffffffffffffffffffffffffff16906020019092919080359060200190929190505050613ec7565b6040518082815260200191505060405180910390f35b61151b600480360360408110156114e557600080fd5b81019080803573ffffffffffffffffffffffffffffffffffffffff1690602001909291908035906020019092919050505061436e565b604051808273ffffffffffffffffffffffffffffffffffffffff1673ffffffffffffffffffffffffffffffffffffffff16815260200191505060405180910390f35b6115656143b9565b604051808273ffffffffffffffffffffffffffffffffffffffff1673ffffffffffffffffffffffffffffffffffffffff16815260200191505060405180910390f35b6115f3600480360360408110156115bd57600080fd5b81019080803573ffffffffffffffffffffffffffffffffffffffff169060200190929190803590602001909291905050506143df565b6040518082815260200191505060405180910390f35b6116116146b8565b604051808215151515815260200191505060405180910390f35b6116336146cb565b6040518082815260200191505060405180910390f35b6116b56004803603606081101561165f57600080fd5b81019080803573ffffffffffffffffffffffffffffffffffffffff169060200190929190803573ffffffffffffffffffffffffffffffffffffffff169060200190929190803590602001909291905050506146d1565b6040518082815260200191505060405180910390f35b61170d600480360360208110156116e157600080fd5b81019080803573ffffffffffffffffffffffffffffffffffffffff1690602001909291905050506146e7565b6040518082815260200191505060405180910390f35b61172b614c5f565b604051808273ffffffffffffffffffffffffffffffffffffffff1673ffffffffffffffffffffffffffffffffffffffff16815260200191505060405180910390f35b600181565b6000600960008473ffffffffffffffffffffffffffffffffffffffff1673ffffffffffffffffffffffffffffffffffffffff16815260200190815260200160002060000160009054906101000a900460ff16611819576040517f08c379a0000000000000000000000000000000000000000000000000000000008152600401808060200182810382526028815260200180615ded6028913960400191505060405180910390fd5b600a60009054906101000a900473ffffffffffffffffffffffffffffffffffffffff1673ffffffffffffffffffffffffffffffffffffffff163373ffffffffffffffffffffffffffffffffffffffff1614806118c157506000809054906101000a900473ffffffffffffffffffffffffffffffffffffffff1673ffffffffffffffffffffffffffffffffffffffff163373ffffffffffffffffffffffffffffffffffffffff16145b611916576040517f08c379a0000000000000000000000000000000000000000000000000000000008152600401808060200182810382526027815260200180615e156027913960400191505060405180910390fd5b6000809054906101000a900473ffffffffffffffffffffffffffffffffffffffff1673ffffffffffffffffffffffffffffffffffffffff163373ffffffffffffffffffffffffffffffffffffffff161480611975575060011515821515145b6119e7576040517f08c379a00000000000000000000000000000000000000000000000000000000081526004018080602001828103825260168152602001807f6f6e6c792061646d696e2063616e20756e70617573650000000000000000000081525060200191505060405180910390fd5b81600c60008573ffffffffffffffffffffffffffffffffffffffff1673ffffffffffffffffffffffffffffffffffffffff16815260200190815260200160002060006101000a81548160ff0219169083151502179055507f71aec636243f9709bb0007ae15e9afb8150ab01716d75fd7573be5cc096e03b08383604051808373ffffffffffffffffffffffffffffffffffffffff1673ffffffffffffffffffffffffffffffffffffffff1681526020018060200183151515158152602001828103825260068152602001807f426f72726f770000000000000000000000000000000000000000000000000000815250602001935050505060405180910390a181905092915050565b8073ffffffffffffffffffffffffffffffffffffffff1663f851a4406040518163ffffffff1660e01b815260040160206040518083038186803b158015611b3557600080fd5b505afa158015611b49573d6000803e3d6000fd5b505050506040513d6020811015611b5f57600080fd5b810190808051906020019092919050505073ffffffffffffffffffffffffffffffffffffffff163373ffffffffffffffffffffffffffffffffffffffff1614611bf3576040517f08c379a0000000000000000000000000000000000000000000000000000000008152600401808060200182810382526027815260200180615e616027913960400191505060405180910390fd5b60008173ffffffffffffffffffffffffffffffffffffffff1663c1e803346040518163ffffffff1660e01b8152600401602060405180830381600087803b158015611c3d57600080fd5b505af1158015611c51573d6000803e3d6000fd5b505050506040513d6020811015611c6757600080fd5b8101908080519060200190929190505050905060008114611cf0576040517f08c379a00000000000000000000000000000000000000000000000000000000081526004018080602001828103825260158152602001807f6368616e6765206e6f7420617574686f72697a6564000000000000000000000081525060200191505060405180910390fd5b5050565b600015611d05576007546007819055505b5050505050565b6000600960008673ffffffffffffffffffffffffffffffffffffffff1673ffffffffffffffffffffffffffffffffffffffff16815260200190815260200160002060000160009054906101000a900460ff16611d765760096011811115611d6f57fe5b9050611d86565b60006011811115611d8357fe5b90505b949350505050565b600a60009054906101000a900473ffffffffffffffffffffffffffffffffffffffff1681565b600160009054906101000a900473ffffffffffffffffffffffffffffffffffffffff1681565b6000600a60009054906101000a900473ffffffffffffffffffffffffffffffffffffffff1673ffffffffffffffffffffffffffffffffffffffff163373ffffffffffffffffffffffffffffffffffffffff161480611e8457506000809054906101000a900473ffffffffffffffffffffffffffffffffffffffff1673ffffffffffffffffffffffffffffffffffffffff163373ffffffffffffffffffffffffffffffffffffffff16145b611ed9576040517f08c379a0000000000000000000000000000000000000000000000000000000008152600401808060200182810382526027815260200180615e156027913960400191505060405180910390fd5b6000809054906101000a900473ffffffffffffffffffffffffffffffffffffffff1673ffffffffffffffffffffffffffffffffffffffff163373ffffffffffffffffffffffffffffffffffffffff161480611f38575060011515821515145b611faa576040517f08c379a00000000000000000000000000000000000000000000000000000000081526004018080602001828103825260168152602001807f6f6e6c792061646d696e2063616e20756e70617573650000000000000000000081525060200191505060405180910390fd5b81600a60176101000a81548160ff0219169083151502179055507fef159d9a32b2472e32b098f954f3ce62d232939f1c207070b584df1814de2de082604051808060200183151515158152602001828103825260058152602001807f5365697a650000000000000000000000000000000000000000000000000000008152506020019250505060405180910390a1819050919050565b60008060009054906101000a900473ffffffffffffffffffffffffffffffffffffffff1673ffffffffffffffffffffffffffffffffffffffff163373ffffffffffffffffffffffffffffffffffffffff16146120a9576120a260016004614c84565b90506121ad565b6120b1615d0a565b60405180602001604052808481525090506120ca615d0a565b604051806020016040528066b1a2bc2ec5000081525090506120ec8282614cf8565b15612105576120fc600580614c84565b925050506121ad565b61210d615d0a565b6040518060200160405280670c7d713b49da000081525090506121308184614d0e565b1561214a57612140600580614c84565b93505050506121ad565b60006005549050856005819055507f3b9670cf975d26958e754b57098eaa2ac914d8d2a31b83257997b9f346110fd981600554604051808381526020018281526020019250505060405180910390a1600060118111156121a657fe5b9450505050505b919050565b6000600960008473ffffffffffffffffffffffffffffffffffffffff1673ffffffffffffffffffffffffffffffffffffffff16815260200190815260200160002060000160009054906101000a900460ff16612259576040517f08c379a0000000000000000000000000000000000000000000000000000000008152600401808060200182810382526028815260200180615ded6028913960400191505060405180910390fd5b600a60009054906101000a900473ffffffffffffffffffffffffffffffffffffffff1673ffffffffffffffffffffffffffffffffffffffff163373ffffffffffffffffffffffffffffffffffffffff16148061230157506000809054906101000a900473ffffffffffffffffffffffffffffffffffffffff1673ffffffffffffffffffffffffffffffffffffffff163373ffffffffffffffffffffffffffffffffffffffff16145b612356576040517f08c379a0000000000000000000000000000000000000000000000000000000008152600401808060200182810382526027815260200180615e156027913960400191505060405180910390fd5b6000809054906101000a900473ffffffffffffffffffffffffffffffffffffffff1673ffffffffffffffffffffffffffffffffffffffff163373ffffffffffffffffffffffffffffffffffffffff1614806123b5575060011515821515145b612427576040517f08c379a00000000000000000000000000000000000000000000000000000000081526004018080602001828103825260168152602001807f6f6e6c792061646d696e2063616e20756e70617573650000000000000000000081525060200191505060405180910390fd5b81600b60008573ffffffffffffffffffffffffffffffffffffffff1673ffffffffffffffffffffffffffffffffffffffff16815260200190815260200160002060006101000a81548160ff0219169083151502179055507f71aec636243f9709bb0007ae15e9afb8150ab01716d75fd7573be5cc096e03b08383604051808373ffffffffffffffffffffffffffffffffffffffff1673ffffffffffffffffffffffffffffffffffffffff1681526020018060200183151515158152602001828103825260048152602001807f4d696e7400000000000000000000000000000000000000000000000000000000815250602001935050505060405180910390a181905092915050565b600a60149054906101000a900460ff1681565b600015612553576007546007819055505b50505050565b60001561256a576007546007819055505b505050505050565b60065481565b60008060008060008061258d8a8a8a8a614d23565b92509250925082601181111561259f57fe5b82829550955095505050509450945094915050565b6000600b60008573ffffffffffffffffffffffffffffffffffffffff1673ffffffffffffffffffffffffffffffffffffffff16815260200190815260200160002060009054906101000a900460ff1615612676576040517f08c379a000000000000000000000000000000000000000000000000000000000815260040180806020018281038252600e8152602001807f6d696e742069732070617573656400000000000000000000000000000000000081525060200191505060405180910390fd5b600960008573ffffffffffffffffffffffffffffffffffffffff1673ffffffffffffffffffffffffffffffffffffffff16815260200190815260200160002060000160009054906101000a900460ff166126de57600960118111156126d757fe5b90506126ee565b600060118111156126eb57fe5b90505b9392505050565b60008060009054906101000a900473ffffffffffffffffffffffffffffffffffffffff1673ffffffffffffffffffffffffffffffffffffffff163373ffffffffffffffffffffffffffffffffffffffff161461275e576127576001600b614c84565b9050612863565b612766615d0a565b604051806020016040528084815250905061277f615d0a565b6040518060200160405280670de0b6b3a764000081525090506127a28282614d0e565b156127bc576127b36007600c614c84565b92505050612863565b6127c4615d0a565b60405180602001604052806714d1120d7b16000081525090506127e78184614d0e565b15612802576127f86007600c614c84565b9350505050612863565b60006006549050856006819055507faeba5a6c40a8ac138134bff1aaa65debf25971188a58804bad717f82f0ec13168187604051808381526020018281526020019250505060405180910390a16000601181111561285c57fe5b9450505050505b919050565b6000811480156128785750600082115b156128eb576040517f08c379a00000000000000000000000000000000000000000000000000000000081526004018080602001828103825260118152602001807f72656465656d546f6b656e73207a65726f00000000000000000000000000000081525060200191505060405180910390fd5b50505050565b60008060009054906101000a900473ffffffffffffffffffffffffffffffffffffffff1673ffffffffffffffffffffffffffffffffffffffff163373ffffffffffffffffffffffffffffffffffffffff161461295a5761295360016010614c84565b9050612a6a565b6000600460009054906101000a900473ffffffffffffffffffffffffffffffffffffffff16905082600460006101000a81548173ffffffffffffffffffffffffffffffffffffffff021916908373ffffffffffffffffffffffffffffffffffffffff1602179055507fd52b2b9b7e9ee655fcb95d2e5b9e0c9f69e7ef2b8e9d2d0ea78402d576d22e228184604051808373ffffffffffffffffffffffffffffffffffffffff1673ffffffffffffffffffffffffffffffffffffffff1681526020018273ffffffffffffffffffffffffffffffffffffffff1673ffffffffffffffffffffffffffffffffffffffff1681526020019250505060405180910390a160006011811115612a6657fe5b9150505b919050565b600015612a80576007546007819055505b505050565b600080600080600080612a9c876000806000614d23565b925092509250826011811115612aae57fe5b82829550955095505050509193909250565b60008060009054906101000a900473ffffffffffffffffffffffffffffffffffffffff1673ffffffffffffffffffffffffffffffffffffffff163373ffffffffffffffffffffffffffffffffffffffff1614612b2957612b2260016013614c84565b9050612c5b565b6000600a60009054906101000a900473ffffffffffffffffffffffffffffffffffffffff16905082600a60006101000a81548173ffffffffffffffffffffffffffffffffffffffff021916908373ffffffffffffffffffffffffffffffffffffffff1602179055507f0613b6ee6a04f0d09f390e4d9318894b9f6ac7fd83897cd8d18896ba579c401e81600a60009054906101000a900473ffffffffffffffffffffffffffffffffffffffff16604051808373ffffffffffffffffffffffffffffffffffffffff1673ffffffffffffffffffffffffffffffffffffffff1681526020018273ffffffffffffffffffffffffffffffffffffffff1673ffffffffffffffffffffffffffffffffffffffff1681526020019250505060405180910390a160006011811115612c5757fe5b9150505b919050565b6000600960008773ffffffffffffffffffffffffffffffffffffffff1673ffffffffffffffffffffffffffffffffffffffff16815260200190815260200160002060000160009054906101000a900460ff161580612d0b5750600960008673ffffffffffffffffffffffffffffffffffffffff1673ffffffffffffffffffffffffffffffffffffffff16815260200190815260200160002060000160009054906101000a900460ff16155b15612d245760096011811115612d1d57fe5b9050612ed0565b600080612d3085615348565b925050915060006011811115612d4257fe5b826011811115612d4e57fe5b14612d6857816011811115612d5f57fe5b92505050612ed0565b6000811415612d875760036011811115612d7e57fe5b92505050612ed0565b60008873ffffffffffffffffffffffffffffffffffffffff166395dd9193876040518263ffffffff1660e01b8152600401808273ffffffffffffffffffffffffffffffffffffffff1673ffffffffffffffffffffffffffffffffffffffff16815260200191505060206040518083038186803b158015612e0657600080fd5b505afa158015612e1a573d6000803e3d6000fd5b505050506040513d6020811015612e3057600080fd5b81019080805190602001909291905050509050600080612e60604051806020016040528060055481525084615368565b9150915060006003811115612e7157fe5b826003811115612e7d57fe5b14612e9b57600b6011811115612e8f57fe5b95505050505050612ed0565b80871115612ebb57601180811115612eaf57fe5b95505050505050612ed0565b60006011811115612ec857fe5b955050505050505b95945050505050565b600015612eea576007546007819055505b50505050565b600c6020528060005260406000206000915054906101000a900460ff1681565b600015612f21576007546007819055505b5050505050565b600b6020528060005260406000206000915054906101000a900460ff1681565b600460009054906101000a900473ffffffffffffffffffffffffffffffffffffffff1681565b600a60169054906101000a900460ff1681565b60096020528060005260406000206000915090508060000160009054906101000a900460ff16908060010154905082565b6000600a60009054906101000a900473ffffffffffffffffffffffffffffffffffffffff1673ffffffffffffffffffffffffffffffffffffffff163373ffffffffffffffffffffffffffffffffffffffff16148061305c57506000809054906101000a900473ffffffffffffffffffffffffffffffffffffffff1673ffffffffffffffffffffffffffffffffffffffff163373ffffffffffffffffffffffffffffffffffffffff16145b6130b1576040517f08c379a0000000000000000000000000000000000000000000000000000000008152600401808060200182810382526027815260200180615e156027913960400191505060405180910390fd5b6000809054906101000a900473ffffffffffffffffffffffffffffffffffffffff1673ffffffffffffffffffffffffffffffffffffffff163373ffffffffffffffffffffffffffffffffffffffff161480613110575060011515821515145b613182576040517f08c379a00000000000000000000000000000000000000000000000000000000081526004018080602001828103825260168152602001807f6f6e6c792061646d696e2063616e20756e70617573650000000000000000000081525060200191505060405180910390fd5b81600a60166101000a81548160ff0219169083151502179055507fef159d9a32b2472e32b098f954f3ce62d232939f1c207070b584df1814de2de082604051808060200183151515158152602001828103825260088152602001807f5472616e736665720000000000000000000000000000000000000000000000008152506020019250505060405180910390a1819050919050565b6000600960008373ffffffffffffffffffffffffffffffffffffffff1673ffffffffffffffffffffffffffffffffffffffff16815260200190815260200160002060020160008473ffffffffffffffffffffffffffffffffffffffff1673ffffffffffffffffffffffffffffffffffffffff16815260200190815260200160002060009054906101000a900460ff16905092915050565b60075481565b60008060009054906101000a900473ffffffffffffffffffffffffffffffffffffffff1673ffffffffffffffffffffffffffffffffffffffff163373ffffffffffffffffffffffffffffffffffffffff161461331e5761331760016012614c84565b9050613500565b600960008373ffffffffffffffffffffffffffffffffffffffff1673ffffffffffffffffffffffffffffffffffffffff16815260200190815260200160002060000160009054906101000a900460ff16156133865761337f600a6011614c84565b9050613500565b8173ffffffffffffffffffffffffffffffffffffffff1663fe9c44ae6040518163ffffffff1660e01b815260040160206040518083038186803b1580156133cc57600080fd5b505afa1580156133e0573d6000803e3d6000fd5b505050506040513d60208110156133f657600080fd5b81019080805190602001909291905050505060405180604001604052806001151581526020016000815250600960008473ffffffffffffffffffffffffffffffffffffffff1673ffffffffffffffffffffffffffffffffffffffff16815260200190815260200160002060008201518160000160006101000a81548160ff021916908315150217905550602082015181600101559050507fcf583bb0c569eb967f806b11601c4cb93c10310485c67add5f8362c2f212321f82604051808273ffffffffffffffffffffffffffffffffffffffff1673ffffffffffffffffffffffffffffffffffffffff16815260200191505060405180910390a1600060118111156134fd57fe5b90505b919050565b606080600860008473ffffffffffffffffffffffffffffffffffffffff1673ffffffffffffffffffffffffffffffffffffffff1681526020019081526020016000208054806020026020016040519081016040528092919081815260200182805480156135c757602002820191906000526020600020905b8160009054906101000a900473ffffffffffffffffffffffffffffffffffffffff1673ffffffffffffffffffffffffffffffffffffffff168152602001906001019080831161357d575b5050505050905080915050919050565b600a60179054906101000a900460ff1681565b600260009054906101000a900473ffffffffffffffffffffffffffffffffffffffff1681565b6000600a60169054906101000a900460ff1615613695576040517f08c379a00000000000000000000000000000000000000000000000000000000081526004018080602001828103825260128152602001807f7472616e7366657220697320706175736564000000000000000000000000000081525060200191505060405180910390fd5b6136a08585846153cb565b9050949350505050565b60606000825190506060816040519080825280602002602001820160405280156136e35781602001602082028038833980820191505090505b50905060008090505b8281101561374757600085828151811061370257fe5b60200260200101519050613716813361555a565b601181111561372157fe5b83838151811061372d57fe5b6020026020010181815250505080806001019150506136ec565b508092505050919050565b6000806000600460009054906101000a900473ffffffffffffffffffffffffffffffffffffffff1673ffffffffffffffffffffffffffffffffffffffff1663fc57d4df876040518263ffffffff1660e01b8152600401808273ffffffffffffffffffffffffffffffffffffffff1673ffffffffffffffffffffffffffffffffffffffff16815260200191505060206040518083038186803b1580156137f657600080fd5b505afa15801561380a573d6000803e3d6000fd5b505050506040513d602081101561382057600080fd5b810190808051906020019092919050505090506000600460009054906101000a900473ffffffffffffffffffffffffffffffffffffffff1673ffffffffffffffffffffffffffffffffffffffff1663fc57d4df876040518263ffffffff1660e01b8152600401808273ffffffffffffffffffffffffffffffffffffffff1673ffffffffffffffffffffffffffffffffffffffff16815260200191505060206040518083038186803b1580156138d457600080fd5b505afa1580156138e8573d6000803e3d6000fd5b505050506040513d60208110156138fe57600080fd5b8101908080519060200190929190505050905060008214806139205750600081145b1561394257600d601181111561393257fe5b6000809050935093505050613b4c565b60008673ffffffffffffffffffffffffffffffffffffffff1663182df0f56040518163ffffffff1660e01b815260040160206040518083038186803b15801561398a57600080fd5b505afa15801561399e573d6000803e3d6000fd5b505050506040513d60208110156139b457600080fd5b8101908080519060200190929190505050905060006139d1615d0a565b6139d9615d0a565b6139e1615d0a565b60006139ef60065489615818565b809550819250505060006003811115613a0457fe5b816003811115613a1057fe5b14613a3857600b6011811115613a2257fe5b6000809050995099505050505050505050613b4c565b613a428787615818565b809450819250505060006003811115613a5757fe5b816003811115613a6357fe5b14613a8b57600b6011811115613a7557fe5b6000809050995099505050505050505050613b4c565b613a958484615853565b809350819250505060006003811115613aaa57fe5b816003811115613ab657fe5b14613ade57600b6011811115613ac857fe5b6000809050995099505050505050505050613b4c565b613ae8828c615368565b809650819250505060006003811115613afd57fe5b816003811115613b0957fe5b14613b3157600b6011811115613b1b57fe5b6000809050995099505050505050505050613b4c565b60006011811115613b3e57fe5b859950995050505050505050505b935093915050565b6000600a60179054906101000a900460ff1615613bd9576040517f08c379a000000000000000000000000000000000000000000000000000000000815260040180806020018281038252600f8152602001807f7365697a6520697320706175736564000000000000000000000000000000000081525060200191505060405180910390fd5b600960008773ffffffffffffffffffffffffffffffffffffffff1673ffffffffffffffffffffffffffffffffffffffff16815260200190815260200160002060000160009054906101000a900460ff161580613c825750600960008673ffffffffffffffffffffffffffffffffffffffff1673ffffffffffffffffffffffffffffffffffffffff16815260200190815260200160002060000160009054906101000a900460ff16155b15613c9b5760096011811115613c9457fe5b9050613df2565b8473ffffffffffffffffffffffffffffffffffffffff16635fe3b5676040518163ffffffff1660e01b815260040160206040518083038186803b158015613ce157600080fd5b505afa158015613cf5573d6000803e3d6000fd5b505050506040513d6020811015613d0b57600080fd5b810190808051906020019092919050505073ffffffffffffffffffffffffffffffffffffffff168673ffffffffffffffffffffffffffffffffffffffff16635fe3b5676040518163ffffffff1660e01b815260040160206040518083038186803b158015613d7857600080fd5b505afa158015613d8c573d6000803e3d6000fd5b505050506040513d6020811015613da257600080fd5b810190808051906020019092919050505073ffffffffffffffffffffffffffffffffffffffff1614613de25760026011811115613ddb57fe5b9050613df2565b60006011811115613def57fe5b90505b95945050505050565b60008060009054906101000a900473ffffffffffffffffffffffffffffffffffffffff1673ffffffffffffffffffffffffffffffffffffffff163373ffffffffffffffffffffffffffffffffffffffff1614613e6457613e5d6001600d614c84565b9050613ec2565b60006007549050826007819055507f7093cf1eb653f749c3ff531d6df7f92764536a7fa0d13530cd26e070780c32ea8184604051808381526020018281526020019250505060405180910390a160006011811115613ebe57fe5b9150505b919050565b6000600c60008573ffffffffffffffffffffffffffffffffffffffff1673ffffffffffffffffffffffffffffffffffffffff16815260200190815260200160002060009054906101000a900460ff1615613f89576040517f08c379a00000000000000000000000000000000000000000000000000000000081526004018080602001828103825260108152602001807f626f72726f77206973207061757365640000000000000000000000000000000081525060200191505060405180910390fd5b600960008573ffffffffffffffffffffffffffffffffffffffff1673ffffffffffffffffffffffffffffffffffffffff16815260200190815260200160002060000160009054906101000a900460ff16613ff15760096011811115613fea57fe5b9050614367565b600960008573ffffffffffffffffffffffffffffffffffffffff1673ffffffffffffffffffffffffffffffffffffffff16815260200190815260200160002060020160008473ffffffffffffffffffffffffffffffffffffffff1673ffffffffffffffffffffffffffffffffffffffff16815260200190815260200160002060009054906101000a900460ff166141f8578373ffffffffffffffffffffffffffffffffffffffff163373ffffffffffffffffffffffffffffffffffffffff1614614123576040517f08c379a00000000000000000000000000000000000000000000000000000000081526004018080602001828103825260158152602001807f73656e646572206d7573742062652063546f6b656e000000000000000000000081525060200191505060405180910390fd5b600061412f338561555a565b90506000601181111561413e57fe5b81601181111561414a57fe5b146141635780601181111561415b57fe5b915050614367565b600960008673ffffffffffffffffffffffffffffffffffffffff1673ffffffffffffffffffffffffffffffffffffffff16815260200190815260200160002060020160008573ffffffffffffffffffffffffffffffffffffffff1673ffffffffffffffffffffffffffffffffffffffff16815260200190815260200160002060009054906101000a900460ff166141f657fe5b505b6000600460009054906101000a900473ffffffffffffffffffffffffffffffffffffffff1673ffffffffffffffffffffffffffffffffffffffff1663fc57d4df866040518263ffffffff1660e01b8152600401808273ffffffffffffffffffffffffffffffffffffffff1673ffffffffffffffffffffffffffffffffffffffff16815260200191505060206040518083038186803b15801561429957600080fd5b505afa1580156142ad573d6000803e3d6000fd5b505050506040513d60208110156142c357600080fd5b810190808051906020019092919050505014156142ee57600d60118111156142e757fe5b9050614367565b6000806142fe8587600087614d23565b92505091506000601181111561431057fe5b82601181111561431c57fe5b146143365781601181111561432d57fe5b92505050614367565b6000811115614355576004601181111561434c57fe5b92505050614367565b6000601181111561436257fe5b925050505b9392505050565b6008602052816000526040600020818154811061438757fe5b906000526020600020016000915091509054906101000a900473ffffffffffffffffffffffffffffffffffffffff1681565b600360009054906101000a900473ffffffffffffffffffffffffffffffffffffffff1681565b60008060009054906101000a900473ffffffffffffffffffffffffffffffffffffffff1673ffffffffffffffffffffffffffffffffffffffff163373ffffffffffffffffffffffffffffffffffffffff16146144485761444160016006614c84565b90506146b2565b6000600960008573ffffffffffffffffffffffffffffffffffffffff1673ffffffffffffffffffffffffffffffffffffffff16815260200190815260200160002090508060000160009054906101000a900460ff166144b5576144ad60096007614c84565b9150506146b2565b6144bd615d0a565b60405180602001604052808581525090506144d6615d0a565b6040518060200160405280670c7d713b49da000081525090506144f98183614d0e565b156145145761450a60066008614c84565b93505050506146b2565b600085141580156145fe57506000600460009054906101000a900473ffffffffffffffffffffffffffffffffffffffff1673ffffffffffffffffffffffffffffffffffffffff1663fc57d4df886040518263ffffffff1660e01b8152600401808273ffffffffffffffffffffffffffffffffffffffff1673ffffffffffffffffffffffffffffffffffffffff16815260200191505060206040518083038186803b1580156145c157600080fd5b505afa1580156145d5573d6000803e3d6000fd5b505050506040513d60208110156145eb57600080fd5b8101908080519060200190929190505050145b156146195761460f600d6009614c84565b93505050506146b2565b6000836001015490508584600101819055507f70483e6592cd5182d45ac970e05bc62cdcc90e9d8ef2c2dbe686cf383bcd7fc5878288604051808473ffffffffffffffffffffffffffffffffffffffff1673ffffffffffffffffffffffffffffffffffffffff168152602001838152602001828152602001935050505060405180910390a1600060118111156146ab57fe5b9450505050505b92915050565b600a60159054906101000a900460ff1681565b60055481565b60006146de8484846153cb565b90509392505050565b60008082905060008060008373ffffffffffffffffffffffffffffffffffffffff1663c37f68e2336040518263ffffffff1660e01b8152600401808273ffffffffffffffffffffffffffffffffffffffff1673ffffffffffffffffffffffffffffffffffffffff16815260200191505060806040518083038186803b15801561476f57600080fd5b505afa158015614783573d6000803e3d6000fd5b505050506040513d608081101561479957600080fd5b81019080805190602001909291908051906020019092919080519060200190929190805190602001909291905050505092509250925060008314614828576040517f08c379a0000000000000000000000000000000000000000000000000000000008152600401808060200182810382526025815260200180615e3c6025913960400191505060405180910390fd5b600081146148475761483c600c6002614c84565b945050505050614c5a565b60006148548733856153cb565b9050600081146148775761486b600e60038361587a565b95505050505050614c5a565b6000600960008773ffffffffffffffffffffffffffffffffffffffff1673ffffffffffffffffffffffffffffffffffffffff16815260200190815260200160002090508060020160003373ffffffffffffffffffffffffffffffffffffffff1673ffffffffffffffffffffffffffffffffffffffff16815260200190815260200160002060009054906101000a900460ff16614927576000601181111561491a57fe5b9650505050505050614c5a565b8060020160003373ffffffffffffffffffffffffffffffffffffffff1673ffffffffffffffffffffffffffffffffffffffff16815260200190815260200160002060006101000a81549060ff02191690556060600860003373ffffffffffffffffffffffffffffffffffffffff1673ffffffffffffffffffffffffffffffffffffffff168152602001908152602001600020805480602002602001604051908101604052809291908181526020018280548015614a3957602002820191906000526020600020905b8160009054906101000a900473ffffffffffffffffffffffffffffffffffffffff1673ffffffffffffffffffffffffffffffffffffffff16815260200190600101908083116149ef575b50505050509050600081519050600081905060008090505b82811015614ab5578973ffffffffffffffffffffffffffffffffffffffff16848281518110614a7c57fe5b602002602001015173ffffffffffffffffffffffffffffffffffffffff161415614aa857809150614ab5565b8080600101915050614a51565b50818110614abf57fe5b6000600860003373ffffffffffffffffffffffffffffffffffffffff1673ffffffffffffffffffffffffffffffffffffffff168152602001908152602001600020905080600182805490500381548110614b1557fe5b9060005260206000200160009054906101000a900473ffffffffffffffffffffffffffffffffffffffff16818381548110614b4c57fe5b9060005260206000200160006101000a81548173ffffffffffffffffffffffffffffffffffffffff021916908373ffffffffffffffffffffffffffffffffffffffff16021790555080805480919060019003614ba89190615d1d565b507fe699a64c18b07ac5b7301aa273f36a2287239eb9501d81950672794afba29a0d8a33604051808373ffffffffffffffffffffffffffffffffffffffff1673ffffffffffffffffffffffffffffffffffffffff1681526020018273ffffffffffffffffffffffffffffffffffffffff1673ffffffffffffffffffffffffffffffffffffffff1681526020019250505060405180910390a160006011811115614c4d57fe5b9a50505050505050505050505b919050565b6000809054906101000a900473ffffffffffffffffffffffffffffffffffffffff1681565b60007f45b96fe442630264581b197e84bbada861235052c5a1aadfff9ea4e40a969aa0836011811115614cb357fe5b836013811115614cbf57fe5b600060405180848152602001838152602001828152602001935050505060405180910390a1826011811115614cf057fe5b905092915050565b6000816000015183600001511115905092915050565b60008160000151836000015110905092915050565b6000806000614d30615d49565b6000806060600860008c73ffffffffffffffffffffffffffffffffffffffff1673ffffffffffffffffffffffffffffffffffffffff168152602001908152602001600020805480602002602001604051908101604052809291908181526020018280548015614df457602002820191906000526020600020905b8160009054906101000a900473ffffffffffffffffffffffffffffffffffffffff1673ffffffffffffffffffffffffffffffffffffffff1681526020019060010190808311614daa575b5050505050905060008090505b81518110156152f0576000828281518110614e1857fe5b602002602001015190508073ffffffffffffffffffffffffffffffffffffffff1663c37f68e28e6040518263ffffffff1660e01b8152600401808273ffffffffffffffffffffffffffffffffffffffff1673ffffffffffffffffffffffffffffffffffffffff16815260200191505060806040518083038186803b158015614e9f57600080fd5b505afa158015614eb3573d6000803e3d6000fd5b505050506040513d6080811015614ec957600080fd5b8101908080519060200190929190805190602001909291908051906020019092919080519060200190929190505050896040018a6060018b6080018381525083815250838152508398505050505060008514614f3b57600f60008081915080905098509850985050505050505061533e565b6040518060200160405280600960008473ffffffffffffffffffffffffffffffffffffffff1673ffffffffffffffffffffffffffffffffffffffff168152602001908152602001600020600101548152508660c00181905250604051806020016040528087608001518152508660e00181905250600460009054906101000a900473ffffffffffffffffffffffffffffffffffffffff1673ffffffffffffffffffffffffffffffffffffffff1663fc57d4df826040518263ffffffff1660e01b8152600401808273ffffffffffffffffffffffffffffffffffffffff1673ffffffffffffffffffffffffffffffffffffffff16815260200191505060206040518083038186803b15801561504e57600080fd5b505afa158015615062573d6000803e3d6000fd5b505050506040513d602081101561507857600080fd5b81019080805190602001909291905050508660a001818152505060008660a0015114156150bb57600d60008081915080905098509850985050505050505061533e565b60405180602001604052808760a001518152508661010001819052506150ef8660c001518760e001518861010001516158ee565b809050876101200181905281955050506000600381111561510c57fe5b84600381111561511857fe5b1461513957600b60008081915080905098509850985050505050505061533e565b61515186610120015187604001518860000151615954565b876000018181525081955050506000600381111561516b57fe5b84600381111561517757fe5b1461519857600b60008081915080905098509850985050505050505061533e565b6151b086610100015187606001518860200151615954565b87602001818152508195505050600060038111156151ca57fe5b8460038111156151d657fe5b146151f757600b60008081915080905098509850985050505050505061533e565b8b73ffffffffffffffffffffffffffffffffffffffff168173ffffffffffffffffffffffffffffffffffffffff1614156152e25761523f8661012001518c8860200151615954565b876020018181525081955050506000600381111561525957fe5b84600381111561526557fe5b1461528657600b60008081915080905098509850985050505050505061533e565b61529a8661010001518b8860200151615954565b87602001818152508195505050600060038111156152b457fe5b8460038111156152c057fe5b146152e157600b60008081915080905098509850985050505050505061533e565b5b508080600101915050614e01565b50836020015184600001511115615322576000846020015185600001510360008090509650965096505050505061533e565b6000808560000151866020015103819150965096509650505050505b9450945094915050565b600080600061535b846000806000614d23565b9250925092509193909250565b6000806000615375615d0a565b61537f86866159bf565b915091506000600381111561539057fe5b82600381111561539c57fe5b146153b2578160008090509350935050506153c4565b60006153bd82615a3d565b9350935050505b9250929050565b6000600960008573ffffffffffffffffffffffffffffffffffffffff1673ffffffffffffffffffffffffffffffffffffffff16815260200190815260200160002060000160009054906101000a900460ff16615435576009601181111561542e57fe5b9050615553565b600960008573ffffffffffffffffffffffffffffffffffffffff1673ffffffffffffffffffffffffffffffffffffffff16815260200190815260200160002060020160008473ffffffffffffffffffffffffffffffffffffffff1673ffffffffffffffffffffffffffffffffffffffff16815260200190815260200160002060009054906101000a900460ff166154da57600060118111156154d357fe5b9050615553565b6000806154ea8587866000614d23565b9250509150600060118111156154fc57fe5b82601181111561550857fe5b146155225781601181111561551957fe5b92505050615553565b6000811115615541576004601181111561553857fe5b92505050615553565b6000601181111561554e57fe5b925050505b9392505050565b600080600960008573ffffffffffffffffffffffffffffffffffffffff1673ffffffffffffffffffffffffffffffffffffffff16815260200190815260200160002090508060000160009054906101000a900460ff166155be576009915050615812565b600115158160020160008573ffffffffffffffffffffffffffffffffffffffff1673ffffffffffffffffffffffffffffffffffffffff16815260200190815260200160002060009054906101000a900460ff1615151415615623576000915050615812565b600754600860008573ffffffffffffffffffffffffffffffffffffffff1673ffffffffffffffffffffffffffffffffffffffff1681526020019081526020016000208054905010615678576010915050615812565b60018160020160008573ffffffffffffffffffffffffffffffffffffffff1673ffffffffffffffffffffffffffffffffffffffff16815260200190815260200160002060006101000a81548160ff021916908315150217905550600860008473ffffffffffffffffffffffffffffffffffffffff1673ffffffffffffffffffffffffffffffffffffffff1681526020019081526020016000208490806001815401808255809150509060018203906000526020600020016000909192909190916101000a81548173ffffffffffffffffffffffffffffffffffffffff021916908373ffffffffffffffffffffffffffffffffffffffff160217905550507f3ab23ab0d51cccc0c3085aec51f99228625aa1a922b3a8ca89a26b0f2027a1a58484604051808373ffffffffffffffffffffffffffffffffffffffff1673ffffffffffffffffffffffffffffffffffffffff1681526020018273ffffffffffffffffffffffffffffffffffffffff1673ffffffffffffffffffffffffffffffffffffffff1681526020019250505060405180910390a160009150505b92915050565b6000615822615d0a565b615848604051806020016040528086815250604051806020016040528086815250615a5c565b915091509250929050565b600061585d615d0a565b61586f84600001518460000151615b7d565b915091509250929050565b60007f45b96fe442630264581b197e84bbada861235052c5a1aadfff9ea4e40a969aa08460118111156158a957fe5b8460138111156158b557fe5b8460405180848152602001838152602001828152602001935050505060405180910390a18360118111156158e557fe5b90509392505050565b60006158f8615d0a565b6000615902615d0a565b61590c8787615a5c565b915091506000600381111561591d57fe5b82600381111561592957fe5b1461593b57818193509350505061594c565b6159458186615a5c565b9350935050505b935093915050565b6000806000615961615d0a565b61596b87876159bf565b915091506000600381111561597c57fe5b82600381111561598857fe5b1461599e578160008090509350935050506159b7565b6159b06159aa82615a3d565b86615c51565b9350935050505b935093915050565b60006159c9615d0a565b6000806159da866000015186615c83565b91509150600060038111156159eb57fe5b8260038111156159f757fe5b14615a1b578160405180602001604052806000815250809050935093505050615a36565b60006040518060200160405280838152508090509350935050505b9250929050565b6000670de0b6b3a7640000826000015181615a5457fe5b049050919050565b6000615a66615d0a565b600080615a7b86600001518660000151615c83565b9150915060006003811115615a8c57fe5b826003811115615a9857fe5b14615abc578160405180602001604052806000815250809050935093505050615b76565b600080615adb6002670de0b6b3a764000081615ad457fe5b0484615c51565b9150915060006003811115615aec57fe5b826003811115615af857fe5b14615b1e5781604051806020016040528060008152508090509550955050505050615b76565b600080615b3383670de0b6b3a7640000615cd6565b9150915060006003811115615b4457fe5b826003811115615b5057fe5b14615b5757fe5b6000604051806020016040528083815250809050975097505050505050505b9250929050565b6000615b87615d0a565b600080615b9c86670de0b6b3a7640000615c83565b9150915060006003811115615bad57fe5b826003811115615bb957fe5b14615bdd578160405180602001604052806000815250809050935093505050615c4a565b600080615bea8388615cd6565b9150915060006003811115615bfb57fe5b826003811115615c0757fe5b14615c2d5781604051806020016040528060008152508090509550955050505050615c4a565b600060405180602001604052808381525080905095509550505050505b9250929050565b60008060008385019050848110615c6f576000819250925050615c7c565b6002600080905092509250505b9250929050565b6000806000841415615c9e5760008080905091509150615ccf565b6000838502905083858281615caf57fe5b0414615cc657600260008090509250925050615ccf565b60008192509250505b9250929050565b6000806000831415615cf2576001600080905091509150615d03565b6000838581615cfd57fe5b04915091505b9250929050565b6040518060200160405280600081525090565b815481835581811115615d4457818360005260206000209182019101615d439190615db4565b5b505050565b604051806101400160405280600081526020016000815260200160008152602001600081526020016000815260200160008152602001615d87615dd9565b8152602001615d94615dd9565b8152602001615da1615dd9565b8152602001615dae615dd9565b81525090565b615dd691905b80821115615dd2576000816000905550600101615dba565b5090565b90565b604051806020016040528060008152509056fe63616e6e6f742070617573652061206d61726b65742074686174206973206e6f74206c69737465646f6e6c7920706175736520677561726469616e20616e642061646d696e2063616e207061757365657869744d61726b65743a206765744163636f756e74536e617073686f74206661696c65646f6e6c7920756e6974726f6c6c65722061646d696e2063616e206368616e676520627261696e73a265627a7a72315820496048ea7c41c8b040079f0605f0cbcec7b8259de3aaf738e5cac89903838ae364736f6c63430005110032",
  "source": "pragma solidity ^0.5.16;\r\n\r\nimport \"./CToken.sol\";\r\nimport \"./ErrorReporter.sol\";\r\nimport \"./Exponential.sol\";\r\nimport \"./PriceOracle.sol\";\r\nimport \"./ComptrollerInterface.sol\";\r\nimport \"./ComptrollerStorage.sol\";\r\nimport \"./Unitroller.sol\";\r\n\r\n/**\r\n * @title Compound's Comptroller Contract\r\n * @author Compound\r\n */\r\ncontract Comptroller is ComptrollerV2Storage, ComptrollerInterface, ComptrollerErrorReporter, Exponential {\r\n    /**\r\n     * @notice Emitted when an admin supports a market\r\n     */\r\n    event MarketListed(CToken cToken);\r\n\r\n    /**\r\n     * @notice Emitted when an account enters a market\r\n     */\r\n    event MarketEntered(CToken cToken, address account);\r\n\r\n    /**\r\n     * @notice Emitted when an account exits a market\r\n     */\r\n    event MarketExited(CToken cToken, address account);\r\n\r\n    /**\r\n     * @notice Emitted when close factor is changed by admin\r\n     */\r\n    event NewCloseFactor(uint oldCloseFactorMantissa, uint newCloseFactorMantissa);\r\n\r\n    /**\r\n     * @notice Emitted when a collateral factor is changed by admin\r\n     */\r\n    event NewCollateralFactor(CToken cToken, uint oldCollateralFactorMantissa, uint newCollateralFactorMantissa);\r\n\r\n    /**\r\n     * @notice Emitted when liquidation incentive is changed by admin\r\n     */\r\n    event NewLiquidationIncentive(uint oldLiquidationIncentiveMantissa, uint newLiquidationIncentiveMantissa);\r\n\r\n    /**\r\n     * @notice Emitted when maxAssets is changed by admin\r\n     */\r\n    event NewMaxAssets(uint oldMaxAssets, uint newMaxAssets);\r\n\r\n    /**\r\n     * @notice Emitted when price oracle is changed\r\n     */\r\n    event NewPriceOracle(PriceOracle oldPriceOracle, PriceOracle newPriceOracle);\r\n\r\n    /**\r\n     * @notice Emitted when pause guardian is changed\r\n     */\r\n    event NewPauseGuardian(address oldPauseGuardian, address newPauseGuardian);\r\n\r\n    /**\r\n     * @notice Emitted when an action is paused globally\r\n     */\r\n    event ActionPaused(string action, bool pauseState);\r\n\r\n    /**\r\n     * @notice Emitted when an action is paused on a market\r\n     */\r\n    event ActionPaused(CToken cToken, string action, bool pauseState);\r\n\r\n    // closeFactorMantissa must be strictly greater than this value\r\n    uint internal constant closeFactorMinMantissa = 0.05e18; // 0.05\r\n\r\n    // closeFactorMantissa must not exceed this value\r\n    uint internal constant closeFactorMaxMantissa = 0.9e18; // 0.9\r\n\r\n    // No collateralFactorMantissa may exceed this value\r\n    uint internal constant collateralFactorMaxMantissa = 0.9e18; // 0.9\r\n\r\n    // liquidationIncentiveMantissa must be no less than this value\r\n    uint internal constant liquidationIncentiveMinMantissa = 1.0e18; // 1.0\r\n\r\n    // liquidationIncentiveMantissa must be no greater than this value\r\n    uint internal constant liquidationIncentiveMaxMantissa = 1.5e18; // 1.5\r\n\r\n    constructor() public {\r\n        admin = msg.sender;\r\n    }\r\n\r\n    /*** Assets You Are In ***/\r\n\r\n    /**\r\n     * @notice Returns the assets an account has entered\r\n     * @param account The address of the account to pull assets for\r\n     * @return A dynamic list with the assets the account has entered\r\n     */\r\n    function getAssetsIn(address account) external view returns (CToken[] memory) {\r\n        CToken[] memory assetsIn = accountAssets[account];\r\n\r\n        return assetsIn;\r\n    }\r\n\r\n    /**\r\n     * @notice Returns whether the given account is entered in the given asset\r\n     * @param account The address of the account to check\r\n     * @param cToken The cToken to check\r\n     * @return True if the account is in the asset, otherwise false.\r\n     */\r\n    function checkMembership(address account, CToken cToken) external view returns (bool) {\r\n        return markets[address(cToken)].accountMembership[account];\r\n    }\r\n\r\n    /**\r\n     * @notice Add assets to be included in account liquidity calculation\r\n     * @param cTokens The list of addresses of the cToken markets to be enabled\r\n     * @return Success indicator for whether each corresponding market was entered\r\n     */\r\n    function enterMarkets(address[] memory cTokens) public returns (uint[] memory) {\r\n        uint len = cTokens.length;\r\n\r\n        uint[] memory results = new uint[](len);\r\n        for (uint i = 0; i < len; i++) {\r\n            CToken cToken = CToken(cTokens[i]);\r\n\r\n            results[i] = uint(addToMarketInternal(cToken, msg.sender));\r\n        }\r\n\r\n        return results;\r\n    }\r\n\r\n    /**\r\n     * @notice Add the market to the borrower's \"assets in\" for liquidity calculations\r\n     * @param cToken The market to enter\r\n     * @param borrower The address of the account to modify\r\n     * @return Success indicator for whether the market was entered\r\n     */\r\n    function addToMarketInternal(CToken cToken, address borrower) internal returns (Error) {\r\n        Market storage marketToJoin = markets[address(cToken)];\r\n\r\n        if (!marketToJoin.isListed) {\r\n            // market is not listed, cannot join\r\n            return Error.MARKET_NOT_LISTED;\r\n        }\r\n\r\n        if (marketToJoin.accountMembership[borrower] == true) {\r\n            // already joined\r\n            return Error.NO_ERROR;\r\n        }\r\n\r\n        if (accountAssets[borrower].length >= maxAssets)  {\r\n            // no space, cannot join\r\n            return Error.TOO_MANY_ASSETS;\r\n        }\r\n\r\n        // survived the gauntlet, add to list\r\n        // NOTE: we store these somewhat redundantly as a significant optimization\r\n        //  this avoids having to iterate through the list for the most common use cases\r\n        //  that is, only when we need to perform liquidity checks\r\n        //  and not whenever we want to check if an account is in a particular market\r\n        marketToJoin.accountMembership[borrower] = true;\r\n        accountAssets[borrower].push(cToken);\r\n\r\n        emit MarketEntered(cToken, borrower);\r\n\r\n        return Error.NO_ERROR;\r\n    }\r\n\r\n    /**\r\n     * @notice Removes asset from sender's account liquidity calculation\r\n     * @dev Sender must not have an outstanding borrow balance in the asset,\r\n     *  or be providing neccessary collateral for an outstanding borrow.\r\n     * @param cTokenAddress The address of the asset to be removed\r\n     * @return Whether or not the account successfully exited the market\r\n     */\r\n    function exitMarket(address cTokenAddress) external returns (uint) {\r\n        CToken cToken = CToken(cTokenAddress);\r\n        /* Get sender tokensHeld and amountOwed underlying from the cToken */\r\n        (uint oErr, uint tokensHeld, uint amountOwed, ) = cToken.getAccountSnapshot(msg.sender);\r\n        require(oErr == 0, \"exitMarket: getAccountSnapshot failed\"); // semi-opaque error code\r\n\r\n        /* Fail if the sender has a borrow balance */\r\n        if (amountOwed != 0) {\r\n            return fail(Error.NONZERO_BORROW_BALANCE, FailureInfo.EXIT_MARKET_BALANCE_OWED);\r\n        }\r\n\r\n        /* Fail if the sender is not permitted to redeem all of their tokens */\r\n        uint allowed = redeemAllowedInternal(cTokenAddress, msg.sender, tokensHeld);\r\n        if (allowed != 0) {\r\n            return failOpaque(Error.REJECTION, FailureInfo.EXIT_MARKET_REJECTION, allowed);\r\n        }\r\n\r\n        Market storage marketToExit = markets[address(cToken)];\r\n\r\n        /* Return true if the sender is not already in the market */\r\n        if (!marketToExit.accountMembership[msg.sender]) {\r\n            return uint(Error.NO_ERROR);\r\n        }\r\n\r\n        /* Set cToken account membership to false */\r\n        delete marketToExit.accountMembership[msg.sender];\r\n\r\n        /* Delete cToken from the accounts list of assets */\r\n        // load into memory for faster iteration\r\n        CToken[] memory userAssetList = accountAssets[msg.sender];\r\n        uint len = userAssetList.length;\r\n        uint assetIndex = len;\r\n        for (uint i = 0; i < len; i++) {\r\n            if (userAssetList[i] == cToken) {\r\n                assetIndex = i;\r\n                break;\r\n            }\r\n        }\r\n\r\n        // We *must* have found the asset in the list or our redundant data structure is broken\r\n        assert(assetIndex < len);\r\n\r\n        // copy last item in list to location of item to be removed, reduce length by 1\r\n        CToken[] storage storedList = accountAssets[msg.sender];\r\n        storedList[assetIndex] = storedList[storedList.length - 1];\r\n        storedList.length--;\r\n\r\n        emit MarketExited(cToken, msg.sender);\r\n\r\n        return uint(Error.NO_ERROR);\r\n    }\r\n\r\n    /*** Policy Hooks ***/\r\n\r\n    /**\r\n     * @notice Checks if the account should be allowed to mint tokens in the given market\r\n     * @param cToken The market to verify the mint against\r\n     * @param minter The account which would get the minted tokens\r\n     * @param mintAmount The amount of underlying being supplied to the market in exchange for tokens\r\n     * @return 0 if the mint is allowed, otherwise a semi-opaque error code (See ErrorReporter.sol)\r\n     */\r\n    function mintAllowed(address cToken, address minter, uint mintAmount) external returns (uint) {\r\n        // Pausing is a very serious situation - we revert to sound the alarms\r\n        require(!mintGuardianPaused[cToken], \"mint is paused\");\r\n\r\n        // Shh - currently unused\r\n        minter;\r\n        mintAmount;\r\n\r\n        if (!markets[cToken].isListed) {\r\n            return uint(Error.MARKET_NOT_LISTED);\r\n        }\r\n\r\n        // *may include Policy Hook-type checks\r\n\r\n        return uint(Error.NO_ERROR);\r\n    }\r\n\r\n    /**\r\n     * @notice Validates mint and reverts on rejection. May emit logs.\r\n     * @param cToken Asset being minted\r\n     * @param minter The address minting the tokens\r\n     * @param actualMintAmount The amount of the underlying asset being minted\r\n     * @param mintTokens The number of tokens being minted\r\n     */\r\n    function mintVerify(address cToken, address minter, uint actualMintAmount, uint mintTokens) external {\r\n        // Shh - currently unused\r\n        cToken;\r\n        minter;\r\n        actualMintAmount;\r\n        mintTokens;\r\n\r\n        // Shh - we don't ever want this hook to be marked pure\r\n        if (false) {\r\n            maxAssets = maxAssets;\r\n        }\r\n    }\r\n\r\n    /**\r\n     * @notice Checks if the account should be allowed to redeem tokens in the given market\r\n     * @param cToken The market to verify the redeem against\r\n     * @param redeemer The account which would redeem the tokens\r\n     * @param redeemTokens The number of cTokens to exchange for the underlying asset in the market\r\n     * @return 0 if the redeem is allowed, otherwise a semi-opaque error code (See ErrorReporter.sol)\r\n     */\r\n    function redeemAllowed(address cToken, address redeemer, uint redeemTokens) external returns (uint) {\r\n        return redeemAllowedInternal(cToken, redeemer, redeemTokens);\r\n    }\r\n\r\n    function redeemAllowedInternal(address cToken, address redeemer, uint redeemTokens) internal view returns (uint) {\r\n        if (!markets[cToken].isListed) {\r\n            return uint(Error.MARKET_NOT_LISTED);\r\n        }\r\n\r\n        // *may include Policy Hook-type checks\r\n\r\n        /* If the redeemer is not 'in' the market, then we can bypass the liquidity check */\r\n        if (!markets[cToken].accountMembership[redeemer]) {\r\n            return uint(Error.NO_ERROR);\r\n        }\r\n\r\n        /* Otherwise, perform a hypothetical liquidity check to guard against shortfall */\r\n        (Error err, , uint shortfall) = getHypotheticalAccountLiquidityInternal(redeemer, CToken(cToken), redeemTokens, 0);\r\n        if (err != Error.NO_ERROR) {\r\n            return uint(err);\r\n        }\r\n        if (shortfall > 0) {\r\n            return uint(Error.INSUFFICIENT_LIQUIDITY);\r\n        }\r\n\r\n        return uint(Error.NO_ERROR);\r\n    }\r\n\r\n    /**\r\n     * @notice Validates redeem and reverts on rejection. May emit logs.\r\n     * @param cToken Asset being redeemed\r\n     * @param redeemer The address redeeming the tokens\r\n     * @param redeemAmount The amount of the underlying asset being redeemed\r\n     * @param redeemTokens The number of tokens being redeemed\r\n     */\r\n    function redeemVerify(address cToken, address redeemer, uint redeemAmount, uint redeemTokens) external {\r\n        // Shh - currently unused\r\n        cToken;\r\n        redeemer;\r\n\r\n        // Require tokens is zero or amount is also zero\r\n        if (redeemTokens == 0 && redeemAmount > 0) {\r\n            revert(\"redeemTokens zero\");\r\n        }\r\n    }\r\n\r\n    /**\r\n     * @notice Checks if the account should be allowed to borrow the underlying asset of the given market\r\n     * @param cToken The market to verify the borrow against\r\n     * @param borrower The account which would borrow the asset\r\n     * @param borrowAmount The amount of underlying the account would borrow\r\n     * @return 0 if the borrow is allowed, otherwise a semi-opaque error code (See ErrorReporter.sol)\r\n     */\r\n    function borrowAllowed(address cToken, address borrower, uint borrowAmount) external returns (uint) {\r\n        // Pausing is a very serious situation - we revert to sound the alarms\r\n        require(!borrowGuardianPaused[cToken], \"borrow is paused\");\r\n\r\n        if (!markets[cToken].isListed) {\r\n            return uint(Error.MARKET_NOT_LISTED);\r\n        }\r\n\r\n        // *may include Policy Hook-type checks\r\n\r\n        if (!markets[cToken].accountMembership[borrower]) {\r\n            // only cTokens may call borrowAllowed if borrower not in market\r\n            require(msg.sender == cToken, \"sender must be cToken\");\r\n\r\n            // attempt to add borrower to the market\r\n            Error err = addToMarketInternal(CToken(msg.sender), borrower);\r\n            if (err != Error.NO_ERROR) {\r\n                return uint(err);\r\n            }\r\n\r\n            // it should be impossible to break the important invariant\r\n            assert(markets[cToken].accountMembership[borrower]);\r\n        }\r\n\r\n        if (oracle.getUnderlyingPrice(CToken(cToken)) == 0) {\r\n            return uint(Error.PRICE_ERROR);\r\n        }\r\n\r\n        (Error err, , uint shortfall) = getHypotheticalAccountLiquidityInternal(borrower, CToken(cToken), 0, borrowAmount);\r\n        if (err != Error.NO_ERROR) {\r\n            return uint(err);\r\n        }\r\n        if (shortfall > 0) {\r\n            return uint(Error.INSUFFICIENT_LIQUIDITY);\r\n        }\r\n\r\n        return uint(Error.NO_ERROR);\r\n    }\r\n\r\n    /**\r\n     * @notice Validates borrow and reverts on rejection. May emit logs.\r\n     * @param cToken Asset whose underlying is being borrowed\r\n     * @param borrower The address borrowing the underlying\r\n     * @param borrowAmount The amount of the underlying asset requested to borrow\r\n     */\r\n    function borrowVerify(address cToken, address borrower, uint borrowAmount) external {\r\n        // Shh - currently unused\r\n        cToken;\r\n        borrower;\r\n        borrowAmount;\r\n\r\n        // Shh - we don't ever want this hook to be marked pure\r\n        if (false) {\r\n            maxAssets = maxAssets;\r\n        }\r\n    }\r\n\r\n    /**\r\n     * @notice Checks if the account should be allowed to repay a borrow in the given market\r\n     * @param cToken The market to verify the repay against\r\n     * @param payer The account which would repay the asset\r\n     * @param borrower The account which would borrowed the asset\r\n     * @param repayAmount The amount of the underlying asset the account would repay\r\n     * @return 0 if the repay is allowed, otherwise a semi-opaque error code (See ErrorReporter.sol)\r\n     */\r\n    function repayBorrowAllowed(\r\n        address cToken,\r\n        address payer,\r\n        address borrower,\r\n        uint repayAmount) external returns (uint) {\r\n        // Shh - currently unused\r\n        payer;\r\n        borrower;\r\n        repayAmount;\r\n\r\n        if (!markets[cToken].isListed) {\r\n            return uint(Error.MARKET_NOT_LISTED);\r\n        }\r\n\r\n        // *may include Policy Hook-type checks\r\n\r\n        return uint(Error.NO_ERROR);\r\n    }\r\n\r\n    /**\r\n     * @notice Validates repayBorrow and reverts on rejection. May emit logs.\r\n     * @param cToken Asset being repaid\r\n     * @param payer The address repaying the borrow\r\n     * @param borrower The address of the borrower\r\n     * @param actualRepayAmount The amount of underlying being repaid\r\n     */\r\n    function repayBorrowVerify(\r\n        address cToken,\r\n        address payer,\r\n        address borrower,\r\n        uint actualRepayAmount,\r\n        uint borrowerIndex) external {\r\n        // Shh - currently unused\r\n        cToken;\r\n        payer;\r\n        borrower;\r\n        actualRepayAmount;\r\n        borrowerIndex;\r\n\r\n        // Shh - we don't ever want this hook to be marked pure\r\n        if (false) {\r\n            maxAssets = maxAssets;\r\n        }\r\n    }\r\n\r\n    /**\r\n     * @notice Checks if the liquidation should be allowed to occur\r\n     * @param cTokenBorrowed Asset which was borrowed by the borrower\r\n     * @param cTokenCollateral Asset which was used as collateral and will be seized\r\n     * @param liquidator The address repaying the borrow and seizing the collateral\r\n     * @param borrower The address of the borrower\r\n     * @param repayAmount The amount of underlying being repaid\r\n     */\r\n    function liquidateBorrowAllowed(\r\n        address cTokenBorrowed,\r\n        address cTokenCollateral,\r\n        address liquidator,\r\n        address borrower,\r\n        uint repayAmount) external returns (uint) {\r\n        // Shh - currently unused\r\n        liquidator;\r\n\r\n        if (!markets[cTokenBorrowed].isListed || !markets[cTokenCollateral].isListed) {\r\n            return uint(Error.MARKET_NOT_LISTED);\r\n        }\r\n\r\n        // *may include Policy Hook-type checks\r\n\r\n        /* The borrower must have shortfall in order to be liquidatable */\r\n        (Error err, , uint shortfall) = getAccountLiquidityInternal(borrower);\r\n        if (err != Error.NO_ERROR) {\r\n            return uint(err);\r\n        }\r\n        if (shortfall == 0) {\r\n            return uint(Error.INSUFFICIENT_SHORTFALL);\r\n        }\r\n\r\n        /* The liquidator may not repay more than what is allowed by the closeFactor */\r\n        uint borrowBalance = CToken(cTokenBorrowed).borrowBalanceStored(borrower);\r\n        (MathError mathErr, uint maxClose) = mulScalarTruncate(Exp({mantissa: closeFactorMantissa}), borrowBalance);\r\n        if (mathErr != MathError.NO_ERROR) {\r\n            return uint(Error.MATH_ERROR);\r\n        }\r\n        if (repayAmount > maxClose) {\r\n            return uint(Error.TOO_MUCH_REPAY);\r\n        }\r\n\r\n        return uint(Error.NO_ERROR);\r\n    }\r\n\r\n    /**\r\n     * @notice Validates liquidateBorrow and reverts on rejection. May emit logs.\r\n     * @param cTokenBorrowed Asset which was borrowed by the borrower\r\n     * @param cTokenCollateral Asset which was used as collateral and will be seized\r\n     * @param liquidator The address repaying the borrow and seizing the collateral\r\n     * @param borrower The address of the borrower\r\n     * @param actualRepayAmount The amount of underlying being repaid\r\n     */\r\n    function liquidateBorrowVerify(\r\n        address cTokenBorrowed,\r\n        address cTokenCollateral,\r\n        address liquidator,\r\n        address borrower,\r\n        uint actualRepayAmount,\r\n        uint seizeTokens) external {\r\n        // Shh - currently unused\r\n        cTokenBorrowed;\r\n        cTokenCollateral;\r\n        liquidator;\r\n        borrower;\r\n        actualRepayAmount;\r\n        seizeTokens;\r\n\r\n        // Shh - we don't ever want this hook to be marked pure\r\n        if (false) {\r\n            maxAssets = maxAssets;\r\n        }\r\n    }\r\n\r\n    /**\r\n     * @notice Checks if the seizing of assets should be allowed to occur\r\n     * @param cTokenCollateral Asset which was used as collateral and will be seized\r\n     * @param cTokenBorrowed Asset which was borrowed by the borrower\r\n     * @param liquidator The address repaying the borrow and seizing the collateral\r\n     * @param borrower The address of the borrower\r\n     * @param seizeTokens The number of collateral tokens to seize\r\n     */\r\n    function seizeAllowed(\r\n        address cTokenCollateral,\r\n        address cTokenBorrowed,\r\n        address liquidator,\r\n        address borrower,\r\n        uint seizeTokens) external returns (uint) {\r\n        // Pausing is a very serious situation - we revert to sound the alarms\r\n        require(!seizeGuardianPaused, \"seize is paused\");\r\n\r\n        // Shh - currently unused\r\n        liquidator;\r\n        borrower;\r\n        seizeTokens;\r\n\r\n        if (!markets[cTokenCollateral].isListed || !markets[cTokenBorrowed].isListed) {\r\n            return uint(Error.MARKET_NOT_LISTED);\r\n        }\r\n\r\n        if (CToken(cTokenCollateral).comptroller() != CToken(cTokenBorrowed).comptroller()) {\r\n            return uint(Error.COMPTROLLER_MISMATCH);\r\n        }\r\n\r\n        // *may include Policy Hook-type checks\r\n\r\n        return uint(Error.NO_ERROR);\r\n    }\r\n\r\n    /**\r\n     * @notice Validates seize and reverts on rejection. May emit logs.\r\n     * @param cTokenCollateral Asset which was used as collateral and will be seized\r\n     * @param cTokenBorrowed Asset which was borrowed by the borrower\r\n     * @param liquidator The address repaying the borrow and seizing the collateral\r\n     * @param borrower The address of the borrower\r\n     * @param seizeTokens The number of collateral tokens to seize\r\n     */\r\n    function seizeVerify(\r\n        address cTokenCollateral,\r\n        address cTokenBorrowed,\r\n        address liquidator,\r\n        address borrower,\r\n        uint seizeTokens) external {\r\n        // Shh - currently unused\r\n        cTokenCollateral;\r\n        cTokenBorrowed;\r\n        liquidator;\r\n        borrower;\r\n        seizeTokens;\r\n\r\n        // Shh - we don't ever want this hook to be marked pure\r\n        if (false) {\r\n            maxAssets = maxAssets;\r\n        }\r\n    }\r\n\r\n    /**\r\n     * @notice Checks if the account should be allowed to transfer tokens in the given market\r\n     * @param cToken The market to verify the transfer against\r\n     * @param src The account which sources the tokens\r\n     * @param dst The account which receives the tokens\r\n     * @param transferTokens The number of cTokens to transfer\r\n     * @return 0 if the transfer is allowed, otherwise a semi-opaque error code (See ErrorReporter.sol)\r\n     */\r\n    function transferAllowed(address cToken, address src, address dst, uint transferTokens) external returns (uint) {\r\n        // Pausing is a very serious situation - we revert to sound the alarms\r\n        require(!transferGuardianPaused, \"transfer is paused\");\r\n\r\n        // Shh - currently unused\r\n        dst;\r\n\r\n        // *may include Policy Hook-type checks\r\n\r\n        // Currently the only consideration is whether or not\r\n        //  the src is allowed to redeem this many tokens\r\n        return redeemAllowedInternal(cToken, src, transferTokens);\r\n    }\r\n\r\n    /**\r\n     * @notice Validates transfer and reverts on rejection. May emit logs.\r\n     * @param cToken Asset being transferred\r\n     * @param src The account which sources the tokens\r\n     * @param dst The account which receives the tokens\r\n     * @param transferTokens The number of cTokens to transfer\r\n     */\r\n    function transferVerify(address cToken, address src, address dst, uint transferTokens) external {\r\n        // Shh - currently unused\r\n        cToken;\r\n        src;\r\n        dst;\r\n        transferTokens;\r\n\r\n        // Shh - we don't ever want this hook to be marked pure\r\n        if (false) {\r\n            maxAssets = maxAssets;\r\n        }\r\n    }\r\n\r\n    /*** Liquidity/Liquidation Calculations ***/\r\n\r\n    /**\r\n     * @dev Local vars for avoiding stack-depth limits in calculating account liquidity.\r\n     *  Note that `cTokenBalance` is the number of cTokens the account owns in the market,\r\n     *  whereas `borrowBalance` is the amount of underlying that the account has borrowed.\r\n     */\r\n    struct AccountLiquidityLocalVars {\r\n        uint sumCollateral;\r\n        uint sumBorrowPlusEffects;\r\n        uint cTokenBalance;\r\n        uint borrowBalance;\r\n        uint exchangeRateMantissa;\r\n        uint oraclePriceMantissa;\r\n        Exp collateralFactor;\r\n        Exp exchangeRate;\r\n        Exp oraclePrice;\r\n        Exp tokensToEther;\r\n    }\r\n\r\n    /**\r\n     * @notice Determine the current account liquidity wrt collateral requirements\r\n     * @return (possible error code (semi-opaque),\r\n                account liquidity in excess of collateral requirements,\r\n     *          account shortfall below collateral requirements)\r\n     */\r\n    function getAccountLiquidity(address account) public view returns (uint, uint, uint) {\r\n        (Error err, uint liquidity, uint shortfall) = getHypotheticalAccountLiquidityInternal(account, CToken(0), 0, 0);\r\n\r\n        return (uint(err), liquidity, shortfall);\r\n    }\r\n\r\n    /**\r\n     * @notice Determine the current account liquidity wrt collateral requirements\r\n     * @return (possible error code,\r\n                account liquidity in excess of collateral requirements,\r\n     *          account shortfall below collateral requirements)\r\n     */\r\n    function getAccountLiquidityInternal(address account) internal view returns (Error, uint, uint) {\r\n        return getHypotheticalAccountLiquidityInternal(account, CToken(0), 0, 0);\r\n    }\r\n\r\n    /**\r\n     * @notice Determine what the account liquidity would be if the given amounts were redeemed/borrowed\r\n     * @param cTokenModify The market to hypothetically redeem/borrow in\r\n     * @param account The account to determine liquidity for\r\n     * @param redeemTokens The number of tokens to hypothetically redeem\r\n     * @param borrowAmount The amount of underlying to hypothetically borrow\r\n     * @return (possible error code (semi-opaque),\r\n                hypothetical account liquidity in excess of collateral requirements,\r\n     *          hypothetical account shortfall below collateral requirements)\r\n     */\r\n    function getHypotheticalAccountLiquidity(\r\n        address account,\r\n        address cTokenModify,\r\n        uint redeemTokens,\r\n        uint borrowAmount) public view returns (uint, uint, uint) {\r\n        (Error err, uint liquidity, uint shortfall) = getHypotheticalAccountLiquidityInternal(account, CToken(cTokenModify), redeemTokens, borrowAmount);\r\n        return (uint(err), liquidity, shortfall);\r\n    }\r\n\r\n    /**\r\n     * @notice Determine what the account liquidity would be if the given amounts were redeemed/borrowed\r\n     * @param cTokenModify The market to hypothetically redeem/borrow in\r\n     * @param account The account to determine liquidity for\r\n     * @param redeemTokens The number of tokens to hypothetically redeem\r\n     * @param borrowAmount The amount of underlying to hypothetically borrow\r\n     * @dev Note that we calculate the exchangeRateStored for each collateral cToken using stored data,\r\n     *  without calculating accumulated interest.\r\n     * @return (possible error code,\r\n                hypothetical account liquidity in excess of collateral requirements,\r\n     *          hypothetical account shortfall below collateral requirements)\r\n     */\r\n    function getHypotheticalAccountLiquidityInternal(\r\n        address account,\r\n        CToken cTokenModify,\r\n        uint redeemTokens,\r\n        uint borrowAmount) internal view returns (Error, uint, uint) {\r\n\r\n        AccountLiquidityLocalVars memory vars; // Holds all our calculation results\r\n        uint oErr;\r\n        MathError mErr;\r\n\r\n        // For each asset the account is in\r\n        CToken[] memory assets = accountAssets[account];\r\n        for (uint i = 0; i < assets.length; i++) {\r\n            CToken asset = assets[i];\r\n\r\n            // Read the balances and exchange rate from the cToken\r\n            (oErr, vars.cTokenBalance, vars.borrowBalance, vars.exchangeRateMantissa) = asset.getAccountSnapshot(account);\r\n            if (oErr != 0) { // semi-opaque error code, we assume NO_ERROR == 0 is invariant between upgrades\r\n                return (Error.SNAPSHOT_ERROR, 0, 0);\r\n            }\r\n            vars.collateralFactor = Exp({mantissa: markets[address(asset)].collateralFactorMantissa});\r\n            vars.exchangeRate = Exp({mantissa: vars.exchangeRateMantissa});\r\n\r\n            // Get the normalized price of the asset\r\n            vars.oraclePriceMantissa = oracle.getUnderlyingPrice(asset);\r\n            if (vars.oraclePriceMantissa == 0) {\r\n                return (Error.PRICE_ERROR, 0, 0);\r\n            }\r\n            vars.oraclePrice = Exp({mantissa: vars.oraclePriceMantissa});\r\n\r\n            // Pre-compute a conversion factor from tokens -> ether (normalized price value)\r\n            (mErr, vars.tokensToEther) = mulExp3(vars.collateralFactor, vars.exchangeRate, vars.oraclePrice);\r\n            if (mErr != MathError.NO_ERROR) {\r\n                return (Error.MATH_ERROR, 0, 0);\r\n            }\r\n\r\n            // sumCollateral += tokensToEther * cTokenBalance\r\n            (mErr, vars.sumCollateral) = mulScalarTruncateAddUInt(vars.tokensToEther, vars.cTokenBalance, vars.sumCollateral);\r\n            if (mErr != MathError.NO_ERROR) {\r\n                return (Error.MATH_ERROR, 0, 0);\r\n            }\r\n\r\n            // sumBorrowPlusEffects += oraclePrice * borrowBalance\r\n            (mErr, vars.sumBorrowPlusEffects) = mulScalarTruncateAddUInt(vars.oraclePrice, vars.borrowBalance, vars.sumBorrowPlusEffects);\r\n            if (mErr != MathError.NO_ERROR) {\r\n                return (Error.MATH_ERROR, 0, 0);\r\n            }\r\n\r\n            // Calculate effects of interacting with cTokenModify\r\n            if (asset == cTokenModify) {\r\n                // redeem effect\r\n                // sumBorrowPlusEffects += tokensToEther * redeemTokens\r\n                (mErr, vars.sumBorrowPlusEffects) = mulScalarTruncateAddUInt(vars.tokensToEther, redeemTokens, vars.sumBorrowPlusEffects);\r\n                if (mErr != MathError.NO_ERROR) {\r\n                    return (Error.MATH_ERROR, 0, 0);\r\n                }\r\n\r\n                // borrow effect\r\n                // sumBorrowPlusEffects += oraclePrice * borrowAmount\r\n                (mErr, vars.sumBorrowPlusEffects) = mulScalarTruncateAddUInt(vars.oraclePrice, borrowAmount, vars.sumBorrowPlusEffects);\r\n                if (mErr != MathError.NO_ERROR) {\r\n                    return (Error.MATH_ERROR, 0, 0);\r\n                }\r\n            }\r\n        }\r\n\r\n        // These are safe, as the underflow condition is checked first\r\n        if (vars.sumCollateral > vars.sumBorrowPlusEffects) {\r\n            return (Error.NO_ERROR, vars.sumCollateral - vars.sumBorrowPlusEffects, 0);\r\n        } else {\r\n            return (Error.NO_ERROR, 0, vars.sumBorrowPlusEffects - vars.sumCollateral);\r\n        }\r\n    }\r\n\r\n    /**\r\n     * @notice Calculate number of tokens of collateral asset to seize given an underlying amount\r\n     * @dev Used in liquidation (called in cToken.liquidateBorrowFresh)\r\n     * @param cTokenBorrowed The address of the borrowed cToken\r\n     * @param cTokenCollateral The address of the collateral cToken\r\n     * @param actualRepayAmount The amount of cTokenBorrowed underlying to convert into cTokenCollateral tokens\r\n     * @return (errorCode, number of cTokenCollateral tokens to be seized in a liquidation)\r\n     */\r\n    function liquidateCalculateSeizeTokens(address cTokenBorrowed, address cTokenCollateral, uint actualRepayAmount) external view returns (uint, uint) {\r\n        /* Read oracle prices for borrowed and collateral markets */\r\n        uint priceBorrowedMantissa = oracle.getUnderlyingPrice(CToken(cTokenBorrowed));\r\n        uint priceCollateralMantissa = oracle.getUnderlyingPrice(CToken(cTokenCollateral));\r\n        if (priceBorrowedMantissa == 0 || priceCollateralMantissa == 0) {\r\n            return (uint(Error.PRICE_ERROR), 0);\r\n        }\r\n\r\n        /*\r\n         * Get the exchange rate and calculate the number of collateral tokens to seize:\r\n         *  seizeAmount = actualRepayAmount * liquidationIncentive * priceBorrowed / priceCollateral\r\n         *  seizeTokens = seizeAmount / exchangeRate\r\n         *   = actualRepayAmount * (liquidationIncentive * priceBorrowed) / (priceCollateral * exchangeRate)\r\n         */\r\n        uint exchangeRateMantissa = CToken(cTokenCollateral).exchangeRateStored(); // Note: reverts on error\r\n        uint seizeTokens;\r\n        Exp memory numerator;\r\n        Exp memory denominator;\r\n        Exp memory ratio;\r\n        MathError mathErr;\r\n\r\n        (mathErr, numerator) = mulExp(liquidationIncentiveMantissa, priceBorrowedMantissa);\r\n        if (mathErr != MathError.NO_ERROR) {\r\n            return (uint(Error.MATH_ERROR), 0);\r\n        }\r\n\r\n        (mathErr, denominator) = mulExp(priceCollateralMantissa, exchangeRateMantissa);\r\n        if (mathErr != MathError.NO_ERROR) {\r\n            return (uint(Error.MATH_ERROR), 0);\r\n        }\r\n\r\n        (mathErr, ratio) = divExp(numerator, denominator);\r\n        if (mathErr != MathError.NO_ERROR) {\r\n            return (uint(Error.MATH_ERROR), 0);\r\n        }\r\n\r\n        (mathErr, seizeTokens) = mulScalarTruncate(ratio, actualRepayAmount);\r\n        if (mathErr != MathError.NO_ERROR) {\r\n            return (uint(Error.MATH_ERROR), 0);\r\n        }\r\n\r\n        return (uint(Error.NO_ERROR), seizeTokens);\r\n    }\r\n\r\n    /*** Admin Functions ***/\r\n\r\n    /**\r\n      * @notice Sets a new price oracle for the comptroller\r\n      * @dev Admin function to set a new price oracle\r\n      * @return uint 0=success, otherwise a failure (see ErrorReporter.sol for details)\r\n      */\r\n    function _setPriceOracle(PriceOracle newOracle) public returns (uint) {\r\n        // Check caller is admin\r\n        if (msg.sender != admin) {\r\n            return fail(Error.UNAUTHORIZED, FailureInfo.SET_PRICE_ORACLE_OWNER_CHECK);\r\n        }\r\n\r\n        // Track the old oracle for the comptroller\r\n        PriceOracle oldOracle = oracle;\r\n\r\n        // Set comptroller's oracle to newOracle\r\n        oracle = newOracle;\r\n\r\n        // Emit NewPriceOracle(oldOracle, newOracle)\r\n        emit NewPriceOracle(oldOracle, newOracle);\r\n\r\n        return uint(Error.NO_ERROR);\r\n    }\r\n\r\n    /**\r\n      * @notice Sets the closeFactor used when liquidating borrows\r\n      * @dev Admin function to set closeFactor\r\n      * @param newCloseFactorMantissa New close factor, scaled by 1e18\r\n      * @return uint 0=success, otherwise a failure. (See ErrorReporter for details)\r\n      */\r\n    function _setCloseFactor(uint newCloseFactorMantissa) external returns (uint256) {\r\n        // Check caller is admin\r\n        if (msg.sender != admin) {\r\n            return fail(Error.UNAUTHORIZED, FailureInfo.SET_CLOSE_FACTOR_OWNER_CHECK);\r\n        }\r\n\r\n        Exp memory newCloseFactorExp = Exp({mantissa: newCloseFactorMantissa});\r\n        Exp memory lowLimit = Exp({mantissa: closeFactorMinMantissa});\r\n        if (lessThanOrEqualExp(newCloseFactorExp, lowLimit)) {\r\n            return fail(Error.INVALID_CLOSE_FACTOR, FailureInfo.SET_CLOSE_FACTOR_VALIDATION);\r\n        }\r\n\r\n        Exp memory highLimit = Exp({mantissa: closeFactorMaxMantissa});\r\n        if (lessThanExp(highLimit, newCloseFactorExp)) {\r\n            return fail(Error.INVALID_CLOSE_FACTOR, FailureInfo.SET_CLOSE_FACTOR_VALIDATION);\r\n        }\r\n\r\n        uint oldCloseFactorMantissa = closeFactorMantissa;\r\n        closeFactorMantissa = newCloseFactorMantissa;\r\n        emit NewCloseFactor(oldCloseFactorMantissa, closeFactorMantissa);\r\n\r\n        return uint(Error.NO_ERROR);\r\n    }\r\n\r\n    /**\r\n      * @notice Sets the collateralFactor for a market\r\n      * @dev Admin function to set per-market collateralFactor\r\n      * @param cToken The market to set the factor on\r\n      * @param newCollateralFactorMantissa The new collateral factor, scaled by 1e18\r\n      * @return uint 0=success, otherwise a failure. (See ErrorReporter for details)\r\n      */\r\n    function _setCollateralFactor(CToken cToken, uint newCollateralFactorMantissa) external returns (uint256) {\r\n        // Check caller is admin\r\n        if (msg.sender != admin) {\r\n            return fail(Error.UNAUTHORIZED, FailureInfo.SET_COLLATERAL_FACTOR_OWNER_CHECK);\r\n        }\r\n\r\n        // Verify market is listed\r\n        Market storage market = markets[address(cToken)];\r\n        if (!market.isListed) {\r\n            return fail(Error.MARKET_NOT_LISTED, FailureInfo.SET_COLLATERAL_FACTOR_NO_EXISTS);\r\n        }\r\n\r\n        Exp memory newCollateralFactorExp = Exp({mantissa: newCollateralFactorMantissa});\r\n\r\n        // Check collateral factor <= 0.9\r\n        Exp memory highLimit = Exp({mantissa: collateralFactorMaxMantissa});\r\n        if (lessThanExp(highLimit, newCollateralFactorExp)) {\r\n            return fail(Error.INVALID_COLLATERAL_FACTOR, FailureInfo.SET_COLLATERAL_FACTOR_VALIDATION);\r\n        }\r\n\r\n        // If collateral factor != 0, fail if price == 0\r\n        if (newCollateralFactorMantissa != 0 && oracle.getUnderlyingPrice(cToken) == 0) {\r\n            return fail(Error.PRICE_ERROR, FailureInfo.SET_COLLATERAL_FACTOR_WITHOUT_PRICE);\r\n        }\r\n\r\n        // Set market's collateral factor to new collateral factor, remember old value\r\n        uint oldCollateralFactorMantissa = market.collateralFactorMantissa;\r\n        market.collateralFactorMantissa = newCollateralFactorMantissa;\r\n\r\n        // Emit event with asset, old collateral factor, and new collateral factor\r\n        emit NewCollateralFactor(cToken, oldCollateralFactorMantissa, newCollateralFactorMantissa);\r\n\r\n        return uint(Error.NO_ERROR);\r\n    }\r\n\r\n    /**\r\n      * @notice Sets maxAssets which controls how many markets can be entered\r\n      * @dev Admin function to set maxAssets\r\n      * @param newMaxAssets New max assets\r\n      * @return uint 0=success, otherwise a failure. (See ErrorReporter for details)\r\n      */\r\n    function _setMaxAssets(uint newMaxAssets) external returns (uint) {\r\n        // Check caller is admin\r\n        if (msg.sender != admin) {\r\n            return fail(Error.UNAUTHORIZED, FailureInfo.SET_MAX_ASSETS_OWNER_CHECK);\r\n        }\r\n\r\n        uint oldMaxAssets = maxAssets;\r\n        maxAssets = newMaxAssets;\r\n        emit NewMaxAssets(oldMaxAssets, newMaxAssets);\r\n\r\n        return uint(Error.NO_ERROR);\r\n    }\r\n\r\n    /**\r\n      * @notice Sets liquidationIncentive\r\n      * @dev Admin function to set liquidationIncentive\r\n      * @param newLiquidationIncentiveMantissa New liquidationIncentive scaled by 1e18\r\n      * @return uint 0=success, otherwise a failure. (See ErrorReporter for details)\r\n      */\r\n    function _setLiquidationIncentive(uint newLiquidationIncentiveMantissa) external returns (uint) {\r\n        // Check caller is admin\r\n        if (msg.sender != admin) {\r\n            return fail(Error.UNAUTHORIZED, FailureInfo.SET_LIQUIDATION_INCENTIVE_OWNER_CHECK);\r\n        }\r\n\r\n        // Check de-scaled min <= newLiquidationIncentive <= max\r\n        Exp memory newLiquidationIncentive = Exp({mantissa: newLiquidationIncentiveMantissa});\r\n        Exp memory minLiquidationIncentive = Exp({mantissa: liquidationIncentiveMinMantissa});\r\n        if (lessThanExp(newLiquidationIncentive, minLiquidationIncentive)) {\r\n            return fail(Error.INVALID_LIQUIDATION_INCENTIVE, FailureInfo.SET_LIQUIDATION_INCENTIVE_VALIDATION);\r\n        }\r\n\r\n        Exp memory maxLiquidationIncentive = Exp({mantissa: liquidationIncentiveMaxMantissa});\r\n        if (lessThanExp(maxLiquidationIncentive, newLiquidationIncentive)) {\r\n            return fail(Error.INVALID_LIQUIDATION_INCENTIVE, FailureInfo.SET_LIQUIDATION_INCENTIVE_VALIDATION);\r\n        }\r\n\r\n        // Save current value for use in log\r\n        uint oldLiquidationIncentiveMantissa = liquidationIncentiveMantissa;\r\n\r\n        // Set liquidation incentive to new incentive\r\n        liquidationIncentiveMantissa = newLiquidationIncentiveMantissa;\r\n\r\n        // Emit event with old incentive, new incentive\r\n        emit NewLiquidationIncentive(oldLiquidationIncentiveMantissa, newLiquidationIncentiveMantissa);\r\n\r\n        return uint(Error.NO_ERROR);\r\n    }\r\n\r\n    /**\r\n      * @notice Add the market to the markets mapping and set it as listed\r\n      * @dev Admin function to set isListed and add support for the market\r\n      * @param cToken The address of the market (token) to list\r\n      * @return uint 0=success, otherwise a failure. (See enum Error for details)\r\n      */\r\n    function _supportMarket(CToken cToken) external returns (uint) {\r\n        if (msg.sender != admin) {\r\n            return fail(Error.UNAUTHORIZED, FailureInfo.SUPPORT_MARKET_OWNER_CHECK);\r\n        }\r\n\r\n        if (markets[address(cToken)].isListed) {\r\n            return fail(Error.MARKET_ALREADY_LISTED, FailureInfo.SUPPORT_MARKET_EXISTS);\r\n        }\r\n\r\n        cToken.isCToken(); // Sanity check to make sure its really a CToken\r\n\r\n        markets[address(cToken)] = Market({isListed: true, collateralFactorMantissa: 0});\r\n        emit MarketListed(cToken);\r\n\r\n        return uint(Error.NO_ERROR);\r\n    }\r\n\r\n    /**\r\n     * @notice Admin function to change the Pause Guardian\r\n     * @param newPauseGuardian The address of the new Pause Guardian\r\n     * @return uint 0=success, otherwise a failure. (See enum Error for details)\r\n     */\r\n    function _setPauseGuardian(address newPauseGuardian) public returns (uint) {\r\n        if (msg.sender != admin) {\r\n            return fail(Error.UNAUTHORIZED, FailureInfo.SET_PAUSE_GUARDIAN_OWNER_CHECK);\r\n        }\r\n\r\n        // Save current value for inclusion in log\r\n        address oldPauseGuardian = pauseGuardian;\r\n\r\n        // Store pauseGuardian with value newPauseGuardian\r\n        pauseGuardian = newPauseGuardian;\r\n\r\n        // Emit NewPauseGuardian(OldPauseGuardian, NewPauseGuardian)\r\n        emit NewPauseGuardian(oldPauseGuardian, pauseGuardian);\r\n\r\n        return uint(Error.NO_ERROR);\r\n    }\r\n\r\n    function _setMintPaused(CToken cToken, bool state) public returns (bool) {\r\n        require(markets[address(cToken)].isListed, \"cannot pause a market that is not listed\");\r\n        require(msg.sender == pauseGuardian || msg.sender == admin, \"only pause guardian and admin can pause\");\r\n        require(msg.sender == admin || state == true, \"only admin can unpause\");\r\n\r\n        mintGuardianPaused[address(cToken)] = state;\r\n        emit ActionPaused(cToken, \"Mint\", state);\r\n        return state;\r\n    }\r\n\r\n    function _setBorrowPaused(CToken cToken, bool state) public returns (bool) {\r\n        require(markets[address(cToken)].isListed, \"cannot pause a market that is not listed\");\r\n        require(msg.sender == pauseGuardian || msg.sender == admin, \"only pause guardian and admin can pause\");\r\n        require(msg.sender == admin || state == true, \"only admin can unpause\");\r\n\r\n        borrowGuardianPaused[address(cToken)] = state;\r\n        emit ActionPaused(cToken, \"Borrow\", state);\r\n        return state;\r\n    }\r\n\r\n    function _setTransferPaused(bool state) public returns (bool) {\r\n        require(msg.sender == pauseGuardian || msg.sender == admin, \"only pause guardian and admin can pause\");\r\n        require(msg.sender == admin || state == true, \"only admin can unpause\");\r\n\r\n        transferGuardianPaused = state;\r\n        emit ActionPaused(\"Transfer\", state);\r\n        return state;\r\n    }\r\n\r\n    function _setSeizePaused(bool state) public returns (bool) {\r\n        require(msg.sender == pauseGuardian || msg.sender == admin, \"only pause guardian and admin can pause\");\r\n        require(msg.sender == admin || state == true, \"only admin can unpause\");\r\n\r\n        seizeGuardianPaused = state;\r\n        emit ActionPaused(\"Seize\", state);\r\n        return state;\r\n    }\r\n\r\n    function _become(Unitroller unitroller) public {\r\n        require(msg.sender == unitroller.admin(), \"only unitroller admin can change brains\");\r\n\r\n        uint changeStatus = unitroller._acceptImplementation();\r\n        require(changeStatus == 0, \"change not authorized\");\r\n    }\r\n}\r\n",
  "sourcePath": "C:\\Users\\pillardev\\Desktop\\Compound2.0\\compoundv2\\contracts\\Comptroller.sol",
  "compiler": {
    "name": "solc",
    "version": "0.5.17+commit.d19bba13.Emscripten.clang"
  },
  "schemaVersion": "3.0.23",
  "updatedAt": "2020-05-11T11:45:51.080Z",
  "networkType": "ethereum",
  "devdoc": {
    "author": "Compound",
    "methods": {
      "_setCloseFactor(uint256)": {
        "details": "Admin function to set closeFactor",
        "params": {
          "newCloseFactorMantissa": "New close factor, scaled by 1e18"
        },
        "return": "uint 0=success, otherwise a failure. (See ErrorReporter for details)"
      },
      "_setCollateralFactor(address,uint256)": {
        "details": "Admin function to set per-market collateralFactor",
        "params": {
          "cToken": "The market to set the factor on",
          "newCollateralFactorMantissa": "The new collateral factor, scaled by 1e18"
        },
        "return": "uint 0=success, otherwise a failure. (See ErrorReporter for details)"
      },
      "_setLiquidationIncentive(uint256)": {
        "details": "Admin function to set liquidationIncentive",
        "params": {
          "newLiquidationIncentiveMantissa": "New liquidationIncentive scaled by 1e18"
        },
        "return": "uint 0=success, otherwise a failure. (See ErrorReporter for details)"
      },
      "_setMaxAssets(uint256)": {
        "details": "Admin function to set maxAssets",
        "params": {
          "newMaxAssets": "New max assets"
        },
        "return": "uint 0=success, otherwise a failure. (See ErrorReporter for details)"
      },
      "_setPauseGuardian(address)": {
        "params": {
          "newPauseGuardian": "The address of the new Pause Guardian"
        },
        "return": "uint 0=success, otherwise a failure. (See enum Error for details)"
      },
      "_setPriceOracle(address)": {
        "details": "Admin function to set a new price oracle",
        "return": "uint 0=success, otherwise a failure (see ErrorReporter.sol for details)"
      },
      "_supportMarket(address)": {
        "details": "Admin function to set isListed and add support for the market",
        "params": {
          "cToken": "The address of the market (token) to list"
        },
        "return": "uint 0=success, otherwise a failure. (See enum Error for details)"
      },
      "borrowAllowed(address,address,uint256)": {
        "params": {
          "borrowAmount": "The amount of underlying the account would borrow",
          "borrower": "The account which would borrow the asset",
          "cToken": "The market to verify the borrow against"
        },
        "return": "0 if the borrow is allowed, otherwise a semi-opaque error code (See ErrorReporter.sol)"
      },
      "borrowVerify(address,address,uint256)": {
        "params": {
          "borrowAmount": "The amount of the underlying asset requested to borrow",
          "borrower": "The address borrowing the underlying",
          "cToken": "Asset whose underlying is being borrowed"
        }
      },
      "checkMembership(address,address)": {
        "params": {
          "account": "The address of the account to check",
          "cToken": "The cToken to check"
        },
        "return": "True if the account is in the asset, otherwise false."
      },
      "enterMarkets(address[])": {
        "params": {
          "cTokens": "The list of addresses of the cToken markets to be enabled"
        },
        "return": "Success indicator for whether each corresponding market was entered"
      },
      "exitMarket(address)": {
        "details": "Sender must not have an outstanding borrow balance in the asset, or be providing neccessary collateral for an outstanding borrow.",
        "params": {
          "cTokenAddress": "The address of the asset to be removed"
        },
        "return": "Whether or not the account successfully exited the market"
      },
      "getAccountLiquidity(address)": {
        "return": "(possible error code (semi-opaque), account liquidity in excess of collateral requirements,         account shortfall below collateral requirements)"
      },
      "getAssetsIn(address)": {
        "params": {
          "account": "The address of the account to pull assets for"
        },
        "return": "A dynamic list with the assets the account has entered"
      },
      "getHypotheticalAccountLiquidity(address,address,uint256,uint256)": {
        "params": {
          "account": "The account to determine liquidity for",
          "borrowAmount": "The amount of underlying to hypothetically borrow",
          "cTokenModify": "The market to hypothetically redeem/borrow in",
          "redeemTokens": "The number of tokens to hypothetically redeem"
        },
        "return": "(possible error code (semi-opaque), hypothetical account liquidity in excess of collateral requirements,         hypothetical account shortfall below collateral requirements)"
      },
      "liquidateBorrowAllowed(address,address,address,address,uint256)": {
        "params": {
          "borrower": "The address of the borrower",
          "cTokenBorrowed": "Asset which was borrowed by the borrower",
          "cTokenCollateral": "Asset which was used as collateral and will be seized",
          "liquidator": "The address repaying the borrow and seizing the collateral",
          "repayAmount": "The amount of underlying being repaid"
        }
      },
      "liquidateBorrowVerify(address,address,address,address,uint256,uint256)": {
        "params": {
          "actualRepayAmount": "The amount of underlying being repaid",
          "borrower": "The address of the borrower",
          "cTokenBorrowed": "Asset which was borrowed by the borrower",
          "cTokenCollateral": "Asset which was used as collateral and will be seized",
          "liquidator": "The address repaying the borrow and seizing the collateral"
        }
      },
      "liquidateCalculateSeizeTokens(address,address,uint256)": {
        "details": "Used in liquidation (called in cToken.liquidateBorrowFresh)",
        "params": {
          "actualRepayAmount": "The amount of cTokenBorrowed underlying to convert into cTokenCollateral tokens",
          "cTokenBorrowed": "The address of the borrowed cToken",
          "cTokenCollateral": "The address of the collateral cToken"
        },
        "return": "(errorCode, number of cTokenCollateral tokens to be seized in a liquidation)"
      },
      "mintAllowed(address,address,uint256)": {
        "params": {
          "cToken": "The market to verify the mint against",
          "mintAmount": "The amount of underlying being supplied to the market in exchange for tokens",
          "minter": "The account which would get the minted tokens"
        },
        "return": "0 if the mint is allowed, otherwise a semi-opaque error code (See ErrorReporter.sol)"
      },
      "mintVerify(address,address,uint256,uint256)": {
        "params": {
          "actualMintAmount": "The amount of the underlying asset being minted",
          "cToken": "Asset being minted",
          "mintTokens": "The number of tokens being minted",
          "minter": "The address minting the tokens"
        }
      },
      "redeemAllowed(address,address,uint256)": {
        "params": {
          "cToken": "The market to verify the redeem against",
          "redeemTokens": "The number of cTokens to exchange for the underlying asset in the market",
          "redeemer": "The account which would redeem the tokens"
        },
        "return": "0 if the redeem is allowed, otherwise a semi-opaque error code (See ErrorReporter.sol)"
      },
      "redeemVerify(address,address,uint256,uint256)": {
        "params": {
          "cToken": "Asset being redeemed",
          "redeemAmount": "The amount of the underlying asset being redeemed",
          "redeemTokens": "The number of tokens being redeemed",
          "redeemer": "The address redeeming the tokens"
        }
      },
      "repayBorrowAllowed(address,address,address,uint256)": {
        "params": {
          "borrower": "The account which would borrowed the asset",
          "cToken": "The market to verify the repay against",
          "payer": "The account which would repay the asset",
          "repayAmount": "The amount of the underlying asset the account would repay"
        },
        "return": "0 if the repay is allowed, otherwise a semi-opaque error code (See ErrorReporter.sol)"
      },
      "repayBorrowVerify(address,address,address,uint256,uint256)": {
        "params": {
          "actualRepayAmount": "The amount of underlying being repaid",
          "borrower": "The address of the borrower",
          "cToken": "Asset being repaid",
          "payer": "The address repaying the borrow"
        }
      },
      "seizeAllowed(address,address,address,address,uint256)": {
        "params": {
          "borrower": "The address of the borrower",
          "cTokenBorrowed": "Asset which was borrowed by the borrower",
          "cTokenCollateral": "Asset which was used as collateral and will be seized",
          "liquidator": "The address repaying the borrow and seizing the collateral",
          "seizeTokens": "The number of collateral tokens to seize"
        }
      },
      "seizeVerify(address,address,address,address,uint256)": {
        "params": {
          "borrower": "The address of the borrower",
          "cTokenBorrowed": "Asset which was borrowed by the borrower",
          "cTokenCollateral": "Asset which was used as collateral and will be seized",
          "liquidator": "The address repaying the borrow and seizing the collateral",
          "seizeTokens": "The number of collateral tokens to seize"
        }
      },
      "transferAllowed(address,address,address,uint256)": {
        "params": {
          "cToken": "The market to verify the transfer against",
          "dst": "The account which receives the tokens",
          "src": "The account which sources the tokens",
          "transferTokens": "The number of cTokens to transfer"
        },
        "return": "0 if the transfer is allowed, otherwise a semi-opaque error code (See ErrorReporter.sol)"
      },
      "transferVerify(address,address,address,uint256)": {
        "params": {
          "cToken": "Asset being transferred",
          "dst": "The account which receives the tokens",
          "src": "The account which sources the tokens",
          "transferTokens": "The number of cTokens to transfer"
        }
      }
    },
    "title": "Compound's Comptroller Contract"
  },
  "userdoc": {
    "methods": {
      "_setCloseFactor(uint256)": {
        "notice": "Sets the closeFactor used when liquidating borrows"
      },
      "_setCollateralFactor(address,uint256)": {
        "notice": "Sets the collateralFactor for a market"
      },
      "_setLiquidationIncentive(uint256)": {
        "notice": "Sets liquidationIncentive"
      },
      "_setMaxAssets(uint256)": {
        "notice": "Sets maxAssets which controls how many markets can be entered"
      },
      "_setPauseGuardian(address)": {
        "notice": "Admin function to change the Pause Guardian"
      },
      "_setPriceOracle(address)": {
        "notice": "Sets a new price oracle for the comptroller"
      },
      "_supportMarket(address)": {
        "notice": "Add the market to the markets mapping and set it as listed"
      },
      "borrowAllowed(address,address,uint256)": {
        "notice": "Checks if the account should be allowed to borrow the underlying asset of the given market"
      },
      "borrowVerify(address,address,uint256)": {
        "notice": "Validates borrow and reverts on rejection. May emit logs."
      },
      "checkMembership(address,address)": {
        "notice": "Returns whether the given account is entered in the given asset"
      },
      "enterMarkets(address[])": {
        "notice": "Add assets to be included in account liquidity calculation"
      },
      "exitMarket(address)": {
        "notice": "Removes asset from sender's account liquidity calculation"
      },
      "getAccountLiquidity(address)": {
        "notice": "Determine the current account liquidity wrt collateral requirements"
      },
      "getAssetsIn(address)": {
        "notice": "Returns the assets an account has entered"
      },
      "getHypotheticalAccountLiquidity(address,address,uint256,uint256)": {
        "notice": "Determine what the account liquidity would be if the given amounts were redeemed/borrowed"
      },
      "liquidateBorrowAllowed(address,address,address,address,uint256)": {
        "notice": "Checks if the liquidation should be allowed to occur"
      },
      "liquidateBorrowVerify(address,address,address,address,uint256,uint256)": {
        "notice": "Validates liquidateBorrow and reverts on rejection. May emit logs."
      },
      "liquidateCalculateSeizeTokens(address,address,uint256)": {
        "notice": "Calculate number of tokens of collateral asset to seize given an underlying amount"
      },
      "mintAllowed(address,address,uint256)": {
        "notice": "Checks if the account should be allowed to mint tokens in the given market"
      },
      "mintVerify(address,address,uint256,uint256)": {
        "notice": "Validates mint and reverts on rejection. May emit logs."
      },
      "redeemAllowed(address,address,uint256)": {
        "notice": "Checks if the account should be allowed to redeem tokens in the given market"
      },
      "redeemVerify(address,address,uint256,uint256)": {
        "notice": "Validates redeem and reverts on rejection. May emit logs."
      },
      "repayBorrowAllowed(address,address,address,uint256)": {
        "notice": "Checks if the account should be allowed to repay a borrow in the given market"
      },
      "repayBorrowVerify(address,address,address,uint256,uint256)": {
        "notice": "Validates repayBorrow and reverts on rejection. May emit logs."
      },
      "seizeAllowed(address,address,address,address,uint256)": {
        "notice": "Checks if the seizing of assets should be allowed to occur"
      },
      "seizeVerify(address,address,address,address,uint256)": {
        "notice": "Validates seize and reverts on rejection. May emit logs."
      },
      "transferAllowed(address,address,address,uint256)": {
        "notice": "Checks if the account should be allowed to transfer tokens in the given market"
      },
      "transferVerify(address,address,address,uint256)": {
        "notice": "Validates transfer and reverts on rejection. May emit logs."
      }
    }
  }
}