{
  "contractName": "CompoundLens",
  "abi": [
    {
      "constant": false,
      "inputs": [
        {
          "internalType": "contract CToken",
          "name": "cToken",
          "type": "address"
        }
      ],
      "name": "cTokenMetadata",
      "outputs": [
        {
          "components": [
            {
              "internalType": "address",
              "name": "cToken",
              "type": "address"
            },
            {
              "internalType": "uint256",
              "name": "exchangeRateCurrent",
              "type": "uint256"
            },
            {
              "internalType": "uint256",
              "name": "supplyRatePerBlock",
              "type": "uint256"
            },
            {
              "internalType": "uint256",
              "name": "borrowRatePerBlock",
              "type": "uint256"
            },
            {
              "internalType": "uint256",
              "name": "reserveFactorMantissa",
              "type": "uint256"
            },
            {
              "internalType": "uint256",
              "name": "totalBorrows",
              "type": "uint256"
            },
            {
              "internalType": "uint256",
              "name": "totalReserves",
              "type": "uint256"
            },
            {
              "internalType": "uint256",
              "name": "totalSupply",
              "type": "uint256"
            },
            {
              "internalType": "uint256",
              "name": "totalCash",
              "type": "uint256"
            },
            {
              "internalType": "bool",
              "name": "isListed",
              "type": "bool"
            },
            {
              "internalType": "uint256",
              "name": "collateralFactorMantissa",
              "type": "uint256"
            },
            {
              "internalType": "address",
              "name": "underlyingAssetAddress",
              "type": "address"
            },
            {
              "internalType": "uint256",
              "name": "cTokenDecimals",
              "type": "uint256"
            },
            {
              "internalType": "uint256",
              "name": "underlyingDecimals",
              "type": "uint256"
            }
          ],
          "internalType": "struct CompoundLens.CTokenMetadata",
          "name": "",
          "type": "tuple"
        }
      ],
      "payable": false,
      "stateMutability": "nonpayable",
      "type": "function"
    },
    {
      "constant": false,
      "inputs": [
        {
          "internalType": "contract CToken[]",
          "name": "cTokens",
          "type": "address[]"
        }
      ],
      "name": "cTokenMetadataAll",
      "outputs": [
        {
          "components": [
            {
              "internalType": "address",
              "name": "cToken",
              "type": "address"
            },
            {
              "internalType": "uint256",
              "name": "exchangeRateCurrent",
              "type": "uint256"
            },
            {
              "internalType": "uint256",
              "name": "supplyRatePerBlock",
              "type": "uint256"
            },
            {
              "internalType": "uint256",
              "name": "borrowRatePerBlock",
              "type": "uint256"
            },
            {
              "internalType": "uint256",
              "name": "reserveFactorMantissa",
              "type": "uint256"
            },
            {
              "internalType": "uint256",
              "name": "totalBorrows",
              "type": "uint256"
            },
            {
              "internalType": "uint256",
              "name": "totalReserves",
              "type": "uint256"
            },
            {
              "internalType": "uint256",
              "name": "totalSupply",
              "type": "uint256"
            },
            {
              "internalType": "uint256",
              "name": "totalCash",
              "type": "uint256"
            },
            {
              "internalType": "bool",
              "name": "isListed",
              "type": "bool"
            },
            {
              "internalType": "uint256",
              "name": "collateralFactorMantissa",
              "type": "uint256"
            },
            {
              "internalType": "address",
              "name": "underlyingAssetAddress",
              "type": "address"
            },
            {
              "internalType": "uint256",
              "name": "cTokenDecimals",
              "type": "uint256"
            },
            {
              "internalType": "uint256",
              "name": "underlyingDecimals",
              "type": "uint256"
            }
          ],
          "internalType": "struct CompoundLens.CTokenMetadata[]",
          "name": "",
          "type": "tuple[]"
        }
      ],
      "payable": false,
      "stateMutability": "nonpayable",
      "type": "function"
    },
    {
      "constant": false,
      "inputs": [
        {
          "internalType": "contract CToken",
          "name": "cToken",
          "type": "address"
        },
        {
          "internalType": "address payable",
          "name": "account",
          "type": "address"
        }
      ],
      "name": "cTokenBalances",
      "outputs": [
        {
          "components": [
            {
              "internalType": "address",
              "name": "cToken",
              "type": "address"
            },
            {
              "internalType": "uint256",
              "name": "balanceOf",
              "type": "uint256"
            },
            {
              "internalType": "uint256",
              "name": "borrowBalanceCurrent",
              "type": "uint256"
            },
            {
              "internalType": "uint256",
              "name": "balanceOfUnderlying",
              "type": "uint256"
            },
            {
              "internalType": "uint256",
              "name": "tokenBalance",
              "type": "uint256"
            },
            {
              "internalType": "uint256",
              "name": "tokenAllowance",
              "type": "uint256"
            }
          ],
          "internalType": "struct CompoundLens.CTokenBalances",
          "name": "",
          "type": "tuple"
        }
      ],
      "payable": false,
      "stateMutability": "nonpayable",
      "type": "function"
    },
    {
      "constant": false,
      "inputs": [
        {
          "internalType": "contract CToken[]",
          "name": "cTokens",
          "type": "address[]"
        },
        {
          "internalType": "address payable",
          "name": "account",
          "type": "address"
        }
      ],
      "name": "cTokenBalancesAll",
      "outputs": [
        {
          "components": [
            {
              "internalType": "address",
              "name": "cToken",
              "type": "address"
            },
            {
              "internalType": "uint256",
              "name": "balanceOf",
              "type": "uint256"
            },
            {
              "internalType": "uint256",
              "name": "borrowBalanceCurrent",
              "type": "uint256"
            },
            {
              "internalType": "uint256",
              "name": "balanceOfUnderlying",
              "type": "uint256"
            },
            {
              "internalType": "uint256",
              "name": "tokenBalance",
              "type": "uint256"
            },
            {
              "internalType": "uint256",
              "name": "tokenAllowance",
              "type": "uint256"
            }
          ],
          "internalType": "struct CompoundLens.CTokenBalances[]",
          "name": "",
          "type": "tuple[]"
        }
      ],
      "payable": false,
      "stateMutability": "nonpayable",
      "type": "function"
    },
    {
      "constant": true,
      "inputs": [
        {
          "internalType": "contract CToken",
          "name": "cToken",
          "type": "address"
        }
      ],
      "name": "cTokenUnderlyingPrice",
      "outputs": [
        {
          "components": [
            {
              "internalType": "address",
              "name": "cToken",
              "type": "address"
            },
            {
              "internalType": "uint256",
              "name": "underlyingPrice",
              "type": "uint256"
            }
          ],
          "internalType": "struct CompoundLens.CTokenUnderlyingPrice",
          "name": "",
          "type": "tuple"
        }
      ],
      "payable": false,
      "stateMutability": "view",
      "type": "function"
    },
    {
      "constant": true,
      "inputs": [
        {
          "internalType": "contract CToken[]",
          "name": "cTokens",
          "type": "address[]"
        }
      ],
      "name": "cTokenUnderlyingPriceAll",
      "outputs": [
        {
          "components": [
            {
              "internalType": "address",
              "name": "cToken",
              "type": "address"
            },
            {
              "internalType": "uint256",
              "name": "underlyingPrice",
              "type": "uint256"
            }
          ],
          "internalType": "struct CompoundLens.CTokenUnderlyingPrice[]",
          "name": "",
          "type": "tuple[]"
        }
      ],
      "payable": false,
      "stateMutability": "view",
      "type": "function"
    },
    {
      "constant": true,
      "inputs": [
        {
          "internalType": "contract Comptroller",
          "name": "comptroller",
          "type": "address"
        },
        {
          "internalType": "address",
          "name": "account",
          "type": "address"
        }
      ],
      "name": "getAccountLimits",
      "outputs": [
        {
          "components": [
            {
              "internalType": "contract CToken[]",
              "name": "markets",
              "type": "address[]"
            },
            {
              "internalType": "uint256",
              "name": "liquidity",
              "type": "uint256"
            },
            {
              "internalType": "uint256",
              "name": "shortfall",
              "type": "uint256"
            }
          ],
          "internalType": "struct CompoundLens.AccountLimits",
          "name": "",
          "type": "tuple"
        }
      ],
      "payable": false,
      "stateMutability": "view",
      "type": "function"
    },
    {
      "constant": true,
      "inputs": [
        {
          "internalType": "contract GovernorAlpha",
          "name": "governor",
          "type": "address"
        },
        {
          "internalType": "address",
          "name": "voter",
          "type": "address"
        },
        {
          "internalType": "uint256[]",
          "name": "proposalIds",
          "type": "uint256[]"
        }
      ],
      "name": "getGovReceipts",
      "outputs": [
        {
          "components": [
            {
              "internalType": "uint256",
              "name": "proposalId",
              "type": "uint256"
            },
            {
              "internalType": "bool",
              "name": "hasVoted",
              "type": "bool"
            },
            {
              "internalType": "bool",
              "name": "support",
              "type": "bool"
            },
            {
              "internalType": "uint96",
              "name": "votes",
              "type": "uint96"
            }
          ],
          "internalType": "struct CompoundLens.GovReceipt[]",
          "name": "",
          "type": "tuple[]"
        }
      ],
      "payable": false,
      "stateMutability": "view",
      "type": "function"
    },
    {
      "constant": true,
      "inputs": [
        {
          "internalType": "contract GovernorAlpha",
          "name": "governor",
          "type": "address"
        },
        {
          "internalType": "uint256[]",
          "name": "proposalIds",
          "type": "uint256[]"
        }
      ],
      "name": "getGovProposals",
      "outputs": [
        {
          "components": [
            {
              "internalType": "uint256",
              "name": "proposalId",
              "type": "uint256"
            },
            {
              "internalType": "address",
              "name": "proposer",
              "type": "address"
            },
            {
              "internalType": "uint256",
              "name": "eta",
              "type": "uint256"
            },
            {
              "internalType": "address[]",
              "name": "targets",
              "type": "address[]"
            },
            {
              "internalType": "uint256[]",
              "name": "values",
              "type": "uint256[]"
            },
            {
              "internalType": "string[]",
              "name": "signatures",
              "type": "string[]"
            },
            {
              "internalType": "bytes[]",
              "name": "calldatas",
              "type": "bytes[]"
            },
            {
              "internalType": "uint256",
              "name": "startBlock",
              "type": "uint256"
            },
            {
              "internalType": "uint256",
              "name": "endBlock",
              "type": "uint256"
            },
            {
              "internalType": "uint256",
              "name": "forVotes",
              "type": "uint256"
            },
            {
              "internalType": "uint256",
              "name": "againstVotes",
              "type": "uint256"
            },
            {
              "internalType": "bool",
              "name": "canceled",
              "type": "bool"
            },
            {
              "internalType": "bool",
              "name": "executed",
              "type": "bool"
            }
          ],
          "internalType": "struct CompoundLens.GovProposal[]",
          "name": "",
          "type": "tuple[]"
        }
      ],
      "payable": false,
      "stateMutability": "view",
      "type": "function"
    },
    {
      "constant": true,
      "inputs": [
        {
          "internalType": "contract Comp",
          "name": "comp",
          "type": "address"
        },
        {
          "internalType": "address",
          "name": "account",
          "type": "address"
        }
      ],
      "name": "getCompBalanceMetadata",
      "outputs": [
        {
          "components": [
            {
              "internalType": "uint256",
              "name": "balance",
              "type": "uint256"
            },
            {
              "internalType": "uint256",
              "name": "votes",
              "type": "uint256"
            },
            {
              "internalType": "address",
              "name": "delegate",
              "type": "address"
            }
          ],
          "internalType": "struct CompoundLens.CompBalanceMetadata",
          "name": "",
          "type": "tuple"
        }
      ],
      "payable": false,
      "stateMutability": "view",
      "type": "function"
    },
    {
      "constant": true,
      "inputs": [
        {
          "internalType": "contract Comp",
          "name": "comp",
          "type": "address"
        },
        {
          "internalType": "address",
          "name": "account",
          "type": "address"
        },
        {
          "internalType": "uint32[]",
          "name": "blockNumbers",
          "type": "uint32[]"
        }
      ],
      "name": "getCompVotes",
      "outputs": [
        {
          "components": [
            {
              "internalType": "uint256",
              "name": "blockNumber",
              "type": "uint256"
            },
            {
              "internalType": "uint256",
              "name": "votes",
              "type": "uint256"
            }
          ],
          "internalType": "struct CompoundLens.CompVotes[]",
          "name": "",
          "type": "tuple[]"
        }
      ],
      "payable": false,
      "stateMutability": "view",
      "type": "function"
    }
  ],
  "bytecode": "0x608060405234801561001057600080fd5b5061438c806100206000396000f3fe608060405234801561001057600080fd5b50600436106100a95760003560e01c80635956421911610071578063595642191461019e5780637dd8f6d9146101ce57806396994869146101fe578063995ed99f1461022e578063bdf950c91461025e578063c5ae59341461028e576100a9565b80630972bf8b146100ae578063158eca8b146100de5780632b2d5ed61461010e578063416405d71461013e5780634b70d84b1461016e575b600080fd5b6100c860048036036100c3919081019061286e565b6102be565b6040516100d59190613abc565b60405180910390f35b6100f860048036036100f39190810190612943565b610370565b6040516101059190613be0565b60405180910390f35b61012860048036036101239190810190612829565b610bee565b6040516101359190613b00565b60405180910390f35b610158600480360361015391908101906129a8565b610c9e565b6040516101659190613c17565b60405180910390f35b61018860048036036101839190810190612829565b610e85565b6040516101959190613ade565b60405180910390f35b6101b860048036036101b391908101906129e4565b610f35565b6040516101c59190613b22565b60405180910390f35b6101e860048036036101e39190810190612a79565b6110ad565b6040516101f59190613ba3565b60405180910390f35b61021860048036036102139190810190612b1c565b611209565b6040516102259190613b44565b60405180910390f35b61024860048036036102439190810190612ab5565b6113ea565b6040516102559190613b66565b60405180910390f35b6102786004803603610273919081019061296c565b61156b565b6040516102859190613bc5565b60405180910390f35b6102a860048036036102a39190810190612943565b611a12565b6040516102b59190613bfc565b60405180910390f35b6060600084849050905060608160405190808252806020026020018201604052801561030457816020015b6102f1611d80565b8152602001906001900390816102e95790505b50905060008090505b828110156103635761033f87878381811061032457fe5b90506020020160206103399190810190612943565b8661156b565b82828151811061034b57fe5b6020026020010181905250808060010191505061030d565b5080925050509392505050565b610378611dcc565b60008273ffffffffffffffffffffffffffffffffffffffff1663bd6d894d6040518163ffffffff1660e01b8152600401602060405180830381600087803b1580156103c257600080fd5b505af11580156103d6573d6000803e3d6000fd5b505050506040513d601f19601f820116820180604052506103fa9190810190612c07565b905060008373ffffffffffffffffffffffffffffffffffffffff16635fe3b5676040518163ffffffff1660e01b815260040160206040518083038186803b15801561044457600080fd5b505afa158015610458573d6000803e3d6000fd5b505050506040513d601f19601f8201168201806040525061047c9190810190612a50565b90506000808273ffffffffffffffffffffffffffffffffffffffff16638e8f294b876040518263ffffffff1660e01b81526004016104ba9190613a34565b604080518083038186803b1580156104d157600080fd5b505afa1580156104e5573d6000803e3d6000fd5b505050506040513d601f19601f820116820180604052506105099190810190612907565b915091506000806105d18873ffffffffffffffffffffffffffffffffffffffff166395d89b416040518163ffffffff1660e01b815260040160006040518083038186803b15801561055957600080fd5b505afa15801561056d573d6000803e3d6000fd5b505050506040513d6000823e3d601f19601f820116820180604052506105969190810190612b9d565b6040518060400160405280600481526020017f6345544800000000000000000000000000000000000000000000000000000000815250611bda565b156105e357600091506012905061076a565b60008890508073ffffffffffffffffffffffffffffffffffffffff16636f307dc36040518163ffffffff1660e01b815260040160206040518083038186803b15801561062e57600080fd5b505afa158015610642573d6000803e3d6000fd5b505050506040513d601f19601f82011682018060405250610666919081019061273d565b92508073ffffffffffffffffffffffffffffffffffffffff16636f307dc36040518163ffffffff1660e01b815260040160206040518083038186803b1580156106ae57600080fd5b505afa1580156106c2573d6000803e3d6000fd5b505050506040513d601f19601f820116820180604052506106e6919081019061273d565b73ffffffffffffffffffffffffffffffffffffffff1663313ce5676040518163ffffffff1660e01b815260040160206040518083038186803b15801561072b57600080fd5b505afa15801561073f573d6000803e3d6000fd5b505050506040513d601f19601f820116820180604052506107639190810190612d6e565b60ff169150505b604051806101c001604052808973ffffffffffffffffffffffffffffffffffffffff1681526020018781526020018973ffffffffffffffffffffffffffffffffffffffff1663ae9d70b06040518163ffffffff1660e01b815260040160206040518083038186803b1580156107de57600080fd5b505afa1580156107f2573d6000803e3d6000fd5b505050506040513d601f19601f820116820180604052506108169190810190612c07565b81526020018973ffffffffffffffffffffffffffffffffffffffff1663f8f9da286040518163ffffffff1660e01b815260040160206040518083038186803b15801561086157600080fd5b505afa158015610875573d6000803e3d6000fd5b505050506040513d601f19601f820116820180604052506108999190810190612c07565b81526020018973ffffffffffffffffffffffffffffffffffffffff1663173b99046040518163ffffffff1660e01b815260040160206040518083038186803b1580156108e457600080fd5b505afa1580156108f8573d6000803e3d6000fd5b505050506040513d601f19601f8201168201806040525061091c9190810190612c07565b81526020018973ffffffffffffffffffffffffffffffffffffffff166347bd37186040518163ffffffff1660e01b815260040160206040518083038186803b15801561096757600080fd5b505afa15801561097b573d6000803e3d6000fd5b505050506040513d601f19601f8201168201806040525061099f9190810190612c07565b81526020018973ffffffffffffffffffffffffffffffffffffffff16638f840ddd6040518163ffffffff1660e01b815260040160206040518083038186803b1580156109ea57600080fd5b505afa1580156109fe573d6000803e3d6000fd5b505050506040513d601f19601f82011682018060405250610a229190810190612c07565b81526020018973ffffffffffffffffffffffffffffffffffffffff166318160ddd6040518163ffffffff1660e01b815260040160206040518083038186803b158015610a6d57600080fd5b505afa158015610a81573d6000803e3d6000fd5b505050506040513d601f19601f82011682018060405250610aa59190810190612c07565b81526020018973ffffffffffffffffffffffffffffffffffffffff16633b1d21a26040518163ffffffff1660e01b815260040160206040518083038186803b158015610af057600080fd5b505afa158015610b04573d6000803e3d6000fd5b505050506040513d601f19601f82011682018060405250610b289190810190612c07565b815260200185151581526020018481526020018373ffffffffffffffffffffffffffffffffffffffff1681526020018973ffffffffffffffffffffffffffffffffffffffff1663313ce5676040518163ffffffff1660e01b815260040160206040518083038186803b158015610b9d57600080fd5b505afa158015610bb1573d6000803e3d6000fd5b505050506040513d601f19601f82011682018060405250610bd59190810190612d6e565b60ff168152602001828152509650505050505050919050565b60606000838390509050606081604051908082528060200260200182016040528015610c3457816020015b610c21611e69565b815260200190600190039081610c195790505b50905060008090505b82811015610c9257610c6e868683818110610c5457fe5b9050602002016020610c699190810190612943565b611a12565b828281518110610c7a57fe5b60200260200101819052508080600101915050610c3d565b50809250505092915050565b610ca6611e99565b60405180606001604052808473ffffffffffffffffffffffffffffffffffffffff166370a08231856040518263ffffffff1660e01b8152600401610cea9190613a34565b60206040518083038186803b158015610d0257600080fd5b505afa158015610d16573d6000803e3d6000fd5b505050506040513d601f19601f82011682018060405250610d3a9190810190612c07565b81526020018473ffffffffffffffffffffffffffffffffffffffff1663b4b5ea57856040518263ffffffff1660e01b8152600401610d789190613a34565b60206040518083038186803b158015610d9057600080fd5b505afa158015610da4573d6000803e3d6000fd5b505050506040513d601f19601f82011682018060405250610dc89190810190612d97565b6bffffffffffffffffffffffff1681526020018473ffffffffffffffffffffffffffffffffffffffff1663587cde1e856040518263ffffffff1660e01b8152600401610e149190613a34565b60206040518083038186803b158015610e2c57600080fd5b505afa158015610e40573d6000803e3d6000fd5b505050506040513d601f19601f82011682018060405250610e64919081019061273d565b73ffffffffffffffffffffffffffffffffffffffff16815250905092915050565b60606000838390509050606081604051908082528060200260200182016040528015610ecb57816020015b610eb8611ed0565b815260200190600190039081610eb05790505b50905060008090505b82811015610f2957610f05868683818110610eeb57fe5b9050602002016020610f009190810190612943565b610370565b828281518110610f1157fe5b60200260200101819052508080600101915050610ed4565b50809250505092915050565b60608083839050604051908082528060200260200182016040528015610f7557816020015b610f62611f6d565b815260200190600190039081610f5a5790505b50905060008090505b848490508110156110a0576040518060400160405280868684818110610fa057fe5b9050602002016020610fb59190810190612d45565b63ffffffff1681526020018873ffffffffffffffffffffffffffffffffffffffff1663782d6fe189898987818110610fe957fe5b9050602002016020610ffe9190810190612d45565b6040518363ffffffff1660e01b815260040161101b929190613a93565b60206040518083038186803b15801561103357600080fd5b505afa158015611047573d6000803e3d6000fd5b505050506040513d601f19601f8201168201806040525061106b9190810190612d97565b6bffffffffffffffffffffffff1681525082828151811061108857fe5b60200260200101819052508080600101915050610f7e565b5080915050949350505050565b6110b5611f87565b60008060008573ffffffffffffffffffffffffffffffffffffffff16635ec88c79866040518263ffffffff1660e01b81526004016110f39190613a34565b60606040518083038186803b15801561110b57600080fd5b505afa15801561111f573d6000803e3d6000fd5b505050506040513d601f19601f820116820180604052506111439190810190612cf6565b9250925092506000831461115657600080fd5b60405180606001604052808773ffffffffffffffffffffffffffffffffffffffff1663abfceffc886040518263ffffffff1660e01b815260040161119a9190613a34565b60006040518083038186803b1580156111b257600080fd5b505afa1580156111c6573d6000803e3d6000fd5b505050506040513d6000823e3d601f19601f820116820180604052506111ef91908101906128c6565b815260200183815260200182815250935050505092915050565b6060808383905060405190808252806020026020018201604052801561124957816020015b611236611fa8565b81526020019060019003908161122e5790505b50905060008090505b848490508110156113de576060806060808973ffffffffffffffffffffffffffffffffffffffff1663328dd9828a8a8881811061128b57fe5b905060200201356040518263ffffffff1660e01b81526004016112ae9190613c32565b60006040518083038186803b1580156112c657600080fd5b505afa1580156112da573d6000803e3d6000fd5b505050506040513d6000823e3d601f19601f820116820180604052506113039190810190612766565b9350935093509350604051806101a0016040528060008152602001600073ffffffffffffffffffffffffffffffffffffffff16815260200160008152602001858152602001848152602001838152602001828152602001600081526020016000815260200160008152602001600081526020016000151581526020016000151581525086868151811061139257fe5b60200260200101819052506113cd8686815181106113ac57fe5b60200260200101518b8b8b898181106113c157fe5b90506020020135611c33565b505050508080600101915050611252565b50809150509392505050565b606060008251905060608160405190808252806020026020018201604052801561142e57816020015b61141b61202a565b8152602001906001900390816114135790505b50905060008090505b8281101561155e57611447612064565b8773ffffffffffffffffffffffffffffffffffffffff1663e23a9a5287848151811061146f57fe5b6020026020010151896040518363ffffffff1660e01b8152600401611495929190613c4d565b60606040518083038186803b1580156114ad57600080fd5b505afa1580156114c1573d6000803e3d6000fd5b505050506040513d601f19601f820116820180604052506114e59190810190612bde565b905060405180608001604052808784815181106114fe57fe5b6020026020010151815260200182600001511515815260200182602001511515815260200182604001516bffffffffffffffffffffffff1681525083838151811061154557fe5b6020026020010181905250508080600101915050611437565b5080925050509392505050565b611573612097565b60008373ffffffffffffffffffffffffffffffffffffffff166370a08231846040518263ffffffff1660e01b81526004016115ae9190613a4f565b60206040518083038186803b1580156115c657600080fd5b505afa1580156115da573d6000803e3d6000fd5b505050506040513d601f19601f820116820180604052506115fe9190810190612c07565b905060008473ffffffffffffffffffffffffffffffffffffffff166317bfdfbc856040518263ffffffff1660e01b815260040161163b9190613a4f565b602060405180830381600087803b15801561165557600080fd5b505af1158015611669573d6000803e3d6000fd5b505050506040513d601f19601f8201168201806040525061168d9190810190612c07565b905060008573ffffffffffffffffffffffffffffffffffffffff16633af9e669866040518263ffffffff1660e01b81526004016116ca9190613a4f565b602060405180830381600087803b1580156116e457600080fd5b505af11580156116f8573d6000803e3d6000fd5b505050506040513d601f19601f8201168201806040525061171c9190810190612c07565b90506000806117e28873ffffffffffffffffffffffffffffffffffffffff166395d89b416040518163ffffffff1660e01b815260040160006040518083038186803b15801561176a57600080fd5b505afa15801561177e573d6000803e3d6000fd5b505050506040513d6000823e3d601f19601f820116820180604052506117a79190810190612b9d565b6040518060400160405280600481526020017f6345544800000000000000000000000000000000000000000000000000000000815250611bda565b15611820578673ffffffffffffffffffffffffffffffffffffffff163191508673ffffffffffffffffffffffffffffffffffffffff163190506119c2565b600088905060008173ffffffffffffffffffffffffffffffffffffffff16636f307dc36040518163ffffffff1660e01b815260040160206040518083038186803b15801561186d57600080fd5b505afa158015611881573d6000803e3d6000fd5b505050506040513d601f19601f820116820180604052506118a5919081019061273d565b90508073ffffffffffffffffffffffffffffffffffffffff166370a082318a6040518263ffffffff1660e01b81526004016118e09190613a4f565b60206040518083038186803b1580156118f857600080fd5b505afa15801561190c573d6000803e3d6000fd5b505050506040513d601f19601f820116820180604052506119309190810190612c07565b93508073ffffffffffffffffffffffffffffffffffffffff1663dd62ed3e8a8c6040518363ffffffff1660e01b815260040161196d929190613a6a565b60206040518083038186803b15801561198557600080fd5b505afa158015611999573d6000803e3d6000fd5b505050506040513d601f19601f820116820180604052506119bd9190810190612c07565b925050505b6040518060c001604052808973ffffffffffffffffffffffffffffffffffffffff168152602001868152602001858152602001848152602001838152602001828152509550505050505092915050565b611a1a6120e3565b60008273ffffffffffffffffffffffffffffffffffffffff16635fe3b5676040518163ffffffff1660e01b815260040160206040518083038186803b158015611a6257600080fd5b505afa158015611a76573d6000803e3d6000fd5b505050506040513d601f19601f82011682018060405250611a9a9190810190612a50565b905060008173ffffffffffffffffffffffffffffffffffffffff16637dc0d1d06040518163ffffffff1660e01b815260040160206040518083038186803b158015611ae457600080fd5b505afa158015611af8573d6000803e3d6000fd5b505050506040513d601f19601f82011682018060405250611b1c9190810190612b74565b905060405180604001604052808573ffffffffffffffffffffffffffffffffffffffff1681526020018273ffffffffffffffffffffffffffffffffffffffff1663fc57d4df876040518263ffffffff1660e01b8152600401611b7e9190613b88565b60206040518083038186803b158015611b9657600080fd5b505afa158015611baa573d6000803e3d6000fd5b505050506040513d601f19601f82011682018060405250611bce9190810190612c07565b81525092505050919050565b600081604051602001611bed9190613a1d565b6040516020818303038152906040528051906020012083604051602001611c149190613a1d565b6040516020818303038152906040528051906020012014905092915050565b6000806000806000806000808973ffffffffffffffffffffffffffffffffffffffff1663013cf08b8a6040518263ffffffff1660e01b8152600401611c789190613c32565b6101206040518083038186803b158015611c9157600080fd5b505afa158015611ca5573d6000803e3d6000fd5b505050506040513d601f19601f82011682018060405250611cc99190810190612c30565b9850985098509850985098509850985050888b6000018181525050878b6020019073ffffffffffffffffffffffffffffffffffffffff16908173ffffffffffffffffffffffffffffffffffffffff1681525050868b6040018181525050858b60e0018181525050848b610100018181525050838b610120018181525050828b610140018181525050818b610160019015159081151581525050808b6101800190151590811515815250505050505050505050505050565b6040518060c00160405280600073ffffffffffffffffffffffffffffffffffffffff16815260200160008152602001600081526020016000815260200160008152602001600081525090565b604051806101c00160405280600073ffffffffffffffffffffffffffffffffffffffff168152602001600081526020016000815260200160008152602001600081526020016000815260200160008152602001600081526020016000815260200160001515815260200160008152602001600073ffffffffffffffffffffffffffffffffffffffff16815260200160008152602001600081525090565b6040518060400160405280600073ffffffffffffffffffffffffffffffffffffffff168152602001600081525090565b60405180606001604052806000815260200160008152602001600073ffffffffffffffffffffffffffffffffffffffff1681525090565b604051806101c00160405280600073ffffffffffffffffffffffffffffffffffffffff168152602001600081526020016000815260200160008152602001600081526020016000815260200160008152602001600081526020016000815260200160001515815260200160008152602001600073ffffffffffffffffffffffffffffffffffffffff16815260200160008152602001600081525090565b604051806040016040528060008152602001600081525090565b60405180606001604052806060815260200160008152602001600081525090565b604051806101a0016040528060008152602001600073ffffffffffffffffffffffffffffffffffffffff1681526020016000815260200160608152602001606081526020016060815260200160608152602001600081526020016000815260200160008152602001600081526020016000151581526020016000151581525090565b60405180608001604052806000815260200160001515815260200160001515815260200160006bffffffffffffffffffffffff1681525090565b604051806060016040528060001515815260200160001515815260200160006bffffffffffffffffffffffff1681525090565b6040518060c00160405280600073ffffffffffffffffffffffffffffffffffffffff16815260200160008152602001600081526020016000815260200160008152602001600081525090565b6040518060400160405280600073ffffffffffffffffffffffffffffffffffffffff168152602001600081525090565b6000813590506121228161421e565b92915050565b6000815190506121378161421e565b92915050565b60008135905061214c81614235565b92915050565b600082601f83011261216357600080fd5b815161217661217182613ca3565b613c76565b9150818183526020840193506020810190508385602084028201111561219b57600080fd5b60005b838110156121cb57816121b18882612128565b84526020840193506020830192505060018101905061219e565b5050505092915050565b600082601f8301126121e657600080fd5b81516121f96121f482613ccb565b613c76565b9150818183526020840193506020810190508360005b8381101561223f57815186016122258882612539565b84526020840193506020830192505060018101905061220f565b5050505092915050565b60008083601f84011261225b57600080fd5b8235905067ffffffffffffffff81111561227457600080fd5b60208301915083602082028301111561228c57600080fd5b9250929050565b600082601f8301126122a457600080fd5b81516122b76122b282613cf3565b613c76565b915081818352602084019350602081019050838560208402820111156122dc57600080fd5b60005b8381101561230c57816122f288826125a2565b8452602084019350602083019250506001810190506122df565b5050505092915050565b600082601f83011261232757600080fd5b815161233a61233582613d1b565b613c76565b9150818183526020840193506020810190508360005b8381101561238057815186016123668882612620565b845260208401935060208301925050600181019050612350565b5050505092915050565b60008083601f84011261239c57600080fd5b8235905067ffffffffffffffff8111156123b557600080fd5b6020830191508360208202830111156123cd57600080fd5b9250929050565b600082601f8301126123e557600080fd5b81356123f86123f382613d43565b613c76565b9150818183526020840193506020810190508385602084028201111561241d57600080fd5b60005b8381101561244d578161243388826126d4565b845260208401935060208301925050600181019050612420565b5050505092915050565b600082601f83011261246857600080fd5b815161247b61247682613d43565b613c76565b915081818352602084019350602081019050838560208402820111156124a057600080fd5b60005b838110156124d057816124b688826126e9565b8452602084019350602083019250506001810190506124a3565b5050505092915050565b60008083601f8401126124ec57600080fd5b8235905067ffffffffffffffff81111561250557600080fd5b60208301915083602082028301111561251d57600080fd5b9250929050565b6000815190506125338161424c565b92915050565b600082601f83011261254a57600080fd5b815161255d61255882613d6b565b613c76565b9150808252602083016020830185838301111561257957600080fd5b6125848382846141da565b50505092915050565b60008135905061259c81614263565b92915050565b6000815190506125b181614263565b92915050565b6000813590506125c68161427a565b92915050565b6000815190506125db81614291565b92915050565b6000813590506125f0816142a8565b92915050565b600081359050612605816142bf565b92915050565b60008151905061261a816142d6565b92915050565b600082601f83011261263157600080fd5b815161264461263f82613d97565b613c76565b9150808252602083016020830185838301111561266057600080fd5b61266b8382846141da565b50505092915050565b60006060828403121561268657600080fd5b6126906060613c76565b905060006126a084828501612524565b60008301525060206126b484828501612524565b60208301525060406126c884828501612728565b60408301525092915050565b6000813590506126e3816142ed565b92915050565b6000815190506126f8816142ed565b92915050565b60008135905061270d81614304565b92915050565b6000815190506127228161431b565b92915050565b60008151905061273781614332565b92915050565b60006020828403121561274f57600080fd5b600061275d84828501612128565b91505092915050565b6000806000806080858703121561277c57600080fd5b600085015167ffffffffffffffff81111561279657600080fd5b6127a287828801612152565b945050602085015167ffffffffffffffff8111156127bf57600080fd5b6127cb87828801612457565b935050604085015167ffffffffffffffff8111156127e857600080fd5b6127f487828801612316565b925050606085015167ffffffffffffffff81111561281157600080fd5b61281d878288016121d5565b91505092959194509250565b6000806020838503121561283c57600080fd5b600083013567ffffffffffffffff81111561285657600080fd5b61286285828601612249565b92509250509250929050565b60008060006040848603121561288357600080fd5b600084013567ffffffffffffffff81111561289d57600080fd5b6128a986828701612249565b935093505060206128bc8682870161213d565b9150509250925092565b6000602082840312156128d857600080fd5b600082015167ffffffffffffffff8111156128f257600080fd5b6128fe84828501612293565b91505092915050565b6000806040838503121561291a57600080fd5b600061292885828601612524565b9250506020612939858286016126e9565b9150509250929050565b60006020828403121561295557600080fd5b60006129638482850161258d565b91505092915050565b6000806040838503121561297f57600080fd5b600061298d8582860161258d565b925050602061299e8582860161213d565b9150509250929050565b600080604083850312156129bb57600080fd5b60006129c9858286016125b7565b92505060206129da85828601612113565b9150509250929050565b600080600080606085870312156129fa57600080fd5b6000612a08878288016125b7565b9450506020612a1987828801612113565b935050604085013567ffffffffffffffff811115612a3657600080fd5b612a42878288016124da565b925092505092959194509250565b600060208284031215612a6257600080fd5b6000612a70848285016125cc565b91505092915050565b60008060408385031215612a8c57600080fd5b6000612a9a858286016125e1565b9250506020612aab85828601612113565b9150509250929050565b600080600060608486031215612aca57600080fd5b6000612ad8868287016125f6565b9350506020612ae986828701612113565b925050604084013567ffffffffffffffff811115612b0657600080fd5b612b12868287016123d4565b9150509250925092565b600080600060408486031215612b3157600080fd5b6000612b3f868287016125f6565b935050602084013567ffffffffffffffff811115612b5c57600080fd5b612b688682870161238a565b92509250509250925092565b600060208284031215612b8657600080fd5b6000612b948482850161260b565b91505092915050565b600060208284031215612baf57600080fd5b600082015167ffffffffffffffff811115612bc957600080fd5b612bd584828501612620565b91505092915050565b600060608284031215612bf057600080fd5b6000612bfe84828501612674565b91505092915050565b600060208284031215612c1957600080fd5b6000612c27848285016126e9565b91505092915050565b60008060008060008060008060006101208a8c031215612c4f57600080fd5b6000612c5d8c828d016126e9565b9950506020612c6e8c828d01612128565b9850506040612c7f8c828d016126e9565b9750506060612c908c828d016126e9565b9650506080612ca18c828d016126e9565b95505060a0612cb28c828d016126e9565b94505060c0612cc38c828d016126e9565b93505060e0612cd48c828d01612524565b925050610100612ce68c828d01612524565b9150509295985092959850929598565b600080600060608486031215612d0b57600080fd5b6000612d19868287016126e9565b9350506020612d2a868287016126e9565b9250506040612d3b868287016126e9565b9150509250925092565b600060208284031215612d5757600080fd5b6000612d65848285016126fe565b91505092915050565b600060208284031215612d8057600080fd5b6000612d8e84828501612713565b91505092915050565b600060208284031215612da957600080fd5b6000612db784828501612728565b91505092915050565b6000612dcc8383612ecc565b60208301905092915050565b6000612de48383613348565b905092915050565b6000612df88383613381565b60208301905092915050565b6000612e1083836133d0565b905092915050565b6000612e2483836134d4565b60c08301905092915050565b6000612e3c838361366f565b6101c08301905092915050565b6000612e5583836137be565b60408301905092915050565b6000612e6d838361382f565b60408301905092915050565b6000612e85838361385e565b905092915050565b6000612e99838361398c565b60808301905092915050565b6000612eb183836139e1565b60208301905092915050565b612ec68161416e565b82525050565b612ed581614073565b82525050565b612ee481614073565b82525050565b6000612ef582613e73565b612eff8185613f9c565b9350612f0a83613dc3565b8060005b83811015612f3b578151612f228882612dc0565b9750612f2d83613f0d565b925050600181019050612f0e565b5085935050505092915050565b6000612f5382613e7e565b612f5d8185613fad565b935083602082028501612f6f85613dd3565b8060005b85811015612fab5784840389528151612f8c8582612dd8565b9450612f9783613f1a565b925060208a01995050600181019050612f73565b50829750879550505050505092915050565b6000612fc882613e89565b612fd28185613f9c565b9350612fdd83613de3565b8060005b8381101561300e578151612ff58882612dec565b975061300083613f27565b925050600181019050612fe1565b5085935050505092915050565b600061302682613e94565b6130308185613fbe565b93508360208202850161304285613df3565b8060005b8581101561307e578484038952815161305f8582612e04565b945061306a83613f34565b925060208a01995050600181019050613046565b50829750879550505050505092915050565b600061309b82613e9f565b6130a58185613fcf565b93506130b083613e03565b8060005b838110156130e15781516130c88882612e18565b97506130d383613f41565b9250506001810190506130b4565b5085935050505092915050565b60006130f982613eaa565b6131038185613fe0565b935061310e83613e13565b8060005b8381101561313f5781516131268882612e30565b975061313183613f4e565b925050600181019050613112565b5085935050505092915050565b600061315782613eb5565b6131618185613ff1565b935061316c83613e23565b8060005b8381101561319d5781516131848882612e49565b975061318f83613f5b565b925050600181019050613170565b5085935050505092915050565b60006131b582613ec0565b6131bf8185614002565b93506131ca83613e33565b8060005b838110156131fb5781516131e28882612e61565b97506131ed83613f68565b9250506001810190506131ce565b5085935050505092915050565b600061321382613ecb565b61321d8185614013565b93508360208202850161322f85613e43565b8060005b8581101561326b578484038952815161324c8582612e79565b945061325783613f75565b925060208a01995050600181019050613233565b50829750879550505050505092915050565b600061328882613ed6565b6132928185614024565b935061329d83613e53565b8060005b838110156132ce5781516132b58882612e8d565b97506132c083613f82565b9250506001810190506132a1565b5085935050505092915050565b60006132e682613ee1565b6132f08185614035565b93506132fb83613e63565b8060005b8381101561332c5781516133138882612ea5565b975061331e83613f8f565b9250506001810190506132ff565b5085935050505092915050565b61334281614097565b82525050565b600061335382613eec565b61335d8185614046565b935061336d8185602086016141da565b6133768161420d565b840191505092915050565b61338a81614180565b82525050565b61339981614180565b82525050565b60006133aa82613f02565b6133b48185614068565b93506133c48185602086016141da565b80840191505092915050565b60006133db82613ef7565b6133e58185614057565b93506133f58185602086016141da565b6133fe8161420d565b840191505092915050565b600060608301600083015184820360008601526134268282612fbd565b915050602083015161343b60208601826139e1565b50604083015161344e60408601826139e1565b508091505092915050565b60c08201600082015161346f6000850182612ecc565b50602082015161348260208501826139e1565b50604082015161349560408501826139e1565b5060608201516134a860608501826139e1565b5060808201516134bb60808501826139e1565b5060a08201516134ce60a08501826139e1565b50505050565b60c0820160008201516134ea6000850182612ecc565b5060208201516134fd60208501826139e1565b50604082015161351060408501826139e1565b50606082015161352360608501826139e1565b50608082015161353660808501826139e1565b5060a082015161354960a08501826139e1565b50505050565b6101c0820160008201516135666000850182612ecc565b50602082015161357960208501826139e1565b50604082015161358c60408501826139e1565b50606082015161359f60608501826139e1565b5060808201516135b260808501826139e1565b5060a08201516135c560a08501826139e1565b5060c08201516135d860c08501826139e1565b5060e08201516135eb60e08501826139e1565b506101008201516136006101008501826139e1565b50610120820151613615610120850182613339565b5061014082015161362a6101408501826139e1565b5061016082015161363f610160850182612ecc565b506101808201516136546101808501826139e1565b506101a08201516136696101a08501826139e1565b50505050565b6101c0820160008201516136866000850182612ecc565b50602082015161369960208501826139e1565b5060408201516136ac60408501826139e1565b5060608201516136bf60608501826139e1565b5060808201516136d260808501826139e1565b5060a08201516136e560a08501826139e1565b5060c08201516136f860c08501826139e1565b5060e082015161370b60e08501826139e1565b506101008201516137206101008501826139e1565b50610120820151613735610120850182613339565b5061014082015161374a6101408501826139e1565b5061016082015161375f610160850182612ecc565b506101808201516137746101808501826139e1565b506101a08201516137896101a08501826139e1565b50505050565b6040820160008201516137a56000850182612ecc565b5060208201516137b860208501826139e1565b50505050565b6040820160008201516137d46000850182612ecc565b5060208201516137e760208501826139e1565b50505050565b60608201600082015161380360008501826139e1565b50602082015161381660208501826139e1565b5060408201516138296040850182612ecc565b50505050565b60408201600082015161384560008501826139e1565b50602082015161385860208501826139e1565b50505050565b60006101a08301600083015161387760008601826139e1565b50602083015161388a6020860182612ecc565b50604083015161389d60408601826139e1565b50606083015184820360608601526138b58282612eea565b915050608083015184820360808601526138cf82826132db565b91505060a083015184820360a08601526138e9828261301b565b91505060c083015184820360c08601526139038282612f48565b91505060e083015161391860e08601826139e1565b5061010083015161392d6101008601826139e1565b506101208301516139426101208601826139e1565b506101408301516139576101408601826139e1565b5061016083015161396c610160860182613339565b50610180830151613981610180860182613339565b508091505092915050565b6080820160008201516139a260008501826139e1565b5060208201516139b56020850182613339565b5060408201516139c86040850182613339565b5060608201516139db6060850182613a0e565b50505050565b6139ea8161412f565b82525050565b6139f98161412f565b82525050565b613a08816141c8565b82525050565b613a1781614156565b82525050565b6000613a29828461339f565b915081905092915050565b6000602082019050613a496000830184612edb565b92915050565b6000602082019050613a646000830184612ebd565b92915050565b6000604082019050613a7f6000830185612ebd565b613a8c6020830184612edb565b9392505050565b6000604082019050613aa86000830185612edb565b613ab560208301846139ff565b9392505050565b60006020820190508181036000830152613ad68184613090565b905092915050565b60006020820190508181036000830152613af881846130ee565b905092915050565b60006020820190508181036000830152613b1a818461314c565b905092915050565b60006020820190508181036000830152613b3c81846131aa565b905092915050565b60006020820190508181036000830152613b5e8184613208565b905092915050565b60006020820190508181036000830152613b80818461327d565b905092915050565b6000602082019050613b9d6000830184613390565b92915050565b60006020820190508181036000830152613bbd8184613409565b905092915050565b600060c082019050613bda6000830184613459565b92915050565b60006101c082019050613bf6600083018461354f565b92915050565b6000604082019050613c11600083018461378f565b92915050565b6000606082019050613c2c60008301846137ed565b92915050565b6000602082019050613c4760008301846139f0565b92915050565b6000604082019050613c6260008301856139f0565b613c6f6020830184612edb565b9392505050565b6000604051905081810181811067ffffffffffffffff82111715613c9957600080fd5b8060405250919050565b600067ffffffffffffffff821115613cba57600080fd5b602082029050602081019050919050565b600067ffffffffffffffff821115613ce257600080fd5b602082029050602081019050919050565b600067ffffffffffffffff821115613d0a57600080fd5b602082029050602081019050919050565b600067ffffffffffffffff821115613d3257600080fd5b602082029050602081019050919050565b600067ffffffffffffffff821115613d5a57600080fd5b602082029050602081019050919050565b600067ffffffffffffffff821115613d8257600080fd5b601f19601f8301169050602081019050919050565b600067ffffffffffffffff821115613dae57600080fd5b601f19601f8301169050602081019050919050565b6000819050602082019050919050565b6000819050602082019050919050565b6000819050602082019050919050565b6000819050602082019050919050565b6000819050602082019050919050565b6000819050602082019050919050565b6000819050602082019050919050565b6000819050602082019050919050565b6000819050602082019050919050565b6000819050602082019050919050565b6000819050602082019050919050565b600081519050919050565b600081519050919050565b600081519050919050565b600081519050919050565b600081519050919050565b600081519050919050565b600081519050919050565b600081519050919050565b600081519050919050565b600081519050919050565b600081519050919050565b600081519050919050565b600081519050919050565b600081519050919050565b6000602082019050919050565b6000602082019050919050565b6000602082019050919050565b6000602082019050919050565b6000602082019050919050565b6000602082019050919050565b6000602082019050919050565b6000602082019050919050565b6000602082019050919050565b6000602082019050919050565b6000602082019050919050565b600082825260208201905092915050565b600082825260208201905092915050565b600082825260208201905092915050565b600082825260208201905092915050565b600082825260208201905092915050565b600082825260208201905092915050565b600082825260208201905092915050565b600082825260208201905092915050565b600082825260208201905092915050565b600082825260208201905092915050565b600082825260208201905092915050565b600082825260208201905092915050565b600081905092915050565b600061407e8261410f565b9050919050565b60006140908261410f565b9050919050565b60008115159050919050565b60006140ae82614073565b9050919050565b60006140c082614073565b9050919050565b60006140d282614073565b9050919050565b60006140e482614073565b9050919050565b60006140f682614073565b9050919050565b600061410882614073565b9050919050565b600073ffffffffffffffffffffffffffffffffffffffff82169050919050565b6000819050919050565b600063ffffffff82169050919050565b600060ff82169050919050565b60006bffffffffffffffffffffffff82169050919050565b6000614179826141a4565b9050919050565b600061418b82614192565b9050919050565b600061419d8261410f565b9050919050565b60006141af826141b6565b9050919050565b60006141c18261410f565b9050919050565b60006141d382614139565b9050919050565b60005b838110156141f85780820151818401526020810190506141dd565b83811115614207576000848401525b50505050565b6000601f19601f8301169050919050565b61422781614073565b811461423257600080fd5b50565b61423e81614085565b811461424957600080fd5b50565b61425581614097565b811461426057600080fd5b50565b61426c816140a3565b811461427757600080fd5b50565b614283816140b5565b811461428e57600080fd5b50565b61429a816140c7565b81146142a557600080fd5b50565b6142b1816140d9565b81146142bc57600080fd5b50565b6142c8816140eb565b81146142d357600080fd5b50565b6142df816140fd565b81146142ea57600080fd5b50565b6142f68161412f565b811461430157600080fd5b50565b61430d81614139565b811461431857600080fd5b50565b61432481614149565b811461432f57600080fd5b50565b61433b81614156565b811461434657600080fd5b5056fea365627a7a72315820f5bddbe5a119dd7dd870dc4a017d9883be0af227738bcfde6fc142f083a1ea356c6578706572696d656e74616cf564736f6c63430005110040",
  "source": "pragma solidity ^0.5.16;\r\npragma experimental ABIEncoderV2;\r\n\r\nimport \"../CErc20.sol\";\r\nimport \"../CToken.sol\";\r\nimport \"../Comptroller.sol\";\r\nimport \"../EIP20Interface.sol\";\r\nimport \"../Governance/GovernorAlpha.sol\";\r\nimport \"../Governance/Comp.sol\";\r\n\r\ncontract CompoundLens {\r\n    struct CTokenMetadata {\r\n        address cToken;\r\n        uint exchangeRateCurrent;\r\n        uint supplyRatePerBlock;\r\n        uint borrowRatePerBlock;\r\n        uint reserveFactorMantissa;\r\n        uint totalBorrows;\r\n        uint totalReserves;\r\n        uint totalSupply;\r\n        uint totalCash;\r\n        bool isListed;\r\n        uint collateralFactorMantissa;\r\n        address underlyingAssetAddress;\r\n        uint cTokenDecimals;\r\n        uint underlyingDecimals;\r\n    }\r\n\r\n    function cTokenMetadata(CToken cToken) public returns (CTokenMetadata memory) {\r\n        uint exchangeRateCurrent = cToken.exchangeRateCurrent();\r\n        Comptroller comptroller = Comptroller(address(cToken.comptroller()));\r\n        (bool isListed, uint collateralFactorMantissa) = comptroller.markets(address(cToken));\r\n        address underlyingAssetAddress;\r\n        uint underlyingDecimals;\r\n\r\n        if (compareStrings(cToken.symbol(), \"cETH\")) {\r\n            underlyingAssetAddress = address(0);\r\n            underlyingDecimals = 18;\r\n        } else {\r\n            CErc20 cErc20 = CErc20(address(cToken));\r\n            underlyingAssetAddress = cErc20.underlying();\r\n            underlyingDecimals = EIP20Interface(cErc20.underlying()).decimals();\r\n        }\r\n\r\n        return CTokenMetadata({\r\n            cToken: address(cToken),\r\n            exchangeRateCurrent: exchangeRateCurrent,\r\n            supplyRatePerBlock: cToken.supplyRatePerBlock(),\r\n            borrowRatePerBlock: cToken.borrowRatePerBlock(),\r\n            reserveFactorMantissa: cToken.reserveFactorMantissa(),\r\n            totalBorrows: cToken.totalBorrows(),\r\n            totalReserves: cToken.totalReserves(),\r\n            totalSupply: cToken.totalSupply(),\r\n            totalCash: cToken.getCash(),\r\n            isListed: isListed,\r\n            collateralFactorMantissa: collateralFactorMantissa,\r\n            underlyingAssetAddress: underlyingAssetAddress,\r\n            cTokenDecimals: cToken.decimals(),\r\n            underlyingDecimals: underlyingDecimals\r\n        });\r\n    }\r\n\r\n    function cTokenMetadataAll(CToken[] calldata cTokens) external returns (CTokenMetadata[] memory) {\r\n        uint cTokenCount = cTokens.length;\r\n        CTokenMetadata[] memory res = new CTokenMetadata[](cTokenCount);\r\n        for (uint i = 0; i < cTokenCount; i++) {\r\n            res[i] = cTokenMetadata(cTokens[i]);\r\n        }\r\n        return res;\r\n    }\r\n\r\n    struct CTokenBalances {\r\n        address cToken;\r\n        uint balanceOf;\r\n        uint borrowBalanceCurrent;\r\n        uint balanceOfUnderlying;\r\n        uint tokenBalance;\r\n        uint tokenAllowance;\r\n    }\r\n\r\n    function cTokenBalances(CToken cToken, address payable account) public returns (CTokenBalances memory) {\r\n        uint balanceOf = cToken.balanceOf(account);\r\n        uint borrowBalanceCurrent = cToken.borrowBalanceCurrent(account);\r\n        uint balanceOfUnderlying = cToken.balanceOfUnderlying(account);\r\n        uint tokenBalance;\r\n        uint tokenAllowance;\r\n\r\n        if (compareStrings(cToken.symbol(), \"cETH\")) {\r\n            tokenBalance = account.balance;\r\n            tokenAllowance = account.balance;\r\n        } else {\r\n            CErc20 cErc20 = CErc20(address(cToken));\r\n            EIP20Interface underlying = EIP20Interface(cErc20.underlying());\r\n            tokenBalance = underlying.balanceOf(account);\r\n            tokenAllowance = underlying.allowance(account, address(cToken));\r\n        }\r\n\r\n        return CTokenBalances({\r\n            cToken: address(cToken),\r\n            balanceOf: balanceOf,\r\n            borrowBalanceCurrent: borrowBalanceCurrent,\r\n            balanceOfUnderlying: balanceOfUnderlying,\r\n            tokenBalance: tokenBalance,\r\n            tokenAllowance: tokenAllowance\r\n        });\r\n    }\r\n\r\n    function cTokenBalancesAll(CToken[] calldata cTokens, address payable account) external returns (CTokenBalances[] memory) {\r\n        uint cTokenCount = cTokens.length;\r\n        CTokenBalances[] memory res = new CTokenBalances[](cTokenCount);\r\n        for (uint i = 0; i < cTokenCount; i++) {\r\n            res[i] = cTokenBalances(cTokens[i], account);\r\n        }\r\n        return res;\r\n    }\r\n\r\n    struct CTokenUnderlyingPrice {\r\n        address cToken;\r\n        uint underlyingPrice;\r\n    }\r\n\r\n    function cTokenUnderlyingPrice(CToken cToken) public view returns (CTokenUnderlyingPrice memory) {\r\n        Comptroller comptroller = Comptroller(address(cToken.comptroller()));\r\n        PriceOracle priceOracle = comptroller.oracle();\r\n\r\n        return CTokenUnderlyingPrice({\r\n            cToken: address(cToken),\r\n            underlyingPrice: priceOracle.getUnderlyingPrice(cToken)\r\n        });\r\n    }\r\n\r\n    function cTokenUnderlyingPriceAll(CToken[] calldata cTokens) external view returns (CTokenUnderlyingPrice[] memory) {\r\n        uint cTokenCount = cTokens.length;\r\n        CTokenUnderlyingPrice[] memory res = new CTokenUnderlyingPrice[](cTokenCount);\r\n        for (uint i = 0; i < cTokenCount; i++) {\r\n            res[i] = cTokenUnderlyingPrice(cTokens[i]);\r\n        }\r\n        return res;\r\n    }\r\n\r\n    struct AccountLimits {\r\n        CToken[] markets;\r\n        uint liquidity;\r\n        uint shortfall;\r\n    }\r\n\r\n    function getAccountLimits(Comptroller comptroller, address account) public view returns (AccountLimits memory) {\r\n        (uint errorCode, uint liquidity, uint shortfall) = comptroller.getAccountLiquidity(account);\r\n        require(errorCode == 0);\r\n\r\n        return AccountLimits({\r\n            markets: comptroller.getAssetsIn(account),\r\n            liquidity: liquidity,\r\n            shortfall: shortfall\r\n        });\r\n    }\r\n\r\n    struct GovReceipt {\r\n        uint proposalId;\r\n        bool hasVoted;\r\n        bool support;\r\n        uint96 votes;\r\n    }\r\n\r\n    function getGovReceipts(GovernorAlpha governor, address voter, uint[] memory proposalIds) public view returns (GovReceipt[] memory) {\r\n        uint proposalCount = proposalIds.length;\r\n        GovReceipt[] memory res = new GovReceipt[](proposalCount);\r\n        for (uint i = 0; i < proposalCount; i++) {\r\n            GovernorAlpha.Receipt memory receipt = governor.getReceipt(proposalIds[i], voter);\r\n            res[i] = GovReceipt({\r\n                proposalId: proposalIds[i],\r\n                hasVoted: receipt.hasVoted,\r\n                support: receipt.support,\r\n                votes: receipt.votes\r\n            });\r\n        }\r\n        return res;\r\n    }\r\n\r\n    struct GovProposal {\r\n        uint proposalId;\r\n        address proposer;\r\n        uint eta;\r\n        address[] targets;\r\n        uint[] values;\r\n        string[] signatures;\r\n        bytes[] calldatas;\r\n        uint startBlock;\r\n        uint endBlock;\r\n        uint forVotes;\r\n        uint againstVotes;\r\n        bool canceled;\r\n        bool executed;\r\n    }\r\n\r\n    function setProposal(GovProposal memory res, GovernorAlpha governor, uint proposalId) internal view {\r\n        (\r\n            ,\r\n            address proposer,\r\n            uint eta,\r\n            uint startBlock,\r\n            uint endBlock,\r\n            uint forVotes,\r\n            uint againstVotes,\r\n            bool canceled,\r\n            bool executed\r\n        ) = governor.proposals(proposalId);\r\n        res.proposalId = proposalId;\r\n        res.proposer = proposer;\r\n        res.eta = eta;\r\n        res.startBlock = startBlock;\r\n        res.endBlock = endBlock;\r\n        res.forVotes = forVotes;\r\n        res.againstVotes = againstVotes;\r\n        res.canceled = canceled;\r\n        res.executed = executed;\r\n    }\r\n\r\n    function getGovProposals(GovernorAlpha governor, uint[] calldata proposalIds) external view returns (GovProposal[] memory) {\r\n        GovProposal[] memory res = new GovProposal[](proposalIds.length);\r\n        for (uint i = 0; i < proposalIds.length; i++) {\r\n            (\r\n                address[] memory targets,\r\n                uint[] memory values,\r\n                string[] memory signatures,\r\n                bytes[] memory calldatas\r\n            ) = governor.getActions(proposalIds[i]);\r\n            res[i] = GovProposal({\r\n                proposalId: 0,\r\n                proposer: address(0),\r\n                eta: 0,\r\n                targets: targets,\r\n                values: values,\r\n                signatures: signatures,\r\n                calldatas: calldatas,\r\n                startBlock: 0,\r\n                endBlock: 0,\r\n                forVotes: 0,\r\n                againstVotes: 0,\r\n                canceled: false,\r\n                executed: false\r\n            });\r\n            setProposal(res[i], governor, proposalIds[i]);\r\n        }\r\n        return res;\r\n    }\r\n\r\n    struct CompBalanceMetadata {\r\n        uint balance;\r\n        uint votes;\r\n        address delegate;\r\n    }\r\n\r\n    function getCompBalanceMetadata(Comp comp, address account) external view returns (CompBalanceMetadata memory) {\r\n        return CompBalanceMetadata({\r\n            balance: comp.balanceOf(account),\r\n            votes: uint256(comp.getCurrentVotes(account)),\r\n            delegate: comp.delegates(account)\r\n        });\r\n    }\r\n\r\n    struct CompVotes {\r\n        uint blockNumber;\r\n        uint votes;\r\n    }\r\n\r\n    function getCompVotes(Comp comp, address account, uint32[] calldata blockNumbers) external view returns (CompVotes[] memory) {\r\n        CompVotes[] memory res = new CompVotes[](blockNumbers.length);\r\n        for (uint i = 0; i < blockNumbers.length; i++) {\r\n            res[i] = CompVotes({\r\n                blockNumber: uint256(blockNumbers[i]),\r\n                votes: uint256(comp.getPriorVotes(account, blockNumbers[i]))\r\n            });\r\n        }\r\n        return res;\r\n    }\r\n\r\n    function compareStrings(string memory a, string memory b) internal pure returns (bool) {\r\n        return (keccak256(abi.encodePacked((a))) == keccak256(abi.encodePacked((b))));\r\n    }\r\n}\r\n",
  "sourcePath": "C:\\Users\\pillardev\\Desktop\\Compound2.0\\compoundv2\\contracts\\Lens\\CompoundLens.sol",
  "compiler": {
    "name": "solc",
    "version": "0.5.17+commit.d19bba13.Emscripten.clang"
  },
  "schemaVersion": "3.0.23",
  "updatedAt": "2020-05-11T11:38:56.347Z",
  "devdoc": {
    "methods": {}
  },
  "userdoc": {
    "methods": {}
  }
}