{
  "contractName": "DAIInterestRateModel",
  "abi": [
    {
      "inputs": [
        {
          "internalType": "uint256",
          "name": "jumpMultiplierPerYear",
          "type": "uint256"
        },
        {
          "internalType": "uint256",
          "name": "kink_",
          "type": "uint256"
        },
        {
          "internalType": "address",
          "name": "pot_",
          "type": "address"
        },
        {
          "internalType": "address",
          "name": "jug_",
          "type": "address"
        }
      ],
      "payable": false,
      "stateMutability": "nonpayable",
      "type": "constructor"
    },
    {
      "anonymous": false,
      "inputs": [
        {
          "indexed": false,
          "internalType": "uint256",
          "name": "baseRatePerBlock",
          "type": "uint256"
        },
        {
          "indexed": false,
          "internalType": "uint256",
          "name": "multiplierPerBlock",
          "type": "uint256"
        },
        {
          "indexed": false,
          "internalType": "uint256",
          "name": "jumpMultiplierPerBlock",
          "type": "uint256"
        },
        {
          "indexed": false,
          "internalType": "uint256",
          "name": "kink",
          "type": "uint256"
        }
      ],
      "name": "NewInterestParams",
      "type": "event"
    },
    {
      "constant": true,
      "inputs": [],
      "name": "assumedOneMinusReserveFactorMantissa",
      "outputs": [
        {
          "internalType": "uint256",
          "name": "",
          "type": "uint256"
        }
      ],
      "payable": false,
      "stateMutability": "view",
      "type": "function"
    },
    {
      "constant": true,
      "inputs": [],
      "name": "baseRatePerBlock",
      "outputs": [
        {
          "internalType": "uint256",
          "name": "",
          "type": "uint256"
        }
      ],
      "payable": false,
      "stateMutability": "view",
      "type": "function"
    },
    {
      "constant": true,
      "inputs": [],
      "name": "blocksPerYear",
      "outputs": [
        {
          "internalType": "uint256",
          "name": "",
          "type": "uint256"
        }
      ],
      "payable": false,
      "stateMutability": "view",
      "type": "function"
    },
    {
      "constant": true,
      "inputs": [],
      "name": "gapPerBlock",
      "outputs": [
        {
          "internalType": "uint256",
          "name": "",
          "type": "uint256"
        }
      ],
      "payable": false,
      "stateMutability": "view",
      "type": "function"
    },
    {
      "constant": true,
      "inputs": [
        {
          "internalType": "uint256",
          "name": "cash",
          "type": "uint256"
        },
        {
          "internalType": "uint256",
          "name": "borrows",
          "type": "uint256"
        },
        {
          "internalType": "uint256",
          "name": "reserves",
          "type": "uint256"
        }
      ],
      "name": "getBorrowRate",
      "outputs": [
        {
          "internalType": "uint256",
          "name": "",
          "type": "uint256"
        }
      ],
      "payable": false,
      "stateMutability": "view",
      "type": "function"
    },
    {
      "constant": true,
      "inputs": [],
      "name": "isInterestRateModel",
      "outputs": [
        {
          "internalType": "bool",
          "name": "",
          "type": "bool"
        }
      ],
      "payable": false,
      "stateMutability": "view",
      "type": "function"
    },
    {
      "constant": true,
      "inputs": [],
      "name": "jumpMultiplierPerBlock",
      "outputs": [
        {
          "internalType": "uint256",
          "name": "",
          "type": "uint256"
        }
      ],
      "payable": false,
      "stateMutability": "view",
      "type": "function"
    },
    {
      "constant": true,
      "inputs": [],
      "name": "kink",
      "outputs": [
        {
          "internalType": "uint256",
          "name": "",
          "type": "uint256"
        }
      ],
      "payable": false,
      "stateMutability": "view",
      "type": "function"
    },
    {
      "constant": true,
      "inputs": [],
      "name": "multiplierPerBlock",
      "outputs": [
        {
          "internalType": "uint256",
          "name": "",
          "type": "uint256"
        }
      ],
      "payable": false,
      "stateMutability": "view",
      "type": "function"
    },
    {
      "constant": true,
      "inputs": [
        {
          "internalType": "uint256",
          "name": "cash",
          "type": "uint256"
        },
        {
          "internalType": "uint256",
          "name": "borrows",
          "type": "uint256"
        },
        {
          "internalType": "uint256",
          "name": "reserves",
          "type": "uint256"
        }
      ],
      "name": "utilizationRate",
      "outputs": [
        {
          "internalType": "uint256",
          "name": "",
          "type": "uint256"
        }
      ],
      "payable": false,
      "stateMutability": "pure",
      "type": "function"
    },
    {
      "constant": true,
      "inputs": [
        {
          "internalType": "uint256",
          "name": "cash",
          "type": "uint256"
        },
        {
          "internalType": "uint256",
          "name": "borrows",
          "type": "uint256"
        },
        {
          "internalType": "uint256",
          "name": "reserves",
          "type": "uint256"
        },
        {
          "internalType": "uint256",
          "name": "reserveFactorMantissa",
          "type": "uint256"
        }
      ],
      "name": "getSupplyRate",
      "outputs": [
        {
          "internalType": "uint256",
          "name": "",
          "type": "uint256"
        }
      ],
      "payable": false,
      "stateMutability": "view",
      "type": "function"
    },
    {
      "constant": true,
      "inputs": [],
      "name": "dsrPerBlock",
      "outputs": [
        {
          "internalType": "uint256",
          "name": "",
          "type": "uint256"
        }
      ],
      "payable": false,
      "stateMutability": "view",
      "type": "function"
    },
    {
      "constant": false,
      "inputs": [],
      "name": "poke",
      "outputs": [],
      "payable": false,
      "stateMutability": "nonpayable",
      "type": "function"
    }
  ],
  "bytecode": "0x60806040523480156200001157600080fd5b50604051620010d0380380620010d0833981810160405260808110156200003757600080fd5b5080516020808301516040840151606090940151929390929091600090819086908690620000759084906220148090620006e76200015c821b17901c565b6001556200009383622014806200015c602090811b620006e717901c565b600055620000b182622014806200015c602090811b620006e717901c565b60028190556003829055600154600054604080519283526020830191909152818101929092526060810183905290517f6960ab234c7ef4b0c9197100f5393cfcde7c453ac910a27bd2000aa1dd4c068d9181900360800190a15050600480546001600160a01b038087166001600160a01b0319928316179092556005805492861692909116919091179055506200015290506001600160e01b03620001af16565b5050505062000721565b6000620001a683836040518060400160405280601a81526020017f536166654d6174683a206469766973696f6e206279207a65726f0000000000008152506200046360201b60201c565b90505b92915050565b60055460408051636cb1c69b60e11b8152644554482d4160d81b600482015281516000936001600160a01b03169263d9638d369260248082019391829003018186803b158015620001ff57600080fd5b505afa15801562000214573d6000803e3d6000fd5b505050506040513d60408110156200022b57600080fd5b505160055460408051635001f3b560e01b815290519293506000926200032a92600f9262000302926b033b2e3c9fd0803ce8000000926200031692670de0b6b3a76400009286928692620002ee926001600160a01b0390921691635001f3b591600480820192602092909190829003018186803b158015620002ac57600080fd5b505afa158015620002c1573d6000803e3d6000fd5b505050506040513d6020811015620002d857600080fd5b50518b906200050a602090811b6200072917901c565b6200056560201b620007831790919060201c565b620005af60201b620006851790919060201c565b6200015c60201b620006e71790919060201c565b905062000359670d2f13f7789f000062000316670de0b6b3a7640000620003026001600160e01b036200060d16565b6001819055811115620003cc57620003c360035462000316670de0b6b3a764000062000302622014806601c6bf52634000816200039257fe5b04620003af600154886200056560201b620007831790919060201c565b6200050a60201b620007291790919060201c565b6000556200040d565b6200040960035462000316670de0b6b3a7640000622014806601c6bf5263400081620003f457fe5b04620005af60201b620006851790919060201c565b6000555b600154600054600254600354604080519485526020850193909352838301919091526060830152517f6960ab234c7ef4b0c9197100f5393cfcde7c453ac910a27bd2000aa1dd4c068d9181900360800190a15050565b60008183620004f35760405162461bcd60e51b81526004018080602001828103825283818151815260200191508051906020019080838360005b83811015620004b75781810151838201526020016200049d565b50505050905090810190601f168015620004e55780820380516001836020036101000a031916815260200191505b509250505060405180910390fd5b5060008385816200050057fe5b0495945050505050565b600082820183811015620001a6576040805162461bcd60e51b815260206004820152601b60248201527f536166654d6174683a206164646974696f6e206f766572666c6f770000000000604482015290519081900360640190fd5b6000620001a683836040518060400160405280601e81526020017f536166654d6174683a207375627472616374696f6e206f766572666c6f770000815250620006c460201b60201c565b600082620005c057506000620001a9565b82820282848281620005ce57fe5b0414620001a65760405162461bcd60e51b8152600401808060200182810382526021815260200180620010af6021913960400191505060405180910390fd5b6000620006bf600f62000302633b9aca00620003166b033b2e3c9fd0803ce8000000600460009054906101000a90046001600160a01b03166001600160a01b031663487bf0826040518163ffffffff1660e01b815260040160206040518083038186803b1580156200067e57600080fd5b505afa15801562000693573d6000803e3d6000fd5b505050506040513d6020811015620006aa57600080fd5b50519062000565602090811b6200078317901c565b905090565b60008184841115620007195760405162461bcd60e51b8152602060048201818152835160248401528351909283926044909101919085019080838360008315620004b75781810151838201526020016200049d565b505050900390565b61097e80620007316000396000f3fe608060405234801561001057600080fd5b50600436106100cf5760003560e01c806396456c5c1161008c578063b9f9850a11610066578063b9f9850a146101ad578063f14039de146101b5578063f52d21f3146101bd578063fd2da339146101c5576100cf565b806396456c5c1461016e578063a385fb9614610176578063b81688161461017e576100cf565b806315f24053146100d4578063181783581461010f5780632191f92a146101195780636dac7cd5146101355780636e71e2d81461013d5780638726bb8914610166575b600080fd5b6100fd600480360360608110156100ea57600080fd5b50803590602081013590604001356101cd565b60408051918252519081900360200190f35b6101176102a5565b005b6101216104eb565b604080519115158252519081900360200190f35b6100fd6104f0565b6100fd6004803603606081101561015357600080fd5b50803590602081013590604001356104fc565b6100fd610542565b6100fd610548565b6100fd6105f2565b6100fd6004803603608081101561019457600080fd5b50803590602081013590604081013590606001356105f9565b6100fd61066b565b6100fd610671565b6100fd610677565b6100fd61067f565b6000806101db8585856104fc565b9050600354811161022d57610225600154610219670de0b6b3a764000061020d6000548661068590919063ffffffff16565b9063ffffffff6106e716565b9063ffffffff61072916565b91505061029e565b6000610258600154610219670de0b6b3a764000061020d60005460035461068590919063ffffffff16565b905060006102716003548461078390919063ffffffff16565b905061029882610219670de0b6b3a764000061020d6002548661068590919063ffffffff16565b93505050505b9392505050565b60055460408051636cb1c69b60e11b8152644554482d4160d81b600482015281516000936001600160a01b03169263d9638d369260248082019391829003018186803b1580156102f457600080fd5b505afa158015610308573d6000803e3d6000fd5b505050506040513d604081101561031e57600080fd5b505160055460408051635001f3b560e01b815290519293506000926103eb92600f926103df926b033b2e3c9fd0803ce80000009261020d92670de0b6b3a764000092869286926103d3926001600160a01b0390921691635001f3b591600480820192602092909190829003018186803b15801561039a57600080fd5b505afa1580156103ae573d6000803e3d6000fd5b505050506040513d60208110156103c457600080fd5b50518b9063ffffffff61072916565b9063ffffffff61078316565b9063ffffffff61068516565b905061040d670d2f13f7789f000061020d670de0b6b3a76400006103df610548565b600181905581111561045f5761045760035461020d670de0b6b3a76400006103df622014806601c6bf526340008161044157fe5b046102196001548861078390919063ffffffff16565b600055610495565b61049160035461020d670de0b6b3a7640000622014806601c6bf526340008161048457fe5b049063ffffffff61068516565b6000555b600154600054600254600354604080519485526020850193909352838301919091526060830152517f6960ab234c7ef4b0c9197100f5393cfcde7c453ac910a27bd2000aa1dd4c068d9181900360800190a15050565b600181565b670d2f13f7789f000081565b60008261050b5750600061029e565b61053a610522836103d3878763ffffffff61072916565b61020d85670de0b6b3a764000063ffffffff61068516565b949350505050565b60005481565b60006105ed600f6103df633b9aca0061020d6b033b2e3c9fd0803ce8000000600460009054906101000a90046001600160a01b03166001600160a01b031663487bf0826040518163ffffffff1660e01b815260040160206040518083038186803b1580156105b557600080fd5b505afa1580156105c9573d6000803e3d6000fd5b505050506040513d60208110156105df57600080fd5b50519063ffffffff61078316565b905090565b6220148081565b600080610608868686866107c5565b90506000610620856103d3898963ffffffff61072916565b90508061062f5750905061053a565b600061064d8261020d610640610548565b8b9063ffffffff61068516565b905061065f818463ffffffff61072916565b98975050505050505050565b60025481565b60015481565b630e2ce5cf81565b60035481565b600082610694575060006106e1565b828202828482816106a157fe5b04146106de5760405162461bcd60e51b81526004018080602001828103825260218152602001806109296021913960400191505060405180910390fd5b90505b92915050565b60006106de83836040518060400160405280601a81526020017f536166654d6174683a206469766973696f6e206279207a65726f00000000000081525061082c565b6000828201838110156106de576040805162461bcd60e51b815260206004820152601b60248201527f536166654d6174683a206164646974696f6e206f766572666c6f770000000000604482015290519081900360640190fd5b60006106de83836040518060400160405280601e81526020017f536166654d6174683a207375627472616374696f6e206f766572666c6f7700008152506108ce565b6000806107e0670de0b6b3a76400008463ffffffff61078316565b905060006107ef8787876101cd565b9050600061080f670de0b6b3a764000061020d848663ffffffff61068516565b905061065f670de0b6b3a764000061020d836103df8c8c8c6104fc565b600081836108b85760405162461bcd60e51b81526004018080602001828103825283818151815260200191508051906020019080838360005b8381101561087d578181015183820152602001610865565b50505050905090810190601f1680156108aa5780820380516001836020036101000a031916815260200191505b509250505060405180910390fd5b5060008385816108c457fe5b0495945050505050565b600081848411156109205760405162461bcd60e51b815260206004820181815283516024840152835190928392604490910191908501908083836000831561087d578181015183820152602001610865565b50505090039056fe536166654d6174683a206d756c7469706c69636174696f6e206f766572666c6f77a265627a7a72315820aee31188d215fe56f0acaf4d4cad83eaaab753e9a138e16e86319a2ce0389fc264736f6c63430005110032536166654d6174683a206d756c7469706c69636174696f6e206f766572666c6f77",
  "source": "/**\r\n *Submitted for verification at Etherscan.io on 2019-12-17\r\n*/\r\n\r\n// File: contracts/InterestRateModel.sol\r\n\r\npragma solidity ^0.5.12;\r\n\r\n/**\r\n  * @title Compound's InterestRateModel Interface\r\n  * @author Compound\r\n  */\r\ninterface InterestRateModel {\r\n    /**\r\n     * @notice Indicator that this is an InterestRateModel contract (for inspection)\r\n     */\r\n    function isInterestRateModel() external pure returns (bool);\r\n\r\n    /**\r\n      * @notice Calculates the current borrow interest rate per block\r\n      * @param cash The total amount of cash the market has\r\n      * @param borrows The total amount of borrows the market has outstanding\r\n      * @param reserves The total amnount of reserves the market has\r\n      * @return The borrow rate per block (as a percentage, and scaled by 1e18)\r\n      */\r\n    function getBorrowRate(uint cash, uint borrows, uint reserves) external view returns (uint);\r\n\r\n    /**\r\n      * @notice Calculates the current supply interest rate per block\r\n      * @param cash The total amount of cash the market has\r\n      * @param borrows The total amount of borrows the market has outstanding\r\n      * @param reserves The total amnount of reserves the market has\r\n      * @param reserveFactorMantissa The current reserve factor the market has\r\n      * @return The supply rate per block (as a percentage, and scaled by 1e18)\r\n      */\r\n    function getSupplyRate(uint cash, uint borrows, uint reserves, uint reserveFactorMantissa) external view returns (uint);\r\n\r\n}\r\n\r\n// File: contracts/SafeMath.sol\r\n\r\npragma solidity ^0.5.12;\r\n\r\n// From https://github.com/OpenZeppelin/openzeppelin-contracts/blob/master/contracts/math/Math.sol\r\n// Subject to the MIT license.\r\n\r\n/**\r\n * @dev Wrappers over Solidity's arithmetic operations with added overflow\r\n * checks.\r\n *\r\n * Arithmetic operations in Solidity wrap on overflow. This can easily result\r\n * in bugs, because programmers usually assume that an overflow raises an\r\n * error, which is the standard behavior in high level programming languages.\r\n * `SafeMath` restores this intuition by reverting the transaction when an\r\n * operation overflows.\r\n *\r\n * Using this library instead of the unchecked operations eliminates an entire\r\n * class of bugs, so it's recommended to use it always.\r\n */\r\nlibrary SafeMath {\r\n    /**\r\n     * @dev Returns the addition of two unsigned integers, reverting on\r\n     * overflow.\r\n     *\r\n     * Counterpart to Solidity's `+` operator.\r\n     *\r\n     * Requirements:\r\n     * - Addition cannot overflow.\r\n     */\r\n    function add(uint256 a, uint256 b) internal pure returns (uint256) {\r\n        uint256 c = a + b;\r\n        require(c >= a, \"SafeMath: addition overflow\");\r\n\r\n        return c;\r\n    }\r\n\r\n    /**\r\n     * @dev Returns the subtraction of two unsigned integers, reverting on\r\n     * overflow (when the result is negative).\r\n     *\r\n     * Counterpart to Solidity's `-` operator.\r\n     *\r\n     * Requirements:\r\n     * - Subtraction cannot overflow.\r\n     */\r\n    function sub(uint256 a, uint256 b) internal pure returns (uint256) {\r\n        return sub(a, b, \"SafeMath: subtraction overflow\");\r\n    }\r\n\r\n    /**\r\n     * @dev Returns the subtraction of two unsigned integers, reverting with custom message on\r\n     * overflow (when the result is negative).\r\n     *\r\n     * Counterpart to Solidity's `-` operator.\r\n     *\r\n     * Requirements:\r\n     * - Subtraction cannot overflow.\r\n     *\r\n     * NOTE: This is a feature of the next version of OpenZeppelin Contracts.\r\n     * @dev Get it via `npm install @openzeppelin/contracts@next`.\r\n     */\r\n    function sub(uint256 a, uint256 b, string memory errorMessage) internal pure returns (uint256) {\r\n        require(b <= a, errorMessage);\r\n        uint256 c = a - b;\r\n\r\n        return c;\r\n    }\r\n\r\n    /**\r\n     * @dev Returns the multiplication of two unsigned integers, reverting on\r\n     * overflow.\r\n     *\r\n     * Counterpart to Solidity's `*` operator.\r\n     *\r\n     * Requirements:\r\n     * - Multiplication cannot overflow.\r\n     */\r\n    function mul(uint256 a, uint256 b) internal pure returns (uint256) {\r\n        // Gas optimization: this is cheaper than requiring 'a' not being zero, but the\r\n        // benefit is lost if 'b' is also tested.\r\n        // See: https://github.com/OpenZeppelin/openzeppelin-contracts/pull/522\r\n        if (a == 0) {\r\n            return 0;\r\n        }\r\n\r\n        uint256 c = a * b;\r\n        require(c / a == b, \"SafeMath: multiplication overflow\");\r\n\r\n        return c;\r\n    }\r\n\r\n    /**\r\n     * @dev Returns the integer division of two unsigned integers. Reverts on\r\n     * division by zero. The result is rounded towards zero.\r\n     *\r\n     * Counterpart to Solidity's `/` operator. Note: this function uses a\r\n     * `revert` opcode (which leaves remaining gas untouched) while Solidity\r\n     * uses an invalid opcode to revert (consuming all remaining gas).\r\n     *\r\n     * Requirements:\r\n     * - The divisor cannot be zero.\r\n     */\r\n    function div(uint256 a, uint256 b) internal pure returns (uint256) {\r\n        return div(a, b, \"SafeMath: division by zero\");\r\n    }\r\n\r\n    /**\r\n     * @dev Returns the integer division of two unsigned integers. Reverts with custom message on\r\n     * division by zero. The result is rounded towards zero.\r\n     *\r\n     * Counterpart to Solidity's `/` operator. Note: this function uses a\r\n     * `revert` opcode (which leaves remaining gas untouched) while Solidity\r\n     * uses an invalid opcode to revert (consuming all remaining gas).\r\n     *\r\n     * Requirements:\r\n     * - The divisor cannot be zero.\r\n     * NOTE: This is a feature of the next version of OpenZeppelin Contracts.\r\n     * @dev Get it via `npm install @openzeppelin/contracts@next`.\r\n     */\r\n    function div(uint256 a, uint256 b, string memory errorMessage) internal pure returns (uint256) {\r\n        // Solidity only automatically asserts when dividing by 0\r\n        require(b > 0, errorMessage);\r\n        uint256 c = a / b;\r\n        // assert(a == b * c + a % b); // There is no case in which this doesn't hold\r\n\r\n        return c;\r\n    }\r\n\r\n    /**\r\n     * @dev Returns the remainder of dividing two unsigned integers. (unsigned integer modulo),\r\n     * Reverts when dividing by zero.\r\n     *\r\n     * Counterpart to Solidity's `%` operator. This function uses a `revert`\r\n     * opcode (which leaves remaining gas untouched) while Solidity uses an\r\n     * invalid opcode to revert (consuming all remaining gas).\r\n     *\r\n     * Requirements:\r\n     * - The divisor cannot be zero.\r\n     */\r\n    function mod(uint256 a, uint256 b) internal pure returns (uint256) {\r\n        return mod(a, b, \"SafeMath: modulo by zero\");\r\n    }\r\n\r\n    /**\r\n     * @dev Returns the remainder of dividing two unsigned integers. (unsigned integer modulo),\r\n     * Reverts with custom message when dividing by zero.\r\n     *\r\n     * Counterpart to Solidity's `%` operator. This function uses a `revert`\r\n     * opcode (which leaves remaining gas untouched) while Solidity uses an\r\n     * invalid opcode to revert (consuming all remaining gas).\r\n     *\r\n     * Requirements:\r\n     * - The divisor cannot be zero.\r\n     *\r\n     * NOTE: This is a feature of the next version of OpenZeppelin Contracts.\r\n     * @dev Get it via `npm install @openzeppelin/contracts@next`.\r\n     */\r\n    function mod(uint256 a, uint256 b, string memory errorMessage) internal pure returns (uint256) {\r\n        require(b != 0, errorMessage);\r\n        return a % b;\r\n    }\r\n}\r\n\r\n// File: contracts/JumpRateModel.sol\r\n\r\npragma solidity ^0.5.12;\r\n\r\n\r\n\r\n/**\r\n  * @title Compound's JumpRateModel Contract\r\n  * @author Compound\r\n  */\r\ncontract JumpRateModel is InterestRateModel {\r\n    using SafeMath for uint;\r\n\r\n    event NewInterestParams(uint baseRatePerBlock, uint multiplierPerBlock, uint jumpMultiplierPerBlock, uint kink);\r\n\r\n    /**\r\n     * @notice Indicator that this is an InterestRateModel contract (for inspection)\r\n     */\r\n    bool public constant isInterestRateModel = true;\r\n\r\n    /**\r\n     * @notice The approximate number of blocks per year that is assumed by the interest rate model\r\n     */\r\n    uint public constant blocksPerYear = 2102400;\r\n\r\n    /**\r\n     * @notice The multiplier of utilization rate that gives the slope of the interest rate\r\n     */\r\n    uint public multiplierPerBlock;\r\n\r\n    /**\r\n     * @notice The base interest rate which is the y-intercept when utilization rate is 0\r\n     */\r\n    uint public baseRatePerBlock;\r\n\r\n    /**\r\n     * @notice The multiplierPerBlock after hitting a specified utilization point\r\n     */\r\n    uint public jumpMultiplierPerBlock;\r\n\r\n    /**\r\n     * @notice The utilization point at which the jump multiplier is applied\r\n     */\r\n    uint public kink;\r\n\r\n    /**\r\n     * @notice Construct an interest rate model\r\n     * @param baseRatePerYear The approximate target base APR, as a mantissa (scaled by 1e18)\r\n     * @param multiplierPerYear The rate of increase in interest rate wrt utilization (scaled by 1e18)\r\n     * @param jumpMultiplierPerYear The multiplierPerBlock after hitting a specified utilization point\r\n     * @param kink_ The utilization point at which the jump multiplier is applied\r\n     */\r\n    constructor(uint baseRatePerYear, uint multiplierPerYear, uint jumpMultiplierPerYear, uint kink_) public {\r\n        baseRatePerBlock = baseRatePerYear.div(blocksPerYear);\r\n        multiplierPerBlock = multiplierPerYear.div(blocksPerYear);\r\n        jumpMultiplierPerBlock = jumpMultiplierPerYear.div(blocksPerYear);\r\n        kink = kink_;\r\n\r\n        emit NewInterestParams(baseRatePerBlock, multiplierPerBlock, jumpMultiplierPerBlock, kink);\r\n    }\r\n\r\n    /**\r\n     * @notice Calculates the utilization rate of the market: `borrows / (cash + borrows - reserves)`\r\n     * @param cash The amount of cash in the market\r\n     * @param borrows The amount of borrows in the market\r\n     * @param reserves The amount of reserves in the market (currently unused)\r\n     * @return The utilization rate as a mantissa between [0, 1e18]\r\n     */\r\n    function utilizationRate(uint cash, uint borrows, uint reserves) public pure returns (uint) {\r\n        // Utilization rate is 0 when there are no borrows\r\n        if (borrows == 0) {\r\n            return 0;\r\n        }\r\n\r\n        return borrows.mul(1e18).div(cash.add(borrows).sub(reserves));\r\n    }\r\n\r\n    /**\r\n     * @notice Calculates the current borrow rate per block, with the error code expected by the market\r\n     * @param cash The amount of cash in the market\r\n     * @param borrows The amount of borrows in the market\r\n     * @param reserves The amount of reserves in the market\r\n     * @return The borrow rate percentage per block as a mantissa (scaled by 1e18)\r\n     */\r\n    function getBorrowRate(uint cash, uint borrows, uint reserves) public view returns (uint) {\r\n        uint util = utilizationRate(cash, borrows, reserves);\r\n\r\n        if (util <= kink) {\r\n            return util.mul(multiplierPerBlock).div(1e18).add(baseRatePerBlock);\r\n        } else {\r\n            uint normalRate = kink.mul(multiplierPerBlock).div(1e18).add(baseRatePerBlock);\r\n            uint excessUtil = util.sub(kink);\r\n            return excessUtil.mul(jumpMultiplierPerBlock).div(1e18).add(normalRate);\r\n        }\r\n    }\r\n\r\n    /**\r\n     * @notice Calculates the current supply rate per block\r\n     * @param cash The amount of cash in the market\r\n     * @param borrows The amount of borrows in the market\r\n     * @param reserves The amount of reserves in the market\r\n     * @param reserveFactorMantissa The current reserve factor for the market\r\n     * @return The supply rate percentage per block as a mantissa (scaled by 1e18)\r\n     */\r\n    function getSupplyRate(uint cash, uint borrows, uint reserves, uint reserveFactorMantissa) public view returns (uint) {\r\n        uint oneMinusReserveFactor = uint(1e18).sub(reserveFactorMantissa);\r\n        uint borrowRate = getBorrowRate(cash, borrows, reserves);\r\n        uint rateToPool = borrowRate.mul(oneMinusReserveFactor).div(1e18);\r\n        return utilizationRate(cash, borrows, reserves).mul(rateToPool).div(1e18);\r\n    }\r\n}\r\n\r\n// File: contracts/DAIInterestRateModel.sol\r\n\r\npragma solidity ^0.5.12;\r\n\r\n\r\n\r\n/**\r\n  * @title Compound's DAIInterestRateModel Contract\r\n  * @author Compound\r\n  * @notice The parameterized model described in section 2.4 of the original Compound Protocol whitepaper\r\n  */\r\ncontract DAIInterestRateModel is JumpRateModel {\r\n    using SafeMath for uint;\r\n\r\n    /**\r\n     * @notice The additional margin per block separating the base borrow rate from the roof (0.05% / block)\r\n     */\r\n    uint public constant gapPerBlock = 0.05e16 / blocksPerYear;\r\n\r\n    /**\r\n     * @notice The assumed (1 - reserve factor) used to calculate the minimum borrow rate (reserve factor = 0.05)\r\n     */\r\n    uint public constant assumedOneMinusReserveFactorMantissa = 0.95e18;\r\n\r\n    PotLike pot;\r\n    JugLike jug;\r\n\r\n    /**\r\n     * @notice Construct an interest rate model\r\n     * @param jumpMultiplierPerYear The multiplierPerBlock after hitting a specified utilization point\r\n     * @param kink_ The utilization point at which the jump multiplier is applied\r\n     * @param pot_ The address of the Dai pot (where DSR is earned)\r\n     * @param jug_ The address of the Dai jug (where SF is kept)\r\n     */\r\n    constructor(uint jumpMultiplierPerYear, uint kink_, address pot_, address jug_) JumpRateModel(0, 0, jumpMultiplierPerYear, kink_) public {\r\n        pot = PotLike(pot_);\r\n        jug = JugLike(jug_);\r\n        poke();\r\n    }\r\n\r\n    /**\r\n     * @notice Calculates the current supply interest rate per block including the Dai savings rate\r\n     * @param cash The total amount of cash the market has\r\n     * @param borrows The total amount of borrows the market has outstanding\r\n     * @param reserves The total amnount of reserves the market has\r\n     * @param reserveFactorMantissa The current reserve factor the market has\r\n     * @return The supply rate per block (as a percentage, and scaled by 1e18)\r\n     */\r\n    function getSupplyRate(uint cash, uint borrows, uint reserves, uint reserveFactorMantissa) public view returns (uint) {\r\n        uint protocolRate = super.getSupplyRate(cash, borrows, reserves, reserveFactorMantissa);\r\n\r\n        uint underlying = cash.add(borrows).sub(reserves);\r\n        if (underlying == 0) {\r\n            return protocolRate;\r\n        } else {\r\n            uint cashRate = cash.mul(dsrPerBlock()).div(underlying);\r\n            return cashRate.add(protocolRate);\r\n        }\r\n    }\r\n\r\n    /**\r\n     * @notice Calculates the Dai savings rate per block\r\n     * @return The Dai savings rate per block (as a percentage, and scaled by 1e18)\r\n     */\r\n    function dsrPerBlock() public view returns (uint) {\r\n        return pot\r\n        .dsr().sub(1e27)  // scaled 1e27 aka RAY, and includes an extra \"ONE\" before subraction\r\n        .div(1e9) // descale to 1e18\r\n        .mul(15); // 15 seconds per block\r\n    }\r\n\r\n    /**\r\n     * @notice Resets the baseRate and multiplier per block based on the stability fee and Dai savings rate\r\n     */\r\n    function poke() public {\r\n        (uint duty, ) = jug.ilks(\"ETH-A\");\r\n        uint stabilityFeePerBlock = duty.add(jug.base()).sub(1e27).mul(1e18).div(1e27).mul(15);\r\n\r\n        // We ensure the minimum borrow rate >= DSR / (1 - reserve factor)\r\n        baseRatePerBlock = dsrPerBlock().mul(1e18).div(assumedOneMinusReserveFactorMantissa);\r\n\r\n        // The roof borrow rate is max(base rate, stability fee) + gap, from which we derive the slope\r\n        if (baseRatePerBlock < stabilityFeePerBlock) {\r\n            multiplierPerBlock = stabilityFeePerBlock.sub(baseRatePerBlock).add(gapPerBlock).mul(1e18).div(kink);\r\n        } else {\r\n            multiplierPerBlock = gapPerBlock.mul(1e18).div(kink);\r\n        }\r\n\r\n        emit NewInterestParams(baseRatePerBlock, multiplierPerBlock, jumpMultiplierPerBlock, kink);\r\n    }\r\n}\r\n\r\n\r\n/*** Maker Interfaces ***/\r\n\r\ncontract PotLike {\r\n    function chi() public view returns (uint);\r\n    function dsr() public view returns (uint);\r\n    function rho() public view returns (uint);\r\n    function pie(address) public view returns (uint);\r\n    function drip() public returns (uint);\r\n    function join(uint) public;\r\n    function exit(uint) public;\r\n}\r\n\r\ncontract JugLike {\r\n    // --- Data ---\r\n    struct Ilk {\r\n        uint256 duty;\r\n        uint256  rho;\r\n    }\r\n\r\n    mapping (bytes32 => Ilk) public ilks;\r\n    uint256 public base;\r\n}",
  "sourcePath": "C:\\Users\\Ivan\\Desktop\\work\\Compound_fork\\compoundv2\\contracts\\DAIInterestRateModel.sol",
  "compiler": {
    "name": "solc",
    "version": "0.5.17+commit.d19bba13.Emscripten.clang"
  },
  "schemaVersion": "3.1.0",
  "updatedAt": "2020-06-03T14:24:16.041Z",
  "devdoc": {
    "author": "Compound",
    "methods": {
      "constructor": {
        "params": {
          "jug_": "The address of the Dai jug (where SF is kept)",
          "jumpMultiplierPerYear": "The multiplierPerBlock after hitting a specified utilization point",
          "kink_": "The utilization point at which the jump multiplier is applied",
          "pot_": "The address of the Dai pot (where DSR is earned)"
        }
      },
      "dsrPerBlock()": {
        "return": "The Dai savings rate per block (as a percentage, and scaled by 1e18)"
      },
      "getBorrowRate(uint256,uint256,uint256)": {
        "params": {
          "borrows": "The amount of borrows in the market",
          "cash": "The amount of cash in the market",
          "reserves": "The amount of reserves in the market"
        },
        "return": "The borrow rate percentage per block as a mantissa (scaled by 1e18)"
      },
      "getSupplyRate(uint256,uint256,uint256,uint256)": {
        "params": {
          "borrows": "The total amount of borrows the market has outstanding",
          "cash": "The total amount of cash the market has",
          "reserveFactorMantissa": "The current reserve factor the market has",
          "reserves": "The total amnount of reserves the market has"
        },
        "return": "The supply rate per block (as a percentage, and scaled by 1e18)"
      },
      "utilizationRate(uint256,uint256,uint256)": {
        "params": {
          "borrows": "The amount of borrows in the market",
          "cash": "The amount of cash in the market",
          "reserves": "The amount of reserves in the market (currently unused)"
        },
        "return": "The utilization rate as a mantissa between [0, 1e18]"
      }
    },
    "title": "Compound's DAIInterestRateModel Contract"
  },
  "userdoc": {
    "methods": {
      "constructor": "Construct an interest rate model",
      "dsrPerBlock()": {
        "notice": "Calculates the Dai savings rate per block"
      },
      "getBorrowRate(uint256,uint256,uint256)": {
        "notice": "Calculates the current borrow rate per block, with the error code expected by the market"
      },
      "getSupplyRate(uint256,uint256,uint256,uint256)": {
        "notice": "Calculates the current supply interest rate per block including the Dai savings rate"
      },
      "poke()": {
        "notice": "Resets the baseRate and multiplier per block based on the stability fee and Dai savings rate"
      },
      "utilizationRate(uint256,uint256,uint256)": {
        "notice": "Calculates the utilization rate of the market: `borrows / (cash + borrows - reserves)`"
      }
    },
    "notice": "The parameterized model described in section 2.4 of the original Compound Protocol whitepaper"
  }
}