{
  "contractName": "DAIInterestRateModel",
  "abi": [
    {
      "inputs": [
        {
          "internalType": "uint256",
          "name": "jumpMultiplierPerYear",
          "type": "uint256"
        },
        {
          "internalType": "uint256",
          "name": "kink_",
          "type": "uint256"
        },
        {
          "internalType": "address",
          "name": "pot_",
          "type": "address"
        },
        {
          "internalType": "address",
          "name": "jug_",
          "type": "address"
        }
      ],
      "payable": false,
      "stateMutability": "nonpayable",
      "type": "constructor"
    },
    {
      "anonymous": false,
      "inputs": [
        {
          "indexed": false,
          "internalType": "uint256",
          "name": "baseRatePerBlock",
          "type": "uint256"
        },
        {
          "indexed": false,
          "internalType": "uint256",
          "name": "multiplierPerBlock",
          "type": "uint256"
        },
        {
          "indexed": false,
          "internalType": "uint256",
          "name": "jumpMultiplierPerBlock",
          "type": "uint256"
        },
        {
          "indexed": false,
          "internalType": "uint256",
          "name": "kink",
          "type": "uint256"
        }
      ],
      "name": "NewInterestParams",
      "type": "event"
    },
    {
      "constant": true,
      "inputs": [],
      "name": "assumedOneMinusReserveFactorMantissa",
      "outputs": [
        {
          "internalType": "uint256",
          "name": "",
          "type": "uint256"
        }
      ],
      "payable": false,
      "stateMutability": "view",
      "type": "function"
    },
    {
      "constant": true,
      "inputs": [],
      "name": "baseRatePerBlock",
      "outputs": [
        {
          "internalType": "uint256",
          "name": "",
          "type": "uint256"
        }
      ],
      "payable": false,
      "stateMutability": "view",
      "type": "function"
    },
    {
      "constant": true,
      "inputs": [],
      "name": "blocksPerYear",
      "outputs": [
        {
          "internalType": "uint256",
          "name": "",
          "type": "uint256"
        }
      ],
      "payable": false,
      "stateMutability": "view",
      "type": "function"
    },
    {
      "constant": true,
      "inputs": [],
      "name": "gapPerBlock",
      "outputs": [
        {
          "internalType": "uint256",
          "name": "",
          "type": "uint256"
        }
      ],
      "payable": false,
      "stateMutability": "view",
      "type": "function"
    },
    {
      "constant": true,
      "inputs": [
        {
          "internalType": "uint256",
          "name": "cash",
          "type": "uint256"
        },
        {
          "internalType": "uint256",
          "name": "borrows",
          "type": "uint256"
        },
        {
          "internalType": "uint256",
          "name": "reserves",
          "type": "uint256"
        }
      ],
      "name": "getBorrowRate",
      "outputs": [
        {
          "internalType": "uint256",
          "name": "",
          "type": "uint256"
        }
      ],
      "payable": false,
      "stateMutability": "view",
      "type": "function"
    },
    {
      "constant": true,
      "inputs": [],
      "name": "isInterestRateModel",
      "outputs": [
        {
          "internalType": "bool",
          "name": "",
          "type": "bool"
        }
      ],
      "payable": false,
      "stateMutability": "view",
      "type": "function"
    },
    {
      "constant": true,
      "inputs": [],
      "name": "jumpMultiplierPerBlock",
      "outputs": [
        {
          "internalType": "uint256",
          "name": "",
          "type": "uint256"
        }
      ],
      "payable": false,
      "stateMutability": "view",
      "type": "function"
    },
    {
      "constant": true,
      "inputs": [],
      "name": "kink",
      "outputs": [
        {
          "internalType": "uint256",
          "name": "",
          "type": "uint256"
        }
      ],
      "payable": false,
      "stateMutability": "view",
      "type": "function"
    },
    {
      "constant": true,
      "inputs": [],
      "name": "multiplierPerBlock",
      "outputs": [
        {
          "internalType": "uint256",
          "name": "",
          "type": "uint256"
        }
      ],
      "payable": false,
      "stateMutability": "view",
      "type": "function"
    },
    {
      "constant": true,
      "inputs": [
        {
          "internalType": "uint256",
          "name": "cash",
          "type": "uint256"
        },
        {
          "internalType": "uint256",
          "name": "borrows",
          "type": "uint256"
        },
        {
          "internalType": "uint256",
          "name": "reserves",
          "type": "uint256"
        }
      ],
      "name": "utilizationRate",
      "outputs": [
        {
          "internalType": "uint256",
          "name": "",
          "type": "uint256"
        }
      ],
      "payable": false,
      "stateMutability": "pure",
      "type": "function"
    },
    {
      "constant": true,
      "inputs": [
        {
          "internalType": "uint256",
          "name": "cash",
          "type": "uint256"
        },
        {
          "internalType": "uint256",
          "name": "borrows",
          "type": "uint256"
        },
        {
          "internalType": "uint256",
          "name": "reserves",
          "type": "uint256"
        },
        {
          "internalType": "uint256",
          "name": "reserveFactorMantissa",
          "type": "uint256"
        }
      ],
      "name": "getSupplyRate",
      "outputs": [
        {
          "internalType": "uint256",
          "name": "",
          "type": "uint256"
        }
      ],
      "payable": false,
      "stateMutability": "view",
      "type": "function"
    },
    {
      "constant": true,
      "inputs": [],
      "name": "dsrPerBlock",
      "outputs": [
        {
          "internalType": "uint256",
          "name": "",
          "type": "uint256"
        }
      ],
      "payable": false,
      "stateMutability": "view",
      "type": "function"
    },
    {
      "constant": false,
      "inputs": [],
      "name": "poke",
      "outputs": [],
      "payable": false,
      "stateMutability": "nonpayable",
      "type": "function"
    }
  ],
  "bytecode": "0x60806040523480156200001157600080fd5b50604051620017f8380380620017f8833981810160405260808110156200003757600080fd5b81019080805190602001909291908051906020019092919080519060200190929190805190602001909291905050506000808585620000886220148085620001d260201b62000a3b1790919060201c565b600181905550620000ab6220148084620001d260201b62000a3b1790919060201c565b600081905550620000ce6220148083620001d260201b62000a3b1790919060201c565b600281905550806003819055507f6960ab234c7ef4b0c9197100f5393cfcde7c453ac910a27bd2000aa1dd4c068d6001546000546002546003546040518085815260200184815260200183815260200182815260200194505050505060405180910390a15050505081600460006101000a81548173ffffffffffffffffffffffffffffffffffffffff021916908373ffffffffffffffffffffffffffffffffffffffff16021790555080600560006101000a81548173ffffffffffffffffffffffffffffffffffffffff021916908373ffffffffffffffffffffffffffffffffffffffff160217905550620001c86200022460201b60201c565b50505050620009f0565b60006200021c83836040518060400160405280601a81526020017f536166654d6174683a206469766973696f6e206279207a65726f000000000000815250620005f260201b60201c565b905092915050565b6000600560009054906101000a900473ffffffffffffffffffffffffffffffffffffffff1673ffffffffffffffffffffffffffffffffffffffff1663d9638d366040518163ffffffff1660e01b815260040180807f4554482d410000000000000000000000000000000000000000000000000000008152506020019050604080518083038186803b158015620002b957600080fd5b505afa158015620002ce573d6000803e3d6000fd5b505050506040513d6040811015620002e557600080fd5b810190808051906020019092919080519060200190929190505050509050600062000449600f620004356b033b2e3c9fd0803ce800000062000421670de0b6b3a76400006200040d6b033b2e3c9fd0803ce8000000620003f9600560009054906101000a900473ffffffffffffffffffffffffffffffffffffffff1673ffffffffffffffffffffffffffffffffffffffff16635001f3b56040518163ffffffff1660e01b815260040160206040518083038186803b158015620003a757600080fd5b505afa158015620003bc573d6000803e3d6000fd5b505050506040513d6020811015620003d357600080fd5b81019080805190602001909291905050508b620006bd60201b62000a851790919060201c565b6200074660201b62000b0d1790919060201c565b6200079860201b620009b51790919060201c565b620001d260201b62000a3b1790919060201c565b6200079860201b620009b51790919060201c565b90506200049d670d2f13f7789f000062000489670de0b6b3a7640000620004756200082360201b60201c565b6200079860201b620009b51790919060201c565b620001d260201b62000a3b1790919060201c565b6001819055508060015410156200053f57620005336003546200051f670de0b6b3a76400006200050b622014806601c6bf5263400081620004da57fe5b04620004f7600154886200074660201b62000b0d1790919060201c565b620006bd60201b62000a851790919060201c565b6200079860201b620009b51790919060201c565b620001d260201b62000a3b1790919060201c565b60008190555062000597565b620005906003546200057c670de0b6b3a7640000622014806601c6bf52634000816200056757fe5b046200079860201b620009b51790919060201c565b620001d260201b62000a3b1790919060201c565b6000819055505b7f6960ab234c7ef4b0c9197100f5393cfcde7c453ac910a27bd2000aa1dd4c068d6001546000546002546003546040518085815260200184815260200183815260200182815260200194505050505060405180910390a15050565b60008083118290620006a2576040517f08c379a00000000000000000000000000000000000000000000000000000000081526004018080602001828103825283818151815260200191508051906020019080838360005b838110156200066657808201518184015260208101905062000649565b50505050905090810190601f168015620006945780820380516001836020036101000a031916815260200191505b509250505060405180910390fd5b506000838581620006af57fe5b049050809150509392505050565b6000808284019050838110156200073c576040517f08c379a000000000000000000000000000000000000000000000000000000000815260040180806020018281038252601b8152602001807f536166654d6174683a206164646974696f6e206f766572666c6f77000000000081525060200191505060405180910390fd5b8091505092915050565b60006200079083836040518060400160405280601f81526020017f536166654d6174683a207375627472616374696f6e20756e646572666c6f77008152506200092c60201b60201c565b905092915050565b600080831415620007ad57600090506200081d565b6000828402905082848281620007bf57fe5b041462000818576040517f08c379a0000000000000000000000000000000000000000000000000000000008152600401808060200182810382526021815260200180620017d76021913960400191505060405180910390fd5b809150505b92915050565b600062000927600f62000913633b9aca00620008ff6b033b2e3c9fd0803ce8000000600460009054906101000a900473ffffffffffffffffffffffffffffffffffffffff1673ffffffffffffffffffffffffffffffffffffffff1663487bf0826040518163ffffffff1660e01b815260040160206040518083038186803b158015620008ae57600080fd5b505afa158015620008c3573d6000803e3d6000fd5b505050506040513d6020811015620008da57600080fd5b81019080805190602001909291905050506200074660201b62000b0d1790919060201c565b620001d260201b62000a3b1790919060201c565b6200079860201b620009b51790919060201c565b905090565b6000838311158290620009dd576040517f08c379a00000000000000000000000000000000000000000000000000000000081526004018080602001828103825283818151815260200191508051906020019080838360005b83811015620009a157808201518184015260208101905062000984565b50505050905090810190601f168015620009cf5780820380516001836020036101000a031916815260200191505b509250505060405180910390fd5b5060008385039050809150509392505050565b610dd78062000a006000396000f3fe608060405234801561001057600080fd5b50600436106100cf5760003560e01c806396456c5c1161008c578063b9f9850a11610066578063b9f9850a14610284578063f14039de146102a2578063f52d21f3146102c0578063fd2da339146102de576100cf565b806396456c5c146101e8578063a385fb9614610206578063b816881614610224576100cf565b806315f24053146100d4578063181783581461012a5780632191f92a146101345780636dac7cd5146101565780636e71e2d8146101745780638726bb89146101ca575b600080fd5b610114600480360360608110156100ea57600080fd5b810190808035906020019092919080359060200190929190803590602001909291905050506102fc565b6040518082815260200191505060405180910390f35b610132610410565b005b61013c610771565b604051808215151515815260200191505060405180910390f35b61015e610776565b6040518082815260200191505060405180910390f35b6101b46004803603606081101561018a57600080fd5b81019080803590602001909291908035906020019092919080359060200190929190505050610782565b6040518082815260200191505060405180910390f35b6101d26107f0565b6040518082815260200191505060405180910390f35b6101f06107f6565b6040518082815260200191505060405180910390f35b61020e6108e7565b6040518082815260200191505060405180910390f35b61026e6004803603608081101561023a57600080fd5b81019080803590602001909291908035906020019092919080359060200190929190803590602001909291905050506108ee565b6040518082815260200191505060405180910390f35b61028c61098c565b6040518082815260200191505060405180910390f35b6102aa610992565b6040518082815260200191505060405180910390f35b6102c8610998565b6040518082815260200191505060405180910390f35b6102e66109af565b6040518082815260200191505060405180910390f35b60008061030a858585610782565b905060035481116103605761035860015461034a670de0b6b3a764000061033c600054866109b590919063ffffffff16565b610a3b90919063ffffffff16565b610a8590919063ffffffff16565b915050610409565b60006103a7600154610399670de0b6b3a764000061038b6000546003546109b590919063ffffffff16565b610a3b90919063ffffffff16565b610a8590919063ffffffff16565b905060006103c060035484610b0d90919063ffffffff16565b9050610403826103f5670de0b6b3a76400006103e7600254866109b590919063ffffffff16565b610a3b90919063ffffffff16565b610a8590919063ffffffff16565b93505050505b9392505050565b6000600560009054906101000a900473ffffffffffffffffffffffffffffffffffffffff1673ffffffffffffffffffffffffffffffffffffffff1663d9638d366040518163ffffffff1660e01b815260040180807f4554482d410000000000000000000000000000000000000000000000000000008152506020019050604080518083038186803b1580156104a457600080fd5b505afa1580156104b8573d6000803e3d6000fd5b505050506040513d60408110156104ce57600080fd5b810190808051906020019092919080519060200190929190505050509050600061060c600f6105fe6b033b2e3c9fd0803ce80000006105f0670de0b6b3a76400006105e26b033b2e3c9fd0803ce80000006105d4600560009054906101000a900473ffffffffffffffffffffffffffffffffffffffff1673ffffffffffffffffffffffffffffffffffffffff16635001f3b56040518163ffffffff1660e01b815260040160206040518083038186803b15801561058a57600080fd5b505afa15801561059e573d6000803e3d6000fd5b505050506040513d60208110156105b457600080fd5b81019080805190602001909291905050508b610a8590919063ffffffff16565b610b0d90919063ffffffff16565b6109b590919063ffffffff16565b610a3b90919063ffffffff16565b6109b590919063ffffffff16565b905061064a670d2f13f7789f000061063c670de0b6b3a764000061062e6107f6565b6109b590919063ffffffff16565b610a3b90919063ffffffff16565b6001819055508060015410156106cd576106c26003546106b4670de0b6b3a76400006106a6622014806601c6bf526340008161068257fe5b0461069860015488610b0d90919063ffffffff16565b610a8590919063ffffffff16565b6109b590919063ffffffff16565b610a3b90919063ffffffff16565b600081905550610716565b61070f600354610701670de0b6b3a7640000622014806601c6bf52634000816106f257fe5b046109b590919063ffffffff16565b610a3b90919063ffffffff16565b6000819055505b7f6960ab234c7ef4b0c9197100f5393cfcde7c453ac910a27bd2000aa1dd4c068d6001546000546002546003546040518085815260200184815260200183815260200182815260200194505050505060405180910390a15050565b600181565b670d2f13f7789f000081565b60008083141561079557600090506107e9565b6107e66107bd836107af8688610a8590919063ffffffff16565b610b0d90919063ffffffff16565b6107d8670de0b6b3a7640000866109b590919063ffffffff16565b610a3b90919063ffffffff16565b90505b9392505050565b60005481565b60006108e2600f6108d4633b9aca006108c66b033b2e3c9fd0803ce8000000600460009054906101000a900473ffffffffffffffffffffffffffffffffffffffff1673ffffffffffffffffffffffffffffffffffffffff1663487bf0826040518163ffffffff1660e01b815260040160206040518083038186803b15801561087d57600080fd5b505afa158015610891573d6000803e3d6000fd5b505050506040513d60208110156108a757600080fd5b8101908080519060200190929190505050610b0d90919063ffffffff16565b610a3b90919063ffffffff16565b6109b590919063ffffffff16565b905090565b6220148081565b6000806108fd86868686610b57565b9050600061092685610918888a610a8590919063ffffffff16565b610b0d90919063ffffffff16565b9050600081141561093b578192505050610984565b60006109698261095b61094c6107f6565b8b6109b590919063ffffffff16565b610a3b90919063ffffffff16565b905061097e8382610a8590919063ffffffff16565b93505050505b949350505050565b60025481565b60015481565b622014806601c6bf52634000816109ab57fe5b0481565b60035481565b6000808314156109c85760009050610a35565b60008284029050828482816109d957fe5b0414610a30576040517f08c379a0000000000000000000000000000000000000000000000000000000008152600401808060200182810382526021815260200180610d826021913960400191505060405180910390fd5b809150505b92915050565b6000610a7d83836040518060400160405280601a81526020017f536166654d6174683a206469766973696f6e206279207a65726f000000000000815250610bfb565b905092915050565b600080828401905083811015610b03576040517f08c379a000000000000000000000000000000000000000000000000000000000815260040180806020018281038252601b8152602001807f536166654d6174683a206164646974696f6e206f766572666c6f77000000000081525060200191505060405180910390fd5b8091505092915050565b6000610b4f83836040518060400160405280601f81526020017f536166654d6174683a207375627472616374696f6e20756e646572666c6f7700815250610cc1565b905092915050565b600080610b7583670de0b6b3a7640000610b0d90919063ffffffff16565b90506000610b848787876102fc565b90506000610bb5670de0b6b3a7640000610ba785856109b590919063ffffffff16565b610a3b90919063ffffffff16565b9050610bee670de0b6b3a7640000610be083610bd28c8c8c610782565b6109b590919063ffffffff16565b610a3b90919063ffffffff16565b9350505050949350505050565b60008083118290610ca7576040517f08c379a00000000000000000000000000000000000000000000000000000000081526004018080602001828103825283818151815260200191508051906020019080838360005b83811015610c6c578082015181840152602081019050610c51565b50505050905090810190601f168015610c995780820380516001836020036101000a031916815260200191505b509250505060405180910390fd5b506000838581610cb357fe5b049050809150509392505050565b6000838311158290610d6e576040517f08c379a00000000000000000000000000000000000000000000000000000000081526004018080602001828103825283818151815260200191508051906020019080838360005b83811015610d33578082015181840152602081019050610d18565b50505050905090810190601f168015610d605780820380516001836020036101000a031916815260200191505b509250505060405180910390fd5b506000838503905080915050939250505056fe536166654d6174683a206d756c7469706c69636174696f6e206f766572666c6f77a265627a7a723158203480ba0b555a2d44bb04b806a13ec71ccb114f803476cf958ebd580abfeeeb1364736f6c63430005110032536166654d6174683a206d756c7469706c69636174696f6e206f766572666c6f77",
  "source": "pragma solidity ^0.5.12;\r\n\r\nimport \"./JumpRateModel.sol\";\r\n\r\n /*interface InterestRateModel {\r\n    /**\r\n     * @notice Indicator that this is an InterestRateModel contract (for inspection)\r\n     *\r\n    function isInterestRateModel() external pure returns (bool);\r\n\r\n    /**\r\n      * @notice Calculates the current borrow interest rate per block\r\n      * @param cash The total amount of cash the market has\r\n      * @param borrows The total amount of borrows the market has outstanding\r\n      * @param reserves The total amnount of reserves the market has\r\n      * @return The borrow rate per block (as a percentage, and scaled by 1e18)\r\n      *\r\n    function getBorrowRate(uint cash, uint borrows, uint reserves) external view returns (uint);\r\n\r\n    /**\r\n      * @notice Calculates the current supply interest rate per block\r\n      * @param cash The total amount of cash the market has\r\n      * @param borrows The total amount of borrows the market has outstanding\r\n      * @param reserves The total amnount of reserves the market has\r\n      * @param reserveFactorMantissa The current reserve factor the market has\r\n      * @return The supply rate per block (as a percentage, and scaled by 1e18)\r\n      *\r\n    function getSupplyRate(uint cash, uint borrows, uint reserves, uint reserveFactorMantissa) external view returns (uint);\r\n\r\n}\r\n*/\r\n/**\r\n  * @title Compound's DAIInterestRateModel Contract\r\n  * @author Compound\r\n  * @notice The parameterized model described in section 2.4 of the original Compound Protocol whitepaper\r\n  */\r\ncontract DAIInterestRateModel is JumpRateModel {\r\n    using SafeMath for uint;\r\n\r\n    /**\r\n     * @notice The additional margin per block separating the base borrow rate from the roof (0.05% / block)\r\n     */\r\n    uint public constant gapPerBlock = 0.05e16 / blocksPerYear;\r\n\r\n    /**\r\n     * @notice The assumed (1 - reserve factor) used to calculate the minimum borrow rate (reserve factor = 0.05)\r\n     */\r\n    uint public constant assumedOneMinusReserveFactorMantissa = 0.95e18;\r\n\r\n    PotLike pot;\r\n    JugLike jug;\r\n\r\n    /**\r\n     * @notice Construct an interest rate model\r\n     * @param jumpMultiplierPerYear The multiplierPerBlock after hitting a specified utilization point\r\n     * @param kink_ The utilization point at which the jump multiplier is applied\r\n     * @param pot_ The address of the Dai pot (where DSR is earned)\r\n     * @param jug_ The address of the Dai jug (where SF is kept)\r\n     */\r\n    constructor(uint jumpMultiplierPerYear, uint kink_, address pot_, address jug_) JumpRateModel(0, 0, jumpMultiplierPerYear, kink_) public {\r\n        pot = PotLike(pot_);\r\n        jug = JugLike(jug_);\r\n        poke();\r\n    }\r\n\r\n    /**\r\n     * @notice Calculates the current supply interest rate per block including the Dai savings rate\r\n     * @param cash The total amount of cash the market has\r\n     * @param borrows The total amount of borrows the market has outstanding\r\n     * @param reserves The total amnount of reserves the market has\r\n     * @param reserveFactorMantissa The current reserve factor the market has\r\n     * @return The supply rate per block (as a percentage, and scaled by 1e18)\r\n     */\r\n    function getSupplyRate(uint cash, uint borrows, uint reserves, uint reserveFactorMantissa) public view returns (uint) {\r\n        uint protocolRate = super.getSupplyRate(cash, borrows, reserves, reserveFactorMantissa);\r\n\r\n        uint underlying = cash.add(borrows).sub(reserves);\r\n        if (underlying == 0) {\r\n            return protocolRate;\r\n        } else {\r\n            uint cashRate = cash.mul(dsrPerBlock()).div(underlying);\r\n            return cashRate.add(protocolRate);\r\n        }\r\n    }\r\n\r\n    /**\r\n     * @notice Calculates the Dai savings rate per block\r\n     * @return The Dai savings rate per block (as a percentage, and scaled by 1e18)\r\n     */\r\n    function dsrPerBlock() public view returns (uint) {\r\n        return pot\r\n        .dsr().sub(1e27)  // scaled 1e27 aka RAY, and includes an extra \"ONE\" before subraction\r\n        .div(1e9) // descale to 1e18\r\n        .mul(15); // 15 seconds per block\r\n    }\r\n\r\n    /**\r\n     * @notice Resets the baseRate and multiplier per block based on the stability fee and Dai savings rate\r\n     */\r\n    function poke() public {\r\n        (uint duty, ) = jug.ilks(\"ETH-A\");\r\n        uint stabilityFeePerBlock = duty.add(jug.base()).sub(1e27).mul(1e18).div(1e27).mul(15);\r\n\r\n        // We ensure the minimum borrow rate >= DSR / (1 - reserve factor)\r\n        baseRatePerBlock = dsrPerBlock().mul(1e18).div(assumedOneMinusReserveFactorMantissa);\r\n\r\n        // The roof borrow rate is max(base rate, stability fee) + gap, from which we derive the slope\r\n        if (baseRatePerBlock < stabilityFeePerBlock) {\r\n            multiplierPerBlock = stabilityFeePerBlock.sub(baseRatePerBlock).add(gapPerBlock).mul(1e18).div(kink);\r\n        } else {\r\n            multiplierPerBlock = gapPerBlock.mul(1e18).div(kink);\r\n        }\r\n\r\n        emit NewInterestParams(baseRatePerBlock, multiplierPerBlock, jumpMultiplierPerBlock, kink);\r\n    }\r\n}\r\n\r\n/*** Maker Interfaces ***/\r\n\r\ncontract PotLike {\r\n    function chi() public view returns (uint);\r\n    function dsr() public view returns (uint);\r\n    function rho() public view returns (uint);\r\n    function pie(address) public view returns (uint);\r\n    function drip() public returns (uint);\r\n    function join(uint) public;\r\n    function exit(uint) public;\r\n}\r\n\r\ncontract JugLike {\r\n    // --- Data ---\r\n    struct Ilk {\r\n        uint256 duty;\r\n        uint256  rho;\r\n    }\r\n\r\n    mapping (bytes32 => Ilk) public ilks;\r\n    uint256 public base;\r\n}",
  "sourcePath": "C:\\Users\\pillardev\\Desktop\\Compound2.0\\compoundv2\\contracts\\DAIInterestRateModel.sol",
  "compiler": {
    "name": "solc",
    "version": "0.5.17+commit.d19bba13.Emscripten.clang"
  },
  "schemaVersion": "3.0.23",
  "updatedAt": "2020-05-11T11:38:56.280Z",
  "devdoc": {
    "author": "Compound",
    "methods": {
      "constructor": {
        "params": {
          "jug_": "The address of the Dai jug (where SF is kept)",
          "jumpMultiplierPerYear": "The multiplierPerBlock after hitting a specified utilization point",
          "kink_": "The utilization point at which the jump multiplier is applied",
          "pot_": "The address of the Dai pot (where DSR is earned)"
        }
      },
      "dsrPerBlock()": {
        "return": "The Dai savings rate per block (as a percentage, and scaled by 1e18)"
      },
      "getBorrowRate(uint256,uint256,uint256)": {
        "params": {
          "borrows": "The amount of borrows in the market",
          "cash": "The amount of cash in the market",
          "reserves": "The amount of reserves in the market"
        },
        "return": "The borrow rate percentage per block as a mantissa (scaled by 1e18)"
      },
      "getSupplyRate(uint256,uint256,uint256,uint256)": {
        "params": {
          "borrows": "The total amount of borrows the market has outstanding",
          "cash": "The total amount of cash the market has",
          "reserveFactorMantissa": "The current reserve factor the market has",
          "reserves": "The total amnount of reserves the market has"
        },
        "return": "The supply rate per block (as a percentage, and scaled by 1e18)"
      },
      "utilizationRate(uint256,uint256,uint256)": {
        "params": {
          "borrows": "The amount of borrows in the market",
          "cash": "The amount of cash in the market",
          "reserves": "The amount of reserves in the market (currently unused)"
        },
        "return": "The utilization rate as a mantissa between [0, 1e18]"
      }
    },
    "title": "Compound's DAIInterestRateModel Contract"
  },
  "userdoc": {
    "methods": {
      "constructor": "Construct an interest rate model",
      "dsrPerBlock()": {
        "notice": "Calculates the Dai savings rate per block"
      },
      "getBorrowRate(uint256,uint256,uint256)": {
        "notice": "Calculates the current borrow rate per block, with the error code expected by the market"
      },
      "getSupplyRate(uint256,uint256,uint256,uint256)": {
        "notice": "Calculates the current supply interest rate per block including the Dai savings rate"
      },
      "poke()": {
        "notice": "Resets the baseRate and multiplier per block based on the stability fee and Dai savings rate"
      },
      "utilizationRate(uint256,uint256,uint256)": {
        "notice": "Calculates the utilization rate of the market: `borrows / (cash + borrows - reserves)`"
      }
    },
    "notice": "The parameterized model described in section 2.4 of the original Compound Protocol whitepaper"
  }
}