{
  "contractName": "JugLike",
  "abi": [
    {
      "constant": true,
      "inputs": [],
      "name": "base",
      "outputs": [
        {
          "internalType": "uint256",
          "name": "",
          "type": "uint256"
        }
      ],
      "payable": false,
      "stateMutability": "view",
      "type": "function"
    },
    {
      "constant": true,
      "inputs": [
        {
          "internalType": "bytes32",
          "name": "",
          "type": "bytes32"
        }
      ],
      "name": "ilks",
      "outputs": [
        {
          "internalType": "uint256",
          "name": "duty",
          "type": "uint256"
        },
        {
          "internalType": "uint256",
          "name": "rho",
          "type": "uint256"
        }
      ],
      "payable": false,
      "stateMutability": "view",
      "type": "function"
    }
  ],
  "bytecode": "0x608060405234801561001057600080fd5b5060f88061001f6000396000f3fe6080604052348015600f57600080fd5b506004361060325760003560e01c80635001f3b5146037578063d9638d36146053575b600080fd5b603d6099565b6040518082815260200191505060405180910390f35b607c60048036036020811015606757600080fd5b8101908080359060200190929190505050609f565b604051808381526020018281526020019250505060405180910390f35b60015481565b6000602052806000526040600020600091509050806000015490806001015490508256fea265627a7a72315820428fbad4c31913b87ebec20e3fe4f6aab919578024ac7cc3cf18ad436f4e478464736f6c63430005110032",
  "source": "pragma solidity ^0.5.12;\r\n\r\nimport \"./JumpRateModel.sol\";\r\n\r\n /*interface InterestRateModel {\r\n    /**\r\n     * @notice Indicator that this is an InterestRateModel contract (for inspection)\r\n     *\r\n    function isInterestRateModel() external pure returns (bool);\r\n\r\n    /**\r\n      * @notice Calculates the current borrow interest rate per block\r\n      * @param cash The total amount of cash the market has\r\n      * @param borrows The total amount of borrows the market has outstanding\r\n      * @param reserves The total amnount of reserves the market has\r\n      * @return The borrow rate per block (as a percentage, and scaled by 1e18)\r\n      *\r\n    function getBorrowRate(uint cash, uint borrows, uint reserves) external view returns (uint);\r\n\r\n    /**\r\n      * @notice Calculates the current supply interest rate per block\r\n      * @param cash The total amount of cash the market has\r\n      * @param borrows The total amount of borrows the market has outstanding\r\n      * @param reserves The total amnount of reserves the market has\r\n      * @param reserveFactorMantissa The current reserve factor the market has\r\n      * @return The supply rate per block (as a percentage, and scaled by 1e18)\r\n      *\r\n    function getSupplyRate(uint cash, uint borrows, uint reserves, uint reserveFactorMantissa) external view returns (uint);\r\n\r\n}\r\n*/\r\n/**\r\n  * @title Compound's DAIInterestRateModel Contract\r\n  * @author Compound\r\n  * @notice The parameterized model described in section 2.4 of the original Compound Protocol whitepaper\r\n  */\r\ncontract DAIInterestRateModel is JumpRateModel {\r\n    using SafeMath for uint;\r\n\r\n    /**\r\n     * @notice The additional margin per block separating the base borrow rate from the roof (0.05% / block)\r\n     */\r\n    uint public constant gapPerBlock = 0.05e16 / blocksPerYear;\r\n\r\n    /**\r\n     * @notice The assumed (1 - reserve factor) used to calculate the minimum borrow rate (reserve factor = 0.05)\r\n     */\r\n    uint public constant assumedOneMinusReserveFactorMantissa = 0.95e18;\r\n\r\n    PotLike pot;\r\n    JugLike jug;\r\n\r\n    /**\r\n     * @notice Construct an interest rate model\r\n     * @param jumpMultiplierPerYear The multiplierPerBlock after hitting a specified utilization point\r\n     * @param kink_ The utilization point at which the jump multiplier is applied\r\n     * @param pot_ The address of the Dai pot (where DSR is earned)\r\n     * @param jug_ The address of the Dai jug (where SF is kept)\r\n     */\r\n    constructor(uint jumpMultiplierPerYear, uint kink_, address pot_, address jug_) JumpRateModel(0, 0, jumpMultiplierPerYear, kink_) public {\r\n        pot = PotLike(pot_);\r\n        jug = JugLike(jug_);\r\n        poke();\r\n    }\r\n\r\n    /**\r\n     * @notice Calculates the current supply interest rate per block including the Dai savings rate\r\n     * @param cash The total amount of cash the market has\r\n     * @param borrows The total amount of borrows the market has outstanding\r\n     * @param reserves The total amnount of reserves the market has\r\n     * @param reserveFactorMantissa The current reserve factor the market has\r\n     * @return The supply rate per block (as a percentage, and scaled by 1e18)\r\n     */\r\n    function getSupplyRate(uint cash, uint borrows, uint reserves, uint reserveFactorMantissa) public view returns (uint) {\r\n        uint protocolRate = super.getSupplyRate(cash, borrows, reserves, reserveFactorMantissa);\r\n\r\n        uint underlying = cash.add(borrows).sub(reserves);\r\n        if (underlying == 0) {\r\n            return protocolRate;\r\n        } else {\r\n            uint cashRate = cash.mul(dsrPerBlock()).div(underlying);\r\n            return cashRate.add(protocolRate);\r\n        }\r\n    }\r\n\r\n    /**\r\n     * @notice Calculates the Dai savings rate per block\r\n     * @return The Dai savings rate per block (as a percentage, and scaled by 1e18)\r\n     */\r\n    function dsrPerBlock() public view returns (uint) {\r\n        return pot\r\n        .dsr().sub(1e27)  // scaled 1e27 aka RAY, and includes an extra \"ONE\" before subraction\r\n        .div(1e9) // descale to 1e18\r\n        .mul(15); // 15 seconds per block\r\n    }\r\n\r\n    /**\r\n     * @notice Resets the baseRate and multiplier per block based on the stability fee and Dai savings rate\r\n     */\r\n    function poke() public {\r\n        (uint duty, ) = jug.ilks(\"ETH-A\");\r\n        uint stabilityFeePerBlock = duty.add(jug.base()).sub(1e27).mul(1e18).div(1e27).mul(15);\r\n\r\n        // We ensure the minimum borrow rate >= DSR / (1 - reserve factor)\r\n        baseRatePerBlock = dsrPerBlock().mul(1e18).div(assumedOneMinusReserveFactorMantissa);\r\n\r\n        // The roof borrow rate is max(base rate, stability fee) + gap, from which we derive the slope\r\n        if (baseRatePerBlock < stabilityFeePerBlock) {\r\n            multiplierPerBlock = stabilityFeePerBlock.sub(baseRatePerBlock).add(gapPerBlock).mul(1e18).div(kink);\r\n        } else {\r\n            multiplierPerBlock = gapPerBlock.mul(1e18).div(kink);\r\n        }\r\n\r\n        emit NewInterestParams(baseRatePerBlock, multiplierPerBlock, jumpMultiplierPerBlock, kink);\r\n    }\r\n}\r\n\r\n/*** Maker Interfaces ***/\r\n\r\ncontract PotLike {\r\n    function chi() public view returns (uint);\r\n    function dsr() public view returns (uint);\r\n    function rho() public view returns (uint);\r\n    function pie(address) public view returns (uint);\r\n    function drip() public returns (uint);\r\n    function join(uint) public;\r\n    function exit(uint) public;\r\n}\r\n\r\ncontract JugLike {\r\n    // --- Data ---\r\n    struct Ilk {\r\n        uint256 duty;\r\n        uint256  rho;\r\n    }\r\n\r\n    mapping (bytes32 => Ilk) public ilks;\r\n    uint256 public base;\r\n}",
  "sourcePath": "C:\\Users\\pillardev\\Desktop\\Compound2.0\\compoundv2\\contracts\\DAIInterestRateModel.sol",
  "compiler": {
    "name": "solc",
    "version": "0.5.17+commit.d19bba13.Emscripten.clang"
  },
  "schemaVersion": "3.0.23",
  "updatedAt": "2020-05-11T11:38:56.285Z",
  "devdoc": {
    "methods": {}
  },
  "userdoc": {
    "methods": {}
  }
}