{
  "contractName": "JumpRateModel",
  "abi": [
    {
      "inputs": [
        {
          "internalType": "uint256",
          "name": "baseRatePerYear",
          "type": "uint256"
        },
        {
          "internalType": "uint256",
          "name": "multiplierPerYear",
          "type": "uint256"
        },
        {
          "internalType": "uint256",
          "name": "jumpMultiplierPerYear",
          "type": "uint256"
        },
        {
          "internalType": "uint256",
          "name": "kink_",
          "type": "uint256"
        }
      ],
      "payable": false,
      "stateMutability": "nonpayable",
      "type": "constructor"
    },
    {
      "anonymous": false,
      "inputs": [
        {
          "indexed": false,
          "internalType": "uint256",
          "name": "baseRatePerBlock",
          "type": "uint256"
        },
        {
          "indexed": false,
          "internalType": "uint256",
          "name": "multiplierPerBlock",
          "type": "uint256"
        },
        {
          "indexed": false,
          "internalType": "uint256",
          "name": "jumpMultiplierPerBlock",
          "type": "uint256"
        },
        {
          "indexed": false,
          "internalType": "uint256",
          "name": "kink",
          "type": "uint256"
        }
      ],
      "name": "NewInterestParams",
      "type": "event"
    },
    {
      "constant": true,
      "inputs": [],
      "name": "baseRatePerBlock",
      "outputs": [
        {
          "internalType": "uint256",
          "name": "",
          "type": "uint256"
        }
      ],
      "payable": false,
      "stateMutability": "view",
      "type": "function"
    },
    {
      "constant": true,
      "inputs": [],
      "name": "blocksPerYear",
      "outputs": [
        {
          "internalType": "uint256",
          "name": "",
          "type": "uint256"
        }
      ],
      "payable": false,
      "stateMutability": "view",
      "type": "function"
    },
    {
      "constant": true,
      "inputs": [],
      "name": "isInterestRateModel",
      "outputs": [
        {
          "internalType": "bool",
          "name": "",
          "type": "bool"
        }
      ],
      "payable": false,
      "stateMutability": "view",
      "type": "function"
    },
    {
      "constant": true,
      "inputs": [],
      "name": "jumpMultiplierPerBlock",
      "outputs": [
        {
          "internalType": "uint256",
          "name": "",
          "type": "uint256"
        }
      ],
      "payable": false,
      "stateMutability": "view",
      "type": "function"
    },
    {
      "constant": true,
      "inputs": [],
      "name": "kink",
      "outputs": [
        {
          "internalType": "uint256",
          "name": "",
          "type": "uint256"
        }
      ],
      "payable": false,
      "stateMutability": "view",
      "type": "function"
    },
    {
      "constant": true,
      "inputs": [],
      "name": "multiplierPerBlock",
      "outputs": [
        {
          "internalType": "uint256",
          "name": "",
          "type": "uint256"
        }
      ],
      "payable": false,
      "stateMutability": "view",
      "type": "function"
    },
    {
      "constant": true,
      "inputs": [
        {
          "internalType": "uint256",
          "name": "cash",
          "type": "uint256"
        },
        {
          "internalType": "uint256",
          "name": "borrows",
          "type": "uint256"
        },
        {
          "internalType": "uint256",
          "name": "reserves",
          "type": "uint256"
        }
      ],
      "name": "utilizationRate",
      "outputs": [
        {
          "internalType": "uint256",
          "name": "",
          "type": "uint256"
        }
      ],
      "payable": false,
      "stateMutability": "pure",
      "type": "function"
    },
    {
      "constant": true,
      "inputs": [
        {
          "internalType": "uint256",
          "name": "cash",
          "type": "uint256"
        },
        {
          "internalType": "uint256",
          "name": "borrows",
          "type": "uint256"
        },
        {
          "internalType": "uint256",
          "name": "reserves",
          "type": "uint256"
        }
      ],
      "name": "getBorrowRate",
      "outputs": [
        {
          "internalType": "uint256",
          "name": "",
          "type": "uint256"
        }
      ],
      "payable": false,
      "stateMutability": "view",
      "type": "function"
    },
    {
      "constant": true,
      "inputs": [
        {
          "internalType": "uint256",
          "name": "cash",
          "type": "uint256"
        },
        {
          "internalType": "uint256",
          "name": "borrows",
          "type": "uint256"
        },
        {
          "internalType": "uint256",
          "name": "reserves",
          "type": "uint256"
        },
        {
          "internalType": "uint256",
          "name": "reserveFactorMantissa",
          "type": "uint256"
        }
      ],
      "name": "getSupplyRate",
      "outputs": [
        {
          "internalType": "uint256",
          "name": "",
          "type": "uint256"
        }
      ],
      "payable": false,
      "stateMutability": "view",
      "type": "function"
    }
  ],
  "bytecode": "0x608060405234801561001057600080fd5b50604051610a72380380610a728339818101604052608081101561003357600080fd5b810190808051906020019092919080519060200190929190805190602001909291908051906020019092919050505061007c622014808561012960201b61052c1790919060201c565b60018190555061009c622014808461012960201b61052c1790919060201c565b6000819055506100bc622014808361012960201b61052c1790919060201c565b600281905550806003819055507f6960ab234c7ef4b0c9197100f5393cfcde7c453ac910a27bd2000aa1dd4c068d6001546000546002546003546040518085815260200184815260200183815260200182815260200194505050505060405180910390a15050505061023f565b600061017183836040518060400160405280601a81526020017f536166654d6174683a206469766973696f6e206279207a65726f00000000000081525061017960201b60201c565b905092915050565b60008083118290610225576040517f08c379a00000000000000000000000000000000000000000000000000000000081526004018080602001828103825283818151815260200191508051906020019080838360005b838110156101ea5780820151818401526020810190506101cf565b50505050905090810190601f1680156102175780820380516001836020036101000a031916815260200191505b509250505060405180910390fd5b50600083858161023157fe5b049050809150509392505050565b6108248061024e6000396000f3fe608060405234801561001057600080fd5b50600436106100935760003560e01c8063a385fb9611610066578063a385fb9614610184578063b8168816146101a2578063b9f9850a14610202578063f14039de14610220578063fd2da3391461023e57610093565b806315f24053146100985780632191f92a146100ee5780636e71e2d8146101105780638726bb8914610166575b600080fd5b6100d8600480360360608110156100ae57600080fd5b8101908080359060200190929190803590602001909291908035906020019092919050505061025c565b6040518082815260200191505060405180910390f35b6100f6610370565b604051808215151515815260200191505060405180910390f35b6101506004803603606081101561012657600080fd5b81019080803590602001909291908035906020019092919080359060200190929190505050610375565b6040518082815260200191505060405180910390f35b61016e6103e3565b6040518082815260200191505060405180910390f35b61018c6103e9565b6040518082815260200191505060405180910390f35b6101ec600480360360808110156101b857600080fd5b81019080803590602001909291908035906020019092919080359060200190929190803590602001909291905050506103f0565b6040518082815260200191505060405180910390f35b61020a610494565b6040518082815260200191505060405180910390f35b61022861049a565b6040518082815260200191505060405180910390f35b6102466104a0565b6040518082815260200191505060405180910390f35b60008061026a858585610375565b905060035481116102c0576102b86001546102aa670de0b6b3a764000061029c600054866104a690919063ffffffff16565b61052c90919063ffffffff16565b61057690919063ffffffff16565b915050610369565b60006103076001546102f9670de0b6b3a76400006102eb6000546003546104a690919063ffffffff16565b61052c90919063ffffffff16565b61057690919063ffffffff16565b90506000610320600354846105fe90919063ffffffff16565b905061036382610355670de0b6b3a7640000610347600254866104a690919063ffffffff16565b61052c90919063ffffffff16565b61057690919063ffffffff16565b93505050505b9392505050565b600181565b60008083141561038857600090506103dc565b6103d96103b0836103a2868861057690919063ffffffff16565b6105fe90919063ffffffff16565b6103cb670de0b6b3a7640000866104a690919063ffffffff16565b61052c90919063ffffffff16565b90505b9392505050565b60005481565b6220148081565b60008061040e83670de0b6b3a76400006105fe90919063ffffffff16565b9050600061041d87878761025c565b9050600061044e670de0b6b3a764000061044085856104a690919063ffffffff16565b61052c90919063ffffffff16565b9050610487670de0b6b3a76400006104798361046b8c8c8c610375565b6104a690919063ffffffff16565b61052c90919063ffffffff16565b9350505050949350505050565b60025481565b60015481565b60035481565b6000808314156104b95760009050610526565b60008284029050828482816104ca57fe5b0414610521576040517f08c379a00000000000000000000000000000000000000000000000000000000081526004018080602001828103825260218152602001806107cf6021913960400191505060405180910390fd5b809150505b92915050565b600061056e83836040518060400160405280601a81526020017f536166654d6174683a206469766973696f6e206279207a65726f000000000000815250610648565b905092915050565b6000808284019050838110156105f4576040517f08c379a000000000000000000000000000000000000000000000000000000000815260040180806020018281038252601b8152602001807f536166654d6174683a206164646974696f6e206f766572666c6f77000000000081525060200191505060405180910390fd5b8091505092915050565b600061064083836040518060400160405280601f81526020017f536166654d6174683a207375627472616374696f6e20756e646572666c6f770081525061070e565b905092915050565b600080831182906106f4576040517f08c379a00000000000000000000000000000000000000000000000000000000081526004018080602001828103825283818151815260200191508051906020019080838360005b838110156106b957808201518184015260208101905061069e565b50505050905090810190601f1680156106e65780820380516001836020036101000a031916815260200191505b509250505060405180910390fd5b50600083858161070057fe5b049050809150509392505050565b60008383111582906107bb576040517f08c379a00000000000000000000000000000000000000000000000000000000081526004018080602001828103825283818151815260200191508051906020019080838360005b83811015610780578082015181840152602081019050610765565b50505050905090810190601f1680156107ad5780820380516001836020036101000a031916815260200191505b509250505060405180910390fd5b506000838503905080915050939250505056fe536166654d6174683a206d756c7469706c69636174696f6e206f766572666c6f77a265627a7a7231582029aff20ca35ae403bbb0e7cfb87c0b52b82a909c90a5d68deba2e5d1d6cc688364736f6c63430005110032",
  "source": "pragma solidity ^0.5.16;\r\n\r\nimport \"./InterestRateModel.sol\";\r\nimport \"./SafeMath.sol\";\r\n\r\n/**\r\n  * @title Compound's JumpRateModel Contract\r\n  * @author Compound\r\n  */\r\ncontract JumpRateModel is InterestRateModel {\r\n    using SafeMath for uint;\r\n\r\n    event NewInterestParams(uint baseRatePerBlock, uint multiplierPerBlock, uint jumpMultiplierPerBlock, uint kink);\r\n\r\n    /**\r\n     * @notice The approximate number of blocks per year that is assumed by the interest rate model\r\n     */\r\n    uint public constant blocksPerYear = 2102400;\r\n\r\n    /**\r\n     * @notice The multiplier of utilization rate that gives the slope of the interest rate\r\n     */\r\n    uint public multiplierPerBlock;\r\n\r\n    /**\r\n     * @notice The base interest rate which is the y-intercept when utilization rate is 0\r\n     */\r\n    uint public baseRatePerBlock;\r\n\r\n    /**\r\n     * @notice The multiplierPerBlock after hitting a specified utilization point\r\n     */\r\n    uint public jumpMultiplierPerBlock;\r\n\r\n    /**\r\n     * @notice The utilization point at which the jump multiplier is applied\r\n     */\r\n    uint public kink;\r\n\r\n    /**\r\n     * @notice Construct an interest rate model\r\n     * @param baseRatePerYear The approximate target base APR, as a mantissa (scaled by 1e18)\r\n     * @param multiplierPerYear The rate of increase in interest rate wrt utilization (scaled by 1e18)\r\n     * @param jumpMultiplierPerYear The multiplierPerBlock after hitting a specified utilization point\r\n     * @param kink_ The utilization point at which the jump multiplier is applied\r\n     */\r\n    constructor(uint baseRatePerYear, uint multiplierPerYear, uint jumpMultiplierPerYear, uint kink_) public {\r\n        baseRatePerBlock = baseRatePerYear.div(blocksPerYear);\r\n        multiplierPerBlock = multiplierPerYear.div(blocksPerYear);\r\n        jumpMultiplierPerBlock = jumpMultiplierPerYear.div(blocksPerYear);\r\n        kink = kink_;\r\n\r\n        emit NewInterestParams(baseRatePerBlock, multiplierPerBlock, jumpMultiplierPerBlock, kink);\r\n    }\r\n\r\n    /**\r\n     * @notice Calculates the utilization rate of the market: `borrows / (cash + borrows - reserves)`\r\n     * @param cash The amount of cash in the market\r\n     * @param borrows The amount of borrows in the market\r\n     * @param reserves The amount of reserves in the market (currently unused)\r\n     * @return The utilization rate as a mantissa between [0, 1e18]\r\n     */\r\n    function utilizationRate(uint cash, uint borrows, uint reserves) public pure returns (uint) {\r\n        // Utilization rate is 0 when there are no borrows\r\n        if (borrows == 0) {\r\n            return 0;\r\n        }\r\n\r\n        return borrows.mul(1e18).div(cash.add(borrows).sub(reserves));\r\n    }\r\n\r\n    /**\r\n     * @notice Calculates the current borrow rate per block, with the error code expected by the market\r\n     * @param cash The amount of cash in the market\r\n     * @param borrows The amount of borrows in the market\r\n     * @param reserves The amount of reserves in the market\r\n     * @return The borrow rate percentage per block as a mantissa (scaled by 1e18)\r\n     */\r\n    function getBorrowRate(uint cash, uint borrows, uint reserves) public view returns (uint) {\r\n        uint util = utilizationRate(cash, borrows, reserves);\r\n\r\n        if (util <= kink) {\r\n            return util.mul(multiplierPerBlock).div(1e18).add(baseRatePerBlock);\r\n        } else {\r\n            uint normalRate = kink.mul(multiplierPerBlock).div(1e18).add(baseRatePerBlock);\r\n            uint excessUtil = util.sub(kink);\r\n            return excessUtil.mul(jumpMultiplierPerBlock).div(1e18).add(normalRate);\r\n        }\r\n    }\r\n\r\n    /**\r\n     * @notice Calculates the current supply rate per block\r\n     * @param cash The amount of cash in the market\r\n     * @param borrows The amount of borrows in the market\r\n     * @param reserves The amount of reserves in the market\r\n     * @param reserveFactorMantissa The current reserve factor for the market\r\n     * @return The supply rate percentage per block as a mantissa (scaled by 1e18)\r\n     */\r\n    function getSupplyRate(uint cash, uint borrows, uint reserves, uint reserveFactorMantissa) public view returns (uint) {\r\n        uint oneMinusReserveFactor = uint(1e18).sub(reserveFactorMantissa);\r\n        uint borrowRate = getBorrowRate(cash, borrows, reserves);\r\n        uint rateToPool = borrowRate.mul(oneMinusReserveFactor).div(1e18);\r\n        return utilizationRate(cash, borrows, reserves).mul(rateToPool).div(1e18);\r\n    }\r\n}\r\n",
  "sourcePath": "C:\\Users\\pillardev\\Desktop\\Compound2.0\\compoundv2\\contracts\\JumpRateModel.sol",
  "compiler": {
    "name": "solc",
    "version": "0.5.17+commit.d19bba13.Emscripten.clang"
  },
  "schemaVersion": "3.0.23",
  "updatedAt": "2020-05-11T11:38:56.344Z",
  "devdoc": {
    "author": "Compound",
    "methods": {
      "constructor": {
        "params": {
          "baseRatePerYear": "The approximate target base APR, as a mantissa (scaled by 1e18)",
          "jumpMultiplierPerYear": "The multiplierPerBlock after hitting a specified utilization point",
          "kink_": "The utilization point at which the jump multiplier is applied",
          "multiplierPerYear": "The rate of increase in interest rate wrt utilization (scaled by 1e18)"
        }
      },
      "getBorrowRate(uint256,uint256,uint256)": {
        "params": {
          "borrows": "The amount of borrows in the market",
          "cash": "The amount of cash in the market",
          "reserves": "The amount of reserves in the market"
        },
        "return": "The borrow rate percentage per block as a mantissa (scaled by 1e18)"
      },
      "getSupplyRate(uint256,uint256,uint256,uint256)": {
        "params": {
          "borrows": "The amount of borrows in the market",
          "cash": "The amount of cash in the market",
          "reserveFactorMantissa": "The current reserve factor for the market",
          "reserves": "The amount of reserves in the market"
        },
        "return": "The supply rate percentage per block as a mantissa (scaled by 1e18)"
      },
      "utilizationRate(uint256,uint256,uint256)": {
        "params": {
          "borrows": "The amount of borrows in the market",
          "cash": "The amount of cash in the market",
          "reserves": "The amount of reserves in the market (currently unused)"
        },
        "return": "The utilization rate as a mantissa between [0, 1e18]"
      }
    },
    "title": "Compound's JumpRateModel Contract"
  },
  "userdoc": {
    "methods": {
      "constructor": "Construct an interest rate model",
      "getBorrowRate(uint256,uint256,uint256)": {
        "notice": "Calculates the current borrow rate per block, with the error code expected by the market"
      },
      "getSupplyRate(uint256,uint256,uint256,uint256)": {
        "notice": "Calculates the current supply rate per block"
      },
      "utilizationRate(uint256,uint256,uint256)": {
        "notice": "Calculates the utilization rate of the market: `borrows / (cash + borrows - reserves)`"
      }
    }
  }
}