{
  "contractName": "Maximillion",
  "abi": [
    {
      "inputs": [
        {
          "internalType": "contract CEther",
          "name": "cEther_",
          "type": "address"
        }
      ],
      "payable": false,
      "stateMutability": "nonpayable",
      "type": "constructor"
    },
    {
      "constant": true,
      "inputs": [],
      "name": "cEther",
      "outputs": [
        {
          "internalType": "contract CEther",
          "name": "",
          "type": "address"
        }
      ],
      "payable": false,
      "stateMutability": "view",
      "type": "function"
    },
    {
      "constant": false,
      "inputs": [
        {
          "internalType": "address",
          "name": "borrower",
          "type": "address"
        }
      ],
      "name": "repayBehalf",
      "outputs": [],
      "payable": true,
      "stateMutability": "payable",
      "type": "function"
    },
    {
      "constant": false,
      "inputs": [
        {
          "internalType": "address",
          "name": "borrower",
          "type": "address"
        },
        {
          "internalType": "contract CEther",
          "name": "cEther_",
          "type": "address"
        }
      ],
      "name": "repayBehalfExplicit",
      "outputs": [],
      "payable": true,
      "stateMutability": "payable",
      "type": "function"
    }
  ],
  "bytecode": "0x608060405234801561001057600080fd5b506040516104a43803806104a48339818101604052602081101561003357600080fd5b8101908080519060200190929190505050806000806101000a81548173ffffffffffffffffffffffffffffffffffffffff021916908373ffffffffffffffffffffffffffffffffffffffff16021790555050610410806100946000396000f3fe6080604052600436106100345760003560e01c806319b68c0014610039578063367b7f05146100905780639f35c3d5146100f4575b600080fd5b34801561004557600080fd5b5061004e610138565b604051808273ffffffffffffffffffffffffffffffffffffffff1673ffffffffffffffffffffffffffffffffffffffff16815260200191505060405180910390f35b6100f2600480360360408110156100a657600080fd5b81019080803573ffffffffffffffffffffffffffffffffffffffff169060200190929190803573ffffffffffffffffffffffffffffffffffffffff16906020019092919050505061015d565b005b6101366004803603602081101561010a57600080fd5b81019080803573ffffffffffffffffffffffffffffffffffffffff1690602001909291905050506103ad565b005b6000809054906101000a900473ffffffffffffffffffffffffffffffffffffffff1681565b600034905060008273ffffffffffffffffffffffffffffffffffffffff166317bfdfbc856040518263ffffffff1660e01b8152600401808273ffffffffffffffffffffffffffffffffffffffff1673ffffffffffffffffffffffffffffffffffffffff168152602001915050602060405180830381600087803b1580156101e357600080fd5b505af11580156101f7573d6000803e3d6000fd5b505050506040513d602081101561020d57600080fd5b810190808051906020019092919050505090508082111561030e578273ffffffffffffffffffffffffffffffffffffffff1663e597461982866040518363ffffffff1660e01b8152600401808273ffffffffffffffffffffffffffffffffffffffff1673ffffffffffffffffffffffffffffffffffffffff1681526020019150506000604051808303818588803b1580156102a757600080fd5b505af11580156102bb573d6000803e3d6000fd5b50505050503373ffffffffffffffffffffffffffffffffffffffff166108fc8284039081150290604051600060405180830381858888f19350505050158015610308573d6000803e3d6000fd5b506103a7565b8273ffffffffffffffffffffffffffffffffffffffff1663e597461983866040518363ffffffff1660e01b8152600401808273ffffffffffffffffffffffffffffffffffffffff1673ffffffffffffffffffffffffffffffffffffffff1681526020019150506000604051808303818588803b15801561038d57600080fd5b505af11580156103a1573d6000803e3d6000fd5b50505050505b50505050565b6103d8816000809054906101000a900473ffffffffffffffffffffffffffffffffffffffff1661015d565b5056fea265627a7a72315820725a6f7a62e62238b0cdd4f38eec2f03f9e480b06ec4247ccd411eb4f00194e264736f6c63430005110032",
  "source": "pragma solidity ^0.5.16;\r\n\r\nimport \"./CEther.sol\";\r\n\r\n/**\r\n * @title Compound's Maximillion Contract\r\n * @author Compound\r\n */\r\ncontract Maximillion {\r\n    /**\r\n     * @notice The default cEther market to repay in\r\n     */\r\n    CEther public cEther;\r\n\r\n    /**\r\n     * @notice Construct a Maximillion to repay max in a CEther market\r\n     */\r\n    constructor(CEther cEther_) public {\r\n        cEther = cEther_;\r\n    }\r\n\r\n    /**\r\n     * @notice msg.sender sends Ether to repay an account's borrow in the cEther market\r\n     * @dev The provided Ether is applied towards the borrow balance, any excess is refunded\r\n     * @param borrower The address of the borrower account to repay on behalf of\r\n     */\r\n    function repayBehalf(address borrower) public payable {\r\n        repayBehalfExplicit(borrower, cEther);\r\n    }\r\n\r\n    /**\r\n     * @notice msg.sender sends Ether to repay an account's borrow in a cEther market\r\n     * @dev The provided Ether is applied towards the borrow balance, any excess is refunded\r\n     * @param borrower The address of the borrower account to repay on behalf of\r\n     * @param cEther_ The address of the cEther contract to repay in\r\n     */\r\n    function repayBehalfExplicit(address borrower, CEther cEther_) public payable {\r\n        uint received = msg.value;\r\n        uint borrows = cEther_.borrowBalanceCurrent(borrower);\r\n        if (received > borrows) {\r\n            cEther_.repayBorrowBehalf.value(borrows)(borrower);\r\n            msg.sender.transfer(received - borrows);\r\n        } else {\r\n            cEther_.repayBorrowBehalf.value(received)(borrower);\r\n        }\r\n    }\r\n}\r\n",
  "sourcePath": "C:\\Users\\pillardev\\Desktop\\Compound2.0\\compoundv2\\contracts\\Maximillion.sol",
  "compiler": {
    "name": "solc",
    "version": "0.5.17+commit.d19bba13.Emscripten.clang"
  },
  "schemaVersion": "3.0.23",
  "updatedAt": "2020-05-11T11:38:56.356Z",
  "devdoc": {
    "author": "Compound",
    "methods": {
      "repayBehalf(address)": {
        "details": "The provided Ether is applied towards the borrow balance, any excess is refunded",
        "params": {
          "borrower": "The address of the borrower account to repay on behalf of"
        }
      },
      "repayBehalfExplicit(address,address)": {
        "details": "The provided Ether is applied towards the borrow balance, any excess is refunded",
        "params": {
          "borrower": "The address of the borrower account to repay on behalf of",
          "cEther_": "The address of the cEther contract to repay in"
        }
      }
    },
    "title": "Compound's Maximillion Contract"
  },
  "userdoc": {
    "methods": {
      "constructor": "Construct a Maximillion to repay max in a CEther market",
      "repayBehalf(address)": {
        "notice": "msg.sender sends Ether to repay an account's borrow in the cEther market"
      },
      "repayBehalfExplicit(address,address)": {
        "notice": "msg.sender sends Ether to repay an account's borrow in a cEther market"
      }
    }
  }
}