{
  "contractName": "WhitePaperInterestRateModel",
  "abi": [
    {
      "inputs": [
        {
          "internalType": "uint256",
          "name": "baseRatePerYear",
          "type": "uint256"
        },
        {
          "internalType": "uint256",
          "name": "multiplierPerYear",
          "type": "uint256"
        }
      ],
      "payable": false,
      "stateMutability": "nonpayable",
      "type": "constructor"
    },
    {
      "anonymous": false,
      "inputs": [
        {
          "indexed": true,
          "internalType": "address",
          "name": "newAdmin",
          "type": "address"
        }
      ],
      "name": "NewAdmin",
      "type": "event"
    },
    {
      "anonymous": false,
      "inputs": [
        {
          "indexed": false,
          "internalType": "uint256",
          "name": "baseRatePerBlock",
          "type": "uint256"
        },
        {
          "indexed": false,
          "internalType": "uint256",
          "name": "multiplierPerBlock",
          "type": "uint256"
        }
      ],
      "name": "NewInterestParams",
      "type": "event"
    },
    {
      "anonymous": false,
      "inputs": [
        {
          "indexed": true,
          "internalType": "address",
          "name": "newPendingAdmin",
          "type": "address"
        }
      ],
      "name": "NewPendingAdmin",
      "type": "event"
    },
    {
      "constant": true,
      "inputs": [],
      "name": "admin",
      "outputs": [
        {
          "internalType": "address",
          "name": "",
          "type": "address"
        }
      ],
      "payable": false,
      "stateMutability": "view",
      "type": "function"
    },
    {
      "constant": true,
      "inputs": [],
      "name": "baseRatePerBlock",
      "outputs": [
        {
          "internalType": "uint256",
          "name": "",
          "type": "uint256"
        }
      ],
      "payable": false,
      "stateMutability": "view",
      "type": "function"
    },
    {
      "constant": true,
      "inputs": [],
      "name": "blocksPerYear",
      "outputs": [
        {
          "internalType": "uint256",
          "name": "",
          "type": "uint256"
        }
      ],
      "payable": false,
      "stateMutability": "view",
      "type": "function"
    },
    {
      "constant": true,
      "inputs": [],
      "name": "isInterestRateModel",
      "outputs": [
        {
          "internalType": "bool",
          "name": "",
          "type": "bool"
        }
      ],
      "payable": false,
      "stateMutability": "view",
      "type": "function"
    },
    {
      "constant": true,
      "inputs": [],
      "name": "multiplierPerBlock",
      "outputs": [
        {
          "internalType": "uint256",
          "name": "",
          "type": "uint256"
        }
      ],
      "payable": false,
      "stateMutability": "view",
      "type": "function"
    },
    {
      "constant": true,
      "inputs": [],
      "name": "pendingAdmin",
      "outputs": [
        {
          "internalType": "address",
          "name": "",
          "type": "address"
        }
      ],
      "payable": false,
      "stateMutability": "view",
      "type": "function"
    },
    {
      "constant": true,
      "inputs": [
        {
          "internalType": "uint256",
          "name": "cash",
          "type": "uint256"
        },
        {
          "internalType": "uint256",
          "name": "borrows",
          "type": "uint256"
        },
        {
          "internalType": "uint256",
          "name": "reserves",
          "type": "uint256"
        }
      ],
      "name": "utilizationRate",
      "outputs": [
        {
          "internalType": "uint256",
          "name": "",
          "type": "uint256"
        }
      ],
      "payable": false,
      "stateMutability": "pure",
      "type": "function"
    },
    {
      "constant": true,
      "inputs": [
        {
          "internalType": "uint256",
          "name": "cash",
          "type": "uint256"
        },
        {
          "internalType": "uint256",
          "name": "borrows",
          "type": "uint256"
        },
        {
          "internalType": "uint256",
          "name": "reserves",
          "type": "uint256"
        }
      ],
      "name": "getBorrowRate",
      "outputs": [
        {
          "internalType": "uint256",
          "name": "",
          "type": "uint256"
        }
      ],
      "payable": false,
      "stateMutability": "view",
      "type": "function"
    },
    {
      "constant": true,
      "inputs": [
        {
          "internalType": "uint256",
          "name": "cash",
          "type": "uint256"
        },
        {
          "internalType": "uint256",
          "name": "borrows",
          "type": "uint256"
        },
        {
          "internalType": "uint256",
          "name": "reserves",
          "type": "uint256"
        },
        {
          "internalType": "uint256",
          "name": "reserveFactorMantissa",
          "type": "uint256"
        }
      ],
      "name": "getSupplyRate",
      "outputs": [
        {
          "internalType": "uint256",
          "name": "",
          "type": "uint256"
        }
      ],
      "payable": false,
      "stateMutability": "view",
      "type": "function"
    },
    {
      "constant": false,
      "inputs": [],
      "name": "acceptAdmin",
      "outputs": [],
      "payable": false,
      "stateMutability": "nonpayable",
      "type": "function"
    },
    {
      "constant": false,
      "inputs": [
        {
          "internalType": "address",
          "name": "pendingAdmin_",
          "type": "address"
        }
      ],
      "name": "setPendingAdmin",
      "outputs": [],
      "payable": false,
      "stateMutability": "nonpayable",
      "type": "function"
    },
    {
      "constant": false,
      "inputs": [
        {
          "internalType": "uint256",
          "name": "newMultiplier",
          "type": "uint256"
        }
      ],
      "name": "setUtilizationRate",
      "outputs": [],
      "payable": false,
      "stateMutability": "nonpayable",
      "type": "function"
    },
    {
      "constant": false,
      "inputs": [
        {
          "internalType": "uint256",
          "name": "newBaseRate",
          "type": "uint256"
        }
      ],
      "name": "setBaseRatePerBlock",
      "outputs": [],
      "payable": false,
      "stateMutability": "nonpayable",
      "type": "function"
    }
  ],
  "bytecode": "0x608060405234801561001057600080fd5b506040516110113803806110118339818101604052604081101561003357600080fd5b810190808051906020019092919080519060200190929190505050610068622014808361011960201b610a321790919060201c565b600181905550610088622014808261011960201b610a321790919060201c565b60008190555033600260006101000a81548173ffffffffffffffffffffffffffffffffffffffff021916908373ffffffffffffffffffffffffffffffffffffffff1602179055507ff35fa19c15e9ba782633a5df62a98b20217151addc68e3ff2cd623a48d37ec27600154600054604051808381526020018281526020019250505060405180910390a1505061022f565b600061016183836040518060400160405280601a81526020017f536166654d6174683a206469766973696f6e206279207a65726f00000000000081525061016960201b60201c565b905092915050565b60008083118290610215576040517f08c379a00000000000000000000000000000000000000000000000000000000081526004018080602001828103825283818151815260200191508051906020019080838360005b838110156101da5780820151818401526020810190506101bf565b50505050905090810190601f1680156102075780820380516001836020036101000a031916815260200191505b509250505060405180910390fd5b50600083858161022157fe5b049050809150509392505050565b610dd38061023e6000396000f3fe608060405234801561001057600080fd5b50600436106100cf5760003560e01c80636493ca9b1161008c578063a385fb9611610066578063a385fb96146102b4578063b8168816146102d2578063f14039de14610332578063f851a44014610350576100cf565b80636493ca9b146102125780636e71e2d8146102405780638726bb8914610296576100cf565b80630e18b681146100d457806315f24053146100de5780632191f92a14610134578063267822471461015657806340774ff6146101a05780634dd18bf5146101ce575b600080fd5b6100dc61039a565b005b61011e600480360360608110156100f457600080fd5b8101908080359060200190929190803590602001909291908035906020019092919050505061052a565b6040518082815260200191505060405180910390f35b61013c610587565b604051808215151515815260200191505060405180910390f35b61015e61058c565b604051808273ffffffffffffffffffffffffffffffffffffffff1673ffffffffffffffffffffffffffffffffffffffff16815260200191505060405180910390f35b6101cc600480360360208110156101b657600080fd5b81019080803590602001909291905050506105b2565b005b610210600480360360208110156101e457600080fd5b81019080803573ffffffffffffffffffffffffffffffffffffffff169060200190929190505050610662565b005b61023e6004803603602081101561022857600080fd5b81019080803590602001909291905050506107b1565b005b6102806004803603606081101561025657600080fd5b81019080803590602001909291908035906020019092919080359060200190929190505050610861565b6040518082815260200191505060405180910390f35b61029e6108cf565b6040518082815260200191505060405180910390f35b6102bc6108d5565b6040518082815260200191505060405180910390f35b61031c600480360360808110156102e857600080fd5b81019080803590602001909291908035906020019092919080359060200190929190803590602001909291905050506108dc565b6040518082815260200191505060405180910390f35b61033a610980565b6040518082815260200191505060405180910390f35b610358610986565b604051808273ffffffffffffffffffffffffffffffffffffffff1673ffffffffffffffffffffffffffffffffffffffff16815260200191505060405180910390f35b600360009054906101000a900473ffffffffffffffffffffffffffffffffffffffff1673ffffffffffffffffffffffffffffffffffffffff163373ffffffffffffffffffffffffffffffffffffffff1614610440576040517f08c379a000000000000000000000000000000000000000000000000000000000815260040180806020018281038252604b815260200180610cd5604b913960600191505060405180910390fd5b33600260006101000a81548173ffffffffffffffffffffffffffffffffffffffff021916908373ffffffffffffffffffffffffffffffffffffffff1602179055506000600360006101000a81548173ffffffffffffffffffffffffffffffffffffffff021916908373ffffffffffffffffffffffffffffffffffffffff160217905550600260009054906101000a900473ffffffffffffffffffffffffffffffffffffffff1673ffffffffffffffffffffffffffffffffffffffff167f71614071b88dee5e0b2ae578a9dd7b2ebbe9ae832ba419dc0242cd065a290b6c60405160405180910390a2565b600080610538858585610861565b905061057d60015461056f670de0b6b3a7640000610561600054866109ac90919063ffffffff16565b610a3290919063ffffffff16565b610a7c90919063ffffffff16565b9150509392505050565b600181565b600360009054906101000a900473ffffffffffffffffffffffffffffffffffffffff1681565b600260009054906101000a900473ffffffffffffffffffffffffffffffffffffffff1673ffffffffffffffffffffffffffffffffffffffff163373ffffffffffffffffffffffffffffffffffffffff1614610658576040517f08c379a000000000000000000000000000000000000000000000000000000000815260040180806020018281038252605e815260200180610d41605e913960600191505060405180910390fd5b8060008190555050565b600260009054906101000a900473ffffffffffffffffffffffffffffffffffffffff1673ffffffffffffffffffffffffffffffffffffffff163373ffffffffffffffffffffffffffffffffffffffff1614610708576040517f08c379a000000000000000000000000000000000000000000000000000000000815260040180806020018281038252605e815260200180610d41605e913960600191505060405180910390fd5b80600360006101000a81548173ffffffffffffffffffffffffffffffffffffffff021916908373ffffffffffffffffffffffffffffffffffffffff160217905550600360009054906101000a900473ffffffffffffffffffffffffffffffffffffffff1673ffffffffffffffffffffffffffffffffffffffff167f69d78e38a01985fbb1462961809b4b2d65531bc93b2b94037f3334b82ca4a75660405160405180910390a250565b600260009054906101000a900473ffffffffffffffffffffffffffffffffffffffff1673ffffffffffffffffffffffffffffffffffffffff163373ffffffffffffffffffffffffffffffffffffffff1614610857576040517f08c379a000000000000000000000000000000000000000000000000000000000815260040180806020018281038252605e815260200180610d41605e913960600191505060405180910390fd5b8060018190555050565b60008083141561087457600090506108c8565b6108c561089c8361088e8688610a7c90919063ffffffff16565b610b0490919063ffffffff16565b6108b7670de0b6b3a7640000866109ac90919063ffffffff16565b610a3290919063ffffffff16565b90505b9392505050565b60005481565b6220148081565b6000806108fa83670de0b6b3a7640000610b0490919063ffffffff16565b9050600061090987878761052a565b9050600061093a670de0b6b3a764000061092c85856109ac90919063ffffffff16565b610a3290919063ffffffff16565b9050610973670de0b6b3a7640000610965836109578c8c8c610861565b6109ac90919063ffffffff16565b610a3290919063ffffffff16565b9350505050949350505050565b60015481565b600260009054906101000a900473ffffffffffffffffffffffffffffffffffffffff1681565b6000808314156109bf5760009050610a2c565b60008284029050828482816109d057fe5b0414610a27576040517f08c379a0000000000000000000000000000000000000000000000000000000008152600401808060200182810382526021815260200180610d206021913960400191505060405180910390fd5b809150505b92915050565b6000610a7483836040518060400160405280601a81526020017f536166654d6174683a206469766973696f6e206279207a65726f000000000000815250610b4e565b905092915050565b600080828401905083811015610afa576040517f08c379a000000000000000000000000000000000000000000000000000000000815260040180806020018281038252601b8152602001807f536166654d6174683a206164646974696f6e206f766572666c6f77000000000081525060200191505060405180910390fd5b8091505092915050565b6000610b4683836040518060400160405280601f81526020017f536166654d6174683a207375627472616374696f6e20756e646572666c6f7700815250610c14565b905092915050565b60008083118290610bfa576040517f08c379a00000000000000000000000000000000000000000000000000000000081526004018080602001828103825283818151815260200191508051906020019080838360005b83811015610bbf578082015181840152602081019050610ba4565b50505050905090810190601f168015610bec5780820380516001836020036101000a031916815260200191505b509250505060405180910390fd5b506000838581610c0657fe5b049050809150509392505050565b6000838311158290610cc1576040517f08c379a00000000000000000000000000000000000000000000000000000000081526004018080602001828103825283818151815260200191508051906020019080838360005b83811015610c86578082015181840152602081019050610c6b565b50505050905090810190601f168015610cb35780820380516001836020036101000a031916815260200191505b509250505060405180910390fd5b506000838503905080915050939250505056fe57686974655061706572496e746572657374526174654d6f64656c3a3a61636365707441646d696e3a2043616c6c206d75737420636f6d652066726f6d2070656e64696e6741646d696e2e536166654d6174683a206d756c7469706c69636174696f6e206f766572666c6f7757686974655061706572496e746572657374526174654d6f64656c3a3a73657450656e64696e6741646d696e3a2043616c6c206d75737420636f6d652066726f6d2057686974655061706572496e746572657374526174654d6f64656c2ea265627a7a72315820077a1487dd33cb6cb7bfc28d9d75ca5ea1f95d6aac8f338c582d61990f61e41c64736f6c63430005110032",
  "source": "pragma solidity ^0.5.16;\r\n\r\nimport \"./InterestRateModel.sol\";\r\nimport \"./SafeMath.sol\";\r\n\r\n/**\r\n  * @title Compound's WhitePaperInterestRateModel Contract\r\n  * @author Compound\r\n  * @notice The parameterized model described in section 2.4 of the original Compound Protocol whitepaper\r\n  */\r\ncontract WhitePaperInterestRateModel is InterestRateModel {\r\n    using SafeMath for uint;\r\n\r\n    event NewInterestParams(uint baseRatePerBlock, uint multiplierPerBlock);\r\n    event NewAdmin(address indexed newAdmin);\r\n    event NewPendingAdmin(address indexed newPendingAdmin);\r\n\r\n    /**\r\n     * @notice The approximate number of blocks per year that is assumed by the interest rate model\r\n     */\r\n    uint public constant blocksPerYear = 2102400;\r\n\r\n    /**\r\n     * @notice The multiplier of utilization rate that gives the slope of the interest rate\r\n     */\r\n    uint public multiplierPerBlock;\r\n\r\n    /**\r\n     * @notice The base interest rate which is the y-intercept when utilization rate is 0\r\n     */\r\n    uint public baseRatePerBlock;\r\n\r\n\r\n    address public admin;\r\n    address public pendingAdmin;\r\n    /**\r\n     * @notice Construct an interest rate model\r\n     * @param baseRatePerYear The approximate target base APR, as a mantissa (scaled by 1e18)\r\n     * @param multiplierPerYear The rate of increase in interest rate wrt utilization (scaled by 1e18)\r\n     */\r\n    constructor(uint baseRatePerYear, uint multiplierPerYear) public {\r\n        baseRatePerBlock = baseRatePerYear.div(blocksPerYear);\r\n        multiplierPerBlock = multiplierPerYear.div(blocksPerYear);\r\n        admin = msg.sender;\r\n\r\n    emit NewInterestParams(baseRatePerBlock, multiplierPerBlock);\r\n    }\r\n\r\n    /**\r\n     * @notice Calculates the utilization rate of the market: `borrows / (cash + borrows - reserves)`\r\n     * @param cash The amount of cash in the market\r\n     * @param borrows The amount of borrows in the market\r\n     * @param reserves The amount of reserves in the market (currently unused)\r\n     * @return The utilization rate as a mantissa between [0, 1e18]\r\n     */\r\n    function utilizationRate(uint cash, uint borrows, uint reserves) public pure returns (uint) {\r\n        // Utilization rate is 0 when there are no borrows\r\n        if (borrows == 0) {\r\n            return 0;\r\n        }\r\n\r\n        return borrows.mul(1e18).div(cash.add(borrows).sub(reserves));\r\n    }\r\n\r\n    /**\r\n     * @notice Calculates the current borrow rate per block, with the error code expected by the market\r\n     * @param cash The amount of cash in the market\r\n     * @param borrows The amount of borrows in the market\r\n     * @param reserves The amount of reserves in the market\r\n     * @return The borrow rate percentage per block as a mantissa (scaled by 1e18)\r\n     */\r\n    function getBorrowRate(uint cash, uint borrows, uint reserves) public view returns (uint) {\r\n        uint ur = utilizationRate(cash, borrows, reserves);\r\n        return ur.mul(multiplierPerBlock).div(1e18).add(baseRatePerBlock);\r\n    }\r\n\r\n    /**\r\n     * @notice Calculates the current supply rate per block\r\n     * @param cash The amount of cash in the market\r\n     * @param borrows The amount of borrows in the market\r\n     * @param reserves The amount of reserves in the market\r\n     * @param reserveFactorMantissa The current reserve factor for the market\r\n     * @return The supply rate percentage per block as a mantissa (scaled by 1e18)\r\n     */\r\n    function getSupplyRate(uint cash, uint borrows, uint reserves, uint reserveFactorMantissa) public view returns (uint) {\r\n        uint oneMinusReserveFactor = uint(1e18).sub(reserveFactorMantissa);\r\n        uint borrowRate = getBorrowRate(cash, borrows, reserves);\r\n        uint rateToPool = borrowRate.mul(oneMinusReserveFactor).div(1e18);\r\n        return utilizationRate(cash, borrows, reserves).mul(rateToPool).div(1e18);\r\n    }\r\n\r\n    // todo \r\n    function acceptAdmin() public {\r\n        require(msg.sender == pendingAdmin, \"WhitePaperInterestRateModel::acceptAdmin: Call must come from pendingAdmin.\");\r\n        admin = msg.sender;\r\n        pendingAdmin = address(0);\r\n\r\n        emit NewAdmin(admin);\r\n    }\r\n\r\n    function setPendingAdmin(address pendingAdmin_) public {\r\n        require(msg.sender == admin, \"WhitePaperInterestRateModel::setPendingAdmin: Call must come from WhitePaperInterestRateModel.\");\r\n        pendingAdmin = pendingAdmin_;\r\n\r\n        emit NewPendingAdmin(pendingAdmin);\r\n    }\r\n\r\n    function setUtilizationRate(uint newMultiplier) public {\r\n        require(msg.sender == admin, \"WhitePaperInterestRateModel::setPendingAdmin: Call must come from WhitePaperInterestRateModel.\");\r\n\r\n        multiplierPerBlock = newMultiplier;\r\n    }\r\n\r\n    function setBaseRatePerBlock(uint newBaseRate) public {\r\n        require(msg.sender == admin, \"WhitePaperInterestRateModel::setPendingAdmin: Call must come from WhitePaperInterestRateModel.\");\r\n\r\n        baseRatePerBlock = newBaseRate;\r\n    }\r\n}",
  "sourcePath": "C:\\Users\\pillardev\\Desktop\\Compound2.0\\compoundv2\\contracts\\WhitePaperInterestRateModel.sol",
  "compiler": {
    "name": "solc",
    "version": "0.5.17+commit.d19bba13.Emscripten.clang"
  },
  "schemaVersion": "3.0.23",
  "updatedAt": "2020-05-11T11:46:50.452Z",
  "networkType": "ethereum",
  "devdoc": {
    "author": "Compound",
    "methods": {
      "constructor": {
        "params": {
          "baseRatePerYear": "The approximate target base APR, as a mantissa (scaled by 1e18)",
          "multiplierPerYear": "The rate of increase in interest rate wrt utilization (scaled by 1e18)"
        }
      },
      "getBorrowRate(uint256,uint256,uint256)": {
        "params": {
          "borrows": "The amount of borrows in the market",
          "cash": "The amount of cash in the market",
          "reserves": "The amount of reserves in the market"
        },
        "return": "The borrow rate percentage per block as a mantissa (scaled by 1e18)"
      },
      "getSupplyRate(uint256,uint256,uint256,uint256)": {
        "params": {
          "borrows": "The amount of borrows in the market",
          "cash": "The amount of cash in the market",
          "reserveFactorMantissa": "The current reserve factor for the market",
          "reserves": "The amount of reserves in the market"
        },
        "return": "The supply rate percentage per block as a mantissa (scaled by 1e18)"
      },
      "utilizationRate(uint256,uint256,uint256)": {
        "params": {
          "borrows": "The amount of borrows in the market",
          "cash": "The amount of cash in the market",
          "reserves": "The amount of reserves in the market (currently unused)"
        },
        "return": "The utilization rate as a mantissa between [0, 1e18]"
      }
    },
    "title": "Compound's WhitePaperInterestRateModel Contract"
  },
  "userdoc": {
    "methods": {
      "constructor": "Construct an interest rate model",
      "getBorrowRate(uint256,uint256,uint256)": {
        "notice": "Calculates the current borrow rate per block, with the error code expected by the market"
      },
      "getSupplyRate(uint256,uint256,uint256,uint256)": {
        "notice": "Calculates the current supply rate per block"
      },
      "utilizationRate(uint256,uint256,uint256)": {
        "notice": "Calculates the utilization rate of the market: `borrows / (cash + borrows - reserves)`"
      }
    },
    "notice": "The parameterized model described in section 2.4 of the original Compound Protocol whitepaper"
  }
}