{
  "contractName": "WhitePaperInterestRateModel_V1",
  "abi": [
    {
      "inputs": [
        {
          "internalType": "uint256",
          "name": "baseRate_",
          "type": "uint256"
        },
        {
          "internalType": "uint256",
          "name": "multiplier_",
          "type": "uint256"
        }
      ],
      "payable": false,
      "stateMutability": "nonpayable",
      "type": "constructor"
    },
    {
      "anonymous": false,
      "inputs": [
        {
          "indexed": false,
          "internalType": "address",
          "name": "_owner",
          "type": "address"
        },
        {
          "indexed": false,
          "internalType": "address",
          "name": "newOwner",
          "type": "address"
        }
      ],
      "name": "AdminTransferred",
      "type": "event"
    },
    {
      "anonymous": false,
      "inputs": [
        {
          "indexed": false,
          "internalType": "uint256",
          "name": "baseRatePerBlock",
          "type": "uint256"
        },
        {
          "indexed": false,
          "internalType": "uint256",
          "name": "multiplierPerBlock",
          "type": "uint256"
        }
      ],
      "name": "NewInterestParams",
      "type": "event"
    },
    {
      "constant": true,
      "inputs": [],
      "name": "admin",
      "outputs": [
        {
          "internalType": "address",
          "name": "",
          "type": "address"
        }
      ],
      "payable": false,
      "stateMutability": "view",
      "type": "function"
    },
    {
      "constant": true,
      "inputs": [],
      "name": "baseRate",
      "outputs": [
        {
          "internalType": "uint256",
          "name": "",
          "type": "uint256"
        }
      ],
      "payable": false,
      "stateMutability": "view",
      "type": "function"
    },
    {
      "constant": true,
      "inputs": [],
      "name": "blocksPerYear",
      "outputs": [
        {
          "internalType": "uint256",
          "name": "",
          "type": "uint256"
        }
      ],
      "payable": false,
      "stateMutability": "view",
      "type": "function"
    },
    {
      "constant": true,
      "inputs": [],
      "name": "isInterestRateModel",
      "outputs": [
        {
          "internalType": "bool",
          "name": "",
          "type": "bool"
        }
      ],
      "payable": false,
      "stateMutability": "view",
      "type": "function"
    },
    {
      "constant": true,
      "inputs": [],
      "name": "multiplier",
      "outputs": [
        {
          "internalType": "uint256",
          "name": "",
          "type": "uint256"
        }
      ],
      "payable": false,
      "stateMutability": "view",
      "type": "function"
    },
    {
      "constant": true,
      "inputs": [
        {
          "internalType": "uint256",
          "name": "cash",
          "type": "uint256"
        },
        {
          "internalType": "uint256",
          "name": "borrows",
          "type": "uint256"
        },
        {
          "internalType": "uint256",
          "name": "_reserves",
          "type": "uint256"
        }
      ],
      "name": "getBorrowRate",
      "outputs": [
        {
          "internalType": "uint256",
          "name": "",
          "type": "uint256"
        },
        {
          "internalType": "uint256",
          "name": "",
          "type": "uint256"
        }
      ],
      "payable": false,
      "stateMutability": "view",
      "type": "function"
    },
    {
      "constant": false,
      "inputs": [
        {
          "internalType": "address",
          "name": "_newAdmin",
          "type": "address"
        }
      ],
      "name": "transferOwnership",
      "outputs": [],
      "payable": false,
      "stateMutability": "nonpayable",
      "type": "function"
    },
    {
      "constant": false,
      "inputs": [
        {
          "internalType": "uint256",
          "name": "newMultiplier",
          "type": "uint256"
        }
      ],
      "name": "setUtilizationRate",
      "outputs": [],
      "payable": false,
      "stateMutability": "nonpayable",
      "type": "function"
    },
    {
      "constant": false,
      "inputs": [
        {
          "internalType": "uint256",
          "name": "newBaseRate",
          "type": "uint256"
        }
      ],
      "name": "setBaseRatePerBlock",
      "outputs": [],
      "payable": false,
      "stateMutability": "nonpayable",
      "type": "function"
    }
  ],
  "bytecode": "0x608060405234801561001057600080fd5b506040516109803803806109808339818101604052604081101561003357600080fd5b508051602090910151600191909155600055600280546001600160a01b0319163317905561091a806100666000396000f3fe608060405234801561001057600080fd5b50600436106100935760003560e01c806340774ff61161006657806340774ff6146101185780636493ca9b14610137578063a385fb9614610154578063f2fde38b1461015c578063f851a4401461018257610093565b806315f24053146100985780631b3ed722146100da5780631f68f20a146100f45780632191f92a146100fc575b600080fd5b6100c1600480360360608110156100ae57600080fd5b50803590602081013590604001356101a6565b6040805192835260208301919091528051918290030190f35b6100e261023f565b60408051918252519081900360200190f35b6100e2610245565b61010461024b565b604080519115158252519081900360200190f35b6101356004803603602081101561012e57600080fd5b5035610250565b005b6101356004803603602081101561014d57600080fd5b503561029e565b6100e26102ec565b6101356004803603602081101561017257600080fd5b50356001600160a01b03166102f3565b61018a610401565b604080516001600160a01b039092168252519081900360200190f35b60008060006101b361084e565b6101bb61084e565b6101c58888610410565b9194509250905060008360048111156101da57fe5b146101fa578260048111156101eb57fe5b94506000935061023792505050565b600061020461084e565b610211836220148061058d565b9092509050600082600381111561022457fe5b1461022b57fe5b51600096509450505050505b935093915050565b60005481565b60015481565b600181565b6002546001600160a01b031633146102995760405162461bcd60e51b815260040180806020018281038252605e815260200180610888605e913960600191505060405180910390fd5b600055565b6002546001600160a01b031633146102e75760405162461bcd60e51b815260040180806020018281038252605e815260200180610888605e913960600191505060405180910390fd5b600155565b6220148081565b6002546001600160a01b03163314610352576040805162461bcd60e51b815260206004820152601e60248201527f61646d696e3a2063616c6c6572206973206e6f74207468652061646d696e0000604482015290519081900360640190fd5b6001600160a01b0381166103975760405162461bcd60e51b81526004018080602001828103825260268152602001806108626026913960400191505060405180910390fd5b600254604080516001600160a01b039283168152918316602083015280517ff8ccb027dfcd135e000e9d45e6cc2d662578a8825d4c45b5e32e0adf67e79ec69281900390910190a1600280546001600160a01b0319166001600160a01b0392909216919091179055565b6002546001600160a01b031681565b600061041a61084e565b61042261084e565b600061042c61084e565b61043687876105f7565b9092509050600082600481111561044957fe5b1461047757506040805160208082018352600080835283519182019093529182529194509092509050610586565b600061048161084e565b61048d836000546106b9565b909250905060008260038111156104a057fe5b146104d25750506040805160208082018352600080835283519182019093529182526003965094509250610586915050565b60006104dc61084e565b6104ee83670de0b6b3a764000061058d565b9092509050600082600381111561050157fe5b1461050857fe5b600061051261084e565b61052c8360405180602001604052806001548152506106d4565b9092509050600082600381111561053f57fe5b1461057557505060408051602080820183526000808352835191820190935291825260049a509850965061058695505050505050565b60009a509598509496505050505050505b9250925092565b600061059761084e565b6000806105a886600001518661070e565b909250905060008260038111156105bb57fe5b146105da575060408051602081019091526000815290925090506105f0565b6040805160208101909152908152600093509150505b9250929050565b600061060161084e565b8261061e57505060408051602081019091526000808252906105f0565b60008061062b8686610739565b9092509050600082600381111561063e57fe5b1461065f5750506040805160208101909152600081526001925090506105f0565b600061066961084e565b610673878461075f565b9092509050600082600381111561068657fe5b146106aa5750506040805160208101909152600081526002945092506105f0915050565b60009890975095505050505050565b60006106c361084e565b6000806105a886600001518661080f565b60006106de61084e565b6000806106f386600001518660000151610739565b60408051602081019091529081529097909650945050505050565b6000808261072257506001905060006105f0565b600083858161072d57fe5b04915091509250929050565b600080838301848110610751576000925090506105f0565b5060029150600090506105f0565b600061076961084e565b60008061077e86670de0b6b3a764000061080f565b9092509050600082600381111561079157fe5b146107b0575060408051602081019091526000815290925090506105f0565b6000806107bd838861070e565b909250905060008260038111156107d057fe5b146107f2575060408051602081019091526000815290945092506105f0915050565b604080516020810190915290815260009890975095505050505050565b60008083610822575060009050806105f0565b8383028385828161082f57fe5b0414610843575060029150600090506105f0565b6000925090506105f0565b604051806020016040528060008152509056fe4f776e61626c653a206e6577206f776e657220697320746865207a65726f206164647265737357686974655061706572496e746572657374526174654d6f64656c3a3a73657450656e64696e6741646d696e3a2043616c6c206d75737420636f6d652066726f6d2057686974655061706572496e746572657374526174654d6f64656c2ea265627a7a7231582000bce41161b49b3c7a501534ea8b707b878ea9d5ab104eae6e2ab2e79f7ae1a564736f6c63430005110032",
  "source": "pragma solidity ^0.5.8;\n\n/**\n  * @title Careful Math\n  * @author Compound\n  * @notice Derived from OpenZeppelin's SafeMath library\n  *         https://github.com/OpenZeppelin/openzeppelin-solidity/blob/master/contracts/math/SafeMath.sol\n  */\ncontract CarefulMath {\n\n    /**\n     * @dev Possible error codes that we can return\n     */\n    enum MathError {\n        NO_ERROR,\n        DIVISION_BY_ZERO,\n        INTEGER_OVERFLOW,\n        INTEGER_UNDERFLOW\n    }\n\n    /**\n    * @dev Multiplies two numbers, returns an error on overflow.\n    */\n    function mulUInt(uint a, uint b) internal pure returns (MathError, uint) {\n        if (a == 0) {\n            return (MathError.NO_ERROR, 0);\n        }\n\n        uint c = a * b;\n\n        if (c / a != b) {\n            return (MathError.INTEGER_OVERFLOW, 0);\n        } else {\n            return (MathError.NO_ERROR, c);\n        }\n    }\n\n    /**\n    * @dev Integer division of two numbers, truncating the quotient.\n    */\n    function divUInt(uint a, uint b) internal pure returns (MathError, uint) {\n        if (b == 0) {\n            return (MathError.DIVISION_BY_ZERO, 0);\n        }\n\n        return (MathError.NO_ERROR, a / b);\n    }\n\n    /**\n    * @dev Subtracts two numbers, returns an error on overflow (i.e. if subtrahend is greater than minuend).\n    */\n    function subUInt(uint a, uint b) internal pure returns (MathError, uint) {\n        if (b <= a) {\n            return (MathError.NO_ERROR, a - b);\n        } else {\n            return (MathError.INTEGER_UNDERFLOW, 0);\n        }\n    }\n\n    /**\n    * @dev Adds two numbers, returns an error on overflow.\n    */\n    function addUInt(uint a, uint b) internal pure returns (MathError, uint) {\n        uint c = a + b;\n\n        if (c >= a) {\n            return (MathError.NO_ERROR, c);\n        } else {\n            return (MathError.INTEGER_OVERFLOW, 0);\n        }\n    }\n\n    /**\n    * @dev add a and b and then subtract c\n    */\n    function addThenSubUInt(uint a, uint b, uint c) internal pure returns (MathError, uint) {\n        (MathError err0, uint sum) = addUInt(a, b);\n\n        if (err0 != MathError.NO_ERROR) {\n            return (err0, 0);\n        }\n\n        return subUInt(sum, c);\n    }\n}\n\n/**\n * @title Exponential module for storing fixed-decision decimals\n * @author Compound\n * @notice Exp is a struct which stores decimals with a fixed precision of 18 decimal places.\n *         Thus, if we wanted to store the 5.1, mantissa would store 5.1e18. That is:\n *         `Exp({mantissa: 5100000000000000000})`.\n */\ncontract Exponential is CarefulMath {\n    uint constant expScale = 1e18;\n    uint constant halfExpScale = expScale/2;\n    uint constant mantissaOne = expScale;\n\n    struct Exp {\n        uint mantissa;\n    }\n\n    /**\n     * @dev Creates an exponential from numerator and denominator values.\n     *      Note: Returns an error if (`num` * 10e18) > MAX_INT,\n     *            or if `denom` is zero.\n     */\n    function getExp(uint num, uint denom) pure internal returns (MathError, Exp memory) {\n        (MathError err0, uint scaledNumerator) = mulUInt(num, expScale);\n        if (err0 != MathError.NO_ERROR) {\n            return (err0, Exp({mantissa: 0}));\n        }\n\n        (MathError err1, uint rational) = divUInt(scaledNumerator, denom);\n        if (err1 != MathError.NO_ERROR) {\n            return (err1, Exp({mantissa: 0}));\n        }\n\n        return (MathError.NO_ERROR, Exp({mantissa: rational}));\n    }\n\n    /**\n     * @dev Adds two exponentials, returning a new exponential.\n     */\n    function addExp(Exp memory a, Exp memory b) pure internal returns (MathError, Exp memory) {\n        (MathError error, uint result) = addUInt(a.mantissa, b.mantissa);\n\n        return (error, Exp({mantissa: result}));\n    }\n\n    /**\n     * @dev Subtracts two exponentials, returning a new exponential.\n     */\n    function subExp(Exp memory a, Exp memory b) pure internal returns (MathError, Exp memory) {\n        (MathError error, uint result) = subUInt(a.mantissa, b.mantissa);\n\n        return (error, Exp({mantissa: result}));\n    }\n\n    /**\n     * @dev Multiply an Exp by a scalar, returning a new Exp.\n     */\n    function mulScalar(Exp memory a, uint scalar) pure internal returns (MathError, Exp memory) {\n        (MathError err0, uint scaledMantissa) = mulUInt(a.mantissa, scalar);\n        if (err0 != MathError.NO_ERROR) {\n            return (err0, Exp({mantissa: 0}));\n        }\n\n        return (MathError.NO_ERROR, Exp({mantissa: scaledMantissa}));\n    }\n\n    /**\n     * @dev Multiply an Exp by a scalar, then truncate to return an unsigned integer.\n     */\n    function mulScalarTruncate(Exp memory a, uint scalar) pure internal returns (MathError, uint) {\n        (MathError err, Exp memory product) = mulScalar(a, scalar);\n        if (err != MathError.NO_ERROR) {\n            return (err, 0);\n        }\n\n        return (MathError.NO_ERROR, truncate(product));\n    }\n\n    /**\n     * @dev Multiply an Exp by a scalar, truncate, then add an to an unsigned integer, returning an unsigned integer.\n     */\n    function mulScalarTruncateAddUInt(Exp memory a, uint scalar, uint addend) pure internal returns (MathError, uint) {\n        (MathError err, Exp memory product) = mulScalar(a, scalar);\n        if (err != MathError.NO_ERROR) {\n            return (err, 0);\n        }\n\n        return addUInt(truncate(product), addend);\n    }\n\n    /**\n     * @dev Divide an Exp by a scalar, returning a new Exp.\n     */\n    function divScalar(Exp memory a, uint scalar) pure internal returns (MathError, Exp memory) {\n        (MathError err0, uint descaledMantissa) = divUInt(a.mantissa, scalar);\n        if (err0 != MathError.NO_ERROR) {\n            return (err0, Exp({mantissa: 0}));\n        }\n\n        return (MathError.NO_ERROR, Exp({mantissa: descaledMantissa}));\n    }\n\n    /**\n     * @dev Divide a scalar by an Exp, returning a new Exp.\n     */\n    function divScalarByExp(uint scalar, Exp memory divisor) pure internal returns (MathError, Exp memory) {\n        /*\n          We are doing this as:\n          getExp(mulUInt(expScale, scalar), divisor.mantissa)\n\n          How it works:\n          Exp = a / b;\n          Scalar = s;\n          `s / (a / b)` = `b * s / a` and since for an Exp `a = mantissa, b = expScale`\n        */\n        (MathError err0, uint numerator) = mulUInt(expScale, scalar);\n        if (err0 != MathError.NO_ERROR) {\n            return (err0, Exp({mantissa: 0}));\n        }\n        return getExp(numerator, divisor.mantissa);\n    }\n\n    /**\n     * @dev Divide a scalar by an Exp, then truncate to return an unsigned integer.\n     */\n    function divScalarByExpTruncate(uint scalar, Exp memory divisor) pure internal returns (MathError, uint) {\n        (MathError err, Exp memory fraction) = divScalarByExp(scalar, divisor);\n        if (err != MathError.NO_ERROR) {\n            return (err, 0);\n        }\n\n        return (MathError.NO_ERROR, truncate(fraction));\n    }\n\n    /**\n     * @dev Multiplies two exponentials, returning a new exponential.\n     */\n    function mulExp(Exp memory a, Exp memory b) pure internal returns (MathError, Exp memory) {\n\n        (MathError err0, uint doubleScaledProduct) = mulUInt(a.mantissa, b.mantissa);\n        if (err0 != MathError.NO_ERROR) {\n            return (err0, Exp({mantissa: 0}));\n        }\n\n        // We add half the scale before dividing so that we get rounding instead of truncation.\n        //  See \"Listing 6\" and text above it at https://accu.org/index.php/journals/1717\n        // Without this change, a result like 6.6...e-19 will be truncated to 0 instead of being rounded to 1e-18.\n        (MathError err1, uint doubleScaledProductWithHalfScale) = addUInt(halfExpScale, doubleScaledProduct);\n        if (err1 != MathError.NO_ERROR) {\n            return (err1, Exp({mantissa: 0}));\n        }\n\n        (MathError err2, uint product) = divUInt(doubleScaledProductWithHalfScale, expScale);\n        // The only error `div` can return is MathError.DIVISION_BY_ZERO but we control `expScale` and it is not zero.\n        assert(err2 == MathError.NO_ERROR);\n\n        return (MathError.NO_ERROR, Exp({mantissa: product}));\n    }\n\n    /**\n     * @dev Multiplies two exponentials given their mantissas, returning a new exponential.\n     */\n    function mulExp(uint a, uint b) pure internal returns (MathError, Exp memory) {\n        return mulExp(Exp({mantissa: a}), Exp({mantissa: b}));\n    }\n\n    /**\n     * @dev Multiplies three exponentials, returning a new exponential.\n     */\n    function mulExp3(Exp memory a, Exp memory b, Exp memory c) pure internal returns (MathError, Exp memory) {\n        (MathError err, Exp memory ab) = mulExp(a, b);\n        if (err != MathError.NO_ERROR) {\n            return (err, ab);\n        }\n        return mulExp(ab, c);\n    }\n\n    /**\n     * @dev Divides two exponentials, returning a new exponential.\n     *     (a/scale) / (b/scale) = (a/scale) * (scale/b) = a/b,\n     *  which we can scale as an Exp by calling getExp(a.mantissa, b.mantissa)\n     */\n    function divExp(Exp memory a, Exp memory b) pure internal returns (MathError, Exp memory) {\n        return getExp(a.mantissa, b.mantissa);\n    }\n\n    /**\n     * @dev Truncates the given exp to a whole number value.\n     *      For example, truncate(Exp{mantissa: 15 * expScale}) = 15\n     */\n    function truncate(Exp memory exp) pure internal returns (uint) {\n        // Note: We are not using careful math here as we're performing a division that cannot fail\n        return exp.mantissa / expScale;\n    }\n\n    /**\n     * @dev Checks if first Exp is less than second Exp.\n     */\n    function lessThanExp(Exp memory left, Exp memory right) pure internal returns (bool) {\n        return left.mantissa < right.mantissa; //TODO: Add some simple tests and this in another PR yo.\n    }\n\n    /**\n     * @dev Checks if left Exp <= right Exp.\n     */\n    function lessThanOrEqualExp(Exp memory left, Exp memory right) pure internal returns (bool) {\n        return left.mantissa <= right.mantissa;\n    }\n\n    /**\n     * @dev returns true if Exp is exactly zero\n     */\n    function isZeroExp(Exp memory value) pure internal returns (bool) {\n        return value.mantissa == 0;\n    }\n}\n\n/**\n  * @title The Compound InterestRateModel Interface\n  * @author Compound\n  * @notice Any interest rate model should derive from this contract.\n  * @dev These functions are specifically not marked `pure` as implementations of this\n  *      contract may read from storage variables.\n  */\ninterface InterestRateModel {\n    /**\n      * @notice Gets the current borrow interest rate based on the given asset, total cash, total borrows\n      *         and total reserves.\n      * @dev The return value should be scaled by 1e18, thus a return value of\n      *      `(true, 1000000000000)` implies an interest rate of 0.000001 or 0.0001% *per block*.\n      * @param cash The total cash of the underlying asset in the CToken\n      * @param borrows The total borrows of the underlying asset in the CToken\n      * @param reserves The total reserves of the underlying asset in the CToken\n      * @return Success or failure and the borrow interest rate per block scaled by 10e18\n      */\n    function getBorrowRate(uint cash, uint borrows, uint reserves) external view returns (uint, uint);\n\n    /**\n      * @notice Marker function used for light validation when updating the interest rate model of a market\n      * @dev Marker function used for light validation when updating the interest rate model of a market. Implementations should simply return true.\n      * @return Success or failure\n      */\n    function isInterestRateModel() external view returns (bool);\n}\n\n/**\n  * @title The Compound Standard Interest Rate Model with pluggable constants\n  * @author Compound\n  * @notice See Section 2.4 of the Compound Whitepaper\n  */\ncontract WhitePaperInterestRateModel_V1 is InterestRateModel, Exponential {\n\n    event NewInterestParams(uint baseRatePerBlock, uint multiplierPerBlock);\n    event AdminTransferred(address _owner, address newOwner);\n\n    modifier onlyAdmin() {\n        require(admin == msg.sender, \"admin: caller is not the admin\");\n        _;\n    }\n\n    /**\n     * @notice Indicator that this is an InterestRateModel contract (for inspection)\n     */\n    bool public constant isInterestRateModel = true;\n\n    /**\n     * @notice The multiplier of utilization rate that gives the slope of the interest rate\n     */\n    uint public multiplier;\n\n    /**\n     * @notice The base interest rate which is the y-intercept when utilization rate is 0\n     */\n    uint public baseRate;\n    address public admin;\n\n    /**\n     * @notice The approximate number of blocks per year that is assumed by the interest rate model\n     */\n    uint public constant blocksPerYear = 2102400;\n\n    constructor(uint baseRate_, uint multiplier_) public {\n        baseRate = baseRate_;\n        multiplier = multiplier_;\n        admin = msg.sender;\n    }\n\n    enum IRError {\n        NO_ERROR,\n        FAILED_TO_ADD_CASH_PLUS_BORROWS,\n        FAILED_TO_GET_EXP,\n        FAILED_TO_MUL_UTILIZATION_RATE,\n        FAILED_TO_ADD_BASE_RATE\n    }\n\n    /*\n     * @dev Calculates the utilization rate (borrows / (cash + borrows)) as an Exp\n     */\n    function getUtilizationRate(uint cash, uint borrows) pure internal returns (IRError, Exp memory) {\n        if (borrows == 0) {\n            // Utilization rate is zero when there's no borrows\n            return (IRError.NO_ERROR, Exp({mantissa: 0}));\n        }\n\n        (MathError err0, uint cashPlusBorrows) = addUInt(cash, borrows);\n        if (err0 != MathError.NO_ERROR) {\n            return (IRError.FAILED_TO_ADD_CASH_PLUS_BORROWS, Exp({mantissa: 0}));\n        }\n\n        (MathError err1, Exp memory utilizationRate) = getExp(borrows, cashPlusBorrows);\n        if (err1 != MathError.NO_ERROR) {\n            return (IRError.FAILED_TO_GET_EXP, Exp({mantissa: 0}));\n        }\n\n        return (IRError.NO_ERROR, utilizationRate);\n    }\n\n    /*\n     * @dev Calculates the utilization and borrow rates for use by getBorrowRate function\n     */\n    function getUtilizationAndAnnualBorrowRate(uint cash, uint borrows) view internal returns (IRError, Exp memory, Exp memory) {\n        (IRError err0, Exp memory utilizationRate) = getUtilizationRate(cash, borrows);\n        if (err0 != IRError.NO_ERROR) {\n            return (err0, Exp({mantissa: 0}), Exp({mantissa: 0}));\n        }\n\n        // Borrow Rate is 5% + UtilizationRate * 45% (baseRate + UtilizationRate * multiplier);\n        // 45% of utilizationRate, is `rate * 45 / 100`\n        (MathError err1, Exp memory utilizationRateMuled) = mulScalar(utilizationRate, multiplier);\n        // `mulScalar` only overflows when the product is >= 2^256.\n        // utilizationRate is a real number on the interval [0,1], which means that\n        // utilizationRate.mantissa is in the interval [0e18,1e18], which means that 45 times\n        // that is in the interval [0e18,45e18]. That interval has no intersection with 2^256, and therefore\n        // this can never overflow for the standard rates.\n        if (err1 != MathError.NO_ERROR) {\n            return (IRError.FAILED_TO_MUL_UTILIZATION_RATE, Exp({mantissa: 0}), Exp({mantissa: 0}));\n        }\n\n        (MathError err2, Exp memory utilizationRateScaled) = divScalar(utilizationRateMuled, mantissaOne);\n        // 100 is a constant, and therefore cannot be zero, which is the only error case of divScalar.\n        assert(err2 == MathError.NO_ERROR);\n\n        // Add the 5% for (5% + 45% * Ua)\n        (MathError err3, Exp memory annualBorrowRate) = addExp(utilizationRateScaled, Exp({mantissa: baseRate}));\n        // `addExp` only fails when the addition of mantissas overflow.\n        // As per above, utilizationRateMuled is capped at 45e18,\n        // and utilizationRateScaled is capped at 4.5e17. mantissaFivePercent = 0.5e17, and thus the addition\n        // is capped at 5e17, which is less than 2^256. This only applies to the standard rates\n        if (err3 != MathError.NO_ERROR) {\n            return (IRError.FAILED_TO_ADD_BASE_RATE, Exp({mantissa: 0}), Exp({mantissa: 0}));\n        }\n\n        return (IRError.NO_ERROR, utilizationRate, annualBorrowRate);\n    }\n\n    /**\n      * @notice Gets the current borrow interest rate based on the given asset, total cash, total borrows\n      *         and total reserves.\n      * @dev The return value should be scaled by 1e18, thus a return value of\n      *      `(true, 1000000000000)` implies an interest rate of 0.000001 or 0.0001% *per block*.\n      * @param cash The total cash of the underlying asset in the CToken\n      * @param borrows The total borrows of the underlying asset in the CToken\n      * @param _reserves The total reserves of the underlying asset in the CToken\n      * @return Success or failure and the borrow interest rate per block scaled by 10e18\n      */\n    function getBorrowRate(uint cash, uint borrows, uint _reserves) public view returns (uint, uint) {\n        _reserves; // pragma ignore unused argument\n\n        (IRError err0, Exp memory _utilizationRate, Exp memory annualBorrowRate) = getUtilizationAndAnnualBorrowRate(cash, borrows);\n        if (err0 != IRError.NO_ERROR) {\n            return (uint(err0), 0);\n        }\n\n        // And then divide down by blocks per year.\n        (MathError err1, Exp memory borrowRate) = divScalar(annualBorrowRate, blocksPerYear); // basis points * blocks per year\n        // divScalar only fails when divisor is zero. This is clearly not the case.\n        assert(err1 == MathError.NO_ERROR);\n\n        _utilizationRate; // pragma ignore unused variable\n\n        // Note: mantissa is the rate scaled 1e18, which matches the expected result\n        return (uint(IRError.NO_ERROR), borrowRate.mantissa);\n    }\n\n    function transferOwnership(address _newAdmin) public onlyAdmin {\n        require(_newAdmin != address(0), \"Ownable: new owner is the zero address\");\n        emit AdminTransferred(admin, _newAdmin);\n        admin = _newAdmin;\n    }\n\n    function setUtilizationRate(uint newMultiplier) public {\n        require(msg.sender == admin, \"WhitePaperInterestRateModel::setPendingAdmin: Call must come from WhitePaperInterestRateModel.\");\n\n        multiplier = newMultiplier;\n    }\n\n    function setBaseRatePerBlock(uint newBaseRate) public {\n        require(msg.sender == admin, \"WhitePaperInterestRateModel::setPendingAdmin: Call must come from WhitePaperInterestRateModel.\");\n\n        baseRate = newBaseRate;\n    }\n}",
  "sourcePath": "C:\\Users\\Ivan\\Desktop\\work\\Compound_fork\\compoundv2\\contracts\\WhitePaperInterestRateModel_V1.sol",
  "compiler": {
    "name": "solc",
    "version": "0.5.17+commit.d19bba13.Emscripten.clang"
  },
  "schemaVersion": "3.1.0",
  "updatedAt": "2020-06-03T15:07:22.870Z",
  "networkType": "ethereum",
  "devdoc": {
    "author": "Compound",
    "methods": {
      "getBorrowRate(uint256,uint256,uint256)": {
        "details": "The return value should be scaled by 1e18, thus a return value of     `(true, 1000000000000)` implies an interest rate of 0.000001 or 0.0001% *per block*.",
        "params": {
          "_reserves": "The total reserves of the underlying asset in the CToken",
          "borrows": "The total borrows of the underlying asset in the CToken",
          "cash": "The total cash of the underlying asset in the CToken"
        },
        "return": "Success or failure and the borrow interest rate per block scaled by 10e18"
      }
    },
    "title": "The Compound Standard Interest Rate Model with pluggable constants"
  },
  "userdoc": {
    "methods": {
      "getBorrowRate(uint256,uint256,uint256)": {
        "notice": "Gets the current borrow interest rate based on the given asset, total cash, total borrows        and total reserves."
      }
    },
    "notice": "See Section 2.4 of the Compound Whitepaper"
  }
}